:100000000C94A8110C94D0110C94D0110C94D01114
:100010000C94D0110C94D0110C94D0110C94D011DC
:100020000C94D0110C94D0110C94D0110C94D011CC
:100030000C94D0110C94D0110C94D0110C94D011BC
:100040000C94D0110C9418310C94D0110C94D01144
:100050000C94D0110C94D0110C94D0110C946E30DF
:100060000C94D0110C94D0110C94D0110C94D0118C
:100070000C94D0110C94D0110C94D0110C94D0117C
:100080000C94B8300C94D0110C94D0110C94D01165
:100090000C94D0110C94D0110C94D0110C94D0115C
:1000A0000C94D0110C94D0110C94D0110A596F7586
:1000B000722063686F696365206F662072756E6574
:1000C000737E0777696C6C2073656C65637420645C
:1000D0006966666572656E747E0C636F75727365B2
:1000E00073202E2E20736F6D65206172657E0D6505
:1000F0006173696572207468616E206F74686572DF
:10010000732107436F6D7065746520696E20746894
:100110006520747269616C737E06746F2073656507
:1001200020686F772066617220796F752063616E39
:100130007E0B67657420616E6420796F7520636F34
:10014000756C642062657E197468617420636861EF
:100150006D70696F6E210345616368207965617216
:10016000207468652070656F706C65206F667E74A2
:1001700068652076696C6C6167652063686F6F7372
:10018000652061206E65777E0C6368616D70696FB4
:100190006E20746F2070726F746563747E0F746864
:1001A000656D2066726F6D2041737461726F6B2E86
:1001B0000E0D00E010FC02297D69B901827C8000EF
:1001C00002050814001F07070700011C0700008034
:1001D0007C8201B9697D2902FC10E00000071C0146
:1001E000000707071F00140805020E0D00F0087C29
:1001F00002297D69B90142BC00000102041A001FF6
:1002000007071F0003180F000000BC4201B9697DF9
:1002100029027C08F000000F1803001F07071F00C9
:100220001A0402010E0D8078043C02297D69B9018F
:10023000C23C00000001021D000707071F00061155
:100240001E0000003CC201B9697D29023C0478808F
:10025000001E1106001F070707001D0201000E0DFA
:1002600000F0087C02297D69B90142BC000001024E
:10027000041A001F07071F0003180F000000BC42EC
:1002800001B9697D29027C08F000000F1803001FE6
:1002900007071F001A04020100E0F0FCFEFFFFFF49
:1002A000FFFFFEFC800002070F1F1F1F1F1F1F1FE5
:1002B0001F1F07000080FCFEFFFFFFFFFFFEFCF09A
:1002C000E00000071F1F1F1F1F1F1F1F1F0F070218
:1002D00000F0F8FCFEFFFFFFFFFFFEBC0000010383
:1002E000071F1F1F1F1F1F1F1F1F0F000000BCFE27
:1002F000FFFFFFFFFFFEFCF8F000000F1F1F1F1F96
:100300001F1F1F1F1F07030180F8FCFCFEFFFFFFDC
:10031000FFFFFE3C00000001031F1F1F1F1F1F1FC8
:100320001F1F1E0000003CFEFFFFFFFFFFFEFCFC46
:10033000F880001E1F1F1F1F1F1F1F1F1F0301000C
:1003400000F0F8FCFEFFFFFFFFFFFEBC0000010312
:10035000071F1F1F1F1F1F1F1F1F0F000000BCFEB6
:10036000FFFFFFFFFFFEFCF8F000000F1F1F1F1F25
:100370001F1F1F1F1F0703010E0D00E010F804527E
:10038000FAD272028478000002050814001E0606E4
:100390001F0006111E00000078840272D2FA520477
:1003A000F810E000001E1106001F06061E001408CB
:1003B00005020E0D00F0087C0452FAD2720204F815
:1003C00000000102041A001E06061F0003180F0099
:1003D0000000F8040272D2FA52047C08F000000F08
:1003E0001803001F06061E001A0402010E0D00F07D
:1003F000087C02297D69B90142BC00000102041A8F
:10040000001F07071F0003180F000000BC4201B9BE
:10041000697D29027C08F000000F1803001F070700
:100420001F001A04020100E0F0F8FCFEFEFEFEFED2
:10043000FC78000002070F1F1F1F1F1F1F1F1F1F19
:100440001E00000078FCFEFEFEFEFEFCF8F0E00060
:10045000001E1F1F1F1F1F1F1F1F1F0F070200F05F
:10046000F8FCFCFEFEFEFEFEFCF800000103071F88
:100470001F1F1F1F1F1F1F1F0F000000F8FCFEFE85
:10048000FEFEFEFCFCF8F000000F1F1F1F1F1F1FC9
:100490001F1F1F07030100F0F8FCFEFFFFFFFFFF17
:1004A000FEBC00000103071F1F1F1F1F1F1F1F1F70
:1004B0000F000000BCFEFFFFFFFFFFFEFCF8F00096
:1004C000000F1F1F1F1F1F1F1F1F1F0703010F0FDD
:1004D0000002000000000000000000000204000014
:1004E00008100000000000000000000020000205CD
:1004F00002000000000000000002050A04081428A1
:100500001000000000000000002050200F0F00002D
:10051000020600000000000000060A0C00000C1497
:10052000180000000000001028100000000205095B
:10053000060000000000060915120C0C122A2438CF
:10054000000000001028542810000F0F00000C12AB
:100550001A04000000040A12120C00000609110A15
:1005600004000000081422120C00000C92AD251AA1
:100570000400040A152D2D120C0609162E150A0466
:100580000008142A5D2D120C0F0F000080982424FF
:10059000120C00081422120C0000030408090600C3
:1005A0000C1221120C00010000805864DA5A2D123E
:1005B0000C942A5D2D920C03040B1716090E122DB4
:1005C0005E2D120D02010F0F00C02018240402023C
:1005D000020A040408F00000030408081420202084
:1005E00021120C020100C020D8E4DAFAFDFDFDF56D
:1005F000FAFAF408F003040B17172B5F5F5F5E2D08
:10060000130D02010F0F0000000080601010302059
:10061000C00000000000000000010202040402010A
:1006200000000000000000806090E8E8C8D020C012
:10063000000000000000010205050B0B050201008F
:1006400000000F0F000000000000C02020C00000CC
:100650000000000000000000000001010000000098
:1006600000000000000000C020D0D020C00000002A
:100670000000000000000001020201000000000074
:10068000020702000000000000000002070E04083C
:100690001C38100000000000000000207020000244
:1006A000070F060000000000070F1F1E1C0E1E3E55
:1006B0003C380000000010387C381000000C9EBF51
:1006C0003F1E0400040E1F3F3F1E0C060F1F3F1F5E
:1006D0000E0400081C3E7F3F1E0C0080D8FCFE7EEE
:1006E0003F1E0C9C3E7F3F9E0C03070F1F1F0F0EEB
:1006F0001E3F7F3F1E0D0301C0E0F8FCFEFEFFFF22
:10070000FFFFFEFEFCF8F003070F1F1F3F7F7F7FF8
:100710007F3F1F0F030100000080E0F0F8F8F8F0C1
:10072000E0C0000000000000010307070F0F0703EF
:10073000010000000000000000C0E0F0F0E0C00098
:1007400000000000000000000001030301000000A1
:1007500000000808FF81A58181A581FF0808FF81AD
:1007600085B5959D81FF0C0C7C8201110902020167
:100770000101827C0000010204080804020100005B
:1007800010100000C020109008081008049444388D
:100790000200001E214C565E4C212420100C030048
:1007A00000000C0CF804FACDBDCDFD7D7D3A04F8B7
:1007B00001020508090809080A050201F8043A7D42
:1007C0007DFDCDBDCDFA04F80102050A080908092E
:1007D000080502010C0C004C904CB69E9EB64C9045
:1007E0004C000000040300020200030400000C0C93
:1007F0000000C0986C5C6CBCD8C000000007090603
:1008000009010309060907000000C0D8BC6C5C6C34
:1008100098C000000007090609030109060907003E
:100820007CFEFFFFFFFEFEFFFFFFFE7C00000103DA
:10083000070F0F070301000000C0E0F0F8F8FCFC10
:10084000F8FCFEFEFE7E3F021E3F7FFFFFFFFF7FA4
:100850007F7F3F1F0F030000F8FCFEFFFFFFFFFF3D
:10086000FFFEFCF80103070F0F0F0F0F0F07030127
:10087000F8FCFEFFFFFFFFFFFFFEFCF80103070F80
:100880000F0F0F0F0F0703014CFEFCFEFFFFFFFFD2
:10089000FEFCFE4C000C0F0703070703070F0C00BC
:1008A00000C0F8FCFEFEFEFEFCF8C000070F0F0FB4
:1008B0000F0F0F0F0F0F0F0700C0F8FCFEFEFEFE1C
:1008C000FCF8C000070F0F0F0F0F0F0F0F0F0F07D0
:1008D000D5F08D14A1C881CFD9F1AF20000C0C0048
:1008E00000F0F8FCFCFCFCF8F00000000000010344
:1008F00003030301000000000000F0F8FCFCF8F026
:1009000000000000000000010303010000000000DF
:10091000000000F0FCFCF0000000000000000000FF
:1009200003030000000000000000F0F8FCFCF8F0F9
:100930000000000000000001030301000000000CA3
:100940000C0000F008F4B494F408F000000000007B
:10095000010202020201000000000000F008F4B4ED
:1009600008F0000000000000000102020100000089
:100970000000000000F0FC0CF0000000000000008F
:10098000000003030000000000000000F00894F4E1
:1009900008F0000000000000000102020100000059
:1009A000000E00000000007CFEFFFFFFFEFEFFFFC8
:1009B000FFFE7C00000103070F0F07030100000C7E
:1009C0000C7C820111090202010101827C000001FC
:1009D0000204080804020100000500010000009064
:1009E000320032903A003290440032904800328017
:1009F000F002020303FCFEFFFFFFFFFFFFFFFFFF0C
:100A0000FFFFFFFFFFFFFFFFFFFFFFFFFFFFFFFFF6
:100A1000FFFFFFFFFFFFFFFFFFFEFC03070F0F0FAE
:100A20000F0F0F0F0F0F0F0F0F0F0F0F0F0F0F0FD6
:100A30000F0F0F0F0F0F0F0F0F0F0F0F0F0F0F07CE
:100A400003260CFC02F905050D0505050D05050538
:100A50000D0505050D0D0D0D0505050D0505050D0E
:100A60000505050D0505F902FC0304090A0A0B0A30
:100A70000A0A0B0A0A0A0B0A0A0A0B0B0B0B0A0AD0
:100A80000A0B0A0A0A0B0A0A0A0B0A0A090403805B
:100A9000C0E0E0E0F0FCFEFFFEFCE0E0E0E0E0E0D3
:100AA000E0E0E0E0E0E0C0C0E0E0E0E0E0E0E0E086
:100AB000E0E0E0E0E0E0C0C0E0E0E0E0E0C08000D6
:100AC0000080C0E0E0E0E0E0E0E0E0E0E0E0C0C0C6
:100AD000E0E0E0E0E0C0E0E0E0E0E0C0E0E0E0E056
:100AE000E0E0E0E0C0C0E0E0E0E0E0E0E0E0C080C6
:100AF000000003070F0FFFFFFFFFFFFF7F0F07FF40
:100B0000FFFFFFFFFFFFFFFFFFFFFFFFFFFFFFFFF5
:100B1000FFFFFFFFFFFFFFFFFFFFFFFFFFFFFF07DD
:100B2000000000FFFFFFFFFFFFFF0FFFFFFFFFFFC2
:100B3000FFFFFFFFFFFFFFFFFFFFFFFFFFFFFFFFC5
:100B4000FFFFFFFFFFFF77FFFFFFFFFFFFFFFFFF3D
:100B5000FF7F3F0000000000FFFFFFFFFFFF0000DE
:100B60000001FFFFFFFFFF7FFFFFFFE3FFFFFFFF2E
:100B7000FF1F3F7FFFFFFFFF7F3F0F071F7FFFFF2D
:100B8000FFFCE08000037FFFFFFFFFFF80FFFFFF10
:100B9000FFFF3F070F1F3F7FFFFFFF7F3F1F0F0339
:100BA000070F1F3F7FFFFEF0E041FFFFFFFFFF7FCA
:100BB000FFFFFFE080000000000000FFFFFFFFFFDD
:100BC0000000000003070F070300000103017FFF7F
:100BD000FFFF7F0000000001010000000000000096
:100BE000000103070F1F0E0400030F7FFFFFFFFF2D
:100BF000FF7F0F0100000000000000010000000066
:100C000000000000000000000001000003070F07C3
:100C100003000001030100000000000000070F1F97
:100C20000F070000000000000000000000000000AE
:100C300000000100000000000000000000000000B3
:100C400000000000000000000000000000000001A3
:100C50000301000000000000000000000000000090
:100C60000000000000000000000000000000000084
:100C700000000000000000000062250080404040AD
:100C800040700C021C6040404040404040404040AA
:100C900040408000C0404040C04040404040404054
:100CA0004040808040404040408000000000804044
:100CB00040404040404040404040808040404040B4
:100CC00040804040404040804040404040404040A4
:100CD0008080404040404040404080000000000391
:100CE000040404FC0000807C04040201FF000000F6
:100CF000FC241880403FFF000000FF0300B02C22BE
:100D00002CB000000FFC030000F8070000000000FA
:100D1000FF000000FC040404FC000000FFFE0100D2
:100D200000F00E010EF0000003FF8000001CD45400
:100D300054542300FF000000FC3C0080403F0000B2
:100D40000000000000FF0000FF000000000001FEA6
:100D500000FE0718609F608003FC00F8070C102756
:100D600059A1B14F30080701061860831C6080004C
:100D70000000037C80007F8000807F00C03C030077
:100D80000608102344884423100C030001060810B1
:100D9000234C50A0400001FE00FE0718609F6080B9
:100DA0000000000000000000FF00FF000000000045
:100DB00000030403000000000100007F807F0000AA
:100DC0000000000000000000000000000000010220
:100DD000050A04000000030C708F708F700E010074
:100DE0000000000000000000000000000000000003
:100DF00000000000000000000003040300000000E9
:100E000001000000000000000000070807000000CB
:100E100000000000000000000000000000000000D2
:100E200000000000000000000000000000000000C2
:100E300000000000000000000000000001000000B1
:100E400000000000000000000000000000000000A2
:100E50000000000000000000000000000000000092
:100E600000000000009034011B9140008D81008D36
:100E70009142008D81008D9140008D81008D9143C4
:100E8000008D81008D9142008D81008D9140008DFB
:100E900081008D9142008D8081008D9032011B91E7
:100EA00040008D81008D9142008D81008D91400028
:100EB0008D81008D9143008D81008D9142008D8147
:100EC000008D9140008D81008D9142008D81008DBB
:100ED000913080011B9040008D80008D9042008DEC
:100EE00080008D9040008D80008D9043008D8000AB
:100EF0008D9042008D80008D9040008D80008D90FF
:100F000042008D80008D903281011B9140008D81C7
:100F1000008D9142008D81008D9140008D81008D6A
:100F20009147008D81008D9145008D81008D914309
:100F3000008D81008D9142008D81008D80E0140B29
:100F4000070387C3E244A347A347A703070387C355
:100F5000E244A34705020401000402050205020061
:100F600005020401000402051A2400000000FEFC32
:100F7000DC2C36F616EE767AFA7A7AF2E60E16F669
:100F8000362CDCFC00181810939716D595D694C310
:100F90008FC68DC78EC391D090D191D596D70000C2
:100FA0000000FFFF00FF6262626A62626A62626A58
:100FB000E2622AA2A2AAA26200000000FFFF00FFD4
:100FC000FFFFE363636341E3F7FF01FC03000000FD
:100FD0000000000000000F0F000F0F0708050F05AD
:100FE0000304030F000F00000000000004081E3F70
:100FF000211E223E3F203229253212253F1A0C2A7B
:101000003F2C17253D181E3F251823393D231A254F
:101010002D1A062F291E0305110005330B0301FFAE
:101020000103FE0101FE01FF21211E00000002015B
:101030002121DE0000000301FF010301FF2121DE69
:101040000001FF0100FE2121FE00FF00001E31C74C
:101050000004070400030404030407040000000064
:101060000002040404030000000004070400040755
:101070000400030404070400070000070007040439
:1010800006040304083E09093E3F25251A1E2121B6
:10109000123F21211E3F2525213F0505011E212943
:1010A0003A3F04043F213F21001021211F3F040A41
:1010B000313F2020203F02023F3F02043F1E2121FA
:1010C0001E3F0909061E21112E3F0909362225253A
:1010D00019013F01011F20201F0F10201F3F10107A
:1010E0003F3B04043B03043807312D2321102A2AF7
:1010F0003C3F2424181C2222141824243F1C2A2A92
:101100002C047E05014C52523E3F040438243D20FD
:10111000004040443D3F081422213F20003E04048B
:101120003E3E04023C1C22221C7E22221C1C222247
:101130007E3E040204242A2A12021F22201E20209E
:101140001E0E10201E3E10103E360808364E50501F
:101150003E322A26221E29251E223F20003229291E
:10116000261221251A0C0A3F08172525191E2525A8
:1011700018013905031A25251A0629291E002F00F2
:101180000000200000000000009032001480F007F2
:10119000030103070305020107030406070605020E
:1011A000040508EDF6C9F6EDFDFDC0EFEFFCFBC050
:1011B000FBFCFDC1FEC1FDF7EFC0FDFBFDFBC4FB69
:1011C000FD0C0EFC02F9FDFDFDFDFDF90102FC0F19
:1011D00010272F2F2F2F2F2720100F00FC02F90D83
:1011E0002DFDF90102FC00000F10272E2C2F2720C7
:1011F000100F000000FC02F90DF90102FC000000D4
:10120000000F10272C2720100F0000000000FC0208
:10121000F90102FC0000000000000F102720100F51
:1012200000000000000000FE0101FE0000000000C0
:101230000000001F20201F00000000000000FC0232
:1012400001F902FC0000000000000F102027100F21
:101250000000000000FC0201F9FDF902FC000000A2
:10126000000F1020272F27100F000000FC0201F9AB
:10127000FDFDFDF902FC00000F1020272F2F2F2766
:10128000100F00FC0201F9FDFDFDFDFDF902FC0F50
:101290001020272F2F2F2F2F27100FFC02F9FDFDD5
:1012A000FDFDFDFDF902FC0F10272F2F2F2F2F2FF3
:1012B00027100F00FC02F9FDFDFDF90102FC000002
:1012C0000F10272F2F2F2720100F000000FC02F9EE
:1012D000FDF90102FC000000000F10272F2720104D
:1012E0000F0000000000FC02F90102FC00000000F9
:1012F00000000F102720100F00000000000000FE6B
:101300000101FE00000000000000001F20201F005F
:10131000000000000000FC0201F902FC00000000D7
:1013200000000F102027100F0000000000FC020139
:10133000F90DF902FC000000000F1020272C2710E7
:101340000F000000FC0201F9FD0D2DF902FC000068
:101350000F1020272F2E2C27100F000708A080B079
:1013600088AA80FF070805010D115501FF0708FF36
:1013700080AA88B080A00708FF0155110D01053B28
:101380000B01FF21710301FF06186081FF010301BA
:10139000FF010301FF21710301FF2121DE00000095
:1013A000000001FF2121DE01FF0000FF01FF061800
:1013B0006081FF01FF2171030E1121C7040704049E
:1013C00007040700000005070400040704000407E1
:1013D00004040704070400030400000000040704D9
:1013E00000030403040403040700000005070407C6
:1013F000040406020404030208D4D205087F7F3ED9
:101400001C084120FE0105F1F1F111D1B1D111F11A
:10141000515151515151515151515151515100005E
:10142000FF00007F7F09090F06007F7F19396F4693
:10143000007F7F4949414100266F49497B320026A0
:101440006F49497B32FF0000FFFFFFFEFFFEFF02F6
:1014500079CD95A5CD790111111101F9F90101009D
:1014600000FF00007F7F09090F06007F7F4040409A
:1014700040007C7E0B0B7E7C00070F78780F070006
:10148000000000000000FF00001F3F3F33333333F4
:10149000333E36363E363E363E36363E36363E36BF
:1014A0000000FF00003E7F41417F3E007F7F0E1C19
:1014B0007F7F00000000000000000000000000002E
:1014C000000000000000003F40504040407846418E
:1014D000415959414141415959414141414141419C
:1014E0004100007F000001017F7F0101007C7E0B35
:1014F0000B7E7C007F7F09090F06007F7F494941F1
:101500004100000000000000060C4090BA9C904092
:1015100004000A0A00044098B8B5984004000A0A7A
:10152000000440909CBA904004000A0A00044098CD
:10153000B5B8984004000A0A0004120B001000100D
:101540001090100017001D1810101010101000003F
:101550000000000706040404040404000400000062
:10156000091000382844FE000000000000000000C0
:10157000000000007C7CFEFFFFFFFFFFFF0000007B
:1015800001010101010109100038387CFE0054926C
:10159000000000000000000000001C040102020224
:1015A0000202020202040200060D0F0600020402FB
:1015B0000202020202020201030C668833060803DB
:1015C0004F35000000000000000000000000000097
:1015D000000000000000000000008040A05028D45F
:1015E000EA723A9A9A1232F5E191E1F234129A9A39
:1015F0003A72EAD42850A0408000000000000000A9
:1016000000000000000000000000000000000000DA
:101610000000000000008040C08000000C04FC04BA
:101620000C04FC8484FC0404FC85C40C0100010D42
:1016300004FD040C05FC8485780104FC0500F88594
:1016400084F901FC010078C51C000000F80404F8CE
:101650000004FC84C40C00008040C0800000000036
:10166000008080808081838381808080909F9080B3
:10167000909F90909F90909F90919C808080809070
:101680009F9080909F90808F90909F90809F80806F
:101690009F809F909098908F8080808F90908F8077
:1016A000909F9081808080818383818080800001F1
:1016B0000000F8FC7C1C3CFCFCF80000008C1C1CAE
:1016C0001C1474E4E4C40004040CFCFCFC0C0404CE
:1016D0000000F4FC3C1C1C7CFCFCC40004FCFC1C56
:1016E0001C1CFCF8300000F8FC3C1C1C7CFCF800C6
:1016F0000004FCFCFC000084FCFC04000001000071
:1017000000FF0700181818FFFF000000031F3F63C9
:10171000C30207070100000000FFFF0F00000000E8
:10172000000F31C30303017F0F07000001FF000C0E
:101730003FF3000000001F3F40C040203F1F00005B
:1017400000FFFF7F187EFF03000000000000000084
:101750000007080000807F03000000000000000078
:101760000000000000000000000700000000000072
:101770000000000000000000000000000700000062
:101780000003000000000000000000000000000056
:10179000010F000000011F78C000000000000000E1
:1017A0000000000001000000000000121509000206
:1017B0000F12000C121E001E020600020F12000083
:1017C0000000000000000000121509000C121200B9
:1017D0001E121E001E0206000C1A140014120A002B
:1017E00000000000000000000100000C0C0000F0F0
:1017F00008F4B494F408F0000000000001020202B2
:101800000201000000000000F008F4B408F000003D
:1018100000000000000102020100000000000000C2
:1018200000F0FC0CF00000000000000000000303CA
:101830000000000000000000F00894F408F0000030
:10184000000000000001020201000000000C0C007A
:1018500000F0F8FCFCFCFCF8F000000000000103C4
:1018600003030301000000000000F0F8FCFCF8F0A6
:101870000000000000000001030301000000000060
:10188000000000F0FCFCF000000000000000000080
:1018900003030000000000000000F0F8FCFCF8F07A
:1018A0000000000000000001030301000000005ED2
:1018B000022402EA01B00140030803D0029802ECBE
:1018C00003B203780396045E04260440FCFEFEFE89
:1018D000FFFFFFFFFFFEBC00000000011F1F1F1FD6
:1018E0001F1F1F1F1F0F000000BCFEFFFFFFFFFF99
:1018F000FEFEFEFC40000F1F1F1F1F1F1F1F1F1F8C
:101900000100000E1040BC029E02193D35B9014293
:10191000BC00000000011E000F07071F0003180F86
:10192000000000BC4201B9353D19029E02BC4000D6
:101930000F1803001F07070F001E01000000000022
:1019400000240027002A002D0030000000000025A0
:101950000028002B002E00310004080201104080F6
:101960004010204080408008020401804020100286
:1019700001108010204040200404040404030405E6
:10198000020202020403020202020606060606061C
:101990000404020202040406011501260137014A6B
:1019A000015D01720188019F01B801D201EE010BB6
:1019B000022A024B026E029302BA02E40210033FB3
:1019C000037003A403DC03170455049704DD042704
:1019D000057505C80520067D06E0064907B8072DF0
:1019E00008A9082D09B9094D0AEA0A900B400CFA1A
:1019F0000CC00D910E6F0F5A1053115B1272139A97
:101A000014D41520178018F519801B231DDE1EB471
:101A100020A622B524E4263429A72B402E0031EA43
:101A2000330037453ABC3D68414C456B49C84D6869
:101A3000524F57805C006210111213151617181AB6
:101A40001C1D1F21232527292C2E3134373A3E41D6
:101A500045494E52575C62686E757B838B939CA59B
:101A6000AFB9C4D0DCE9F704081E3F211E223E3F77
:101A7000203229253212253F1A0C2A3F2C17253DEA
:101A8000181E3F251823393D231A252D1A062F2904
:101A90001E0706060F1F3E1F0F0606091122110919
:101AA00006031002FC0000FF00FFFFFE50A0408074
:101AB0000000000000000000000000000000000026
:101AC0000000000000FFFFFFFDFEFDFEFDFEFCFC30
:101AD000FCFCFCFCFCFCFCFCFCFCFCFCFCFCFCFC46
:101AE000FCFFFFFFFFFFFFFFFFFFFFFFFFFFFFFF09
:101AF000FFFFFFFFFFFFFFFFFFFFFFFFFFFFFFFFF6
:101B0000FFFFFFFFFFFFFFFFFFFFFFFFFFFFFFFFE5
:101B1000FFFFFFFFFFFFFFFFFF0F0F0F0F0F0F0F65
:101B20000F0F0F0F0F0F0F0F0F0F0F0F0F0F0F0FC5
:101B30000F0F0F0F0F1C24FE0000A04080000000BC
:101B40000000000000000000000000000000000095
:101B500000000093D090DA1B9A991A1800C080C038
:101B600080C080C080C0800000000000C0C000EACB
:101B70006262FF00FFFF000000DDCCCCCCCCCCCCFF
:101B8000CCCCCC00C0000000FFFF0001FF77FF00BD
:101B9000FFFF000000DDCCCCCCCCCCCCCCCCCC003E
:101BA000CC000000FFFF00000F0F0F000F0F000020
:101BB000000D0C0C0C0C0C0C0C0C0C000C000000A0
:101BC0000F0F0042060406C60588054A050C05CE1F
:101BD0000434071607F806DA06BC069E068006805F
:101BE000C0E0E0E0E0F0F8FCFEFEFEFFFFFFFFFEDD
:101BF000FEFEFEFEFCF8E00F3F3F3F3F3F3F3F3F12
:101C00003F3F3F3F3F3F3F3F3F3F1F1F0F070318EF
:101C10000E8040A0A0A0A090A8948A8A8A058585FD
:101C2000854A6A3A1A0AC418E00F300E30031714B6
:101C3000171310001E300000300E0032121108047D
:101C400003C0F0F8FCFEFFFFFEFEFEFEFEFEFFFFFF
:101C5000FEFCF8F0C01F7F7F7F7F7F7F7F7F7F7FCD
:101C60007F7F7F7F7F7F7F7F1F140FC030C8F41A74
:101C7000656D6A6A2ACAF23A050532C40830C01F87
:101C8000601D61072F292F2721013D600001611D83
:101C900000601F0C0C0000F008F4B494F408F0008D
:101CA000000000000102020202010000000000002A
:101CB000F008F4B408F00000000000000001020287
:101CC000010000000000000000F0FC0CF00000002B
:101CD00000000000000003030000000000000000FE
:101CE000F00894F408F00000000000000001020277
:101CF00001000000000C0C0000F0F8FCFCFCFCF8FB
:101D0000F0000000000001030303030100000000D5
:101D10000000F0F8FCFCF8F00000000000000001FA
:101D20000303010000000000000000F0FCFCF000D4
:101D3000000000000000000003030000000000009D
:101D40000000F0F8FCFCF8F00000000000000001CA
:101D500003030100000000F0F8F8F8F8FEFFFFFEB2
:101D6000F8F8F8F8F8F8600707070707FFFFFFFF24
:101D7000070707070703001010F0084848484E0DF2
:101D80004F0E4848080898F8600704050405FD0D43
:101D9000FDFC0504040407030000F0B0B0B0B0F28D
:101DA000B0F0B0B0F0F0600000000302030202F2F5
:101DB0000203020303030000000D10FC02A9DDFD75
:101DC000FDFD7D8181010101FF00AFDFFFFFFFF01D
:101DD00004078000A0000000FFFFFEFEFEFFFFFFE3
:101DE000FFFFFFFFFFFFFFFFFFFFFFFFFEFEFE3CC9
:101DF0003C3CFFFFFFFFFFFFFFFFFFFFFFFFFFFF79
:101E0000FFFFFFFFFFFFFFFFFF000000FFFFFFFFDF
:101E1000FFFFFFFFFFFFFFFFFFFFFFFFFFFFFFFFD2
:101E2000FFFFFF000000FFFFFFFFFFFFFFFFFFFFBF
:101E3000FFFFFFFFFFFFFFFFFFFFFFFFFF000000AF
:101E40000F0F0F0F0F0F0F0F0F0F0F0F0F0F0F0FA2
:101E50000F0F0F0F0F0F0F1A2400000000FEFCDC05
:101E60002C36F616EE767AFA7A7AF2E60E16F63610
:101E70002CDCFC00181810939716D595D694C38FB8
:101E8000C68DC78EC391D090D191D596D700000052
:101E900000FFFF00FF6262626A62626A62626AE277
:101EA000622AA2A2AAA26200000000FFFF00FFFFB8
:101EB000FFE363636341E3F7FF01FC0300000000FD
:101EC00000000000000F0F000F0F0708050F0503AB
:101ED00004030F000F000000000000EE07EE07D41F
:101EE00007A207800766075C0752075C071B1FA055
:101EF00008A0088808580838082008031F031F0393
:101F00001F031FFFFFFFFFFFFFFFFFFFFFFFFF0F8D
:101F10000F0F0F0F0F0F0F0F0F0F0F0C0C008CC6B2
:101F2000E262C2E2E2C68A60000001030707060718
:101F3000030502010019A6BE5E3EFE7E7E6E76EEB1
:101F400001040202040408050D050D0400FEFFFF54
:101F5000FFFFFFFFFFFFFFFFFE0003070F0F070755
:101F60000F0F0703000C0C007AB676B676BA7ABA71
:101F70007A360000000000000000000000000006AB
:101F80000C4090BA9C904004000A0A00044098B8A3
:101F9000B5984004000A0A000440909CBA9040049E
:101FA000000A0A00044098B5B8984004000A0A00E4
:101FB00004120B001000101090100017001D1810D4
:101FC00010101010100000000000070604040404A4
:101FD00004040004000000030C6688330608034074
:101FE00018AA00AA00AA01AB07AF1FBF7FBF7FFFDF
:101FF000FFFF7FFF7FFF7FBF1FBF1FAF07AB03AB9D
:1020000007AF1FBF7FBF7FFFFFFFFFFFFFFFFFFF88
:102010007FBF7FFF7FFF7FBF1FBF1FAF07AB01AA3F
:1020200000AAFDAAFDAAFDAAFDAAFDAAFDAAFDAA75
:10203000FDAAFDAAFDAAFDAAFDAAFDAAFDAAFDAA68
:10204000FDAAFDAAFDAAFDAAFDABFDABFDABFDAA55
:10205000FDAAFDAAFDAAFDAAFDAAFDAAFDAAFDAA48
:10206000FDFBFFFEFFFBFFFEFFFBFFFEFFFBFFFE96
:10207000FFFBFFFEFFFBFFFEFFFBFFFEFFFBFFFE84
:10208000FFFBFFFEFFFBFFFEFFFBFFFEFFFBFFFE74
:10209000FFFBFFFEFFFBFFFEFFFBFFFEFFFBFFFE64
:1020A000FF0E0F0F07040400040200070F0F0E04B9
:1020B00004000204000707070303000200904E001B
:1020C00046905300469066004680F0906E00329035
:1020D00068003290620032905C003290560032907C
:1020E000500032904A003290440032903E0032005C
:1020F00014903E00320014903E00320014903E00D6
:102100003280F09044003290490032904E0032907C
:1021100053003280F0903C001480F000C0F8FCFEC8
:10212000FEFEFEFCF8C000070F0F0F0F0F0F0F0F82
:102130000F0F0700C0F8FCFEFEFEFEFCF8C0000713
:102140000F0F0F0F0F0F0F0F0F0F070C0C0000C01A
:10215000986C5C6CBCD8C00000000709060901033C
:1021600009060907000000C0D8BC6C5C6C98C00070
:10217000000007090609030109060907000000001D
:10218000000000904E001E9053001E9058001E90BC
:102190005D001E80F00070FCFEFFFFFFFFFEFC7084
:1021A000000000010B011703010B0100000080E09B
:1021B000F4E0FAF0E0F4E0800000030F1F3F3F3F3F
:1021C0003F1F0F03000C0E00708C02091D1D090239
:1021D0008C70000000010A011602010A01000000D3
:1021E000806014201A10201460800000030C10245A
:1021F0002E2E24100C03000D000000000000C0E093
:10220000F0F8F8FCFCF8FCFEFEFE7E3F021E3F7F6D
:10221000FFFFFFFF7F7F7F3F1F0F030000101000B5
:1022200000C02010900808100804944438020000F0
:102230001E214C565E4C212420100C03000000048B
:1022400001020000004CFEFCFEFFFFFFFFFEFCFE53
:102250004C000C0F0703070703070F0C000C0C00C2
:102260004C904CB69E9EB64C904C0000000403006F
:10227000020200030400000200020F0F0FF8FCFE30
:10228000FFFFFFFFFFFFFEFCF80103070F0F0F0F1B
:102290000F0F070301F8FCFEFFFFFFFFFFFFFEFC2F
:1022A000F80103070F0F0F0F0F0F0703010C0CF8B6
:1022B00004FACDBDCDFD7D7D3A04F8010205080983
:1022C0000809080A050201F8043A7D7DFDCDBDCD5F
:1022D000FA04F80102050A080908090805020103C1
:1022E000000201050D00C0F8FCFEFEFEFEFCF8C079
:1022F00000070F0F0F0F0F0F0F0F0F0F0700C0F882
:10230000FCFEFEFEFEFCF8C000070F0F0F0F0F0FC4
:102310000F0F0F0F070C0C0000C0986C5C6CBCD842
:10232000C0000000070906090103090609070000AB
:1023300000C0D8BC6C5C6C98C0000000070906099E
:10234000030109060907000100010307070089319D
:1023500011241FBECFEFDAE0DEBFCDBF11E0A0E059
:10236000B1E0E8E0FFE602C005900D92A033B107AE
:10237000D9F729E0A0E3B1E001C01D92AB39B20763
:10238000E1F711E1C8EAD1E104C02197FE010E9402
:102390007537C73AD107C9F70E941B320C948237B0
:1023A0000C940000EBE9F5E0A0E0B8E000800EBC82
:1023B0008111012C1197A0FDFDCF0192B9F70DB449
:1023C00008959C01480F592F511D4138510514F0B3
:1023D00040E850E0421BCB018770992791E001C093
:1023E000990F8A95EAF7FB0183E0F595E7958A95C1
:1023F000E1F7F695FE2FEE27F795E795E20FF31F2D
:10240000E556FA4F415030F08191DF011197892B49
:102410008C93F8CF0895CF93DF93EC0181E00E9475
:10242000D211219741F4EBE9F5E08FEF819399E028
:10243000EB39F907D9F7DF91CF9108953FB7F894B9
:1024400080916C0190916D01A0916E01B0916F012E
:1024500026B5A89B05C02F3F19F00196A11DB11DFF
:102460003FBFBA2FA92F982F8827BC01CD01620F3B
:10247000711D811D911D42E0660F771F881F991FF6
:102480004A95D1F708956F927F928F929F92AF9263
:10249000BF92CF92DF92EF92FF920F931F93CF9351
:1024A000DF934C01DB0158017C2D4115510509F4E6
:1024B000A0C0FA016491319684914E5F5F4FC62FA0
:1024C000D0E0211102C0EE2009F1E1E0F0E0982F08
:1024D000977011F4F0E0E0E0082F06950695069558
:1024E0000E0F1F2F111D0C9FF0010D9FF00D1C9F53
:1024F000F00D1124733009F08BC0EE0FFF1F2E9FDB
:1025000080012F9F100D1124400F511F84010C0FCB
:102510001D1F101611060CF06CC0F0E88F16910408
:102520000CF067C09D01280F311D121613060CF028
:1025300060C0A034B1050CF05CC04115510509F430
:1025400058C03A2F3770FD01B7FD379693E0F595E7
:10255000E7959A95E1F72E2FB7FF04C0332311F0CA
:102560002FEF2E0FEE27FF27E819F90997FC02C07D
:10257000F0E0E0E090E89819003811050CF4962F8F
:102580009E1BA22F022E000CBB0B1A2F10952F3F63
:102590000CF010E0DD24D394082F077009F4D12C3F
:1025A000869586958695D80EAD0DB11D19971CF0B0
:1025B000A8E0DA2ED21AD11A210F00E82003D001A8
:1025C0001124A80DB91DAE0FBF1F619FE00DF11DB5
:1025D00011244E0F5F1FE32E032E000CFF087330F3
:1025E00009F424C108F5713009F4D6C0723009F439
:1025F00084C0DF91CF911F910F91FF90EF90DF90FA
:10260000CF90BF90AF909F908F907F906F900895E4
:10261000A114B10409F473CFEE9E8001EF9E100D5A
:102620001124A00EB11E6BCF7A3FB1F10D2D020F18
:102630007B3FF9F62017E9F2BD0165567A4FD12CA0
:10264000C12CC91608F0A2C0FA01EC0DFD1DE491E1
:10265000F0E04F010E2C02C0880C991C0A94E2F79E
:1026600027FD06C0FB018081182D109581238083F2
:10267000332361F0273054F45B01F0E8AF0EB11C56
:10268000192D1095F501808181238083FFEFCF1AEA
:10269000DF0A6F5F7F4FD5CF0D2D020F201709F492
:1026A000A8CFBD0165567A4FD12CC12CC91608F0B0
:1026B00067C0FA01EC0DFD1DE491F0E04F010E2C16
:1026C00002C0880C991C0A94E2F727FD04C0FB01A4
:1026D000808188298083332351F0273044F45B01C3
:1026E000F0E8AF0EB11CF501808189298083FFEFEE
:1026F000CF1ADF0A6F5F7F4FD9CF6FEF70E0032EE5
:1027000002C0660F771F0A94E2F760957095972EC6
:102710008D2C820E281509F46CCF8D0105561A4FA9
:10272000D12CC12CC91630F5FA01EC0DFD1DE49138
:10273000F0E03F010E2C02C0660C771C0A94E2F711
:1027400027FD05C0F80180818623862980833323F5
:1027500059F027304CF45801F0E8AF0EB11CF501E8
:102760008081892187298083FFEFCF1ADF0A0F5FDD
:102770001F4FD8CF2F5F4C0F5D1FA058BF4FCACF40
:102780002F5F4C0F5D1FA058BF4F88CF2F5F4C0F9E
:102790005D1FA058BF4F4ECF85010E0F1F1F8D2DFF
:1027A000820F281709F425CFBD0165567A4FD12C29
:1027B000C12CC91698F5F801EC0DFD1DA490B12CA3
:1027C0000E2C02C0AA0CBB1C0A94E2F7A094B09491
:1027D000FA01EC0DFD1D8490912C0E2C02C0880C8A
:1027E000991C0A94E2F727FD08C0FB017080E72DD1
:1027F000EA217E2E7828FB017082332349F02730AE
:102800003CF4FB01E058FF4FA080BA20B928B08209
:10281000FFEFCF1ADF0A6F5F7F4FCBCF2F5F4C0FD9
:102820005D1F0C0F1D1FA058BF4FBBCFE92EF12C11
:10283000E40FF51FA556BA4F60E870E06E197F09E6
:10284000CE19DF09AE01440F551FC1E0D0E07E0173
:10285000032E01C0EE0C0A94EAF7192F0D2D892ED4
:10286000932ECF93DF93ED01EF96EF962296A590EE
:10287000C590992059F0AE9C5001CE9C6001273044
:102880002CF4F880D094FD20FB28F99222233AF012
:10289000FC90C094FC20FA28FD920C9450141196E0
:1028A0001A9529F70A9551F0182D23951124E40F54
:1028B000F11DA60FB11DC60FD11DD9CFDF91CF914C
:1028C000112497CECF92EF920F931F933AEFC32E1E
:1028D000E12C10E000E00E9443121F910F91EF9055
:1028E000CF900895CF92EF920F931F933BEFC32E9B
:1028F000E12C10E000E00E9443121F910F91EF9035
:10290000CF900895CF92EF920F931F9332E0C32E92
:10291000E12C10E000E00E9443121F910F91EF9014
:10292000CF900895CF92EF920F931F93F901202F2C
:10293000CC24C3948F010E9443121F910F91EF90FA
:10294000CF9008958F929F92AF92BF92CF92DF92D5
:10295000EF92FF926C01F12CE12C0E941E124B01B0
:102960005C010E941E12681979098A099B09683E58
:10297000734081059105A8F321E0C21AD108E1084E
:10298000F10888EE880E83E0981EA11CB11CC114CA
:10299000D104E104F10429F7FF90EF90DF90CF908C
:1029A000BF90AF909F908F9008958FB18095807F5A
:1029B000669B88601C9B84600895809166010895E1
:1029C000109266013E983F9808953E9A3F9A81E0A2
:1029D0008093660108950895CF92DF92EF92FF925F
:1029E0001F93CF93DF93E82FF0E0E65EFE4F108158
:1029F000E62FF0E0603398F5E95CF54EE491CE2FD8
:102A0000D0E0F12CE12C60E074E284EF90E0A701CB
:102A10009E010E94F136215031094109510991E08E
:102A20002115310581E0480751056CF060E970ED32
:102A300083E090E0A7019E010E94F1362150310908
:102A40004109510993E0113089F0133039F1DF91D8
:102A5000CF911F91FF90EF90DF90CF900895EE0FF0
:102A6000FF1FE95CF64EC591D491CBCF80916501F3
:102A70008111EDCF80918100887F892B8093810027
:102A80003093890020938800109285001092840072
:102A900080916F00826080936F00D9CF8091910008
:102AA000887F892B80939100309399002093980020
:102AB0001092950010929400D0936401C09363012A
:102AC00081E0809362018091710082608093710047
:102AD000BECFE82FF0E0E65EFE4F8081813019F036
:102AE0008330A9F008958091650181110FC0809114
:102AF0006F008D7F80936F0080915401E0915201AF
:102B0000F0915301908180958923808308951092DC
:102B10006201809161018111F9CF80915F01E091A3
:102B20005D01F0915E01EECFCF93DF93D1E0E091B4
:102B30009705F0919805AF014F5F5F4F509398054F
:102B4000409397052491822F807FC22FCF708038C9
:102B500021F48C2F0E946915EACF803919F5E09194
:102B60005001F091510109958D2780936001E0910A
:102B70009705F0919805CF01019690939805809361
:102B80009705649180914F01C81788F6C13021F4F0
:102B900080914E018111CBCF67FDC9CF8C2F0E9450
:102BA000EC14C5CF87FD3CC03296F0939805E093B6
:102BB0009705FA014491A0916301B0916401322F0D
:102BC000242F0E9432376C507E4F8F4F9F4F28EE3C
:102BD00033E040E050E00E941037209359013093D9
:102BE0005A0140935B0150935C018091590190918F
:102BF0005A01A0915B01B0915C01892B8A2B8B2B30
:102C000061F481E090E0A0E0B0E0809359019093FE
:102C10005A01A0935B01B0935C01DF91CF910895BD
:102C2000803E49F48091990590919A05909398057A
:102C3000809397057CCF803F09F079CF109296055D
:102C4000ECCF90939A058093990590939805809383
:102C500097050E94941581E08093960508959091C0
:102C60004F01923009F471C0292F30E0F901E65E7E
:102C7000FE4F4081245B3E4FF9018083913031F457
:102C800020914C01281302C090934E019F5F9093B6
:102C90004F0190E0FC01E858F64E2491875A964E79
:102CA000FC01849130E0220F331FF901E55BF64E01
:102CB00065917491F901E35CF64EA591B4919C91F4
:102CC000982B9C93413019F04330D9F0089590919E
:102CD0006400977F909364001092800010928100AE
:102CE0009091810098609093810090918100916013
:102CF000909381007093530160935201809354012B
:102D0000089590916500977F9093650010929000D0
:102D10001092910090919100986090939100909101
:102D2000910091609093910070935E0160935D01BA
:102D300080935F0180914F01882321F06CE380E054
:102D40000E94EC1480E00C9469150895FC018685BE
:102D5000811107C08785811104C0838D833008F0FD
:102D6000138E838D0895DC01ED91FC911197E49110
:102D7000EE2331F01296ED91FC91319684910895F5
:102D80008CE00895DC01ED91FC911197E491EE2324
:102D900029F01296ED91FC91849108958CE00895AC
:102DA000BF92CF92DF92EF92FF920F931F93CF9338
:102DB000DF9300D000D000D0CDB7DEB78C01DC01AE
:102DC000ED91FC911197E4911896CD90DC901997B4
:102DD0001A96ED90FC90EE2371F0ED3069F10E94AF
:102DE000C216B82EC8010E94B316DA82C982FC82CC
:102DF000EB82BD8208C00E94B316DA82C982FC82CF
:102E0000EB8299E09D838E8329813A814B815C819D
:102E10006D817E8180E090E026960FB6F894DEBF4B
:102E20000FBECDBFDF91CF911F910F91FF90EF901B
:102E3000DF90CF90BF9008950E94C216B82EC801AF
:102E40000E94B316B2E0CB0ED11CDA82C98292E0A6
:102E5000E90EF11CFC82EB829CEF9B0D9D8384505C
:102E6000D2CFCF93DF93FC01C085D1850E94C216DB
:102E70008C0F9D2F911D0197DF91CF9108950F9396
:102E80001F93FC0180819181A281B3818C019D01FE
:102E90004DE0000F111F221F331F4A95D1F708275D
:102EA00019272A273B27D901C80151E1B695A795D3
:102EB000979587955A95D1F7082719272A273B27F1
:102EC000C901B801A5E0660F771F881F991FAA9551
:102ED000D1F76027712782279327608371838283CC
:102EE00093831F910F9108959C0120523F4FFC0145
:102EF000E65BFF4F2E173F0771F0808191818617A7
:102F0000970739F4828193818417950711F484819E
:102F100008953A96EFCF80E00895EF92FF920F93D5
:102F20001F93CF93DF938C017B01EA014F3F54073E
:102F300031F080EE93E00E94741781111AC0209145
:102F4000C004EAE02E9FC001112483589E4FFC016B
:102F5000E355FD4FF182E0823296D183C0838F54D6
:102F60009D4FFC01118300832F5F2F3049F0209388
:102F7000C004DF91CF911F910F91FF90EF900895C2
:102F80001092C004F6CF9C01CB016CE070E00E946F
:102F90006137FC018D3020F5413110F5CB0163E044
:102FA00070E00E946137BC015CE0569FC001579FF2
:102FB000900D11248E0F9F1F0196880F991F820F6D
:102FC000931F21E030E002C0220F331F4A95E2F741
:102FD000FC01808191812823392381E0232B09F48E
:102FE00080E00895EF92FF920F931F93CF93DF93AA
:102FF000FC01CB01EA012CE030E0B9010E9461370D
:103000007B01CE01B9010E9461378B01C789D08D48
:10301000CD59DD4FAB01B701CE010E94C31781111D
:103020000FC017FD0BC0A801B701CE010E94741795
:10303000813020F08C3028F08D3019F080E001C014
:103040008FEFDF91CF911F910F91FF90EF90089537
:103050006F927F928F929F92AF92BF92CF92DF92A8
:10306000EF92FF920F931F93CF93DF93EC015B01DD
:10307000E881F981E49189E0EE2319F0CE010E9404
:10308000C216D12CC12C712C9CE0692EE82EF12C9B
:10309000CE010E94C216662D0E944137781608F0B4
:1030A00054C08A849B8481E0A816B10471F181E048
:1030B000881A9108088519850C0D1D1DA401B801F9
:1030C000CE010E94F217882381F081E0DF91CF9139
:1030D0001F910F91FF90EF90DF90CF90BF90AF9036
:1030E0009F908F907F906F900895B701600F711F30
:1030F00061507109A401CE010E94F2178111E5CF40
:1031000073948CE0C80ED11CC3CFCE010E94B316BD
:10311000A401480F511D688579856C0D7D1DCE0178
:103120000E94F2178111D1CF0A851B85CE010E9422
:10313000B316A801480F511D688579856C0D7D1D5A
:103140006E0D7F1D61507109D6CF80E0BFCFCF9348
:10315000DF93EC0161E070E00E942818882319F0E9
:103160009BEF9F871A8ADF91CF91089561E070E00D
:103170000E94281891E089270895E091C504F091F4
:10318000C6042581968190959223322F30748091C8
:10319000A20125FD50C031115DC018161CF48150EC
:1031A0008093A2018091A20187FF03C08F5F80936B
:1031B000A20192FF14C084E991E00E94B618811127
:1031C00057C084E991E00E94A718882309F450C0F1
:1031D00081E08093A80185E191E20C942116809111
:1031E000A801882359F00E94D51482FF07C084E902
:1031F00091E00E94B618811104C008951092A801B0
:1032000008958091A601863058F48F5F8093A601BF
:1032100080FD2EC08091A30182508093A301089568
:103220008C3030F58F5F8093A60180FD21C08091A6
:10323000A3018150F2CF42E050E05093AA014093A5
:10324000A90181508D3F0CF48DEF8093A2013323AF
:1032500009F4AFCF23E030E03093AA012093A90115
:103260008091A2018F5F84300CF4A1CF83E09FCFC7
:103270000895CF92DF92EF920F93CF93DF93EC01FB
:10328000E881F981E491E33009F49AC0C8F4EE23AF
:1032900059F1E13009F494C0EF89F88D2C813D811A
:1032A0004A815B816A857B8586859785681B790B5A
:1032B000888599850484F585E02DE12C00E09DC08A
:1032C000ED3009F484C0EE3009F49AC0E53021F7FE
:1032D0008E81853108F782FFDFCFDF91CF910F918B
:1032E000EF90DF90CF9008950E94B6182D893E8907
:1032F00001E08823E9F02330310509F000E0EF898F
:10330000F88D6A857B856150710986859785681B74
:10331000790B8885998524853585821B930BE02E52
:103320002BEC38E143E059E102970E949214D5CF8B
:103330002330310509F000E08E8581112CC08F8586
:10334000811129C0CE010E94A616E82FF0E0EE0FF1
:10335000FF1FEB53F74EC590D490CE010E94A616E6
:10336000E82FF0E0EE0FFF1FE154F74E4591549126
:10337000EF89F88D6A857B8561507109868597850F
:10338000681B790B8885998524853585821B930B6D
:10339000E02E9601C9CFCE010E94A616E82FF0E0DC
:1033A000EE0FFF1FE954F74EC590D490CE010E9456
:1033B000A616E82FF0E0EE0FFF1FE155F74ED6CF2F
:1033C00001E08D899E89039731F000E004C001E09F
:1033D0008F851816D4F7EF89F88D2C813D814A81AD
:1033E0005B816A857B8586859785681B790B8885D7
:1033F00099850484F585E02DE02E8E1B9F0B95CFDB
:103400008E81853110F482FD68CFEF89F88DA98D0A
:10341000BA8D13962D913C912F70332726952695C2
:103420006A857B8586859785681B790B8885998554
:103430000484F585E02D4DE458E18E1B9F0B0E941E
:103440006214EF89F88DA98DBA8D13962D913C9158
:103450002F703327269526956A857B8586859785E7
:10346000681B790B888599850484F585E02D4BEEE2
:1034700057E18E1B9F0BDF91CF910F91EF90DF9063
:10348000CF900C9472142F923F924F925F926F9252
:103490007F928F929F92AF92BF92CF92DF92EF92E4
:1034A000FF920F931F93CF93DF93CDB7DEB72D9786
:1034B0000FB6F894DEBF0FBECDBF80918901909109
:1034C0008A0197FD0396959587959595879560E474
:1034D00070E00E9461379C0180918B0190918C017A
:1034E0006CE070E00E9461378091870180FF94C09A
:1034F00000271127021B130B80EC90E06C01C21A0D
:10350000D30A7B0126E0E21AF10820E04FED5FE1EB
:10351000B701C8010E948214005C1F4FC016D1067B
:10352000A1F78091890190918A016CE070E00E947E
:1035300061371B01ACE02A1A31088CE0869FF0014C
:10354000879FF00D1124FF83EE8380918901909174
:103550008A016CE070E00E946137605F7F4F621506
:1035600073050CF46BC180918B0190918C016CE020
:1035700070E00E9461378B01AE80BF80F0E9AF1A26
:10358000B1082CE0269F3001279F700C1124D12C0C
:10359000C12CE0908B01F0908C018090890190907B
:1035A0008A01C7016CE070E00E946137685F7F4F5D
:1035B000601771070CF438C1A801B10180EE93E0E7
:1035C0000E94C317B8016F5F7F4F79876887882390
:1035D00009F468C023014C0C5D1C4E185F08C5013E
:1035E000881999094C016031710549F0AB01B101AD
:1035F00080EE93E00E94C317882309F448C08091AD
:103600008701E12C01E080FD02C0E12C00E023E015
:103610003FE14BE15FE141C007E010E0021B130B0B
:1036200087EC90E06C01C21AD30A4B0138E0831A90
:1036300091085B0183E0A80EB11C7B0191E0E91ABF
:10364000F10820E047ED5FE1B401C8010E94821457
:1036500020E041EB5FE1B501C80183960E9482142E
:10366000E091C504F091C604238134812F70332783
:10367000269526954FE75FE1B701C80143960E9462
:103680008214005C1F4FC016D106D9F64ACFE12C38
:1036900000E02DE43FE145E65FE1B201C4010E9494
:1036A000921457C017FD55C0A801B10180EE93E0F8
:1036B0000E947417EAEFE80FEB3008F04AC0F0E020
:1036C000EC59F44E0C9475376F1B6F1B6F1B6F1BFF
:1036D000871B991BAF1BA91BC31BF81B061C90E083
:1036E000880F991FFC01E151F14E25913491FC01A5
:1036F000E552F14E45915491B3016C0D7D1D6E194B
:103700007F09E12C00E0C50188199909C8CFB301F0
:103710006C0D7D1D6E197F0968517109C5018819ED
:103720009909E12C00E025ED3DE147E55EE1849754
:10373000B6CFB3016C0D7D1D6E197F096450710900
:10374000C5018819990920E049EB5DE10D970E94B8
:103750008214BCE0CB0ED11C088519851ACF0091CC
:1037600087010170B3016C0D7D1D6E197F096450D6
:103770007109C50188199909E12C27E53DE147E761
:103780005DE104978CCFE091C504F091C6042381DC
:1037900034812F7033272695269583010C0D1D1D2E
:1037A000B8016E197F0945EF5CE1C50188199909D7
:1037B0000E946214E091C504F091C6042381348113
:1037C0002F7033272695269580918B0190918C013F
:1037D000B801681B790B8091890190918A0143E9B6
:1037E0005CE1D501A81BB90BCD010E947214B1CFC9
:1037F000B3016C0D7D1D6E197F0963507109E12CB9
:1038000000E021E43CE149E65CE17DCFB3016C0DD1
:103810007D1D6E197F0962507109E12C00E02FEDCA
:103820003BE14FE05CE16FCFEFEF2E1A3E0A2E81B5
:103830003F81245F3F4F3F832E8387CE80917D0160
:1038400090917E018130910548F08530910558F0C6
:10385000069721F480917F018C3048F484E991E04F
:103860000E94391904C080917F0180FFF7CF8091B9
:103870007D0190917E01069709F036C080917F010D
:10388000ECE1F0E0E81BF109F7FD3396F595E795DB
:10389000F595E795CF01880F991FFC01EF52F44E83
:1038A00025913491FC01ED53F44E459154910091D2
:1038B0008701017060919E0170919F0180918B0141
:1038C00090918C01681B790B6450710980919C0167
:1038D00090919D01E0918901F0918A018E1B9F0BCF
:1038E000E12C02970E949214B0EBCB2EB1E0DB2EBC
:1038F00015E1812E912C03E0A02EB12CD601179654
:103900008C911797811104C053968C918131B8F036
:10391000C6010E9431172091890130918A01821BD2
:10392000930B181619065CF4F60180859185821BAD
:10393000930B803891051CF4C6010E943919D601F9
:1039400053968C91882381F1F401E81BF109CF0192
:10395000B5010E946137660F771FFB01EF52F44EED
:1039600025913491FB01ED53F44E45915491009112
:1039700087010170D6011A966D917C911B978091F9
:103980008B0190918C01681B790B6250710918961C
:103990008D919C91E0918901F0918A018E1B9F0B82
:1039A000E12C02970E949214BCE1CB0ED11CE0EEF8
:1039B000CE16E3E0DE0609F0A1CF80918901909157
:1039C0008A016CE070E00E9461375B018CE0869FA9
:1039D0003001879F700C1124FCE08F2E912C809178
:1039E000890190918A01B4010E946137605F7F4F25
:1039F0006A157B050CF468C080918B0190918C0155
:103A0000B4010E9461376B01FCE0F69F1001F79F43
:103A1000300C1124512C412C00918B0110918C0100
:103A2000C801B4010E946137685F7F4F6C157D0546
:103A30000CF443C0A601B50180EE93E00E94C317C9
:103A4000811110C0D7FC0EC0E0908901F0908A016E
:103A5000A601B50180EE93E00E9474178A3049F008
:103A60008B30D9F02FEFC21AD20A3CE0430E511C22
:103A7000D3CFB101640D751D601B710B68517109C5
:103A8000C3018E199F09E12C00E029EA3AE145E3E0
:103A90005BE10A970E949214E5CFB101640D751D98
:103AA000601B710B6450710920E041EA5AE1C301C7
:103AB0008E199F090E948214D5CF6FEFA61AB60AFD
:103AC0007CE0670E711C8BCF80919C0190919D01D1
:103AD000B4010E9461378091850190918601FE01B9
:103AE000319625E0DF011D922A95E9F7860F971F91
:103AF00097FF02C090E080E08E010A5F1F4F2AE02E
:103B000030E0B9010E944D378193CB010E171F079A
:103B1000C1F780918701EBE9F5E080FFE5C080ED1A
:103B200095E02FEF21938E179F07E1F721E0809119
:103B30008401811120E041E95AE161E070E081E017
:103B400090E00E94721421E080918401823008F09C
:103B500020E041E95AE161E070E089E090E00E94F4
:103B6000721421E080918401833008F020E041E963
:103B70005AE161E070E081E190E00E947214780106
:103B80000BE110E0F70122917F0147E65AE161E085
:103B900070E0C8010E9472140B5F1F4F04331105BF
:103BA00089F74EECC42E44E0D42E56E9652E55E03C
:103BB000752E60E8A62EB12C70E4872E912CD601CC
:103BC00019964C91442E512CB42F2EE130E0A0E0F8
:103BD0000E947B37072F182F292F332727FD3A956F
:103BE000F60186819781801B910B97838683A48140
:103BF000B58125EF30E00E947B37E72EF82E092FA4
:103C0000112707FD1A95F582E482C50184199509EB
:103C100020813181821793073CF491838083F19452
:103C2000E194F108F582E482D6018D919C9111977F
:103C300097FF0EC011961C921E9214968D919C9126
:103C4000159791958195910915969C938E9314974C
:103C5000F601828193818134910524F093828282DE
:103C600017821682D60112968D919C91139797FF19
:103C700004C017961C921E921697F60125812A877A
:103C8000220F220B2B87208131816A857B85260FAD
:103C9000371F3183208327812C87220F220B2D870A
:103CA000AC85BD858A1B9B0B93838283808588238B
:103CB00011F081508087F6018085882309F464C063
:103CC000423009F455C0433009F47EC0413009F058
:103CD0005BC062817381E12C00E025EB30E248EBB0
:103CE00050E2808191814EC080ED95E011928E1757
:103CF0009F07E1F721E080918401811120E041E9F3
:103D00005AE161E070E081E090E00E94621421E0FD
:103D100080918401823008F020E041E95AE161E0BD
:103D200070E089E090E00E94621421E080918401BB
:103D3000833008F020E041E95AE161E070E081E180
:103D400090E00E946214EBE1EE2EF12CD8012E914E
:103D50008D0147E65AE161E070E0C7010E946214FC
:103D6000B5E0EB0EF11CE4E3EE16F10479F719CFA0
:103D700062817381E12C00E02BEA30E24FEA50E2ED
:103D8000808191810E949214FAE0CF0ED11C6C14B4
:103D90007D0409F014CF2D960FB6F894DEBF0FBE48
:103DA000CDBFDF91CF911F910F91FF90EF90DF90EA
:103DB000CF90BF90AF909F908F907F906F905F90CB
:103DC0004F903F902F90089562817381E12C00E025
:103DD00021EA30E245EA50E284CF8F929F92AF927F
:103DE000BF92CF92DF92EF92FF920F931F93CF93E8
:103DF000DF93EC016B010CE010E0B12C8CE0A82EFD
:103E0000CE010E94B3166A2D0E944137B81608F001
:103E10005FC022E0C216D10441F083E0C816D1048D
:103E200081F1B394045F1F4FEBCFEA84FB84888455
:103E3000998421E0821A9108A8014C5051094E0D35
:103E40005F1DB401CE010E94F217882371F081E05A
:103E5000DF91CF911F910F91FF90EF90DF90CF9066
:103E6000BF90AF909F908F900895A8014E0D5F1D59
:103E700041505109B401CE010E94F217882389F202
:103E8000E6CF8A859B8578012CE0E21AF108E80EDE
:103E9000F91E88849984CE010E94C216B401680F6D
:103EA000711DA701CE010E94F2178111D0CFEA84C3
:103EB000FB84E00EF11E81E0E81AF1088884998401
:103EC000CE010E94C216B401680F711DA701D3CFA5
:103ED00080E0BECFFF920F931F93CF93DF93EC014F
:103EE0004A855B85688579850E94F2178F3F79F452
:103EF0001F821B8A198218821E8A1D8A8FEF9FEFEC
:103F0000998788879B878A871E861F861E82E881FD
:103F1000F981E491E13009F4A1C0D0F0E53011F06D
:103F2000EE3099F58E81882381F181508E83811145
:103F30002CC01F821B8A198218821E8A1D8A8FEF4D
:103F40009FEF998788879B878A871E861F861DC05B
:103F50008E8581111AC08F85811117C0EF89F88D68
:103F6000E85BFC4F0190F081E02D8381948166E055
:103F700070E00E944D37892B41F48B8D90E00196C3
:103F800063E070E00E9461378B8FE881F981849152
:103F900081111EC08E8581111BC08F85811118C0B3
:103FA000AF89B88DA85BBC4F0D90BC91A02D139626
:103FB0008D919C9166E070E00E944D37892B41F411
:103FC0008B8D90E0019663E070E00E9461378B8FEB
:103FD00094919530E9F18F859D3009F065C08F3758
:103FE000A9F48F89988D845B9C4F0E943F1728E22B
:103FF00030E040E050E00E941037672B682B692BBF
:1040000011F48CEE8F878F858F37B9F02A853B8529
:10401000982F87FF02C093E0980F95959595A90179
:10402000490F511D97FD5A952052310968897989A8
:104030005B874A8762177307A4F58C859D852A855F
:104040003B858217930724F42FE72F879B878A8766
:10405000DF91CF911F910F91FF9008958F8581116E
:1040600094CFCE010E94B61881118FCF8F89988D81
:10407000845B9C4F0E943F1724E130E040E050E019
:104080000E941037672B682B692B09F07ECF8F8930
:10409000988D845B9C4F0E943F17677061956F8776
:1040A00074CF8F5F8F87C9CF3196E491E0FF12C044
:1040B0009E8528853985290F311D97FD3A953987C9
:1040C00028872A853B85280F311D87FD3A953B8738
:1040D0002A87BECF81110AC0CE010E94B61888235C
:1040E00029F08F85863014F48F5F8F878F8518169F
:1040F0000CF510E000E08F85082E000C990B0817D6
:10410000190774F4CE010E94B618882341F08A85FD
:104110009B8501969B878A870F5F1F4FECCF1F8679
:10412000CE010E94B618882329F08F85863014F4BA
:104130008F5F8F878F8587FF14C08F5F8F8710E019
:1041400000E08F85082E000C990B801791074CF426
:1041500070E060E0CE010E942818882309F450C066
:104160001F868E85181634F510E000E090E9F92ED0
:104170008E85082E000C990B08171907DCF4CE0168
:104180000E943117EF89F88DEB5BFC4F208130E006
:104190002F5F3F4FF29EA001F39E500D1124841714
:1041A000950744F463E070E0CE010E94ED1E882381
:1041B00079F11E868E8587FF4BCF10E000E080E905
:1041C000F82E8E85082E000C990B801791070CF0A5
:1041D0003FCFEF89F88DEC5BFC4F80818F9DC00154
:1041E000112428853985821793070CF031CF62E0BE
:1041F00070E0CE010E94ED1E882301F11E8628CFBB
:104200008A859B8501979B878A870150110999CFE1
:10421000888599850196998788878F8581110BC03C
:10422000CE010E94B618811106C08B8D90E00196D8
:10423000837099278B8F0F5F1F4F9ACF8885998541
:104240000197998788878F8581110BC0CE010E94C5
:10425000B618811106C08B8D90E001968370992766
:104260008B8F01501109ADCFCF93DF93DC01ED911E
:10427000FC91119757960D90BC91A02D1A968D9197
:104280009C918430910520F0079738F4349601C052
:1042900033968491DF91CF9108953596FACFEF92BE
:1042A000FF920F931F93CF93DF93EC010E94342171
:1042B00082FF6EC08F89988DFC01E78CF0A0479635
:1042C0000E94C216088519858E0D9F2D911D80179D
:1042D000910754F482E090E09E8B8D8BE881F98108
:1042E0003296E491E195EE87EF89F88DE78CF0A0A6
:1042F000CE010E94C216800F912F911D8E159F0531
:104300004CF483E090E09E8B8D8BE881F9813296AE
:10431000E491EE87CE010E94342183FF30C06D8985
:104320007E89CE010E94ED1E882319F0CE010E94E5
:10433000A7188D899E89029771F4688579856150E7
:1043400071094FEB50E0CE010E94F217811103C0BA
:10435000CE010E94A7188D899E89039781F4CE0112
:104360000E943117BC016F5F7F4F4FEB50E0CE01D1
:104370000E94F217811103C0CE010E94A718CE013E
:10438000DF91CF911F910F91FF90EF900C946A1FD6
:10439000CE010E94342180FF10C08D899E89029732
:1043A00099F562E070E0CE010E94ED1E882331F1A4
:1043B00083E090E09E8B8D8B1E86CE010E9434217F
:1043C00081FFDDCF8D899E89029709F037C00A856C
:1043D0001B85CE010E94B316A801480F511D6885A8
:1043E000798561507109CE010E94F217811120C0B8
:1043F00083E090E09E8B8D8B1E86C1CFE881F98192
:104400003296E491E195EE878D899E890397A9F60E
:1044100063E070E0CE010E94ED1E882319F082E077
:1044200090E0C8CFE881F9813296E491EE87C5CF5C
:10443000E881F9813296E491E195EE878D899E8934
:10444000039709F09CCF0A851B85CE010E94B31605
:10445000080F111DCE010E943117BC016F5F7F4F05
:10446000A801CE010E94F217811103C082E090E002
:10447000C1CFE881F9813296E491EE8780CFEF9247
:10448000FF920F931F93CF93DF93EC01F90181E02B
:104490008F833CE03E9DC0013F9D900D1124309FD5
:1044A000D001319FB00D1124798368835B834A83E7
:1044B000FD83EC83B987A8879B878A879D878C8734
:1044C0001E861F8623E030E03E8B2D8B1E821B8ACA
:1044D000FB0164916530C1F130F4643031F1019732
:1044E0009B878A8726C06D3069F16E30C1F71696BA
:1044F000B987A88704979B878A878F89988D845B63
:104500009C4F0E943F1725E030E040E050E00E94C1
:10451000103762506E878F89988D845B9C4F0E9404
:104520003F17637061956F8715C08CEF8E8782E0AF
:104530008F87CE01DF91CF911F910F91FF90EF9068
:104540000C944F218FE7F4CF1696B987A88704976C
:104550009B878A878F89988D845B9C4F0E943F1729
:104560002CE030E040E050E00E941037862F880FAA
:10457000880F680F645C6E83DCCF4F925F926F92FE
:104580007F928F929F92AF92BF92CF92DF92EF92E3
:10459000FF920F931F93CF93DF93CDB7DEB7A8970A
:1045A0000FB6F894DEBF0FBECDBF5C016C2C2C01A2
:1045B000CE0101964C01F0E0E0E07E2ED201DA96C9
:1045C0008C91811133C0F12C8CE18E9F60018F9F03
:1045D000D00C1124C601C3968A0D9B1D0E943F2258
:1045E000BFEF6B1659F0AC0CBD1CF501ED5BFF4F36
:1045F0008CE0689E60011124D182C082872DA8962C
:104600000FB6F894DEBF0FBECDBFDF91CF911F91E3
:104610000F91FF90EF90DF90CF90BF90AF909F9061
:104620008F907F906F905F904F900895D5015F9627
:104630008D919C91D201DB96CD90DC908C199D09D7
:1046400097FD3CC0D4018D939C933196BCE14B0EF9
:10465000511C82E0880E911CE431F10509F0ADCFC8
:104660009981FE01339681E0712CA191B1919A1745
:104670001B0614F49A2F782E8F5F8431B1F7872CA4
:10468000912CF12C8CE1D82EC5017D9C800D911DC3
:104690001124C3960E943F229FEF691609F4AECF02
:1046A000D89CF001D99CF00D1124EA0DFB1DED5BA7
:1046B000FF4FACE06A9E600111249ECF91958195D9
:1046C0009109C0CF2F923F924F925F926F927F924B
:1046D0008F929F92AF92BF92CF92DF92EF92FF9212
:1046E0000F931F93CF93DF9300D000D000D0CDB7AE
:1046F000DEB7D82EE091E003F091E1036285738587
:10470000482F50E09F01245B3C4F3E832D839B014B
:10471000240F351F23703327E20FF31F2381269FB9
:10472000C001279F900D1124840F951FB0E0A0E0D9
:10473000ED81FE8180839183A283B3838D2D63E01D
:104740000E944137F8E19F9FC00111249C0123582A
:104750003E4F3B832A8390E080E0FC01EE0FFF1F79
:10476000EB59FD4F2A813B81E20FF31F118210822A
:1047700001968C30910589F78D819E810E943F17AB
:1047800023E030E040E050E00E941037635F6D832B
:104790003CE0D39E40011124D1100AC0862F8150E5
:1047A000990BAC0161E070E08CE090E00E948D1705
:1047B000312C412C1982512C1C82212CFF24FA947B
:1047C000B12CA12C9FEFF91232C0211056C0EC8100
:1047D000E11116C2C5010397069708F051C08091F8
:1047E000C204D81608F04CC08091E0039091E10318
:1047F000845B9C4F0E943F1727E030E040E050E090
:104800000E941037672B682B692BD1F58091E0034C
:104810009091E103845B9C4F0E943F1725E030E0BC
:1048200040E050E00E941037462E3D80F12C24E0FD
:10483000429EF0011124E45EFE4FEF0DF11D8081D8
:104840008823D9F0F32DF81B8F2FF131B0F4F50147
:10485000EE0FFF1FEB59FD4F2A813B81E20FF31F43
:1048600021E030E002C0220F331F8A95E2F78081F9
:104870009181822B932B918380833C813111C0C124
:10488000ED818E2F90E0F501EE0FFF1FEB59FD4FEC
:104890002A813B81E20FF31F2081318141E050E00A
:1048A000082E02C0440F551F0A94E2F7242B352B23
:1048B00001968031910591F731832083DD2009F441
:1048C000D4C18091C204D81608F0CFC13FEFF312D3
:1048D000D0C08091E0039091E103845B9C4F0E94E3
:1048E0003F172AE030E040E050E00E94103720916E
:1048F000E0033091E103672B682B692B09F0A4C01A
:10490000C901845B9C4F0E943F1723E030E040E0E8
:1049100050E00E9410376E5F6C83512C643009F4B4
:10492000ACC08091C404881519040CF002C17D80CC
:104930007A947A948FEF8F0D823080F524E0429E36
:10494000F0011124E45EFE4FEF0DF11D808177240C
:104950007A94730C781A8091E0039091E103845B60
:104960009C4F0E943F1725E030E040E050E00E945D
:1049700010378091E0039091E103613009F087C026
:10498000CC24CA94E72C84010A0D1B1D25EE32E2CB
:1049900045E153E267E473E20E94BD228091E003A7
:1049A0009091E103845B9C4F0E943F1723E030E02D
:1049B00040E050E00E941037672B682B692B09F00C
:1049C000B8C08091E0039091E103FC01228533851A
:1049D00018E22430310528F01EE12730310508F4B3
:1049E00013E2845B9C4F0E943F17212F30E050E080
:1049F00040E00E9410376E3171058105910508F085
:104A000098C06A5F7A4DFB010C9475375E255E2570
:104A10005E255E255E255E255E255E255E255E257E
:104A20007125712571257125712571257E257E25BC
:104A30007E258E258E258E258E258E258E258E25EE
:104A4000E025E025EE25EE25C901845B9C4F0E9400
:104A50003F1725E030E040E050E00E941037672B20
:104A6000682B692B41F48D818F3061F08F5F8D83CE
:104A7000512C1C8256CF5394FCCF91E09983E4E0F3
:104A8000EC834FCF512C1C82FEE0FD834ACF845B28
:104A90009C4F0E943F176370772788279927672BC1
:104AA000682B692B09F07ACF472D50E0B4016A0DCD
:104AB0007B1D8EE090E00E948D1770CFCC24CA94AD
:104AC000E72C84010A0D1B1D25EE32E245E153E27D
:104AD00067E473E28091E0039091E1030E94BD22BC
:104AE00028C0CC24CA94E72C84010A0D1B1D2DE795
:104AF00032E24DEA52E26FED72E2ECCFF6E0FD15E4
:104B0000C0F4CC24CA94E72C84010A0D1B1D25E4B3
:104B100032E24DE552E267E772E2DCCF2D812150AF
:104B2000330BA901B4016A0D7B1D8EE090E00E9459
:104B30008D17FFEFFF1631F0F39424E0F21202C05C
:104B4000FF24FA943FEFA31AB30A8CE0A816B1042D
:104B500009F038CE8091C204D81212C0ED81E15024
:104B6000FF0BAF01B401675F7F4FE091E003F0916D
:104B7000E103828580FF7BC08AE090E00E948D1770
:104B80008091C4048815190414F48092C4042696F4
:104B90000FB6F894DEBF0FBECDBFDF91CF911F914E
:104BA0000F91FF90EF90DF90CF90BF90AF909F90CC
:104BB0008F907F906F905F904F903F902F900895CF
:104BC00031E0351508F0B5CF8D818150990BAC01DE
:104BD000B4016A0D7B1D8FE090E0A9CF98E09D1590
:104BE00008F0A7CFCC24CA9492E0E92E84010A0DE4
:104BF0001B1D2DEF31E24DE152E26FE372E26ACF0D
:104C0000EC81E150EC83212CE11102C02980198252
:104C10008091E0039091E103845B9C4F0E943F17D9
:104C200025E030E040E050E00E941037672B682B11
:104C3000692B09F07ECF6090E0037090E103C3011F
:104C4000845B9C4F0E943F176370CD80C394C61A4B
:104C500080E1E82E8501080D191D25E931E245ECBA
:104C600051E267EF71E2C30139CF1C8262CF8BE062
:104C700090E084CF2091C20430E02F5F3F4F90E955
:104C8000929FA001939F500D1124415851092091EA
:104C9000C30430E02F5F3F4F80EC829FB001839FC1
:104CA000700D1124615471098091C104E82FF0E066
:104CB000899FC001112420919C0130919D012054B5
:104CC000310930938A0120938901A0919E01B0910E
:104CD0009F0119976A177B076CF1B0938C01A09321
:104CE0008B014217530724F450938A0140938901A2
:104CF0002091890130918A012817390724F4909373
:104D00008A0180938901A091E003B091E1035F964D
:104D10008D919C9160E970E00E946137CB01019711
:104D200097FD0DC0E817F90754F48093C1048E5F16
:104D30000C94622370938C0160938B01D2CF089501
:104D400083E891E20E9421161092C0041092C104DF
:104D50001092C404EAE2F4E08FEF9FEF9183808326
:104D6000938382833A9624E0E03CF207B9F7A0915E
:104D7000E003B091E103FD01F3969D012D593D4FF4
:104D80008FEF9FEF1782168A158A11821082918702
:104D9000808793878287168617861682138A7C9669
:104DA0002E173F0779F71A962D913C911B97CD014D
:104DB000845B9C4FA90143705527A40FB51F139620
:104DC0006C91629FA001639F500D112470E060E020
:104DD000FC0140835183628373830E943F17E091FB
:104DE000E003F091E1032285338550E040E00E942A
:104DF0001037645F6093C20480E00E94622381E008
:104E00000E94622382E00E9462238091870180FDDC
:104E10003BC088E590E02DE731E230939501209387
:104E200094012BE431E230939701209396012BE11A
:104E300031E2309399012093980128E130E03093DA
:104E40009D0120939C0190939F0180939E019093DC
:104E5000A1018093A0011092A2011092A30183E00E
:104E600090E09093AA018093A90110929A01109268
:104E7000A70184E991E00E94B618882339F084E9FB
:104E800091E00E946A1FF5CF80E0C4CF0E943A26CD
:104E900086E090E090937E0180937D018CE1809389
:104EA0007F010895CF93DF9320E04AE355E16CE062
:104EB00070E084E090E00E94821420E04AE355E133
:104EC0006CE070E089E690E00E94821420E04AE302
:104ED00055E16BE170E086EF9FEF0E94821420E0C5
:104EE0004AE355E16BE170E087E790E00E948214AD
:104EF00020E04AE355E169E270E084E090E00E943E
:104F0000821420E04AE355E169E270E089E690E02E
:104F10000E948214C0E7D1E02B813C812F7033279F
:104F20002695269548E055E16BE170E08BE090E036
:104F30000E9482142B813C812F7033272695269561
:104F400048E055E16BE170E08FE690E0DF91CF91B2
:104F50000C948214CF938091760180959091750185
:104F6000892331F082E090E090937C0180937B0173
:104F700020E042E054E161E170E080E290E00E94D4
:104F80008214809173019091740160E370E00E943B
:104F90004D37883170F4C1E18C3008F0CEE120E06B
:104FA0004BEF53E169E170E08BE590E00E948214E1
:104FB00004C0CFE1843208F0C0E28C2F90E020E101
:104FC00034E341E081FD44E080FD440F82FD4295E1
:104FD000887F289FD0011124A30FA556BA4F8C912A
:104FE000842B8C93C0FD0AC020E047EF53E16CE1B5
:104FF00070E08DE290E0CF910C948214CF910895EF
:105000000F931F93CF93DF9320E046E753E161E0D6
:1050100070E081E090E00E94621420E04DE653E1F0
:1050200066E370E081E090E00E94621420E044E6D4
:1050300053E161E070E088E790E00E94621420E0B4
:105040004BE553E166E370E088E790E00E9462146C
:105050004DE761E070E081E090E00E94E1114DE7F2
:105060006DE370E081E090E00E94E1114AE76FE3B8
:1050700070E083E090E00E94E111D0E0C0E010E039
:105080000AE03091320120913101822F90E0D31754
:1050900008F041C0880F991FFC01E25FFE4F0190AC
:1050A000F081E02DED0FF11D2491203249F030F018
:1050B0002E3741F41F5FC0E0DF5FE3CFC20FFCCFAC
:1050C000CC5FFACF2A3340F42033F8F4213209F1CF
:1050D0002E32E9F02FEF09C02134E0F32B3598F0A0
:1050E0008FE9820F27548A31A8F7109FB00111244D
:1050F000635F7F4F8C2F90E043E850E106960E945B
:105100006214CB5FD9CF2154F0CF2C5FEECF2FE3C9
:10511000ECCF2EE3EACF855F9E4FFC0190813917DB
:1051200038F48091730180FF03C03F5F30933201F8
:105130008091760180953091750183238C70A1F167
:105140008091330130913201931315C0811115C044
:105150002F5F209331011092320180913101833011
:1051600019F5C0E080914F01C817B0F48C2F0E9450
:105170006915CF5FF7CF882319F02F5F2093310196
:1051800081E080933301E0913101F0E0E55FFE4F73
:10519000808180933201E1CF1092960586E090E005
:1051A00090937C0180937B01DF91CF911F910F91B0
:1051B00008952F923F924F925F926F927F928F92BB
:1051C0009F92AF92BF92CF92DF92EF92FF920F9396
:1051D0001F93CF93DF93CDB7DEB72D970FB6F8941B
:1051E000DEBF0FBECDBF8091C30490E0019620ECDE
:1051F000289F7001299FF00C112481E0E81AF10822
:10520000E091C504F091C604B680B0948581B822BF
:105210001092CD0480917D0190917E0184309105A2
:1052200008F049C08230910508F05DC0019709F48B
:105230007DC00AE214E07CE0572ECC24CA94DC2C1A
:10524000AB2DA870AD87FAE06F2E712CA2E0AA2ECC
:10525000B12CBFE04B2E85E0382E94E0292E25E0BE
:10526000822E912CF8018081918197FDA2C084E962
:1052700091E00E94D01629833A834B835C836D832F
:105280007E83D8018D919C911197589E9001599ED3
:10529000300D112414968D919C918A30910548F01F
:1052A0008C30910508F454C0E4E18F30910509F485
:1052B00053C0ECE051C08430910509F440C006971A
:1052C00009F0B7CF80917F01882309F4B2CF8150D4
:1052D00080937F018111ADCF81E090E090937E01BA
:1052E00080937D01A6CF80917F0120919E01309116
:1052F0009F01813030F0803370F0215031098333C9
:1053000060F020919E0130919F01E216F30654F463
:1053100010927F018ECF2E5F3F4F30939F012093DD
:105320009E01EFCF815080937F0183CF0E94BD18F3
:1053300084E991E00E946A1F0E943A267ACF0E9477
:10534000BD1884E991E00E946A1F0E943A26BACFF4
:1053500022503109ECE06CE049815A81640F752FCD
:10536000711D261737072CF52E0F311D42175307D5
:1053700004F5F80142815381549E9001559E300DF1
:1053800011244B815C816E81640F752F711D26176E
:1053900037077CF4245F3F4F4217530754F48E3095
:1053A000910509F42DC108F007C10A97029708F486
:1053B00020C1065F1F4FF4E0003C1F0709F052CFE9
:1053C00084E991E00E94B618D82E882331F0D0905D
:1053D000A301D094DD1CDD24DD1C00EB11E0AA2428
:1053E000AA94BA2C92E0892E912C22E3422E34E02A
:1053F000632E712C45E1C42E5DEF352E68EF262E0D
:10540000D80153968C915397882301F1815053967C
:105410008C93539781111AC017961C921797119667
:105420001C921E9256961C921E9255971996BC92EB
:10543000AE9218971B96BC92AE921A971E961C922B
:105440001E971F961C921F9716961C92F801878133
:10545000882309F481C00190F081E02DE491E530CA
:1054600019F0ED3009F0DEC0C8010E946A1FD801B2
:1054700017968C91882309F46FC084E991E00E940B
:10548000D0162F83388749875A876B877C87C80156
:105490000E94D01629833A834B835C836D837E837D
:1054A0004F81588589819A812B85240F352F311D95
:1054B000821793070CF050C0860F911D48175907AB
:1054C0000CF04AC049855A858B819C812C85240F1C
:1054D000352F311D821793070CF03EC0870F911DA9
:1054E00048175907CCF5D801ED91FC915490B5E0DF
:1054F0005B1609F4B1C0EEE05E1609F4C6C0D8012F
:1055000017968C91882341F1DD2009F402C1BDE09A
:105510005B12E2C080917D0190917E010497E1F0E1
:1055200080918401882319F08150809384018091B7
:1055300084018111C6C080917F0181110DC09092BC
:105540007E0180927D0140927F018BEC90E20E946F
:105550002116F8011782C38A045E1F4FB3E0003E94
:105560001B0709F04DCF20917D0130917E01243041
:10557000310508F0E2C02230310508F030C1213099
:10558000310509F40DC12D960FB6F894DEBF0FBE9C
:10559000CDBFDF91CF911F910F91FF90EF90DF90E2
:1055A000CF90BF90AF909F908F907F906F905F90C3
:1055B0004F903F902F9008950F9709F0FACEB1E0E9
:1055C000B093CD04ED85EE2309F4F3CE70927C0107
:1055D00060927B0110938E0100938D01B092900137
:1055E000A0928F01409291013092920120929301FA
:1055F000E0CE90927E0180927D0110927F01D9CE03
:10560000D182C082D382C28280918501909186012D
:105610004496909386018093850183E091E20E94F5
:105620002116C7CED8011A968D919C911B97E8162A
:10563000F9062CF417961C9217975396CC92C80132
:105640000E944F21F80182859385E816F9060CF037
:105650000ECF1782C38A0BCFD80117961C921797CB
:105660005396CC9280918501909186018C599F4FE1
:10567000909386018093850180918401833008F0A6
:105680003ECF8F5F809384013ACFF8011782138A4F
:1056900011821082168A158AB186A086B386A286E8
:1056A0001686178616828091850190918601449610
:1056B000909386018093850183E091E20E942116F8
:1056C0001ECF70927E0160927D0140927F018BEC33
:1056D00090E20E94211640CFD80117961C9217978E
:1056E0005396CC9280918501909186014496909337
:1056F0008601809385018DEB90E20E9421160E9425
:10570000D51482FF03C02092A30126CF3092A301BB
:1057100023CF80917F0181111FCF80918401882345
:1057200019F0815080938401809184018111C9CF47
:1057300090927E0180927D01C8CF2530310509F01D
:1057400022CF10927F0120918701309188012F5F35
:105750003F4F309388012093870180919C01909165
:105760009D016CE070E00E9461378091850190910D
:105770008601680F791F62507109709386016093EA
:1057800085018AE090E090939D0180939C0180E0E8
:1057900020FF88E590E090939F0180939E015BC07D
:1057A00080919E0190919F01E816F9067CF4109279
:1057B000840182E090E090937E0180937D018BECE8
:1057C00090E20E9421168FE280937F0180917F01F9
:1057D000882309F4D8CE815080937F01D4CE809164
:1057E0007F018111D0CE90918401992309F44DC09D
:1057F0009091870190FF88E590E02DE731E23093AA
:105800009501209394012BE431E23093970120938A
:1058100096012BE131E2309399012093980128E120
:1058200030E030939D0120939C0190939F018093E1
:105830009E019093A1018093A0011092A201109269
:10584000A30183E090E09093AA018093A9011092B4
:105850009A011092A7012D960FB6F894DEBF0FBEE5
:10586000CDBFDF91CF911F910F91FF90EF90DF900F
:10587000CF90BF90AF909F908F907F906F905F90F0
:105880004F903F902F900C94A0262230310531F498
:1058900083E090E090937E0180937D01E091C504C8
:1058A000F091C60486818095958189238C7009F4D6
:1058B0006ACE8BE090E090937C0180937B01109204
:1058C0007E0110927D015FCE0F931F93CF93DF93E4
:1058D0008C01EB010E94DB368883C80101960E948F
:1058E000DB368983CE01DF91CF911F910F9108950F
:1058F000FF920F931F93CF93DF93EC01F62E088155
:105900001981C8010E94DB36F81621F06F2DC801FD
:105910000E94E336CE01DF91CF911F910F91FF904E
:105920000895CF93DF9300D0CDB7DEB79A838983F4
:10593000CE0101960E94782C0F900F90DF91CF91AD
:105940000895CF92DF92EF920F93CF93DF93C091A0
:105950007601C09580917501C82320E040EC55E1A7
:1059600064E070E088E190E00E94821420E048EB5F
:1059700055E170E060E083E290E00E94621420E074
:1059800048EB55E170E060E08AE590E00E94621427
:105990000E945227C0903D01D0903E0181E490E0EA
:1059A000C114D10411F483E290E020E04AE955E10A
:1059B0006BE370E00E948214D0916601E12C00E05C
:1059C00024E735E146E855E1D11102C040E655E152
:1059D00068E370E087E790E00E9492148C2F8C704F
:1059E00031F0C114D10431F1CA94CD2851F1C7FD71
:1059F00002C0C4FF0AC0DD2339F10E94E0146091A7
:105A0000660182E090E00E94912CC5FF04C01092D4
:105A10003E0110923D01C6FF06C081E090E09093E8
:105A20003E0180933D01DF91CF910F91EF90DF9088
:105A3000CF90089584E090E090937C0180937B0167
:105A4000D6CF8DE090E0F8CF0E94E514D8CFEF924A
:105A5000FF920F931F93CF93DF930E94522720E072
:105A60004FE753E168E070E082E290E00E94621448
:105A700020E046E753E165E170E088E190E00E94B4
:105A8000621420E04DE653E16FE270E088E190E0BF
:105A90000E94621420E044E653E165E170E080E694
:105AA00090E00E94621420E04BE553E16FE270E069
:105AB00080E690E00E94621448E465E170E088E1CD
:105AC00090E00E94E11148E466E370E088E190E034
:105AD0000E94E1114BE468E370E08AE190E00E94EB
