:100000000C941F120C9447120C9447120C94471234
:100010000C9447120C9447120C9447120C944712FC
:100020000C9447120C9447120C9447120C944712EC
:100030000C9447120C9447120C9447120C944712DC
:100040000C9447120C94D2300C9447120C94471223
:100050000C9447120C9447120C9447120C942830BD
:100060000C9447120C9447120C9447120C944712AC
:100070000C9447120C9447120C9447120C9447129C
:100080000C9472300C9447120C9447120C94471243
:100090000C9447120C9447120C9447120C9447127C
:1000A0000C9447120C9447120C9447120A596F751E
:1000B000722063686F696365206F662072756E6574
:1000C000737E0777696C6C2073656C65637420645C
:1000D0006966666572656E747E0C636F75727365B2
:1000E00073202E2E20736F6D65206172657E0D6505
:1000F0006173696572207468616E206F74686572DF
:10010000732107436F6D7065746520696E20746894
:100110006520747269616C737E06746F2073656507
:1001200020686F772066617220796F752063616E39
:100130007E0B67657420616E6420796F7520636F34
:10014000756C642062657E197468617420636861EF
:100150006D70696F6E210345616368207965617216
:10016000207468652070656F706C65206F667E74A2
:1001700068652076696C6C6167652063686F6F7372
:10018000652061206E65777E0C6368616D70696FB4
:100190006E20746F2070726F746563747E0F746864
:1001A000656D2066726F6D2041737461726F6B2E86
:1001B0000E100000E0E010F0FCFC02FE29FF7DFFC5
:1001C00069FFB9FF01FF82FE7CFC80800000020213
:1001D0000507080F141F001F1F1F071F071F071FFA
:1001E000001F011F1C1F07070000000080807CFC0F
:1001F00082FE01FFB9FF69FF7DFF29FF02FEFCFCC3
:1002000010F0E0E00000000007071C1F011F001FA6
:10021000071F071F071F1F1F001F141F080F0507B9
:1002200002020E100000F0F008F87CFC02FE29FF2C
:100230007DFF69FFB9FF01FF42FEBCBC000000006A
:100240000101020304071A1F001F1F1F071F071FBA
:100250001F1F001F031F181F0F0F000000000000CA
:10026000BCBC42FE01FFB9FF69FF7DFF29FF02FE12
:100270007CFC08F8F0F0000000000F0F181F031FAF
:10028000001F1F1F071F071F1F1F001F1A1F040724
:10029000020301010E10808078F804FC3CFC02FE91
:1002A00029FF7DFF69FFB9FF01FFC2FE3C3C000052
:1002B00000000000010102031D1F001F071F071F90
:1002C000071F1F1F001F061F111F1E1E000000001A
:1002D00000003C3CC2FE01FFB9FF69FF7DFF29FF22
:1002E00002FE3CFC04FC78F8808000001E1E111FFA
:1002F000061F001F1F1F071F071F071F001F1D1FAF
:100300000203010100000E100000F0F008F87CFC70
:1003100002FE29FF7DFF69FFB9FF01FF42FEBCBC61
:10032000000000000101020304071A1F001F1F1F25
:10033000071F071F1F1F001F031F181F0F0F00009D
:1003400000000000BCBC42FE01FFB9FF69FF7DFF59
:1003500029FF02FE7CFC08F8F0F0000000000F0FFF
:10036000181F031F001F1F1F071F071F1F1F001F2E
:100370001A1F0407020301010E100000E0E010F054
:10038000F8F804FC52FEFAFED2FE72FE02FE84FC75
:1003900078780000000002020507080F141F001FF4
:1003A0001E1F061F061F1F1F001F061F111F1E1ED8
:1003B000000000000000787884FC02FE72FED2FE8D
:1003C000FAFE52FE04FCF8F810F0E0E00000000035
:1003D0001E1E111F061F001F1F1F061F061F1E1FA8
:1003E000001F141F080F050702020E100000F0F096
:1003F00008F87CFC04FC52FEFAFED2FE72FE02FEFD
:1004000004FCF8F8000000000101020304071A1FB1
:10041000001F1E1F061F061F1F1F001F031F181F80
:100420000F0F000000000000F8F804FC02FE72FE4E
:10043000D2FEFAFE52FE04FC7CFC08F8F0F000004C
:1004400000000F0F181F031F001F1F1F061F061F8E
:100450001E1F001F1A1F0407020301010E100000D7
:10046000F0F008F87CFC02FE29FF7DFF69FFB9FF70
:1004700001FF42FEBCBC00000000010102030407B2
:100480001A1F001F1F1F071F071F1F1F001F031F0B
:10049000181F0F0F000000000000BCBC42FE01FF4F
:1004A000B9FF69FF7DFF29FF02FE7CFC08F8F0F030
:1004B000000000000F0F181F031F001F1F1F071F42
:1004C000071F1F1F001F1A1F0407020301010F103F
:1004D0000002000000000000000000000204000014
:1004E00008100000000000000000000020000205CD
:1004F00002000000000000000002050A04081428A1
:100500001000000000000000002050200F1000002C
:10051000020600000000000000060A0C00000C1497
:10052000180000000000001028100000000205095B
:10053000060000000000060915120C0C122A2438CF
:10054000000000001028542810000F1000000C12AA
:100550001A04000000040A12120C00000609110A15
:1005600004000000081422120C00000C92AD251AA1
:100570000400040A152D2D120C0609162E150A0466
:100580000008142A5D2D120C0F10000080982424FE
:10059000120C00081422120C0000030408090600C3
:1005A0000C1221120C00010000805864DA5A2D123E
:1005B0000C942A5D2D920C03040B1716090E122DB4
:1005C0005E2D120D02010F1000C02018240402023B
:1005D000020A040408F00000030408081420202084
:1005E00021120C020100C020D8E4DAFAFDFDFDF56D
:1005F000FAFAF408F003040B17172B5F5F5F5E2D08
:10060000130D02010C10000000008060101030205B
:10061000C00000000000010202040402010000000A
:1006200000806090E8E8C8D020C00000000102050A
:10063000050B0B0502010B10000000000000C0209C
:1006400020C00000000000000000010100000000C8
:10065000000000C020D0D020C00000000000000139
:100660000202010002070200000000000000000278
:10067000070E04081C3810000000000000000020D5
:1006800070200002070F060000000000070F1F1E69
:100690001C0E1E3E3C380000000010387C38100054
:1006A000000C9EBF3F1E0400040E1F3F3F1E0C06A1
:1006B0000F1F3F1F0E0400081C3E7F3F1E0C0080D2
:1006C000D8FCFE7E3F1E0C9C3E7F3F9E0C03070F16
:1006D0001F1F0F0E1E3F7F3F1E0D0301C0E0F8FCE1
:1006E000FEFEFFFFFFFFFEFEFCF8F003070F1F1FDB
:1006F0003F7F7F7F7F3F1F0F030100000080E0F0FE
:10070000F8F8F8F0E0C0000000010307070F0F073A
:1007100003010000000000C0E0F0F0E0C0000000B5
:1007200000000001030301000808FF81A58181A5E5
:1007300081FF0808FF8185B5959D81FF0C0C7C7CAD
:1007400082FE01FF11FF09FF02FE02FE01FF01FF11
:1007500001FF82FE7C7C000000000101020304070F
:10076000080F080F04070203010100000000101029
:10077000000000C0C0E020F010F890F808FC08FC71
:1007800010F808FC04FE94FE44FE387E023F00028E
:10079000001E1E3F217F4CFF56FF5EFF4CFF217F56
:1007A000247F207F103F0C1F030F00030000000078
:1007B0000C0CF8F804FCFAFECDFFBDFFCDFFFDFFE9
:1007C0007DFF7DFF3AFE04FCF8F8010102030507F6
:1007D000080F090F080F090F080F0A0F050702037A
:1007E0000101F8F804FC3AFE7DFF7DFFFDFFCDFF1F
:1007F000BDFFCDFFFAFE04FCF8F801010203050776
:100800000A0F080F090F080F090F080F0507020349
:1008100001010C0C004C4CFE90FC4CFEB6FF9EFF00
:100820009EFFB6FF4CFE90FC4CFE004C0000000CFE
:10083000040F030700030207020700030307040F66
:10084000000C00000C0C000000C0C0F898FC6CFE0E
:100850005CFE6CFEBCFED8FCC0F800C000000007C7
:10086000070F090F060F090F010F030F090F060FDE
:10087000090F070F0007000000C0C0F8D8FCBCFE3D
:100880006CFE5CFE6CFE98FCC0F800C00000000727
:10089000070F090F060F090F030F010F090F060FAE
:1008A000090F070F0007D5F08D14A1C881CFD9F12A
:1008B000AF20000808003C3C7E42FF52FF5AFF4236
:1008C000FF3C7E003C0000003C3C7E42FF52FF3C6F
:1008D0007E003C000000000000003C00FF3CFF00E8
:1008E0003C000000000000003C3C7E5AFF42FF3C00
:1008F0007E003C00000E00000000000C0C7C7C829E
:10090000FE01FF11FF09FF02FE02FE01FF01FF01D0
:10091000FF82FE7C7C000000000101020304070846
:100920000F080F0407020301010000000005000189
:1009300000000090320032903A0032904400329031
:1009400048003280F002020303FCFEFFFFFFFFFFBE
:10095000FFFFFFFFFFFFFFFFFFFFFFFFFFFFFFFFA7
:10096000FFFFFFFFFFFFFFFFFFFFFFFFFFFEFC0397
:10097000070F0F0F0F0F0F0F0F0F0F0F0F0F0F0F8F
:100980000F0F0F0F0F0F0F0F0F0F0F0F0F0F0F0F77
:100990000F0F0F0703260CFC02F905050D050505D1
:1009A0000D0505050D0505050D0D0D0D0505050DBF
:1009B0000505050D0505050D0505F902FC030409EE
:1009C0000A0A0B0A0A0A0B0A0A0A0B0A0A0A0B0B82
:1009D0000B0B0A0A0A0B0A0A0A0B0A0A0A0B0A0A72
:1009E00009040380C0E0E0E0F0FCFEFFFEFCE0E074
:1009F000E0E0E0E0E0E0E0E0E0E0C0C0E0E0E0E037
:100A0000E0E0E0E0E0E0E0E0E0E0C0C0E0E0E0E026
:100A1000E0C080000080C0E0E0E0E0E0E0E0E0E096
:100A2000E0E0C0C0E0E0E0E0E0C0E0E0E0E0E0C046
:100A3000E0E0E0E0E0E0E0E0C0C0E0E0E0E0E0E0F6
:100A4000E0E0C080000003070F0FFFFFFFFFFFFF84
:100A50007F0F07FFFFFFFFFFFFFFFFFFFFFFFFFF0E
:100A6000FFFFFFFFFFFFFFFFFFFFFFFFFFFFFFFF96
:100A7000FFFFFF07000000FFFFFFFFFFFFFF0FFF6B
:100A8000FFFFFFFFFFFFFFFFFFFFFFFFFFFFFFFF76
:100A9000FFFFFFFFFFFFFFFFFFFF77FFFFFFFFFFEE
:100AA000FFFFFFFFFF7F3F0000000000FFFFFFFF91
:100AB000FFFF00000001FFFFFFFFFF7FFFFFFFE3DD
:100AC000FFFFFFFFFF1F3F7FFFFFFFFF7F3F0F077E
:100AD0001F7FFFFFFFFCE08000037FFFFFFFFFFFA2
:100AE00080FFFFFFFFFF3F070F1F3F7FFFFFFF7FDD
:100AF0003F1F0F03070F1F3F7FFFFEF0E041FFFF87
:100B0000FFFFFF7FFFFFFFE080000000000000FF0D
:100B1000FFFFFFFF0000000003070F0703000001B5
:100B200003017FFFFFFF7F000000000101000000C4
:100B300000000000000103070F1F0E0400030F7FD9
:100B4000FFFFFFFFFF7F0F0100000000000000011A
:100B50000000000000000000000000000001000094
:100B600003070F070300000103010000000000005D
:100B700000070F1F0F07000000000000000000002A
:100B80000000000000000100000000000000000064
:100B90000000000000000000000000000000000055
:100BA0000000000103010000000000000000000040
:100BB0000000000000000000000000000000000035
:100BC000000000000000000000000000006225009E
:100BD0008040404040700C021C604040404040401B
:100BE0004040404040408000C0404040C040404005
:100BF00040404040404080804040404040800000B5
:100C000000008040404040404040404040408080A4
:100C10004040404040804040404040804040404054
:100C20004040404080804040404040404040800044
:100C300000000003040404FC0000807C04040201A2
:100C4000FF000000FC241880403FFF000000FF036D
:100C500000B02C222CB000000FFC030000F80700AD
:100C600000000000FF000000FC040404FC00000081
:100C7000FFFE010000F00E010EF0000003FF8000F7
:100C8000001CD45454542300FF000000FC3C00809E
:100C9000403F00000000000000FF0000FF000000D7
:100CA000000001FE00FE0718609F608003FC00F852
:100CB000070C102759A1B14F3008070106186083AF
:100CC0001C6080000000037C80007F8000807F002B
:100CD000C03C03000608102344884423100C030082
:100CE00001060810234C50A0400001FE00FE07182A
:100CF000609F60800000000000000000FF00FF0017
:100D00000000000000030403000000000100007F59
:100D1000807F0000000000000000000000000000D4
:100D200000000102050A04000000030C708F708FA0
:100D3000700E010000000000000000000000000034
:100D40000000000000000000000000000003040399
:100D50000000000001000000000000000000070883
:100D6000070000000000000000000000000000007C
:100D70000000000000000000000000000000000073
:100D80000000000000000000000000000000000063
:100D90000100000000000000000000000000000052
:100DA0000000000000000000000000000000000043
:100DB0000000000000000000009034011B91400082
:100DC0008D81008D9142008D81008D9140008D813B
:100DD000008D9143008D81008D9142008D81008DA9
:100DE0009140008D81008D9142008D8081008D9019
:100DF00032011B9140008D81008D9142008D810058
:100E00008D9140008D81008D9143008D81008D91E9
:100E100042008D81008D9140008D81008D914200B6
:100E20008D81008D913080011B9040008D80008D60
:100E30009042008D80008D9040008D80008D904309
:100E4000008D80008D9042008D80008D9040008D3F
:100E500080008D9042008D80008D903281011B9129
:100E600040008D81008D9142008D81008D91400068
:100E70008D81008D9147008D81008D9145008D8180
:100E8000008D9143008D81008D9142008D81008DF8
:100E900080E01410070387C3E244A347A347A703D6
:100EA000070387C3E244A3470502040100040205C7
:100EB0000205020005020401000402051A240000D4
:100EC0000000FEFCDC2C36F616EE767AFA7A7AF220
:100ED000E60E16F6362CDCFC00181810939716D583
:100EE00095D694C38FC68DC78EC391D090D191D51E
:100EF00096D700000000FFFF00FF6262626A626234
:100F00006A62626AE2622AA2A2AAA26200000000E9
:100F1000FFFF00FFFFFFE363636341E3F7FF01FCB3
:100F2000030000000000000000000F0F000F0F077B
:100F300008050F050304030F000F00000000000068
:100F400004081E3F211E223E3F2032292532122551
:100F50003F1A0C2A3F2C17253D181E3F2518233910
:100F60003D231A252D1A062F291E030511000533CE
:100F7000100301FF0103FE0101FE01FF21211E00FC
:100F8000000002012121DE0000000301FF01030136
:100F9000FF2121DE0001FF0100FE2121FE00FF00F4
:100FA000001E31C7000407040003040403040704FF
:100FB0000000000000020404040300000000040715
:100FC00004000407040003040407040007000007EA
:100FD0000007040406040304083E09093E3F2525D2
:100FE0001A1E2121123F21211E3F2525213F0505E3
:100FF000011E21293A3F04043F213F2100102121F5
:101000001F3F040A313F2020203F02023F3F0204DD
:101010003F1E21211E3F0909061E21112E3F0909ED
:101020003622252519013F01011F20201F0F102006
:101030001F3F10103F3B04043B03043807312D23AE
:1010400021102A2A3C3F2424181C2222141824246C
:101050003F1C2A2A2C047E05014C52523E3F0404B8
:1010600038243D20004040443D3F081422213F20C9
:10107000003E04043E3E04023C1C22221C7E22222E
:101080001C1C22227E3E040204242A2A12021F2251
:10109000201E20201E0E10201E3E10103E36080876
:1010A000364E50503E322A26221E29251E223F202F
:1010B00000322929261221251A0C0A3F0817252556
:1010C000191E252518013905031A25251A0629296F
:1010D0001E002F00000020000000000000903200E1
:1010E0001480F00703010307030502010703040648
:1010F00007060502040508EDF6C9F6EDFDFDC0EF93
:10110000EFFCFBC0FBFCFDC1FEC1FDF7EFC0FDFB2A
:10111000FDFBC4FBFD0C0EFC02F9FDFDFDFDFDF920
:101120000102FC0F10272F2F2F2F2F2720100F0029
:10113000FC02F90D2DFDF90102FC00000F10272E15
:101140002C2F2720100F000000FC02F90DF90102DE
:10115000FC000000000F10272C2720100F000000BB
:101160000000FC02F90102FC0000000000000F106A
:101170002720100F00000000000000FE0101FE000B
:10118000000000000000001F20201F0000000000E1
:101190000000FC0201F902FC0000000000000F103A
:1011A0002027100F0000000000FC0201F9FDF902E9
:1011B000FC000000000F1020272F27100F00000058
:1011C000FC0201F9FDFDFDF902FC00000F102027D3
:1011D0002F2F2F27100F00FC0201F9FDFDFDFDFD53
:1011E000F902FC0F1020272F2F2F2F2F27100FFC75
:1011F00002F9FDFDFDFDFDFDF902FC0F10272F2F6B
:101200002F2F2F2F27100F00FC02F9FDFDFDF901F4
:1012100002FC00000F10272F2F2F2720100F000097
:1012200000FC02F9FDF90102FC000000000F10278C
:101230002F2720100F0000000000FC02F90102FC23
:101240000000000000000F102720100F0000000019
:10125000000000FE0101FE00000000000000001F71
:1012600020201F00000000000000FC0201F902FC29
:101270000000000000000F102027100F00000000E9
:1012800000FC0201F90DF902FC000000000F102023
:10129000272C27100F000000FC0201F9FD0D2DF98D
:1012A00002FC00000F1020272F2E2C27100F000704
:1012B00008FF0155110D010505010D115501FFFF35
:1012C00080AA88B080A0A080B088AA80FF3B1001CF
:1012D000FF21710301FF06186081FF010301FF0177
:1012E0000301FF21710301FF2121DE000000000046
:1012F00001FF2121DE01FF0000FF01FF06186081D0
:10130000FF01FF2171030E1121C704070404070424
:101310000700000005070400040704000407040494
:10132000070407040003040000000004070400038E
:101330000403040403040700000005070407040471
:1013400006020404030208D4D205087F7F3E1C086D
:101350004120FE0105F1F1F111D1B1D111F151514D
:101360005151515151515151515151510000FF00B2
:10137000007F7F09090F06007F7F19396F46007FC4
:101380007F4949414100266F49497B3200266F4918
:10139000497B32FF0000FFFFFFFEFFFEFF0279CD19
:1013A00095A5CD790111111101F9F901010000FF95
:1013B00000007F7F09090F06007F7F40404040000A
:1013C0007C7E0B0B7E7C00070F78780F07000000F7
:1013D00000000000FF00001F3F3F33333333333E34
:1013E00036363E363E363E36363E36363E360000E1
:1013F000FF00003E7F41417F3E007F7F0E1C7F7FCC
:1014000000000000000000000000000000000000DC
:1014100000000000003F40504040407846414159A4
:1014200059414141415959414141414141414100A5
:10143000007F000001017F7F0101007C7E0B0B7E9D
:101440007C007F7F09090F06007F7F4949414100E9
:1014500000000000000006104090BA9C904004007C
:101460000A0A00044098B8B5984004000A0A00042B
:1014700040909CBA904004000A0A00044098B5B815
:10148000984004000A0A0004120B0010001010908B
:10149000100017001D181010101010100000000090
:1014A00000070604040404040400040000000910FA
:1014B00000382844FE00000000000000000000008A
:1014C00000007C7CFEFFFFFFFFFFFF00000001012A
:1014D0000101010109100038387CFE00549200001F
:1014E00000000000000000001C04010202020202D1
:1014F000020202040200060D0F06000204020202AC
:10150000020202020201030C6688330608034F350B
:1015100000000000000000000000000000000000CB
:1015200000000000000000008040A05028D4EA72B3
:101530003A9A9A1232F5E191E1F234129A9A3A7299
:10154000EAD42850A0408000000000000000000005
:10155000000000000000000000000000000000008B
:10156000000000008040C08000000C04FC040C045B
:10157000FC8484FC0404FC85C40C0100010D04FD02
:10158000040C05FC8485780104FC0500F88584F9C9
:1015900001FC010078C51C000000F80404F80004F8
:1015A000FC84C40C00008040C0800000000000806B
:1015B00080808081838381808080909F9080909FB5
:1015C00090909F90909F90919C80808080909F9021
:1015D00080909F90808F90909F90809F80809F8030
:1015E0009F909098908F8080808F90908F80909F18
:1015F00090818080808183838180808000010000D1
:10160000F8FC7C1C3CFCFCF80000008C1C1C1C142E
:1016100074E4E4C40004040CFCFCFC0C04040000AE
:10162000F4FC3C1C1C7CFCFCC40004FCFC1C1C1CCE
:10163000FCF8300000F8FC3C1C1C7CFCF8000004AA
:10164000FCFCFC000084FCFC04000001000000FF26
:101650000700181818FFFF000000031F3F63C302B4
:1016600007070100000000FFFF0F00000000000F4F
:1016700031C30303017F0F07000001FF000C3FF39C
:10168000000000001F3F40C040203F1F000000FF3F
:10169000FF7F187EFF03000000000000000000072D
:1016A000080000807F030000000000000000000030
:1016B0000000000000000007000000000000000023
:1016C0000000000000000000000007000000000310
:1016D0000000000000000000000000000000010FFA
:1016E000000000011F78C0000000000000000000A2
:1016F00000000100000000000012150900020F1296
:10170000000C121E001E020600020F120000000054
:10171000000000000000121509000C1212001E1239
:101720001E001E0206000C1A140014120A0000000B
:101730000000000000000100000808003C3C7E4260
:10174000FF52FF5AFF42FF3C7E003C0000003C3C41
:101750007E42FF52FF3C7E003C0000000000000083
:101760003C00FF3CFF003C000000000000003C3C4F
:101770007E5AFF42FF3C7E003C00000C10F8F8044B
:10178000FCFAFEA5FF81FFC3FFF1FFFDFFF5FFFAA5
:10179000FE04FCF8F80000636394F7ABFFB7FFBEEC
:1017A000FFBDFFB6FFABFF94F763630000F8F804DA
:1017B000FCFAFEFDFF95FFC3FFFDFFFDFFF5FFFAFD
:1017C000FE04FCF8F80000636394F7ABFFB7FFBEBC
:1017D000FFBDFFB6FFABFF94F7636300000C100082
:1017E00000C6C629EFD5FFEDFF7DFFBDFF6DFFD51C
:1017F000FF29EFC6C600001F1F203F5F7FA5FF81A6
:10180000FFC3FF8FFFBFFFAFFF5F7F203F1F1F00A2
:1018100000C6C629EFD5FFEDFF7DFFBDFF6DFFD5EB
:10182000FF29EFC6C600001F1F203F5F7FBFFFA933
:10183000FFC3FFBFFFBFFFAFFF5F7F203F1F1F063C
:101840000394022202B0015C04EA0378030E104004
:1018500040BCFC02FE9EFE02FE19FF3DFF35FFB9B3
:10186000FF01FF42FEBCBC000000000000000001C0
:10187000011E1F001F0F1F071F071F1F1F001F0331
:101880001F181F0F0F000000000000BCBC42FE012B
:10189000FFB9FF35FF3DFF19FF02FE9EFE02FEBCB1
:1018A000FC404000000F0F181F031F001F1F1F07E1
:1018B0001F071F0F1F001F1E1F0101000000000057
:1018C000000000240027002A002D00300000000046
:1018D00000250028002B002E003100040802011012
:1018E0004080401020408040800802040180402059
:1018F000100201108010204040200404040404035E
:10190000040502020202040302020202060606069F
:10191000060604040202020404060115012601372A
:10192000014A015D01720188019F01B801D201EEF7
:10193000010B022A024B026E029302BA02E4021069
:10194000033F037003A403DC03170455049704DD6D
:101950000427057505C80520067D06E0064907B879
:10196000072D08A9082D09B9094D0AEA0A900B406C
:101970000CFA0CC00D910E6F0F5A1053115B1272BE
:10198000139A14D41520178018F519801B231DDE17
:101990001EB420A622B524E4263429A72B402E000D
:1019A00031EA330037453ABC3D68414C456B49C884
:1019B0004D68524F57805C006210111213151617B4
:1019C000181A1C1D1F21232527292C2E3134373AA4
:1019D0003E4145494E52575C62686E757B838B93DE
:1019E0009CA5AFB9C4D0DCE9F7041EFFFFFFFFFFE1
:1019F000FFFFFFFFFFFEFEFFFFFFFFFFFFFFFFFFF9
:101A0000FEFEFFFFFFFFFF7EFFFFFFFFFFFEFEFF6B
:101A1000FFFFFFFFFFFFFFFFFEFEFFFFFFFFFFFFD8
:101A2000FFFFFFFF3E040000FFFFFFFFFFFFFFFF80
:101A3000FF7FFFFFFFFFFFFFFFFFFFFFFFFFFF7FB6
:101A4000FFFFFFFFF0FFFFFFFF7F1F1F3F3F1FDF75
:101A5000FFFFFFFF7F3F7FFFFFFFFFFFFFFFFFFB5A
:101A600070200000001FFFFFFFFFFF0301000001C7
:101A70001FFFFFFFFFFFFFFFFFFFFF3F000001030E
:101A80000707070301000000000002070F0703011A
:101A900000000000030F3FFFFFFFFCE0000000001C
:101AA0000000003F7FFF7F3F0000000000000001BA
:101AB0000301387FFF7F3F070000000000000000A7
:101AC0000000000000000000000000000000000016
:101AD000000000000003070F1F0F0400003D20005E
:101AE000041AE2020202E222E2020204FC1A0202E8
:101AF000C222E2020202FCF40A0202C2320C728228
:101B000002021AE4E41A0202C22222A2C2A21CFCAD
:101B1000020202E222E20202C23A0400000000FFD6
:101B20000000FF40388740201CFF0000EC4B844839
:101B3000DF0000C33F1860801F6080700F80601C52
:101B4000030F10100A09C93D8040300F077880004C
:101B50000FC8874C4B502000000000001FE000FE23
:101B6000020100000000011EE01FE00000FF00C0B5
:101B70003F0000000001020202010000000000001E
:101B80000002050201000000000000030C30C31C2D
:101B9000E00000000000000000003F403F000000A7
:101BA0000000000000000100003847380700000076
:101BB0000000000000000000000000000000000025
:101BC00000000000000000000000000003040B04FF
:101BD00000000004081E3F211E223E3F203229251E
:101BE0003212253F1A0C2A3F2C17253D181E3F257F
:101BF0001823393D231A252D1A062F291E070606FC
:101C00000F1F3E1F0F0606091122110906031002BD
:101C1000FC0000FF00FFFFFE50A04080000000001D
:101C200000000000000000000000000000000000B4
:101C300000FFFFFFFDFEFDFEFDFEFCFCFCFCFCFCCE
:101C4000FCFCFCFCFCFCFCFCFCFCFCFCFCFFFFFFCB
:101C5000FFFFFFFFFFFFFFFFFFFFFFFFFFFFFFFF94
:101C6000FFFFFFFFFFFFFFFFFFFFFFFFFFFFFFFF84
:101C7000FFFFFFFFFFFFFFFFFFFFFFFFFFFFFFFF74
:101C8000FFFFFFFFFF0F0F0F0F0F0F0F0F0F0F0FB4
:101C90000F0F0F0F0F0F0F0F0F0F0F0F0F0F0F0F54
:101CA0000F1C24FE0000A040800000000000000087
:101CB0000000000000000000000000000000009391
:101CC000D090DA1B9A991A1800C080C080C080C0DA
:101CD00080C0800000000000C0C000EA6262FF0017
:101CE000FFFF000000DDCCCCCCCCCCCCCCCCCC00ED
:101CF000C0000000FFFF0001FF77FF00FFFF0000B2
:101D000000DDCCCCCCCCCCCCCCCCCC00CC000000FE
:101D1000FFFF00000F0F0F000F0F0000000D0C0C55
:101D20000C0C0C0C0C0C0C000C0000000F0F000C29
:101D30000C048E46A2428642A2468E4284000207CE
:101D400007050603070506070219A6BE5E3EFE7ECE
:101D50007E6E76EE01040202040408050D050D04F2
:101D600000FEFFFFFFFFFFFFFFFFFFFFFE00030777
:101D70000F0F07070F0F0703000C0C007AB676B69B
:101D800076BA7ABA7A36000000000000000000003F
:101D90000000001808F8FCFCFCF8F8F8F0F0F0F887
:101DA000F8F8FCFCFCF8F8F8F0F0F0F8F836060467
:101DB00006C60588054A050C05CE041207FA06DC9E
:101DC00006BE06A006820664061810808040C0A0E9
:101DD000E0A0E0A0E0A0E090F0A8F894FC8AFE8AE1
:101DE000FE8AFE05FF85FF85FF85FF4AFE6AFE3AF3
:101DF000FE1AFE0AFEC4FC18F8E0E00F0F303F0E9A
:101E00003F303F033F173F143F173F133F103F0042
:101E10003F1E3F303F003F003F303F0E3F003F320C
:101E20003F121F111F080F040703031410C0C03016
:101E3000F0C8F8F4FC1AFE65FF6DFF6AFE6AFE2A20
:101E4000FECAFEF2FE3AFE05FF05FF32FEC4FC08A4
:101E5000F830F0C0C01F1F607F1D7F617F077F2F9C
:101E60007F297F2F7F277F217F017F3D7F607F003C
:101E70007F017F617F1D7F007F607F1F1F0808003B
:101E80003C3C7E42FF52FF5AFF42FF3C7E003C003A
:101E900000003C3C7E42FF52FF3C7E003C000000C4
:101EA000000000003C00FF3CFF003C000000000080
:101EB00000003C3C7E5AFF42FF3C7E003C0000F0AC
:101EC000F8F8F8F8FEFFFFFEF8F8F8F8F8F8600701
:101ED00007070707FFFFFFFF0707070707030010B4
:101EE00010F0084848484E0D4F0E4848080898F82A
:101EF000600704050405FD0DFDFC0504040407034B
:101F00000000F0B0B0B0B0F2B0F0B0B0F0F06000EF
:101F100000000302030202F20203020303030000B3
:101F2000000D10FC02A9DDFDFDFD7D818101010197
:101F3000FF00AFDFFFFFFFF004078000A0000000FC
:101F4000FFFFFEFEFEFFFFFFFFFFFFFFFFFFFFFFA4
:101F5000FFFFFFFFFEFEFE3C3C3CFFFFFFFFFFFFDD
:101F6000FFFFFFFFFFFFFFFFFFFFFFFFFFFFFFFF81
:101F7000FF000000FFFFFFFFFFFFFFFFFFFFFFFF6E
:101F8000FFFFFFFFFFFFFFFFFFFFFF000000FFFF5E
:101F9000FFFFFFFFFFFFFFFFFFFFFFFFFFFFFFFF51
:101FA000FFFFFFFFFF0000000F0F0F0F0F0F0F0FBE
:101FB0000F0F0F0F0F0F0F0F0F0F0F0F0F0F0F1A26
:101FC0002400000000FEFCDC2C36F616EE767AFAD1
:101FD0007A7AF2E60E16F6362CDCFC00181810930E
:101FE0009716D595D694C38FC68DC78EC391D090C2
:101FF000D191D596D700000000FFFF00FF6262621A
:102000006A62626A62626AE2622AA2A2AAA26200AA
:10201000000000FFFF00FFFFFFE363636341E3F79E
:10202000FF01FC030000000000000000000F0F0093
:102030000F0F0708050F050304030F000F00000032
:10204000000000FFFFFFFFFFFFFFFFFFFFFFFF0F8D
:102050000F0F0F0F0F0F0F0F0F0F0F440844081231
:1020600008B0076E073C073207280732072F1D0606
:10207000104090BA9C904004000A0A00044098B8AE
:10208000B5984004000A0A000440909CBA904004AD
:10209000000A0A00044098B5B8984004000A0A00F3
:1020A00004120B001000101090100017001D1810E3
:1020B00010101010100000000000070604040404B3
:1020C00004040004000000030C6688330608034083
:1020D00018AA00AA00AA01AB07AF1FBF7FBF7FFFEE
:1020E000FFFF7FFF7FFF7FBF1FBF1FAF07AB03ABAC
:1020F00007AF1FBF7FBF7FFFFFFFFFFFFFFFFFFF98
:102100007FBF7FFF7FFF7FBF1FBF1FAF07AB01AA4E
:1021100000AAFDAAFDAAFDAAFDAAFDAAFDAAFDAA84
:10212000FDAAFDAAFDAAFDAAFDAAFDAAFDAAFDAA77
:10213000FDAAFDAAFDAAFDAAFDABFDABFDABFDAA64
:10214000FDAAFDAAFDAAFDAAFDAAFDAAFDAAFDAA57
:10215000FDFBFFFEFFFBFFFEFFFBFFFEFFFBFFFEA5
:10216000FFFBFFFEFFFBFFFEFFFBFFFEFFFBFFFE93
:10217000FFFBFFFEFFFBFFFEFFFBFFFEFFFBFFFE83
:10218000FFFBFFFEFFFBFFFEFFFBFFFEFFFBFFFE73
:10219000FF040400070207000700000007020F0405
:1021A0000F000E000E040F020F0007904E00469025
:1021B0005300469066004680F0906E0032906800B2
:1021C0003290620032905C003290560032905000A3
:1021D00032904A003290440032903E003200149017
:1021E0003E00320014903E00320014903E003280D7
:1021F000F09044003290490032904E0032905300EB
:102200003280F0903C001480F00C0C000000C0C044
:10221000F898FC6CFE5CFE6CFEBCFED8FCC0F800BE
:10222000C000000007070F090F060F090F010F0379
:102230000F090F060F090F070F0007000000C0C0AD
:10224000F8D8FCBCFE6CFE5CFE6CFE98FCC0F8008E
:10225000C000000007070F090F060F090F030F0149
:102260000F090F060F090F070F00070000000000FD
:1022700000904E001E9053001E9058001E905D006E
:102280001E80F00C0E000070708CFC02FE09FF1D19
:10229000FF1DFF09FF02FE8CFC70700000000000B3
:1022A0000001010A0B01011617020301010A0B01CB
:1022B00001000000000000808060E014F420E01ABB
:1022C000FA10F020E014F460E080800000000003C9
:1022D000030C0F101F243F2E3F2E3F243F101F0CD6
:1022E0000F030300000D00000000001010000000AC
:1022F000C0C0E020F010F890F808FC08FC10F808C6
:10230000FC04FE94FE44FE387E023F0002001E1EC6
:102310003F217F4CFF56FF5EFF4CFF217F247F2033
:102320007F103F0C1F030F00030000000004010298
:102330000000000C0C004C4CFE90FC4CFEB6FF9EC6
:10234000FF9EFFB6FF4CFE90FC4CFE004C000000D0
:102350000C040F030700030207020700030307042E
:102360000F000C00000200020F0F0F0C0CF8F80415
:10237000FCFAFECDFFBDFFCDFFFDFF7DFF7DFF3AE7
:10238000FE04FCF8F8010102030507080F090F0815
:102390000F090F080F0A0F050702030101F8F804DF
:1023A000FC3AFE7DFF7DFFFDFFCDFFBDFFCDFFFAB7
:1023B000FE04FCF8F80101020305070A0F080F09E3
:1023C0000F080F090F080F050702030101030002A0
:1023D00001050D0C0C000000C0C0F898FC6CFE5C00
:1023E000FE6CFEBCFED8FCC0F800C0000000070771
:1023F0000F090F060F090F010F030F090F060F0931
:102400000F070F0007000000C0C0F8D8FCBCFE6C2E
:10241000FE5CFE6CFE98FCC0F800C00000000707E0
:102420000F090F060F090F030F010F090F060F0900
:102430000F070F00070100010307070043311124B4
:102440001FBECFEFDAE0DEBFCDBF11E0A0E0B1E00C
:10245000E0EDFCE602C005900D92A633B107D9F776
:1024600029E0A6E3B1E001C01D92AC35B207E1F767
:1024700012E1CFE1D2E104C02197FE010E9459365A
:10248000CE31D107C9F70E94DD310C9466360C9429
:1024900000006F927F928F929F92AF92BF92CF92E5
:1024A000DF92EF92FF920F931F93CF93DF936C0114
:1024B000DB0148017E2D4115510509F49DC0FA014B
:1024C0006491319684914E5F5F4FC62FD0E02223F6
:1024D00001F1E1E0F0E0982F977011F4F0E0E0E016
:1024E000082F0695069506950E0F1F2F111D0C9FA0
:1024F000F0010D9FF00D1C9FF00D1124733011F4AD
:10250000EE0FFF1F2E9F80012F9F100D1124400FF3
:10251000511F86010C0F1D1F101611060CF06CC008
:10252000F0E8CF16D1040CF067C09D01280F311DD3
:10253000121613060CF060C0A034B1050CF05CC09C
:102540004115510509F458C03A2F3770FD01B7FD08
:10255000379693E0F595E7959A95E1F72E2FB7FF1B
:1025600004C0332311F02FEF2E0FEE27FF27EC19B5
:10257000FD09D7FC02C0F0E0E0E090E89C190038CB
:1025800011050CF4962F9E1BA22F022E000CBB0BE4
:102590001A2F10952F3F0CF010E0BB24B394082F96
:1025A000077009F4B12C869586958695B80EAB0D0B
:1025B000B11D19971CF0A8E0BA2EB21AB11A210F5A
:1025C00000E82003D0011124AC0DBD1DAE0FBF1FCC
:1025D000619FE00DF11D11244E0F5F1FC32E032ECE
:1025E000000CDD08733009F418C1A8F4713009F447
:1025F000CAC0723009F478C0DF91CF911F910F915A
:10260000FF90EF90DF90CF90BF90AF909F908F9012
:102610007F906F9008957A3FB1F10B2D020F7B3FB1
:1026200059F7201749F3BD01645A7A4FF12CE12C78
:10263000E91608F0A2C0FA01EE0DFF1DE491F0E0EA
:102640004F010C2C02C0880C991C0A94E2F727FD5C
:1026500006C0FB018081182D1095812380833323D0
:1026600061F0273054F45B01F0E8AF0EB11C192D76
:102670001095F501808181238083FFEFEF1AFF0A17
:102680006F5F7F4FD5CF0B2D020F201709F4B4CF0A
:10269000BD01645A7A4FF12CE12CE91608F067C0AD
:1026A000FA01EE0DFF1DE491F0E04F010C2C02C089
:1026B000880C991C0A94E2F727FD04C0FB01808175
:1026C00088298083332351F0273044F45B01F0E8FC
:1026D000AF0EB11CF501808189298083FFEFEF1ACD
:1026E000FF0A6F5F7F4FD9CF6FEF70E0032E02C0FC
:1026F000660F771F0A94E2F760957095972E8B2CE2
:10270000820E281509F478CF8D01045A1A4FF12C46
:10271000E12CE91630F5FA01EE0DFF1DE491F0E031
:102720003F010C2C02C0660C771C0A94E2F727FDCF
:1027300005C0F8018081862386298083332359F0E0
:1027400027304CF45801F0E8AF0EB11CF501808140
:10275000892187298083FFEFEF1AFF0A0F5F1F4F40
:10276000D8CF2F5F4C0F5D1FA058BF4FCACF2F5F30
:102770004C0F5D1FA058BF4F88CF2F5F4C0F5D1FC0
:10278000A058BF4F4ECF84010E0F1F1F8B2D820FFD
:10279000281709F431CFBD01645A7A4FF12CE12C8E
:1027A000E91698F5F801EE0DFF1DA490B12C0C2C44
:1027B00002C0AA0CBB1C0A94E2F7A094B094FA01E0
:1027C000EE0DFF1D8490912C0C2C02C0880C991CDE
:1027D0000A94E2F727FD08C0FB017080E72DEA218B
:1027E0007E2E7828FB017082332349F027303CF499
:1027F000FB01E058FF4FA080BA20B928B082FFEF5C
:10280000EF1AFF0A6F5F7F4FCBCF2F5F4C0F5D1F1B
:102810000C0F1D1FA058BF4FBBCFE92EF12CE40FAA
:10282000F51FA45ABA4F60E870E06E197F09CE19FF
:10283000DF09AE01440F551FC1E0D0E07E01032E39
:1028400001C0EE0C0A94EAF7192F0B2D892E932E56
:10285000CF93DF93ED01EF96EF962296A590C5906A
:10286000992059F0AE9C5001CE9C600127302CF489
:10287000F880D094FD20FB28F99222233AF0FC90B6
:10288000C094FC20FA28FD920C94471411961A95D6
:1028900029F70A9551F0182D23951124E40FF11D05
:1028A000A60FB11DC60FD11DD9CFDF91CF91112435
:1028B000A3CE80915B05809590915A058923089558
:1028C000EF920F931F93F901202FEE24E3948F01D1
:1028D0000E9449121F910F91EF9008959C01480F9B
:1028E000592F511D4138510514F040E850E0421B6A
:1028F000CB018770992791E001C0990F8A95EAF77B
:10290000FB0183E0F595E7958A95E1F7F695FE2FB3
:10291000EE27F795E795E20FF31FE45AFA4F41507F
:1029200030F08191DF011197892B8C93F8CF0895B6
:10293000FC010E94AC14319728F068517C4F8F4FF6
:102940009F4FF9CFAB01FC010E94AC1464177507CF
:102950008E079F07C8F30895A2E8B1E02FB7F89457
:102960007D918D919C9166B52FBFA89B05C06F3F4F
:1029700018F47F5F8F4F9F4F22E0660F771F881FED
:10298000991F2A95D1F70895EF920F931F9333E083
:10299000E32E10E000E00E9449121F910F91EF908A
:1029A0000895EF920F931F933AEFE32E10E000E0AB
:1029B0000E9449121F910F91EF900895EF920F938B
:1029C0001F933BEFE32E10E000E00E9449121F919D
:1029D0000F91EF900895EF920F931F9332E0E32E43
:1029E00010E000E00E9449121F910F91EF900895AE
:1029F00090E00C9498148FB18095807F669B8860DE
:102A00001C9B8460089580917B01089510927B0146
:102A10003E983F9808953E9A3F9A81E080937B01CB
:102A20000895ECE5F5E0A0E0B8E000800EBC81116F
:102A3000012C1197A0FDFDCF0192B9F70DB40895B7
:102A4000CF93C82F81E00E941115C13041F4ECE50D
:102A5000F5E08FEF819399E0EC35F907D9F7CF9145
:102A60000895CF92DF92EF92FF921F93CF93DF935F
:102A7000E82FF0E0EB5EFE4F1081E62FF0E06033D0
:102A800098F5E754F64EE491CE2FD0E0F12CE12CEE
:102A900060E074E284EF90E0A7019E010E94D535CA
:102AA000215031094109510991E02115310581E099
:102AB000480751056CF060E970ED83E090E0A701F4
:102AC0009E010E94D535215031094109510993E0F9
:102AD000113089F0133039F1DF91CF911F91FF90C0
:102AE000EF90DF90CF900895EE0FFF1FE754F74E61
:102AF000C591D491CBCF80917A018111EDCF809196
:102B00008100887F892B80938100309389002093F6
:102B10008800109285001092840080916F0082607E
:102B200080936F00D9CF80919100887F892B80930B
:102B30009100309399002093980010929500109284
:102B40009400D0937901C093780181E0809377015C
:102B500080917100826080937100BECFE82FF0E019
:102B6000EB5EFE4F8081813019F08330A9F008952B
:102B700080917A0181110FC080916F008D7F8093C9
:102B80006F0080916901E0916701F0916801908187
:102B90008095892380830895109277018091760132
:102BA0008111F9CF80917401E0917201F09173016C
:102BB000EECFCF93DF93D1E0E0915605F09157052A
:102BC000AF014F5F5F4F50935705409356052491D7
:102BD000822F807FC22FCF70803821F48C2F0E94EB
:102BE000AE15EACF803919F5E0916501F0916601E3
:102BF00009958D2780937501E0915605F091570551
:102C0000CF0101969093570580935605649180916A
:102C10006401C81788F6C13021F4809163018111E5
:102C2000CBCF67FDC9CF8C2F0E943115C5CF87FD53
:102C30003CC03296F0935705E0935605FA01449153
:102C4000A0917801B0917901322F242F0E9416367D
:102C50006C507E4F8F4F9F4F28EE33E040E050E0A6
:102C60000E94F43520936E0130936F014093700100
:102C70005093710180916E0190916F01A09170014C
:102C8000B0917101892B8A2B8B2B61F481E090E04C
:102C9000A0E0B0E080936E0190936F01A09370016B
:102CA000B0937101DF91CF910895803E49F48091F6
:102CB00058059091590590935705809356057CCF00
:102CC000803F09F079CF10925505ECCF90935905CC
:102CD0008093580590935705809356050E94D91507
:102CE00081E080935505089590916401923009F434
:102CF00071C0292F30E0F901EB5EFE4F40812F5962
:102D00003E4FF9018083913031F420916101281305
:102D100002C0909363019F5F9093640190E0FC0177
:102D2000E650F74E24918552974EFC01849130E095
:102D3000220F331FF901E353F74E65917491F901A6
:102D4000E154F74EA591B4919C91982B9C934130FE
:102D500019F04330D9F0089590916400977F9093D3
:102D60006400109280001092810090918100986020
:102D70009093810090918100916090938100709375
:102D800068016093670180936901089590916500DF
:102D9000977F90936500109290001092910090910F
:102DA0009100986090939100909191009160909320
:102DB000910070937301609372018093740180910C
:102DC0006401882321F06CE380E00E94311580E0EB
:102DD0000C94AE150895FC01118A11821082138A99
:102DE0008FEF9FEF97838683918780871486158660
:102DF00014820895DC01ED91FC91309711F08491DB
:102E0000089580E00895CF93DF93EC010E94FA16B5
:102E1000882339F0EA81FB8131968491DF91CF914B
:102E200008958CE0FBCFCF93DF93EC010E94FA165C
:102E3000882331F0EA81FB818491DF91CF9108955D
:102E40008CE0FBCFBF92CF92DF92EF92FF920F9375
:102E50001F93CF93DF9300D000D000D0CDB7DEB763
:102E60008C010E94FA16F801C680D780E084F184B4
:102E7000882379F08D3079F1C8010E941317B82E9C
:102E8000C8010E940317DA82C982FC82EB82BD82EC
:102E900009C0C8010E940317DA82C982FC82EB8252
:102EA00099E09D838E8329813A814B815C816D817C
:102EB0007E8180E090E026960FB6F894DEBF0FBECC
:102EC000CDBFDF91CF911F910F91FF90EF90DF90D9
:102ED000CF90BF900895F2E0CF0ED11C82E0E80EB3
:102EE000F11CC8010E941317B82EC8010E940317D5
:102EF000DA82C982FC82EB829CEF9B0D9D83845019
:102F0000D1CFCF93DF93FC01C681D7810E941317E5
:102F10008C0F9D2F911D0197DF91CF9108950F93F5
:102F20001F93FC0180819181A281B3818C019D015D
:102F30004DE0000F111F221F331F4A95D1F70827BC
:102F400019272A273B27D901C80151E1B695A79532
:102F5000979587955A95D1F7082719272A273B2750
:102F6000C901B801A5E0660F771F881F991FAA95B0
:102F7000D1F760277127822793276083718382832B
:102F800093831F910F910895FC01E65BFF4F8F52D1
:102F90009F4FE817F90771F0208131812617370715
:102FA00039F4228133812417350711F4848108957F
:102FB0003996EFCF80E00895FF920F931F93CF9340
:102FC000DF93F82E8B01EA014F3F540731F08CEA72
:102FD00093E00E94C417811119C020917D04E9E09B
:102FE0002E9FC001112484559C4FFC01E65BFF4FCE
:102FF000118300833296D183C083825B9F4FFC0193
:10300000F0822F5F2F3041F020937D04DF91CF912C
:103010001F910F91FF90089510927D04F7CF9C01AE
:10302000CB016CE070E00E944536FC018D3020F54C
:10303000413110F5CB0163E070E00E944536BC01E0
:103040005CE0569FC001579F900D11248E0F9F1F6B
:103050000196880F991F820F931F21E030E002C074
:10306000220F331F4A95E2F7FC01808191812823CA
:10307000392381E0232B09F480E00895EF92FF9239
:103080000F931F93CF93DF93FC01CB01EA012CE058
:1030900030E0B9010E9445367B01CE01B9010E94A2
:1030A00045368B01C489D589CE5DDD4FAB01B701B3
:1030B000CE010E940F1881110FC017FD0BC0A8018F
:1030C000B701CE010E94C417813020F08C3028F067
:1030D0008D3019F080E001C08FEFDF91CF911F910B
:1030E0000F91FF90EF9008957F928F929F92AF92F1
:1030F000BF92CF92DF92EF92FF920F931F93CF93E5
:10310000DF93EC01862E0E94FA168823A9F1CE01E6
:103110000E941317D12CC12C912C9CE0792EE82E03
:10312000F12CCE010E941317672D0E9425369816A8
:1031300008F054C0A884B98481E0881679F181E050
:10314000A81AB1080E811F810C0D1D1DA501B80123
:10315000CE010E943E18882389F081E0DF91CF9153
:103160001F910F91FF90EF90DF90CF90BF90AF90A5
:103170009F908F907F90089589E0CCCFB701600F2A
:10318000711F61507109A501CE010E943E18811185
:10319000E4CF93948CE0C80ED11CC3CFCE010E9423
:1031A0000317A501480F511D6E817F816C0D7D1D98
:1031B000CE010E943E188111D0CF08851985CE011D
:1031C0000E940317A801480F511D6E817F816C0D6D
:1031D0007D1D6E0D7F1D61507109D6CF80E0BECF81
:1031E000CF93DF93EC0161E00E947418882319F0FB
:1031F0009BEF9D87188ADF91CF91089561E00E942F
:10320000741891E0892708950E94591430915A0545
:10321000232F20749091AB0135FD50C021115AC06D
:1032200019161CF491509093AB019091AB0197FF4C
:1032300003C09F5F9093AB0182FF14C08FE991E0C0
:103240000E94FE18811152C08FE991E00E94F0188F
:10325000882309F44BC081E08093B10183E092E2BE
:103260000C9466168091B101882359F00E94FB14DA
:1032700082FF07C08FE991E00E94FE18811104C00F
:1032800008951092B10108958091AF01863058F4ED
:103290008F5F8093AF0180FD29C08091AC01825087
:1032A0008093AC0108958C3008F58F5F8093AF0157
:1032B00080FD1CC08091AC018150F2CF32E0309390
:1032C000B20191509D3F0CF49DEF9093AB012223EE
:1032D00009F4B2CF23E02093B2019091AB019F5F3C
:1032E00094300CF4A7CF2093AB01A6CF08950F9391
:1032F0001F93CF93DF93EC010E94FA16833009F4F9
:1033000078C0B0F4882331F1813009F472C0EC89BF
:10331000FD894A815B816885798585859685681BED
:10332000790B8E819F810384F485E02D20E075C0A8
:103330008D3009F475C08E3009F49DC0853039F7A1
:103340008C81853120F782FFE2CFDF91CF911F91F1
:103350000F910895CE010E94FE180C891D899B894A
:1033600068857985AE81BF8121E08823C9F09330DB
:1033700009F020E061507109F80185859685681B88
:10338000790B83859485AD01481B590BCA014DE427
:1033900058E10297DF91CF911F910F910C94C414C3
:1033A000933009F020E0E88D8C8581111CC08D855B
:1033B000811119C0E33008F0188EE88DF0E0EE0FAF
:1033C000FF1FE95BF74E4591549161507109F80177
:1033D00085859685681B790B83859485FD01E81B9F
:1033E000F90BCF01D6CFF0E0EE0FFF1FE15CF74EF7
:1033F000EACFEC89FD8921E08B89833009F020E058
:103400004A815B816885798585859685681B790BFE
:103410008E819F810384F485E02D8E1B9F0BBACF94
:10342000EC89FD893D856885798585859685681B4C
:10343000790B8E819F8143855485841B950B218553
:1034400020FD07C021E013160CF020E04A815B81CB
:10345000A1CF40918701509188014770552721E005
:10346000453008F420E04DED57E113160CF492CFEF
:103470004BE757E18FCF8C81853110F482FD65CF0A
:10348000EC89FD8920918701309188012F703327C5
:1034900026952695688579856E5F7F4F858596850B
:1034A000681B790B8E819F8102960384F485E02D41
:1034B00049E357E1B2CF2F923F924F925F926F92C2
:1034C0007F928F929F92AF92BF92CF92DF92EF92B4
:1034D000FF920F931F93CF93DF93CDB7DEB7639720
:1034E0000FB6F894DEBF0FBECDBF809195019091CD
:1034F000960197FD0396959587959595879560E438
:1035000070E00E9445369C0180919701909198014E
:103510004091930140FF9AC06CE070E00E944536F4
:1035200000271127021B130B80EC90E07C01E21AAC
:10353000F30A6B0126E0C21AD10820E04FEC50E2FA
:10354000B601C8010E94EB14005C1F4FE016F106A3
:10355000A1F780919501909196016CE070E00E9436
:1035600045361B01ECE02E1A31082CE0269FC001E5
:10357000279F900D11241F821E829C012059310922
:10358000398B288BBC016E5871097B8B6A8B1CE0D0
:1035900080919501909196016CE070E00E94453613
:1035A000605F7F4F621573050CF421C18091970114
:1035B000909198016CE070E00E9445363B0148888C
:1035C00059888E819F81480E591EAA89BB89A80FF0
:1035D000B91FBD87AC87169F5001179FB00C1124EF
:1035E000F12CE12CF5013296FF87EE87C090970110
:1035F000D0909801C6016CE070E00E944536685F8B
:103600007F4F661577050CF4E8C077FC7CC080908E
:10361000950190909601A301B1018CEA93E00E947C
:10362000C417EAEFE80FEB3008F06DC0F0E0E55E9C
:10363000F44E0C9459366E1B6E1B6E1B6E1B8A1B50
:103640009B1BAC1B831BBF1BD61BE21B66E070E001
:103650000E9445365B0180E1A81AB10807E010E03E
:10366000021B130B87EC90E03C01621A730A4B01BA
:103670009CE1891A91086B01A5E0CA1AD1087B0167
:10368000B9E0EB1AF10820E047EC50E2B401C801C0
:103690000E94EB1420E047EC50E2B501C8010E9403
:1036A000EB1420E041EA50E2B601C80183960E9483
:1036B000EB1420918701309188012F7033272695D4
:1036C00026954FE650E2B701C80143960E94EB14DD
:1036D000005C1F4F60167106B1F63BCFE82FF0E09B
:1036E000EE0FFF1FE55AFF4D45915491B5016E0D48
:1036F0007F1D6C197D0900E023E430E2C2018819C6
:1037000099090E946014FFEF6F1A7F0A2CE0E20E05
:10371000F11C6CCFB5016E0D7F1D6C197D096851D0
:103720007109C2018819990900E02DE33FE14FEBCF
:103730005FE18497E6CFB5016E0D7F1D6C197D09A1
:1037400064507109C2018819990920E041E25FE1E2
:103750000D970E94EB14D7CF009193010170B50132
:103760006E0D7F1D6C197D0964507109C2018819A5
:1037700099092FEB3EE14FED5EE10497C2CF209116
:103780008701309188012F703327269526956E8505
:103790007F856E0D7F1D6C197D094DE75EE18C857F
:1037A0009D85881999090E94C414ADCFB5016E0D8D
:1037B0007F1D6C197D096350710920E04BE25EE1C9
:1037C000C201EFCFB5016E0D7F1D6C197D096250EE
:1037D000710920E049EC5DE1F3CF3FEF231A330A92
:1037E0006E817F81645F7F4F7F836E83D1CE28EBB4
:1037F000E22E21E0F22E35E1C32ED12C43E0A42E9F
:10380000B12CD70115968C911597811104C0519652
:103810008C918131B8F0C7010E94811720919501E8
:1038200030919601821B930B181619065CF4F70170
:1038300086819781821B930B803891051CF4C70108
:103840000E947719D70151968C91882379F1F6015E
:10385000E81BF109CF01B5010E944536660F771FBD
:10386000FB01E554F24E25913491FB01E355F24EF4
:1038700045915491009193010170D70118966D9173
:103880007C9119978091970190919801681B790B11
:103890006250710916968D919C91E0919501F0917D
:1038A00096018E1B9F0B02970E946014B9E1EB0EEC
:1038B000F11CECEAEE16E3E0FE0609F0A2CF8091DF
:1038C000930180FF23C0809187019091880168E176
:1038D00070E00E9431369595879500271127081BC7
:1038E000190B87EBE82EF12C8091970190919801AC
:1038F000B701681B790B20E043E95DE1C8010E9434
:10390000DE14085E1F4F0038110574F38091950195
:10391000909196016CE070E00E9445365B01FCE0FE
:10392000AF1AB1088CE0869F4001879F900C11244C
:103930001CE0412E512C8091950190919601B2018D
:103940000E944536605F7F4F6A157B050CF45CC0B2
:103950008091970190919801B2010E9445366B01C8
:10396000140120E9221A3108009197011091980161
:10397000C801B2010E944536685F7F4F6C157D0516
:10398000E4F1A601B5018CEA93E00E940F183FEF25
:10399000C31AD30A882341F36CE06C9D70016D9DBE
:1039A000F00C11247CE0E71AF108E01AF10A80918A
:1039B0009501909196013101681A790A80E1C81643
:1039C000D10469F0A601B5018CEA93E00E940F18BA
:1039D00000E021E63DE149E75DE1882349F080917F
:1039E000930101E080FF00E023E430E24FE25DE17B
:1039F000B701C3010E946014B7CF9FEFA91AB90A9B
:103A0000ACE08A0E911C97CF80918A01813040F002
:103A1000853058F0863021F480918B018C3048F449
:103A20008FE991E00E94771904C080918B0180FF9B
:103A3000F7CF80918A018630A9F580918B01ECE166
:103A4000F0E0E81BF109F7FD3396F595E795F5955C
:103A5000E795CF01880F991FFC01E554F24E25919F
:103A60003491FC01E355F24E45915491009193013C
:103A700001706091A7017091A801809197019091C8
:103A80009801681B790B645071098091A501909190
:103A9000A601E0919501F09196018E1B9F0B029774
:103AA0000E94601480919501909196016CE070E005
:103AB0000E9445366B018CE0869F4001879F900CE9
:103AC0001124ECE0AE2EB12C8091950190919601DD
:103AD000B5010E944536605F7F4F6C157D050CF483
:103AE00067C08091970190919801B5010E94453679
:103AF0007B01BCE0B69F1001B79F300C1124712CE4
:103B0000612C0091970110919801C801B5010E94A4
:103B10004536685F7F4F6E157F050CF442C0A701E4
:103B2000B6018CEA93E00E940F18811110C0F7FCD7
:103B30000EC04090950150909601A701B6018CEA05
:103B400093E00E94C4178A3049F08B30D1F0EFEF38
:103B5000EE1AFE0AFCE06F0E711CD3CFB101660DA8
:103B6000771D601B710B68517109C4018419950997
:103B700000E025E13CE141EA5CE10A970E94601423
:103B8000E6CFB101660D771D601B710B64507109A2
:103B900020E04DE05CE1C401841995090E94EB141A
:103BA000D6CF2FEFC21AD20A3CE0830E911C8CCFE5
:103BB0008091A5019091A601B5010E9445368091A2
:103BC000910190919201FE01319625E0DF011D9255
:103BD0002A95E9F7860F971F97FF02C090E080E0D3
:103BE0008E010A5F1F4F2AE030E0B9010E94313692
:103BF0008193CB010E171F07C1F780919301ECE56C
:103C0000F5E080FF06C181E995E02FEF21938E1743
:103C10009F07E1F721E080919001811120E04DEFB5
:103C20005BE161E070E081E090E00E94DE1421E061
:103C300080919001823008F020E04DEF5BE161E07F
:103C400070E089E090E00E94DE1421E08091900114
:103C5000833008F020E04DEF5BE161E070E081E14E
:103C600090E00E94DE1478010BE110E0F701229150
:103C70007F0143ED5BE161E070E0C8010E94DE146A
:103C80000B5F1F4F0433110589F780918B04882344
:103C900059F000E029EE39E14DED5AE16FE070E0B6
:103CA00080E290E00E9460140DE814E045E5E42E07
:103CB00045E0F42E50E8C52ED12C60E4A62EB12CA0
:103CC000D80119964C91842E912CB42F2EE130E01E
:103CD000A0E00E945F36472E582E692E772467FC9D
:103CE0007A94F80186819781841995099783868350
:103CF000A481B58125EF30E00E945F36472E582E13
:103D0000692E772467FC7A9455824482C60188190B
:103D1000990920813181821793073CF49183808334
:103D200051944194510855824482D8018D919C91BF
:103D3000119797FF0EC011961C921E9214968D91AA
:103D40009C91159791958195910915969C938E93C9
:103D50001497F801828193818134910524F0B38214
:103D6000A28217821682D80112968D919C91139788
:103D700097FF04C017961C921E921697F801258192
:103D80002887220F220B2987208131816885798538
:103D9000260F371F3183208327812A87220F220B8A
:103DA0002B87AA85BB858A1B9B0B93838283808587
:103DB000882311F081508087F8018085882351F095
:103DC0002FEF240F6281738141E951E2808191815B
:103DD0000E94C414065F1F4FE016F10609F070CF71
:103DE00063960FB6F894DEBF0FBECDBFDF91CF91C3
:103DF0001F910F91FF90EF90DF90CF90BF90AF9009
:103E00009F908F907F906F905F904F903F902F90FA
:103E1000089581E995E011928E179F07E1F721E05F
:103E200080919001811120E04DEF5BE161E070E055
:103E300081E090E00E94D11421E0809190018230D5
:103E400008F020E04DEF5BE161E070E089E090E098
:103E50000E94D11421E080919001833008F020E08D
:103E60004DEF5BE161E070E081E190E00E94D114F0
:103E70007BE1E72EF12CD8012E918D0143ED5BE122
:103E800061E070E0C7010E94D114B5E0EB0EF11CB7
:103E9000E4E3EE16F10479F7F8CE9F92AF92BF9269
:103EA000CF92DF92EF92FF920F931F93CF93DF9306
:103EB000EC01C62E0CE010E0D12C8CE0982ECE0147
:103EC0000E940317692D0E942536D81608F05CC0A1
:103ED00022E0C21639F083E0C81679F1D394045F6A
:103EE0001F4FEDCFE884F984AE80BF8021E0A21A95
:103EF000B108A8014C5051094E0D5F1DB501CE010E
:103F00000E943E18882369F081E0DF91CF911F91D4
:103F10000F91FF90EF90DF90CF90BF90AF909F9068
:103F20000895A8014E0D5F1D41505109B501CE0104
:103F30000E943E18882391F2E7CF88859985780101
:103F40002CE0E21AF108E80EF91EAE80BF80CE0127
:103F50000E941317B501680F711DA701CE010E94C1
:103F60003E188111D1CFE884F984E00EF11E81E082
:103F7000E81AF108AE80BF80CE010E941317B50188
:103F8000680F711DA701D3CF80E0BFCFFF920F93C1
:103F90001F93CF93DF93EC01488559856E817F8114
:103FA0000E943E188F3F21F41D82CE010E94EB1625
:103FB000CE010E94FA16813009F490C080F085305D
:103FC00011F08E3021F58C81882309F181508C838A
:103FD00081111DC01D82CE010E94EB1618C08C8578
:103FE000811115C08D85811112C08091870190913A
:103FF000880166E070E00E943136892B41F4888D9B
:1040000090E0019663E070E00E944536888FCE0113
:104010000E94FA16811118C08C85811115C08D85FA
:10402000811112C0809187019091880166E070E053
:104030000E943136892B41F4888D90E0019663E02F
:1040400070E00E944536888FCE010E94FA168530B6
:1040500009F43EC09D858D3009F066C0892F9F37D9
:10406000A9F48C899D8984509D4F0E948F1728E266
:1040700030E040E050E00E94F435672B682B692B5C
:1040800011F48CEE8D878D858F37B9F028853985B1
:10409000982F87FF02C093E0980F95959595A901F9
:1040A000490F511D97FD5A95205231096E857F8524
:1040B0005987488762177307A4F58A859B852885E9
:1040C00039858217930724F42FE72D8799878887EE
:1040D000DF91CF911F910F91FF9008958D858111F0
:1040E00096CFCE010E94FE18811191CF8C899D89B7
:1040F00084509D4F0E948F1724E130E040E050E053
:104100000E94F435672B682B692B09F080CF8C89CE
:104110009D8984509D4F0E948F17677061956D87B0
:1041200076CF8F5F8D87C9CFE881F9813097B1F065
:104130003196E491E0FF14C08C852E813F81280FD9
:10414000311D87FD3A953F832E8328853985290FB8
:10415000311D97FD3A9539872887BACFE0E0EACF3D
:1041600091110AC0CE010E94FE18882329F08D8586
:10417000863014F48F5F8D878D8518160CF510E04E
:1041800000E08D85082E000C990B0817190774F4B0
:10419000CE010E94FE18882341F0888599850196FA
:1041A000998788870F5F1F4FECCF1D86CE010E9435
:1041B000FE18882329F08D85863014F48F5F8D8753
:1041C0008D8587FF13C08F5F8D8710E000E08D85A0
:1041D000082E000C990B8017910744F460E0CE0183
:1041E0000E947418882309F44EC01D868C85181609
:1041F0002CF510E000E090E9F92E8C85082E000CDB
:10420000990B08171907D4F4CE010E948117EC8985
:10421000FD89EB50FD4F208130E02F5F3F4FF29E34
:10422000A001F39E500D1124841795073CF463E020
:10423000CE010E944D1F882371F11C868C8587FF5B
:1042400047CF10E000E080E9F82E8C85082E000CA6
:10425000990B801791070CF03BCFEC89FD89EC504E
:10426000FD4F80818F9DC00111242E813F818217D7
:1042700093070CF02DCF62E0CE010E944D1F8823E2
:1042800001F11C8625CF88859985019799878887B4
:10429000015011099CCF8E819F8101969F838E834F
:1042A0008D8581110BC0CE010E94FE18811106C0C0
:1042B000888D90E0019683709927888F0F5F1F4F3C
:1042C0009CCF8E819F8101979F838E838D858111E5
:1042D0000BC0CE010E94FE18811106C0888D90E0AF
:1042E000019683709927888F01501109AECFCF9323
:1042F000DF93DC01ED91FC91119754960D90BC91E8
:10430000A02D19968D919C918430910520F00797EE
:1043100038F4349601C033968491DF91CF9108959B
:104320003596FACFEF92FF920F931F93CF93DF93BF
:10433000EC010E94772182FF67C08C899D89FC0176
:10434000E38CF48C45960E9413170E811F818E0D0D
:104350009F2D911D8017910744F482E08B8BE8819B
:10436000F9813296E491E195EC87EC89FD89E38C43
:10437000F48CCE010E941317800F912F911D8E1582
:104380009F053CF483E08B8BE881F9813296E491C0
:10439000EC87CE010E94772183FF2DC06B89CE016F
:1043A0000E944D1F882319F0CE010E94F0188B89BE
:1043B000823071F46E817F81615071094FEB50E062
:1043C000CE010E943E18811103C0CE010E94F01858
:1043D0008B89833081F4CE010E948117BC016F5F0D
:1043E0007F4F4FEB50E0CE010E943E18811103C079
:1043F000CE010E94F018CE01DF91CF911F910F9155
:10440000FF90EF900C94C61FCE010E94772180FF91
:104410000CC08B89823061F562E0CE010E944D1F95
:10442000882301F183E08B8B1C86CE010E947721CB
:1044300081FFE1CF8B89823091F508851985CE0106
:104440000E940317A801480F511D6E817F816150A2
:104450007109CE010E943E1881111BC083E08B8B35
:104460001C86C9CFE881F9813296E491E195EC8709
:104470008B898330D1F663E0CE010E944D1F8823E3
:1044800011F082E0D0CFE881F9813296E491EC8797
:10449000CCCFE881F9813296E491E195EC878B8964
:1044A000833009F0A8CF08851985CE010E94031733
:1044B000080F111DCE010E948117BC016F5F7F4F55
:1044C000A801CE010E943E18811102C082E0C7CF30
:1044D000E881F9813296E491EC878DCF0F931F9399
:1044E000CF93DF93EC01F90181E08D833CE0309FB5
:1044F000C001319F900D1124798368835B834A83C7
:104500003E9FA0013F9F500D11245F834E839987EA
:1045100088879B878A871C861D8683E08B8B1C82FD
:10452000198ACE010E94FA16853009F43FC050F472
:10453000843071F1888599850197998788871C86D1
:104540001D862AC08D3079F18E30A1F78E819F8132
:1045500006969F838E838885998504979987888797
:104560008C899D8984509D4F0E948F1725E030E0F3
:1045700040E050E00E94F43562506C878C899D8940
:1045800084509D4F0E948F17637061956D871AC08C
:104590008CEF8C8782E08D87CE01DF91CF911F91C8
:1045A0000F910C9492211C868FE7F5CF8E819F810D
:1045B00006969F838E838885998504979987888737
:1045C0001C861D868C899D8984509D4F0E948F1763
:1045D0002CE030E040E050E00E94F435862F880F58
:1045E000880F680F645C6C83D7CF6F927F928F9235
:1045F0009F92AF92BF92CF92DF92EF92FF920F9372
:104600001F93CF93DF93CDB7DEB7A8970FB6F8947B
:10461000DEBF0FBECDBF6C015C01CE0101963C0137
:10462000F0E0E0E0FE2ED501D3968C91811131C0EF
:1046300010E089E18E9F50018F9FB00C1124C501BD
:104640008E968C0D9D1D0E946E22BFEFEB1659F0C9
:10465000CA0CDB1CECE0EE9EC0011124D601DD96F5
:104660009C938E93DC978F2DA8960FB6F894DEBF9F
:104670000FBECDBFDF91CF911F910F91FF90EF90B3
:10468000DF90CF90BF90AF909F908F907F906F9072
:104690000895D6015B968D919C91D501D4968D900D
:1046A0009C908819990997FD3DC0D3018D939C93E7
:1046B0003196B9E1AB0EB11C82E0680E711CE43199
:1046C000F10509F0AFCF9981FE01339681E0F12C1D
:1046D000A191B1919A171B0614F49A2FF82E8F5FAF
:1046E0008431B1F78F2C912C10E089E1B82EC601EE
:1046F000FB9C800D911D11248E960E946E229FEFCF
:10470000E91609F4B0CFB89CC001B99C900D1124F2
:10471000C80ED91EACE0EA9EC0011124F60195AF87
:1047200084AFA1CF919581959109BFCF2F923F92F0
:104730004F925F926F927F928F929F92AF92BF92B1
:10474000CF92DF92EF92FF920F931F93CF93DF935D
:10475000CDB7DEB728970FB6F894DEBF0FBECDBF3A
:10476000F82EE091AC03F091AD0361857285482F7E
:1047700050E09F0124503D4F38872F839B01240F29
:10478000351F23703327E20FF31F2281269FC001BC
:10479000279F900D1124840F951FB0E0A0E0EF81BA
:1047A000F88580839183A283B3838F2D63E00E9479
:1047B0002536F8E19F9FC00111249C0126573E4FEA
:1047C0003D832C8390E080E0FC01EE0FFF1FEC5D49
:1047D000FD4F2C813D81E20FF31F11821082019663
:1047E0008C30910589F78F8198850E948F1723E07F
:1047F00030E040E050E00E94F435635F6F833CE0BE
:10480000F39E50011124F11009C0862F8150990B9D
:10481000AC0161E070E08CE00E94DC171A82198222
:104820001B82712C1E82612C1FEFD12CC12C45E004
:10483000242E312C412C512C1F3F89F5611056C07C
:104840009E81911122C2C6010397069708F051C0BC
:1048500080917F04F81608F04CC08091AC039091D1
:10486000AD0384509D4F0E948F1727E030E040E059
:1048700050E00E94F435672B682B692BD1F58091AD
:10488000AC039091AD0384509D4F0E948F17A201FD
:1048900091010E94F4356983EF81EA8310E08981F8
:1048A00034E0839FF0011124EF5DFE4FE10FF11D15
:1048B00080818823D9F0FA81F81B8F2FF131B0F471
:1048C000F601EE0FFF1FEC5DFD4F2C813D81E20FE5
:1048D000F31F21E030E002C0220F331F8A95E2F778
:1048E00080819181822B932B918380833E81311132
:1048F000CCC1EF818E2F90E0F601EE0FFF1FEC5D33
:10490000FD4F2C813D81E20FF31F2081318141E079
:1049100050E0082E02C0440F551F0A94E2F7242BE2
:10492000352B01968031910591F731832083FF204B
:1049300009F4DBC180917F04F81608F0D6C11F3F4F
:1049400009F0CAC08091AC039091AD0384509D4F93
:104950000E948F172AE030E040E050E00E94F435DA
:104960002091AC033091AD03672B682B692B09F0C4
:10497000A0C0C90184509D4F0E948F1723E030E0F2
:1049800040E050E00E94F4356E5F6E83712C64301D
:1049900009F4A6C0809181048A151B040CF0F4C0B0
:1049A0009F809A949A948FEF810F823060F53981BD
:1049B00024E0329FF0011124EF5DFE4FE10FF11D65
:1049C00080819A809A94981A8091AC039091AD035B
:1049D00084509D4F0E948F17A20191010E94F435CF
:1049E0008091AC039091AD03613009F083C0EE2457
:1049F000EA94092D95012C0D3D1D43ED53E265E32D
:104A000074E20E94F5228091AC039091AD03845032
:104A10009D4F0E948F1723E030E040E050E00E945D
:104A2000F435672B682B692B09F0AEC08091AC037D
:104A30009091AD03FC012185328508E224303105D7
:104A400028F00EE12730310508F403E284509D4F31
:104A50000E948F17202F30E050E040E00E94F43594
:104A60006E3171058105910508F08EC0655C7A4D47
:104A7000FB010C9459369025902590259025902582
:104A800090259025902590259025A125A125A1254B
:104A9000A125A125A125AC25AC25AC25BA25BA2593
:104AA000BA25BA25BA25BA25BA25CB25CB2536266F
:104AB0003626C90184509D4F0E948F17A201910193
:104AC0000E94F435672B682B692B41F43F813F30FE
:104AD00061F03F5F3F83712C1E825CCF7394FCCFEB
:104AE00081E08B8394E09E8355CF712C1E82EEE093
:104AF000EF8350CF84509D4F0E948F1763707727AC
:104B000088279927672B682B692B09F07CCF492DC3
:104B100050E0B5016C0D7D1D8EE00E94DC1773CF57
:104B2000EE24EA94092D95012C0D3D1D43ED53E231
:104B300065E374E28091AC039091AD030E94F5228D
:104B400023C0EE24EA94092D95012C0D3D1D4BE662
:104B500053E26DEC73E2EECFF6E0FF15A8F4EE241D
:104B6000EA94092D95012C0D3D1D43E353E265E6C2
:104B700073E2E0CF2F812150330BA901B5016C0DF9
:104B80007D1D8EE00E94DC171F3F99F11F5F1430DE
:104B900081F51FEF2EC031E03715B0F71F3FB1F799
:104BA0008091AC039091AD03FC01218532852150A9
:104BB000310905E02A30310520F4295E3E4FF90124
:104BC000008184509D4F0E948F17202F30E050E0CD
:104BD00040E00E94F435672B682B692B51F42F813C
:104BE0002150330BA901B5016C0D7D1D8FE00E9492
:104BF000DC179FEFC91AD90AECE0CE16D10409F0F0
:104C00001BCE80917F04F81211C02F812150330BED
:104C1000A901B501675F7F4FE091AC03F091AD034F
:104C2000818580FF64C08AE00E94DC178091810446
:104C30008A151B0414F4A092810428960FB6F894E8
:104C4000DEBF0FBECDBFDF91CF911F910F91FF90BF
:104C5000EF90DF90CF90BF90AF909F908F907F901C
:104C60006F905F904F903F902F90089538E03F15E0
:104C700008F08ACFEE24EA9402E095012C0D3D1D48
:104C80004BEE52E26DE273E255CF8E8181508E83FE
:104C9000612C811102C06B801B828091AC039091CA
:104CA000AD0384509D4F0E948F17A20191010E9475
:104CB000F435672B682B692B09F066CF8090AC0325
:104CC0009090AD03C40184509D4F0E948F17637074
:104CD000EF80E394E61A00E195012C0D3D1D43E8B9
:104CE00052E265EE72E2C40129CF1E824DCF8BE005
:104CF0009BCF20917F0430E02F5F3F4F90E9929F40
:104D0000A001939F500D1124415851092091800416
:104D100030E02F5F3F4F80EC829FB001839F700D8A
:104D200011246154710980917E04E82FF0E0899F7D
:104D3000C00111242091A5013091A6012054310910
:104D40003093960120939501A091A701B091A801FD
:104D500019976A177B076CF1B0939801A09397019C
:104D60004217530724F450939601409395012091E4
:104D70009501309196012817390724F490939601F4
:104D800080939501A091AC03B091AD035B968D919A
:104D90009C9160E970E00E944536CB01019797FD38
:104DA0000DC0E817F90754F480937E048E5F0C94CD
:104DB00096237093980160939701D2CF0895FF9244
:104DC0000F931F93CF93DF9381E792E20E946616C1
:104DD00010927D0410927E0410928104E6EFF3E0BD
:104DE0002DE734E08FEF9FEF91838083938382835D
:104DF00039962E173F07C1F70EE210E0D0E0C0E071
:104E000089E1F82E8091AC039091AD03FC9EF001F6
:104E1000FD9EF00D1124E80FF91F13AA800F911FBA
:104E20000E94EB162196075E1F4FC431D10551F742
:104E3000E091AC03F091AD0321853285CF01845020
:104E40009D4FA90143705527E40FF51F6281629FB2
:104E5000A001639F500D112470E060E0FC014083CD
:104E60005183628373830E948F17E091AC03F091AA
:104E7000AD032185328550E040E00E94F435645F47
:104E800060937F0480E00E94962381E00E94962335
:104E900082E00E9496238091930180FD32C088E5D4
:104EA00090E02BE632E23093A00120939F0129E0AD
:104EB00032E23093A2012093A10128E130E0309347
:104EC000A6012093A5019093A8018093A701909338
:104ED000AA018093A9011092AB011092AC0183E06A
:104EE0008093B2011092A3011092B0018FE991E07A
:104EF0000E94FE18882339F08FE991E00E94C61FB6
:104F0000F5CF80E0CDCF0E94792686E080938A019C
:104F10008CE180938B01DF91CF911F910F91FF90D6
:104F2000089520E048E854E16CE070E084E090E00F
:104F30000E94EB1420E048E854E16CE070E089E660
:104F400090E00E94EB1420E048E854E16BE170E04F
:104F500086EF9FEF0E94EB1420E048E854E16BE1FC
:104F600070E087E790E00E94EB1420E048E854E10D
:104F700069E270E084E090E00E94EB1420E048E8F1
:104F800054E169E270E089E690E00E94EB14209120
:104F90008701309188012F7033272695269546E5A5
:104FA00054E16BE170E08BE090E00E94EB14209103
:104FB0008701309188012F7033272695269546E585
:104FC00054E16BE170E08FE690E00C94EB14CF932A
:104FD0000E945914882319F082E08093890120E00F
:104FE00040E553E161E170E080E290E00E94EB1463
:104FF000809187019091880160E370E00E943136D2
:10500000883170F4C1E18C3008F0CEE120E049E451
:1050100053E169E170E08BE590E00E94EB1404C07D
:10502000CFE1843208F0C0E28C2F90E020E134E33D
:1050300041E051E081FD54E080FD550F82FD529525
:10504000887F289FD0011124A30FA45ABA4F0C9037
:10505000052A40FF05260C92C0FD0AC020E045E469
:1050600053E16CE170E08DE290E0CF910C94EB1491
:10507000CF910895FF920F931F93CF93DF9320E07A
:105080004FEA52E161E070E081E090E00E94D114CB
:1050900022E04FEA52E166E370E081E090E00E9496
:1050A000D11421E04FEA52E161E070E088E790E03E
:1050B0000E94D11423E04FEA52E166E370E088E7F2
:1050C00090E00E94D1144DE761E070E081E090E053
:1050D0000E946E144DE76DE370E081E090E00E9465
:1050E0006E144AE76FE370E083E090E00E946E1474
:1050F00010E0C0E000E03AE0F32E20914801D091AA
:1051000047018D2F90E0121708F041C0880F991FBA
:10511000FC01E15FFE4F0190F081E02DE10FF11DF8
:105120002491203249F030F02E3741F40F5FC0E077
:105130001F5FE3CFC20FFCCFCC5FFACF2A3340F41E
:105140002033F8F4213209F12E32E9F02FEF09C0B3
:105150002134E0F32B3598F08FE9820F27548A3100
:10516000A8F70F9DB0011124635F7F4F8C2F90E053
:1051700047ED5FE006960E94D114CB5FD9CF215452
:10518000F0CF2C5FEECF2FE3ECCF2EE3EACF845F9E
:105190009E4FFC01C0812C1738F48091870180FF5D
:1051A00003C02F5F209348010E9459148C7089F12D
:1051B0008091490190914801C91315C0811115C012
:1051C000DF5FD093470110924801809147018330FF
:1051D00001F5C0E080916401C817B0F48C2F0E94E3
:1051E000AE15CF5FF7CF882319F0DF5FD09347016B
:1051F00081E080934901E0914701F0E0E45FFE4FD8
:10520000808180934801E1CF1092550586E080931C
:105210008901DF91CF911F910F91FF9008954F92D7
:105220005F926F927F928F929F92AF92BF92CF9236
:10523000DF92EF92FF920F931F93CF93DF93CDB73F
:10524000DEB72C970FB6F894DEBF0FBECDBF10911E
:1052500080040E945914F82E80918A01813009F04F
:1052600071C090918C0491116DC0F3FE57C0909164
:105270008B04982790938B0490918B049111A9C172
:10528000212F30E02F5F3F4F90EC929F6001939F62
:10529000D00C112491E0C91AD10810928C048430EA
:1052A00008F053C0823008F063C0813009F483C035
:1052B00006EF13E07CE0E72EAA24AA94BA2C8824F7
:1052C0008394EF2DE870FE2EFAE07F2EA2E06A2E86
:1052D000B5E09B2E84E0582EF8018081918197FDE6
:1052E000ACC08FE991E00E94221729833A834B8357
:1052F0005C837E83F80180819181E89E9001E99E24
:10530000300D112494819A3038F09C3008F465C037
:1053100084E19F3009F465C08CE063C090915A0528
:1053200093FF10C090918A049F5F913218F490937C
:105330008A04A2CF10928A0492E09093890110927D
:105340008B049ACF10928A0497CF8430E9F186308B
:1053500009F0AECF80918B01882309F4A9CF815049
:1053600080938B018111A4CF81E080938A01A0CF2B
:1053700080918B012091A7013091A801813030F0FC
:10538000803370F021503109833360F02091A70100
:105390003091A801C216D30654F410928B0188CF25
:1053A0002E5F3F4F3093A8012093A701EFCF81508C
:1053B00080938B017DCF0E9404198FE991E00E94B8
:1053C000C61F0E94792674CF0E9404198FE991E0CC
:1053D0000E94C61F0E947926BDCF225031098CE061
:1053E0006CE049815A81640F752F711D26173707AC
:1053F00024F5280F311D42175307FCF4F8014281B0
:105400005381E49E9001E59E300D11244B815C8117
:105410006E81640F752F711D2617370774F4245F92
:105420003F4F421753074CF49E3009F405C108F072
:10543000E7C09A50923008F4FAC0075F1F4FF4E0BB
:105440000D371F0709F048CF8FE991E00E94FE1841
:10545000F82E882331F0F090AC01F094FF1CFF246B
:10546000FF1C08EB11E0AA24AA94BA2C92E0892E22
:1054700022E3922E34E0732E45E1E42E5DEF652E9B
:1054800068EF562EF8018189882379F08150818B4D
:1054900081110BC0158211821082138AB782A682F5
:1054A000B186A086148615861482F801858188232A
:1054B00009F47DC0C8010E94FA16853019F08D30BC
:1054C00009F0CCC0C8010E94C61F80918A01825099
:1054D000823008F46CC0F8018581882309F467C024
:1054E0008FE991E00E9422172F83388749875A87D6
:1054F0006B877C87C8010E94221729833A834B83DC
:105500005C834F81588589819A812B85240F352FA3
:10551000311D821793070CF04AC0860F911D481762
:1055200059070CF044C049855A858B819C812C8594
:10553000240F352F311D82179307CCF5870F911D4E
:1055400048175907A4F5C8010E94FA16482EF5E03D
:105550008F1709F498C08EE0481609F4AAC0F80124
:105560008581882321F1FF2009F4D9C0FDE04F1285
:10557000BCC080918A018430D1F080919001882351
:1055800019F0815080939001809190018111A4C005
:1055900080918B0181110BC080928A0190928B01C6
:1055A00089EB91E20E946616F8011582E18A075E96
:1055B0001F4FF3E00C3A1F0709F064CF90918A0166
:1055C000943008F0BEC0923008F009C1913009F45F
:1055D000EAC02C960FB6F894DEBF0FBECDBFDF91A8
:1055E000CF911F910F91FF90EF90DF90CF90BF90E0
:1055F000AF909F908F907F906F905F904F900895A5
:105600009F3009F01ACF80928C04FF2009F415CF47
:105610007092890110939A010093990160929B0105
:1056200090939C0190929D0150929E0106CF909282
:105630008A0110928B0101CFB182A082B382A28233
:105640008091910190919201449690939201809360
:10565000910181EF91E20E946616EFCEF8018085FC
:105660009185C816D90614F41582E18AC8010E94F2
:105670009221F80180859185C816D9060CF025CFB6
:105680001582E18A22CFF8011582E18A8091910189
:10569000909192018C599F4F909392018093910128
:1056A00080919001833008F05ACF8F5F80939001F2
:1056B00056CFF8011582C8010E94EB168091910126
:1056C000909192014496909392018093910181EF81
:1056D00091E20E94661643CF70928A0190928B01EC
:1056E00089EB91E20E94661662CFF8011582E18A89
:1056F00080919101909192014496909392018093B0
:1057000091018BEA91E20E9466160E94FB1482FFCF
:1057100003C05092AC014BCF6092AC0148CF809156
:105720008B01811144CF80919001882319F0815021
:1057300080939001809190018111CECF80928A0157
:10574000CDCF953009F045CF10928B012091930178
:10575000309194012F5F3F4F309394012093930138
:105760008091A5019091A6016CE070E00E94453601
:105770008091910190919201680F791F6250710997
:1057800070939201609391018AE090E09093A6015A
:105790008093A50180E020FF88E590E09093A80128
:1057A0008093A7014FC08091A7019091A801C816CE
:1057B000D90664F41092900182E080938A0189EB0B
:1057C00091E20E9466168FE280938B0180918B019B
:1057D000882309F4FECE815080938B01FACE80910C
:1057E0008B018111F6CE20919001222309F442C051
:1057F0009091930190FF88E590E02BE632E23093A0
:10580000A00120939F0129E032E23093A20120936E
:10581000A10128E130E03093A6012093A5019093E7
:10582000A8018093A7019093AA018093A9011092E7
:10583000AB011092AC0183E08093B2011092A301FE
:105840001092B0012C960FB6F894DEBF0FBECDBFFC
:10585000DF91CF911F910F91FF90EF90DF90CF904C
:10586000BF90AF909F908F907F906F905F904F9080
:105870000C94DF26923019F483E080938A010E9411
:1058800059148C7009F4A5CE8BE080938901109295
:105890008A019FCE0F931F93CF93DF938C01EB016F
:1058A0000E94BF358883C80101960E94BF35898355
:1058B000CE01DF91CF911F910F910895FF920F9329
:1058C0001F93CF93DF93EC01F62E08811981C80155
:1058D0000E94BF35F81621F06F2DC8010E94C73510
:1058E000CE01DF91CF911F910F91FF900895CF933B
:1058F000DF9300D0CDB7DEB79A838983CE010196BE
:105900000E945E2C0F900F90DF91CF9108950F931E
:105910001F93CF93DF930E945914C82F20E04EE0CD
:1059200055E164E070E088E190E00E94EB1420E033
:1059300046E055E170E060E083E290E00E94D1141F
:1059400020E046E055E170E060E08AE590E00E94EA
:10595000D1140E949127D091530181E490E0D1119C
:1059600002C083E290E020E048EE54E16BE370E097
:105970000E94EB1410917B0100E022EC34E144ED35
:1059800054E1111102C04EEA54E168E370E087E788
:1059900090E00E9460148C2F8C7021F0DD23E9F0E0
:1059A000D130F9F0C7FD02C0C4FF0AC01123D9F0FD
:1059B0000E94061560917B0182E090E00E94772CA6
:1059C000C5FD10925301C6FF03C081E080935301CF
:1059D000DF91CF911F910F91089584E08093890109
:1059E000E1CF8DE0FBCF0E940B15E4CFEF92FF9249
:1059F0000F931F93CF93DF930E94912720E04DECEC
:105A000052E168E070E082E290E00E94D11420E070
:105A10004FEA52E165E170E088E190E00E94D11424
:105A200022E04FEA52E16FE270E088E190E00E94EC
:105A3000D11421E04FEA52E165E170E080E690E0A8
:105A40000E94D11423E04FEA52E16FE270E080E659
:105A500090E00E94D11448E465E170E088E190E0B4
:105A60000E946E1448E466E370E088E190E00E94D2
:105A70006E144BE468E370E08AE190E00E946E14DB
:105A80008AE4E82E81E0F82ECEE1D0E010E000E1DB
:105A900080914F018113D7C080915001882309F470
:105AA000D2C0202F281B45E151E16FE170E0CE010B
:105AB0000E94EB141F5F2E96FFEFEF1AFF0A1530BE
:105AC00039F780914F01CEE08C9FC001112420E076
:105AD0004CEE50E16AE170E081960E94D114809111
