:100000000C94B4110C94DC110C94DC110C94DC11E4
:100010000C94DC110C94DC110C94DC110C94DC11AC
:100020000C94DC110C94DC110C94DC110C94DC119C
:100030000C94DC110C94DC110C94DC110C94DC118C
:100040000C94DC110C9443290C94DC110C94DC11FD
:100050000C94DC110C94DC110C94DC110C94992898
:100060000C94DC110C94DC110C94DC110C94DC115C
:100070000C94DC110C94DC110C94DC110C94DC114C
:100080000C94E3280C94DC110C94DC110C94DC111E
:100090000C94DC110C94DC110C94DC110C94DC112C
:1000A0000C94DC110C94DC110C94DC110A7A6F7541
:1000B000722063686F696365206F662072756E6574
:1000C000730777696C6C2073656C65637420646971
:1000D00066666572656E740C636F75727365732EF8
:1000E0002E2E20736F6D65206172650D65617369D9
:1000F0006572207468616E206F7468657273210781
:10010000716F6D7065746520696E20746865207408
:100110007269616C7306746F2073656520686F7710
:100120002066617220796F752063616E0B6765745C
:1001300020616E6420796F7520636F756C64206236
:10014000651974686174206368616D70696F6E21F0
:100150000378616368207965617220746865207036
:10016000656F706C65206F66007468652076696CD9
:100170006C6167652063686F6F73652061206E65D1
:10018000770C6368616D70696F6E20746F20707298
:100190006F746563740F7468656D2066726F6D208F
:1001A0006A737461726F6B2E0E100000E0E010F045
:1001B000FCFC02FE29FF7DFF69FFB9FF01FF82FE03
:1001C0007CFC8080000002020507080F141F001F3E
:1001D0001F1F071F071F071F001F011F1C1F0707E7
:1001E0000000000080807CFC82FE01FFB9FF69FFF7
:1001F0007DFF29FF02FEFCFC10F0E0E000000000A3
:1002000007071C1F011F001F071F071F071F1F1FB6
:10021000001F141F080F050702020E100000F0F067
:1002200008F87CFC02FE29FF7DFF69FFB9FF01FF92
:1002300042FEBCBC000000000101020304071A1FBB
:10024000001F1F1F071F071F1F1F001F031F181F4F
:100250000F0F000000000000BCBC42FE01FFB9FF10
:1002600069FF7DFF29FF02FE7CFC08F8F0F000002A
:1002700000000F0F181F031F001F1F1F071F071F5E
:100280001F1F001F1A1F0407020301010E108080A8
:1002900078F804FC3CFC02FE29FF7DFF69FFB9FFF2
:1002A00001FFC2FE3C3C000000000000010102030F
:1002B0001D1F001F071F071F071F1F1F001F061FEF
:1002C000111F1E1E0000000000003C3CC2FE01FF8A
:1002D000B9FF69FF7DFF29FF02FE3CFC04FC78F8B2
:1002E000808000001E1E111F061F001F1F1F071FFA
:1002F000071F071F001F1D1F0203010100000E1032
:100300000000F0F008F87CFC02FE29FF7DFF69FF89
:10031000B9FF01FF42FEBCBC000000000101020366
:1003200004071A1F001F1F1F071F071F1F1F001F83
:10033000031F181F0F0F000000000000BCBC42FE8E
:1003400001FFB9FF69FF7DFF29FF02FE7CFC08F871
:10035000F0F0000000000F0F181F031F001F1F1FE9
:10036000071F071F1F1F001F1A1F04070203010199
:100370000E100000E0E010F0F8F804FC52FEFAFE67
:10038000D2FE72FE02FE84FC7878000000000202B9
:100390000507080F141F001F1E1F061F061F1F1F23
:1003A000001F061F111F1E1E0000000000007878AD
:1003B00084FC02FE72FED2FEFAFE52FE04FCF8F845
:1003C00010F0E0E0000000001E1E111F061F001FBD
:1003D0001F1F061F061F1E1F001F141F080F0507E3
:1003E00002020E100000F0F008F87CFC04FC52FE43
:1003F000FAFED2FE72FE02FE04FCF8F800000000D5
:100400000101020304071A1F001F1E1F061F061FFB
:100410001F1F001F031F181F0F0F00000000000008
:10042000F8F804FC02FE72FED2FEFAFE52FE04FC54
:100430007CFC08F8F0F0000000000F0F181F031FED
:10044000001F1F1F061F061F1E1F001F1A1F040765
:10045000020301010E100000F0F008F87CFC02FE1F
:1004600029FF7DFF69FFB9FF01FF42FEBCBC000010
:1004700000000101020304071A1F001F1F1F071FAE
:10048000071F1F1F001F031F181F0F0F0000000072
:100490000000BCBC42FE01FFB9FF69FF7DFF29FFE0
:1004A00002FE7CFC08F8F0F0000000000F0F181F9F
:1004B000031F001F1F1F071F071F1F1F001F1A1FDB
:1004C0000407020301010F100002000000000000F9
:1004D00000000000020400000810000000000000FE
:1004E00000000000200002050200000000000000E3
:1004F0000002050A04081428100000000000000093
:10050000002050200F100000020600000000000034
:1005100000060A0C00000C14180000000000001077
:10052000281000000002050906000000000006096E
:1005300015120C0C122A2438000000001028542830
:1005400010000F1000000C121A04000000040A1220
:10055000120C00000609110A0400000008142212FF
:100560000C00000C92AD251A0400040A152D2D1262
:100570000C0609162E150A040008142A5D2D120C0B
:100580000F10000080982424120C00081422120C72
:1005900000000304080906000C1221120C000100DF
:1005A00000805864DA5A2D120C942A5D2D920C03A7
:1005B000040B1716090E122D5E2D120D02010F10DD
:1005C00000C0201824040202020A040408F00000FB
:1005D000030408081420202021120C020100C0206E
:1005E000D8E4DAFAFDFDFDF5FAFAF408F003040B9D
:1005F00017172B5F5F5F5E2D130D02010C100000BB
:100600000000806010103020C000000000000102D7
:10061000020404020100000000806090E8E8C8D0F5
:1006200020C0000000010205050B0B0502010B10A4
:10063000000000000000C02020C0000000000000FA
:100640000000010100000000000000C020D0D02008
:10065000C0000000000000010202010002070200C9
:100660000000000000000002070E04081C38100003
:10067000000000000000002070200002070F0600AC
:1006800000000000070F1F1E1C0E1E3E3C3800001D
:10069000000010387C381000000C9EBF3F1E040084
:1006A000040E1F3F3F1E0C060F1F3F1F0E040008C5
:1006B0001C3E7F3F1E0C0080D8FCFE7E3F1E0C9C23
:1006C0003E7F3F9E0C03070F1F1F0F0E1E3F7F3FF5
:1006D0001E0D0301C0E0F8FCFEFEFFFFFFFFFEFE63
:1006E000FCF8F003070F1F1F3F7F7F7F7F3F1F0F27
:1006F000030100000080E0F0F8F8F8F0E0C000002E
:1007000000010307070F0F0703010000000000C0EE
:10071000E0F0F0E0C0000000000000010303010071
:100720000808FF81A58181A581FF0808FF8185B5A3
:10073000959D81FF0C0C7C7C82FE01FF11FF09FF5F
:1007400002FE02FE01FF01FF01FF82FE7C7C000031
:100750000000010102030407080F080F0407020349
:100760000101000000001010000000C0C0E020F0F7
:1007700010F890F808FC08FC10F808FC04FE94FE41
:1007800044FE387E023F0002001E1E3F217F4CFFC8
:1007900056FF5EFF4CFF217F247F207F103F0C1F00
:1007A000030F0003000000000C0CF8F804FCFAFE34
:1007B000CDFFBDFFCDFFFDFF7DFF7DFF3AFE04FCB9
:1007C000F8F8010102030507080F090F080F090FC8
:1007D000080F0A0F050702030101F8F804FC3AFEAE
:1007E0007DFF7DFFFDFFCDFFBDFFCDFFFAFE04FCC9
:1007F000F8F80101020305070A0F080F090F080F97
:10080000090F080F0507020301010C0C004C4CFEF8
:1008100090FC4CFEB6FF9EFF9EFFB6FF4CFE90FC88
:100820004CFE004C0000000C040F030700030207FD
:10083000020700030307040F000C00000C0C00006B
:1008400000C0C0F898FC6CFE5CFE6CFEBCFED8FCE0
:10085000C0F800C000000007070F090F060F090FBE
:10086000010F030F090F060F090F070F0007000004
:1008700000C0C0F8D8FCBCFE6CFE5CFE6CFE98FCB0
:10088000C0F800C000000007070F090F060F090F8E
:10089000030F010F090F060F090F070F0007D5F00F
:1008A0008D14A1C881CFD9F1AF20001410070387A0
:1008B000C3E244A347A347A703070387C3E244A3B4
:1008C00047050204010004020502050200050204B6
:1008D00001000402051A2400000000FEFCDC2C3696
:1008E000F616EE767AFA7A7AF2E60E16F6362CDC00
:1008F000FC00181810939716D595D694C38FC68D03
:10090000C78EC391D090D191D596D700000000FF3B
:10091000FF00FF6262626A62626A62626AE2622A7F
:10092000A2A2AAA26200000000FFFF00FFFFFFE3F7
:1009300063636341E3F7FF01FC0300000000000074
:100940000000000F0F000F0F0708050F0503040339
:100950000F000F00000000000004081E3F211E22AF
:100960003E3F203229253212253F1A0C2A3F2C17F0
:10097000253D181E3F251823393D231A252D1A061B
:100980002F291E030811000533100301FF0103FE88
:100990000101FE01FF21211E00000002012121DED4
:1009A0000000000301FF010301FF2121DE0001FF20
:1009B0000100FE2121FE00FF00001E31C7000407D8
:1009C0000400030404030407040000000000020400
:1009D00004040300000000040704000407040003EB
:1009E00004040704000700000700070404060403CA
:1009F0000808003C3C7E42FF52FF5AFF42FF3C7E0B
:100A0000003C0000003C3C7E42FF52FF3C7E003C2C
:100A1000000000000000003C00FF3CFF003C000024
:100A200000000000003C3C7E5AFF42FF3C7E003C40
:100A300000000E00000000000C0C7C7C82FE01FF18
:100A400011FF09FF02FE02FE01FF01FF01FF82FE0E
:100A50007C7C00000000010102030407080F080F5E
:100A6000040702030101000000000500010000006E
:100A700090320032903A0032904400329048003276
:100A800080F0020803032610FCFC02FEF9FF05FFBC
:100A900005FF0DFF05FF05FF05FF0DFF05FF05FF26
:100AA00005FF0DFF05FF05FF05FF0DFF0DFF0DFF06
:100AB0000DFF05FF05FF05FF0DFF05FF05FF05FF06
:100AC0000DFF05FF05FF05FF0DFF05FF05FFF9FF02
:100AD00002FEFCFC03030407090F0A0F0A0F0B0FA9
:100AE0000A0F0A0F0A0F0B0F0A0F0A0F0A0F0B0F3C
:100AF0000A0F0A0F0A0F0B0F0B0F0B0F0B0F0A0F2A
:100B00000A0F0A0F0B0F0A0F0A0F0A0F0B0F0A0F1B
:100B10000A0F0A0F0B0F0A0F0A0F090F040703032E
:100B200080C0E0E0E0F0FCFEFFFEFCE0E0E0E0E0A2
:100B3000E0E0E0E0E0E0E0C0C0E0E0E0E0E0E0E0F5
:100B4000E0E0E0E0E0E0E0C0C0E0E0E0E0E0C08065
:100B5000000080C0E0E0E0E0E0E0E0E0E0E0E0C0F5
:100B6000C0E0E0E0E0E0C0E0E0E0E0E0C0E0E0E0E5
:100B7000E0E0E0E0E0C0C0E0E0E0E0E0E0E0E0C0D5
:100B800080000003070F0FFFFFFFFFFFFF7F0F072E
:100B9000FFFFFFFFFFFFFFFFFFFFFFFFFFFFFFFF65
:100BA000FFFFFFFFFFFFFFFFFFFFFFFFFFFFFFFF55
:100BB00007000000FFFFFFFFFFFFFF0FFFFFFFFF2A
:100BC000FFFFFFFFFFFFFFFFFFFFFFFFFFFFFFFF35
:100BD000FFFFFFFFFFFFFF77FFFFFFFFFFFFFFFFAD
:100BE000FFFF7F3F0000000000FFFFFFFFFFFF004F
:100BF000000001FFFFFFFFFF7FFFFFFFE3FFFFFF9D
:100C0000FFFF1F3F7FFFFFFFFF7F3F0F071F7FFF9C
:100C1000FFFFFCE08000037FFFFFFFFFFF80FFFF7F
:100C2000FFFFFF3F070F1F3F7FFFFFFF7F3F1F0FAC
:100C300003070F1F3F7FFFFEF0E041FFFFFFFFFFB5
:100C40007FFFFFFFE080000000000000FFFFFFFFCC
:100C5000FF0000000003070F070300000103017FEE
:100C6000FFFFFF7F00000000010100000000000006
:100C700000000103070F1F0E0400030F7FFFFFFF9B
:100C8000FFFF7F0F010000000000000001000000D6
:100C90000000000000000000000001000003070F3A
:100CA0000703000001030100000000000000070F1F
:100CB0001F0F0700000000000000000000000000FF
:100CC0000000000100000000000000000000000023
:100CD0000000000000000000000000000000000014
:100CE00001030100000000000000000000000000FF
:100CF00000000000000000000000000000000000F4
:100D00000000000000000000000062280080404059
:100D10004040700C021C6040404040404040404019
:100D20004040408000C0404040C0404040404040C3
:100D300040404080804040404040800000000080B3
:100D40004040404040404040404040808040404023
:100D50004040804040404040804040404040404013
:100D600040808040404040404040408000000000C3
:100D700003040404FC0000807C04040201FF000062
:100D800000FC241880403FFF000000FF0300B02C4F
:100D9000222CB000000FFC030000F8070000000048
:100DA00000FF000000FC040404FC000000FFFE0142
:100DB0000000F00E010EF0000003FF8000001CD4C4
:100DC0005454542300FF000000FC3C0080403F00CE
:100DD000000000000000FF0000FF00000000000114
:100DE000FE00FE0718609F608003FC00F8070C10EF
:100DF0002759A1B14F30080701061860831C608095
:100E0000000000037C80007F8000807F00C03C03E6
:100E1000000608102344884423100C030001060830
:100E200010234C50A0400001FE00FE0718609F6098
:100E3000800000000000000000FF00FF0000000034
:100E40000000030403000000000100007F807F0019
:100E50000000000000000000000000000000000191
:100E600002050A04000000030C708F708F700E01E1
:100E70000000000000000000000000000000000072
:100E80000000000000000000000003040300000058
:100E9000000100000000000000000007080700003B
:100EA0000000000000000000000000000000000042
:100EB0000000000000000000000000000000000032
:100EC0000000000000000000000000000001000021
:100ED0000000000000000000000000000000000012
:100EE0000000000000000000000000000000000002
:100EF000000000000000904E0046905300469066AF
:100F0000004680F0906E00329068003290620032AD
:100F1000905C00329056003290500032904A00327D
:100F200090440032903E00320014903E0032001493
:100F3000903E00320014903E003280F09044003227
:100F400090490032904E00329053003280F090323F
:100F5000001480F0070804060706050204010307D1
:100F6000030502010508EDF6C9F6EDFDFDC0EFEF42
:100F7000FCFBC0FBFCFDC1FEC1FDF7EFC0FDFBFDAE
:100F8000FBC4FBFD0C10FC02F9FDFDFDFDFDF901AC
:100F900002FC0F10272F2F2F2F2F2720100F00FCC0
:100FA00002F90D2DFDF90102FC00000F10272E2C77
:100FB0002F2720100F000000FC02F90DF90102FCA0
:100FC000000000000F10272C2720100F0000000049
:100FD00000FC02F90102FC0000000000000F1027D5
:100FE00020100F00000000000000FE0101FE0000C4
:100FF0000000000000001F20201F00000000000073
:1010000000FC0201F902FC0000000000000F1020AB
:1010100027100F0000000000FC0201F9FDF902FC9E
:10102000000000000F1020272F27100F000000FCE9
:101030000201F9FDFDFDF902FC00000F1020272F31
:101040002F2F27100F00FC0201F9FDFDFDFDFDF91A
:1010500002FC0F1020272F2F2F2F2F27100FFC02FD
:10106000F9FDFDFDFDFDFDF902FC0F10272F2F2FCF
:101070002F2F2F27100F00FC02F9FDFDFDF90102B3
:10108000FC00000F10272F2F2F2720100F0000002B
:10109000FC02F9FDF90102FC000000000F10272FEF
:1010A0002720100F0000000000FC02F90102FC00E4
:1010B00000000000000F102720100F0000000000AB
:1010C0000000FE0101FE00000000000000001F20E3
:1010D000201F00000000000000FC0201F902FC00DB
:1010E00000000000000F102027100F00000000007B
:1010F000FC0201F90DF902FC000000000F1020278E
:101100002C27100F000000FC0201F9FD0D2DF90243
:10111000FC00000F1020272F2E2C27100F003B1053
:1011200001FF21710301FF06186081FF010301FF28
:10113000010301FF21710301FF2121DE00000000F6
:101140000001FF2121DE01FF0000FF01FF06186002
:1011500081FF01FF2171030E1121C7040704040759
:101160000407000000050704000407040004070446
:10117000040704070400030400000000040704003F
:101180000304030404030407000000050704070424
:101190000406020404030408102A2A3C3F242418ED
:1011A0001C2222141824243F1C2A2A2C047E050108
:1011B0004C52523E3F040438243D20003E09093E73
:1011C0003F081422213F20003E04043E3E04023C1E
:1011D0001C22221C7E22221C1E2121123E040204FB
:1011E000242A2A12021F22201E20201E0E10201E3A
:1011F0003E10103E3F2525214E50503E0304380737
:10120000002F0000002000000708FF0155110D010C
:101210000505010D115501FFFF80AA88B080A0A02F
:1012200080B088AA80FF090800382844FE0000002A
:10123000000038387CFE005492001C0801020202B3
:101240000202020202040200060D0F06000204025E
:10125000020202020202020103106688330608033A
:101260004F380000000000000000000000000000F7
:10127000000000000000000000008040A05028D4C2
:10128000EA723A9A9A1232F5E191E1F234129A9A9C
:101290003A72EAD42850A04080000000000000000C
:1012A000000000000000000000000000000000003E
:1012B0000000000000008040C08000000C04FC041E
:1012C0000C04FC8484FC0404FC85C40C0100010DA6
:1012D00004FD040C05FC8485780104FC0500F885F8
:1012E00084F901FC010078C51C000000F80404F832
:1012F0000004FC84C40C00008040C080000000009A
:10130000008080808081838381808080909F908016
:10131000909F90909F90909F90919C8080808090D3
:101320009F9080909F90808F90909F90809F8080D2
:101330009F809F909098908F8080808F90908F80DA
:10134000909F908180808081838381808080000154
:101350000000F8FC7C1C3CFCFCF80000008C1C1C11
:101360001C1474E4E4C40004040CFCFCFC0C040431
:101370000000F4FC3C1C1C7CFCFCC40004FCFC1CB9
:101380001C1CFCF8300000F8FC3C1C1C7CFCF80029
:101390000004FCFCFC000084FCFC040000010000D4
:1013A00000FF0700181818FFFF000000031F3F632D
:1013B000C30207070100000000FFFF0F000000004C
:1013C000000F31C30303017F0F07000001FF000C72
:1013D0003FF3000000001F3F40C040203F1F0000BF
:1013E00000FFFF7F187EFF030000000000000000E8
:1013F0000007080000807F030000000000000000DC
:1014000000000000000000000007000000000000D5
:1014100000000000000000000000000007000000C5
:1014200000030000000000000000000000000000B9
:10143000010F000000011F78C00000000000000044
:101440000000000001000000000000121509000269
:101450000F12000C121E001E020600020F120000E6
:101460000000000000000000121509000C1212001C
:101470001E121E001E0206000C1A140014120A008E
:1014800000000000000000000100000208D4D205A6
:10149000087F7F3E1C084120FE0105F1F1F111D1CA
:1014A000B1D111F1515151515151515151515151EC
:1014B00051510000FF00007F7F09090F06007F7F68
:1014C00019396F46007F7F4949414100266F4949DC
:1014D0007B3200266F49497B32FF0000FFFFFFFE91
:1014E000FFFEFF0279CD95A5CD790111111101F90A
:1014F000F901010000FF00007F7F09090F06007F4E
:101500007F40404040007C7E0B0B7E7C00070F78C4
:10151000780F0700000000000000FF00001F3F3FA1
:1015200033333333333E36363E363E363E36363E42
:1015300036363E360000FF00003E7F41417F3E00D0
:101540007F7F0E1C7F7F0000000000000000000075
:1015500000000000000000000000003F405040403C
:1015600040784641415959414141415959414141D0
:10157000414141414100007F000001017F7F0101A5
:10158000007C7E0B0B7E7C007F7F09090F06007FAD
:101590007F49494141000000000000009034011BD8
:1015A0009140008D81008D9142008D81008D914090
:1015B000008D81008D9143008D81008D9142008DC1
:1015C00081008D9140008D81008D9142008D808140
:1015D000008D9032011B9140008D81008D91420061
:1015E0008D81008D9140008D81008D9143008D8112
:1015F000008D9142008D81008D9140008D81008D84
:101600009142008D81008D913080011B9040008DB2
:1016100080008D9042008D80008D9040008D800074
:101620008D9043008D80008D9042008D80008D90C4
:1016300040008D80008D9042008D80008D90328121
:10164000011B9140008D81008D9142008D81008DA4
:101650009140008D81008D9147008D81008D9145D5
:10166000008D81008D9143008D81008D9142008D10
:1016700081008D80E006104090BA9C904004000AE2
:101680000A00044098B8B5984004000A0A000440D3
:10169000909CBA904004000A0A00044098B5B8989B
:1016A0004004000A0A0004121000100010109010EC
:1016B0000017001D1810101010101000000000007E
:1016C00007060404040404040004000000080800E1
:1016D0003C3C7E42FF52FF5AFF42FF3C7E003C00F2
:1016E00000003C3C7E42FF52FF3C7E003C0000007C
:1016F000000000003C00FF3CFF003C000000000038
:1017000000003C3C7E5AFF42FF3C7E003C00000C47
:1017100010F8F804FCFAFEA5FF81FFC3FFF1FFFDFE
:10172000FFF5FFFAFE04FCF8F80000636394F7ABE2
:10173000FFB7FFBEFFBDFFB6FFABFF94F7636300CB
:1017400000F8F804FCFAFEFDFF95FFC3FFFDFFFD66
:10175000FFF5FFFAFE04FCF8F80000636394F7ABB2
:10176000FFB7FFBEFFBDFFB6FFABFF94F76363009B
:10177000000C100000C6C629EFD5FFEDFF7DFFBDB0
:10178000FF6DFFD5FF29EFC6C600001F1F203F5F7A
:101790007FA5FF81FFC3FF8FFFBFFFAFFF5F7F20EC
:1017A0003F1F1F0000C6C629EFD5FFEDFF7DFFBD1F
:1017B000FF6DFFD5FF29EFC6C600001F1F203F5F4A
:1017C0007FBFFFA9FFC3FFBFFFBFFFAFFF5F7F204A
:1017D0003F1F1FFE028C021A02A8015404E203708C
:1017E000030E104040BCFC02FE9EFE02FE19FF3DAF
:1017F000FF35FFB9FF01FF42FEBCBC000000000046
:1018000000000001011E1F001F0F1F071F071F1FE1
:101810001F001F031F181F0F0F000000000000BC57
:10182000BC42FE01FFB9FF35FF3DFF19FF02FE9EDE
:10183000FE02FEBCFC404000000F0F181F031F00FB
:101840001F1F1F071F071F0F1F001F1E1F01010063
:1018500000000000000000240027002A002D0030B6
:101860000000000000250028002B002E003100049D
:10187000080201104080401020408040800802048F
:1018800001804020100201108010204040200404FC
:101890000404040304050202020204030202020219
:1018A00006060606060604040202020404060115E2
:1018B00001260137014A015D01720188019F01B8CB
:1018C00001D201EE010B022A024B026E029302BA10
:1018D00002E40210033F037003A403DC0317045562
:1018E000049704DD0427057505C80520067D06E07C
:1018F000064907B8072D08A9082D09B9094D0AEAB4
:101900000A900B400CFA0CC00D910E6F0F5A105339
:10191000115B1272139A14D41520178018F51980D0
:101920001B231DDE1EB420A622B524E4263429A7DD
:101930002B402E0031EA330037453ABC3D68414C1C
:10194000456B49C84D68524F57805C0062101112B8
:1019500013151617181A1C1D1F21232527292C2E95
:101960003134373A3E4145494E52575C62686E7594
:101970007B838B939CA5AFB9C4D0DCE9F73D2000F5
:1019800004041E1AFFE2FF02FF02FF02FFE2FF2231
:10199000FFE2FF02FF02FF04FEFCFE1AFF02FF024D
:1019A000FFC2FF22FFE2FF02FF02FF02FFFCFEF484
:1019B000FE0AFF02FF02FFC2FF32FF0C7E72FF82AF
:1019C000FF02FF02FF1AFFE4FEE4FE1AFF02FF021D
:1019D000FFC2FF22FF22FFA2FFC2FFA2FF1CFEFCEC
:1019E000FE02FF02FF02FFE2FF22FFE2FF02FF0210
:1019F000FFC2FF3AFF043E00040000000000FFFFAA
:101A0000FF00FF00FFFFFF40FF38FF87FF40FF2080
:101A10007F1CFFFFFF00FF00FFECFF4BFF84FF4830
:101A2000FFDFFF00FF00FFC3FF3FFF187F60FF8065
:101A3000FF1FFF60FF80F070FF0FFF80FF60FF1C43
:101A40007F031F0F1F103F103F0A1F09DFC9FF3D13
:101A5000FF80FF40FF307F0F3F077F78FF80FF0050
:101A6000FF0FFFC8FF87FF4CFF4BFF50FB207000AC
:101A700020000000000000001F1FFFE0FF00FFFE2D
:101A8000FF02FF01030001000000000001011F1E12
:101A9000FFE0FF1FFFE0FF00FF00FFFFFF00FFC0B0
:101AA000FF3FFF003F0000000000010103020702AA
:101AB0000702070103000100000000000000000011
:101AC0000000020207050F020701030001000000E9
:101AD00000000000000003030F0C3F30FFC3FF1C99
:101AE000FFE0FC00E000000000000000000000003B
:101AF000000000003F3F7F40FF3F7F003F000000AD
:101B000000000000000000000000000001010300D0
:101B1000010038387F47FF387F073F00070000008B
:101B200000000000000000000000000000000000B5
:101B300000000000000000000000000000000000A5
:101B40000000000000000000000000000000000095
:101B50000000000000000000030307040F0B1F0437
:101B60000F00040000000004081E3F211E223E3F1B
:101B7000203229253212253F1A0C2A3F2C17253DE9
:101B8000181E3F251823393D231A252D1A062F2903
:101B90001E0708060F1F3E1F0F0606091122110916
:101BA00006031002FC0000FF00FFFFFE50A0408073
:101BB0000000000000000000000000000000000025
:101BC0000000000000FFFFFFFDFEFDFEFDFEFCFC2F
:101BD000FCFCFCFCFCFCFCFCFCFCFCFCFCFCFCFC45
:101BE000FCFFFFFFFFFFFFFFFFFFFFFFFFFFFFFF08
:101BF000FFFFFFFFFFFFFFFFFFFFFFFFFFFFFFFFF5
:101C0000FFFFFFFFFFFFFFFFFFFFFFFFFFFFFFFFE4
:101C1000FFFFFFFFFFFFFFFFFF0F0F0F0F0F0F0F64
:101C20000F0F0F0F0F0F0F0F0F0F0F0F0F0F0F0FC4
:101C30000F0F0F0F0F1C24FE0000A04080000000BB
:101C40000000000000000000000000000000000094
:101C500000000093D090DA1B9A991A1800C080C037
:101C600080C080C080C0800000000000C0C000EACA
:101C70006262FF00FFFF000000DDCCCCCCCCCCCCFE
:101C8000CCCCCC00C0000000FFFF0001FF77FF00BC
:101C9000FFFF000000DDCCCCCCCCCCCCCCCCCC003D
:101CA000CC000000FFFF00000F0F0F000F0F00001F
:101CB000000D0C0C0C0C0C0C0C0C0C000C0000009F
:101CC0000F0F000C10048E46A2428642A2468E429E
:101CD0008400020707050603070506070219A6BECA
:101CE0005E3EFE7E7E6E76EE01040202040408056E
:101CF0000D050D0400FEFFFFFFFFFFFFFFFFFFFFCD
:101D0000FE0003070F0F07070F0F0703000C10005B
:101D10007AB676B676BA7ABA7A3600000000000053
:101D2000000000000000001808F8FCFCFCF8F8F8BF
:101D3000F0F0F0F8F8F8FCFCFCF8F8F8F0F0F0F847
:101D4000F82E06FC05BE05800542050405C6040AFA
:101D500007F206D406B60698067A065C06181080C6
:101D60008040C0A0E0A0E0A0E0A0E090F0A8F8943F
:101D7000FC8AFE8AFE8AFE05FF85FF85FF85FF4AF5
:101D8000FE6AFE3AFE1AFE0AFEC4FC18F8E0E00FF6
:101D90000F303F0E3F303F033F173F143F173F13B5
:101DA0003F103F003F1E3F303F003F003F303F0E9F
:101DB0003F003F323F121F111F080F040703031497
:101DC00010C0C030F0C8F8F4FC1AFE65FF6DFF6A61
:101DD000FE6AFE2AFECAFEF2FE3AFE05FF05FF324B
:101DE000FEC4FC08F830F0C0C01F1F607F1D7F617B
:101DF0007F077F2F7F297F2F7F277F217F017F3DD7
:101E00007F607F007F017F617F1D7F007F607F1F7C
:101E10001F0808003C3C7E42FF52FF5AFF42FF3C35
:101E20007E003C0000003C3C7E42FF52FF3C7E00B6
:101E30003C000000000000003C00FF3CFF003C00B4
:101E40000000000000003C3C7E5AFF42FF3C7E0048
:101E50003C0000F0F8F8F8F8FEFFFFFEF8F8F8F89C
:101E6000F8F8600707070707FFFFFFFF07070707E7
:101E70000703001010F0084848484E0D4F0E484820
:101E8000080898F8600704050405FD0DFDFC05042D
:101E9000040407030000F0B0B0B0B0F2B0F0B0B08E
:101EA000F0F0600000000302030202F202030203EA
:101EB00003030000000D10FC02A9DDFDFDFD7D8186
:101EC00081010101FF00AFDFFFFFFFF00407800089
:101ED000A0000000FFFFFEFEFEFFFFFFFFFFFFFF71
:101EE000FFFFFFFFFFFFFFFFFEFEFE3C3C3CFFFF4E
:101EF000FFFFFFFFFFFFFFFFFFFFFFFFFFFFFFFFF2
:101F0000FFFFFFFFFF000000FFFFFFFFFFFFFFFFDE
:101F1000FFFFFFFFFFFFFFFFFFFFFFFFFFFFFF00D0
:101F20000000FFFFFFFFFFFFFFFFFFFFFFFFFFFFBF
:101F3000FFFFFFFFFFFFFFFFFF0000000F0F0F0F6E
:101F40000F0F0F0F0F0F0F0F0F0F0F0F0F0F0F0FA1
:101F50000F0F0F1A2400000000FEFCDC2C36F616D2
:101F6000EE767AFA7A7AF2E60E16F6362CDCFC0079
:101F7000181810939716D595D694C38FC68DC78E13
:101F8000C391D090D191D596D700000000FFFF00FB
:101F9000FF6262626A62626A62626AE2622AA2A2A4
:101FA000AAA26200000000FFFF00FFFFFFE36363DF
:101FB0006341E3F7FF01FC030000000000000000A4
:101FC000000F0F000F0F0708050F050304030F0094
:101FD0000F000000000000FFFFFFFFFFFFFFFFFFFB
:101FE000FFFFFF0F0F0F0F0F0F0F0F0F0F0F0F3C04
:101FF000083C080A08A807660734072A0720072AAA
:1020000007C31C06104090BA9C904004000A0A00C6
:10201000044098B8B5984004000A0A000440909C17
:10202000BA904004000A0A00044098B5B8984004E9
:10203000000A0A000412100010001010901000177F
:10204000001D1810101010101000000000000706EE
:102050000404040404040004000000031066883330
:102060000608034018AA00AA00AA01AB07AF1FBFC9
:102070007FBF7FFFFFFF7FFF7FFF7FBF1FBF1FAFC0
:1020800007AB03AB07AF1FBF7FBF7FFFFFFFFFFFA4
:10209000FFFFFFFF7FBF7FFF7FFF7FBF1FBF1FAF20
:1020A00007AB01AA00AAFDAAFDAAFDAAFDAAFDAAE6
:1020B000FDAAFDAAFDAAFDAAFDAAFDAAFDAAFDAAE8
:1020C000FDAAFDAAFDAAFDAAFDAAFDAAFDABFDABD6
:1020D000FDABFDAAFDAAFDAAFDAAFDAAFDAAFDAAC7
:1020E000FDAAFDAAFDFBFFFEFFFBFFFEFFFBFFFEBF
:1020F000FFFBFFFEFFFBFFFEFFFBFFFEFFFBFFFE04
:10210000FFFBFFFEFFFBFFFEFFFBFFFEFFFBFFFEF3
:10211000FFFBFFFEFFFBFFFEFFFBFFFEFFFBFFFEE3
:10212000FFFBFFFEFF0304000202070002903C00D9
:102130001480F00C0C000000C0C0F898FC6CFE5C31
:10214000FE6CFEBCFED8FCC0F800C0000000070713
:102150000F090F060F090F010F030F090F060F09D3
:102160000F070F0007000000C0C0F8D8FCBCFE6CD1
:10217000FE5CFE6CFE98FCC0F800C0000000070783
:102180000F090F060F090F030F010F090F060F09A3
:102190000F070F0007000000000000904E001E9087
:1021A00053001E9058001E905D001E80F00C0E0023
:1021B0000070708CFC02FE09FF1DFF1DFF09FF026D
:1021C000FE8CFC707000000000000001010A0B0191
:1021D000011617020301010A0B01010000000000B3
:1021E00000808060E014F420E01AFA10F020E0147F
:1021F000F460E080800000000003030C0F101F2437
:102200003F2E3F2E3F243F101F0C0F030300000DF5
:1022100000000000001010000000C0C0E020F0101E
:10222000F890F808FC08FC10F808FC04FE94FE4442
:10223000FE387E023F0002001E1E3F217F4CFF56EB
:10224000FF5EFF4CFF217F247F207F103F0C1F0388
:102250000F0003000000000401020000000C0C004D
:102260004C4CFE90FC4CFEB6FF9EFF9EFFB6FF4C12
:10227000FE90FC4CFE004C0000000C040F03070015
:10228000030207020700030307040F000C0000020B
:1022900000020F0F0F0C0CF8F804FCFAFECDFFBD86
:1022A000FFCDFFFDFF7DFF7DFF3AFE04FCF8F80146
:1022B0000102030507080F090F080F090F080F0A8D
:1022C0000F050702030101F8F804FC3AFE7DFF7DCB
:1022D000FFFDFFCDFFBDFFCDFFFAFE04FCF8F801C6
:1022E00001020305070A0F080F090F080F090F085D
:1022F0000F05070203010103000201050D0C0C008C
:102300000000C0C0F898FC6CFE5CFE6CFEBCFED801
:10231000FCC0F800C000000007070F090F060F09F6
:102320000F010F030F090F060F090F070F0007001A
:102330000000C0C0F8D8FCBCFE6CFE5CFE6CFE98D1
:10234000FCC0F800C000000007070F090F060F09C6
:102350000F030F010F090F060F090F070F000701E9
:10236000000103070700B42911241FBECFEFDAE0F4
:10237000DEBFCDBF11E0A0E0B1E0E2E3FBE602C0CA
:1023800005900D92A633B107D9F729E0A6E3B1E095
:1023900001C01D92A934B207E1F711E1C4EBD1E10C
:1023A00004C02197FE010E948A35C33BD107C9F7BB
:1023B0000E94282A0C9497350C9400006F927F920B
:1023C0008F929F92AF92BF92CF92DF92EF92FF9245
:1023D0000F931F93CF93DF936C01DB0148017E2D98
:1023E0004115510509F49DC0FA016491319684911B
:1023F0004E5F5F4FC62FD0E0222301F1E1E0F0E015
:10240000982F977011F4F0E0E0E0082F06950695FC
:1024100006950E0F1F2F111D0C9FF0010D9FF00D43
:102420001C9FF00D1124733011F4EE0FFF1F2E9F2F
:1024300080012F9F100D1124400F511F86010C0F9A
:102440001D1F101611060CF06CC0F0E8CF16D10459
:102450000CF067C09D01280F311D121613060CF0F9
:1024600060C0A034B1050CF05CC04115510509F401
:1024700058C03A2F3770FD01B7FD379693E0F595B8
:10248000E7959A95E1F72E2FB7FF04C0332311F09B
:102490002FEF2E0FEE27FF27EC19FD09D7FC02C006
:1024A000F0E0E0E090E89C19003811050CF4962F5C
:1024B0009E1BA22F022E000CBB0B1A2F10952F3F34
:1024C0000CF010E0BB24B394082F077009F4B12C72
:1024D000869586958695B80EAB0DB11D19971CF0A3
:1024E000A8E0BA2EB21AB11A210F00E82003D001D9
:1024F0001124AC0DBD1DAE0FBF1F619FE00DF11D7E
:1025000011244E0F5F1FC32E032E000CDD08733005
:1025100009F418C1A8F4713009F4CAC0723009F482
:1025200078C0DF91CF911F910F91FF90EF90DF90D6
:10253000CF90BF90AF909F908F907F906F900895B5
:102540007A3FB1F10B2D020F7B3F59F7201749F36A
:10255000BD01675B7A4FF12CE12CE91608F0A2C0AF
:10256000FA01EE0DFF1DE491F0E04F010C2C02C0CA
:10257000880C991C0A94E2F727FD06C0FB018081B4
:10258000182D109581238083332361F0273054F474
:102590005B01F0E8AF0EB11C192D1095F50180819B
:1025A00081238083FFEFEF1AFF0A6F5F7F4FD5CF44
:1025B0000B2D020F201709F4B4CFBD01675B7A4FD2
:1025C000F12CE12CE91608F067C0FA01EE0DFF1DB1
:1025D000E491F0E04F010C2C02C0880C991C0A9485
:1025E000E2F727FD04C0FB01808188298083332323
:1025F00051F0273044F45B01F0E8AF0EB11CF50157
:10260000808189298083FFEFEF1AFF0A6F5F7F4F78
:10261000D9CF6FEF70E0032E02C0660F771F0A94C8
:10262000E2F760957095972E8B2C820E281509F491
:1026300078CF8D01075B1A4FF12CE12CE91630F5AC
:10264000FA01EE0DFF1DE491F0E03F010C2C02C0F9
:10265000660C771C0A94E2F727FD05C0F80180811B
:10266000862386298083332359F027304CF4580180
:10267000F0E8AF0EB11CF5018081892187298083A4
:10268000FFEFEF1AFF0A0F5F1F4FD8CF2F5F4C0FDE
:102690005D1FA058BF4FCACF2F5F4C0F5D1FA058C2
:1026A000BF4F88CF2F5F4C0F5D1FA058BF4F4ECF3D
:1026B00084010E0F1F1F8B2D820F281709F431CFB5
:1026C000BD01675B7A4FF12CE12CE91698F5F80112
:1026D000EE0DFF1DA490B12C0C2C02C0AA0CBB1C4B
:1026E0000A94E2F7A094B094FA01EE0DFF1D8490D5
:1026F000912C0C2C02C0880C991C0A94E2F727FD3F
:1027000008C0FB017080E72DEA217E2E7828FB01AE
:102710007082332349F027303CF4FB01E058FF4F2F
:10272000A080BA20B928B082FFEFEF1AFF0A6F5FCE
:102730007F4FCBCF2F5F4C0F5D1F0C0F1D1FA0587D
:10274000BF4FBBCFE92EF12CE40FF51FA75BBA4FAB
:1027500060E870E06E197F09CE19DF09AE01440F01
:10276000551FC1E0D0E07E01032E01C0EE0C0A949B
:10277000EAF7192F0B2D892E932ECF93DF93ED01BE
:10278000EF96EF962296A590C590992059F0AE9CB1
:102790005001CE9C600127302CF4F880D094FD20AD
:1027A000FB28F99222233AF0FC90C094FC20FA28EE
:1027B000FD920C94DC1311961A9529F70A9551F0A5
:1027C000182D23951124E40FF11DA60FB11DC60F7E
:1027D000D11DD9CFDF91CF911124A3CE809148058F
:1027E00080959091470589230895E9E4F5E0A0E0FC
:1027F000B8E000800EBC8111012C1197A0FDFDCF27
:102800000192B9F70DB408959C01480F592F511D3D
:102810004138510514F040E850E0421BCB0187706D
:10282000992791E001C0990F8A95EAF7FB0183E0AF
:10283000F595E7958A95E1F7F695FE2FEE27F79542
:10284000E795E20FF31FE75BFA4F415030F08191BB
:10285000DF011197892B8C93F8CF0895FC010E941A
:102860004214319728F068517C4F8F4F9F4FF9CF1A
:10287000AB01FC010E944214641775078E079F0785
:10288000C8F30895A5E8B1E02FB7F8947D918D9134
:102890009C9166B52FBFA89B05C06F3F18F47F5F62
:1028A0008F4F9F4F22E0660F771F881F991F2A9531
:1028B000D1F70895EF920F931F9333E0E32E10E0CA
:1028C00000E00E94DE111F910F91EF900895EF92AA
:1028D0000F931F933AEFE32E10E000E00E94DE1109
:1028E0001F910F91EF900895EF920F931F933BEF7D
:1028F000E32E10E000E00E94DE111F910F91EF9097
:102900000895EF920F931F9332E0E32E10E000E062
:102910000E94DE111F910F91EF90089590E00C94AA
:102920002E148FB18095807F669B88601C9B84608D
:10293000089580917E01089510927E013E983F98FF
:1029400008953E9A3F9A81E080937E010895CF9248
:10295000DF92EF92FF921F93CF93DF93E82FF0E087
:10296000EB5EFE4F1081E62FF0E0603398F5E35BFD
:10297000F64EE491CE2FD0E0F12CE12C60E074E231
:1029800084EF90E0A7019E010E9406352150310995
:102990004109510991E02115310581E048075105B0
:1029A0006CF060E970ED83E090E0A7019E010E9469
:1029B0000635215031094109510993E0113089F060
:1029C000133039F1DF91CF911F91FF90EF90DF909D
:1029D000CF900895EE0FFF1FE35BF74EC591D491A2
:1029E000CBCF80917D018111EDCF80918100887FD7
:1029F000892B809381003093890020938800109266
:102A000085001092840080916F00826080936F0037
:102A1000D9CF80919100887F892B8093910030934A
:102A20009900209398001092950010929400D093F2
:102A30007C01C0937B0181E080937A0180917100D9
:102A4000826080937100BECFE82FF0E0EB5EFE4F16
:102A50008081813019F08330A9F0089580917D0143
:102A600081110FC080916F008D7F80936F008091E6
:102A70006C01E0916A01F0916B019081809589234E
:102A80008083089510927A01809179018111F9CFA4
:102A900080917701E0917501F0917601EECFCF93AF
:102AA000DF93D1E0E0914305F0914405AF014F5F22
:102AB0005F4F50934405409343052491822F807FBC
:102AC000C22FCF70803821F48C2F0E942415EACFBA
:102AD000803919F5E0916801F091690109958D2718
:102AE00080937801E0914305F0914405CF01019670
:102AF0009093440580934305649180916701C817C2
:102B000088F6C13021F4809166018111CBCF67FD39
:102B1000C9CF8C2F0E94A714C5CF87FD3CC0329629
:102B2000F0934405E0934305FA014491A0917B01A1
:102B3000B0917C01322F242F0E9447356C507E4F7C
:102B40008F4F9F4F28EE33E040E050E00E94253544
:102B5000209371013093720140937301509374017B
:102B60008091710190917201A0917301B0917401F3
:102B7000892B8A2B8B2B61F481E090E0A0E0B0E000
:102B80008093710190937201A0937301B0937401CB
:102B9000DF91CF910895803E49F480914505909151
:102BA000460590934405809343057CCF803F09F010
:102BB00079CF10924205ECCF90934605809345055E
:102BC00090934405809343050E944F1581E08093C4
:102BD0004205089590916701923009F471C0292F40
:102BE00030E0F901EB5EFE4F40812C593E4FF90178
:102BF0008083913031F420916401281302C09093B6
:102C000066019F5F9093670190E0FC01E257F74EE9
:102C100024918159974EFC01849130E0220F331F9B
:102C2000F901EF59F74E65917491F901ED5AF74E9C
:102C3000A591B4919C91982B9C93413019F043300D
:102C4000D9F0089590916400977F9093640010925A
:102C50008000109281009091810098609093810093
:102C60009091810091609093810070936B016093CB
:102C70006A0180936C01089590916500977F90930D
:102C800065001092900010929100909191009860D0
:102C90009093910090919100916090939100709326
:102CA0007601609375018093770180916701882395
:102CB00021F06CE380E00E94A71480E00C942415BE
:102CC0000895FC01118A11821082138A8FEF9FEF01
:102CD000978386839187808714861586148208954A
:102CE000DC01ED91FC91309711F08491089580E022
:102CF0000895CF93DF93EC010E947016882339F07A
:102D0000EA81FB8131968491DF91CF9108958CE027
:102D1000FBCFCF93DF93EC010E947016882331F034
:102D2000EA81FB818491DF91CF9108958CE0FBCF04
:102D3000BF92CF92DF92EF92FF920F931F93CF93A8
:102D4000DF9300D000D000D0CDB7DEB78C010E9459
:102D50007016F801C680D780E084F184882379F06A
:102D60008D3079F1C8010E948916B82EC8010E94E1
:102D70007916DA82C982FC82EB82BD8209C0C80161
:102D80000E947916DA82C982FC82EB8299E09D83E7
:102D90008E8329813A814B815C816D817E8180E0C7
:102DA00090E026960FB6F894DEBF0FBECDBFDF9140
:102DB000CF911F910F91FF90EF90DF90CF90BF9038
:102DC0000895F2E0CF0ED11C82E0E80EF11CC8019C
:102DD0000E948916B82EC8010E947916DA82C9822B
:102DE000FC82EB829CEF9B0D9D838450D1CFCF93CF
:102DF000DF93FC01C681D7810E9489168C0F9D2F1D
:102E0000911D0197DF91CF9108950F931F93FC01BE
:102E100080819181A281B3818C019D014DE0000FE1
:102E2000111F221F331F4A95D1F7082719272A2778
:102E30003B27D901C80151E1B695A795979587958C
:102E40005A95D1F7082719272A273B27C901B80126
:102E5000A5E0660F771F881F991FAA95D1F76027F5
:102E600071278227932760837183828393831F91C5
:102E70000F910895FC01E65BFF4F8F529F4FE817BB
:102E8000F90771F0208131812617370739F4228143
:102E900033812417350711F4848108953996EFCFD3
:102EA00080E00895FF920F931F93CF93DF93F82E46
:102EB0008B01EA014F3F540731F08DEA93E00E9405
:102EC0003A17811119C020917E04E9E02E9FC001BC
:102ED000112483559C4FFC01E65BFF4F1183008357
:102EE0003296D183C083825B9F4FFC01F0822F5FBB
:102EF0002F3041F020937E04DF91CF911F910F91ED
:102F0000FF90089510927E04F7CF9C01CB016CE0F6
:102F100070E00E947635FC018D3020F5413110F5CE
:102F2000CB0163E070E00E947635BC015CE0569F07
:102F3000C001579F900D11248E0F9F1F0196880F7F
:102F4000991F820F931F21E030E002C0220F331F30
:102F50004A95E2F7FC01808191812823392381E0A1
:102F6000232B09F480E00895EF92FF920F931F93B3
:102F7000CF93DF93FC01CB01EA012CE030E0B901F3
:102F80000E9476357B01CE01B9010E9476358B0116
:102F9000C489D589CE5DDD4FAB01B701CE010E945A
:102FA000851781110FC017FD0BC0A801B701CE0115
:102FB0000E943A17813020F08C3028F08D3019F0C3
:102FC00080E001C08FEFDF91CF911F910F91FF90B3
:102FD000EF9008957F928F929F92AF92BF92CF927F
:102FE000DF92EF92FF920F931F93CF93DF93EC0149
:102FF000862E0E9470168823A9F1CE010E948916A0
:10300000D12CC12C912C9CE0792EE82EF12CCE01F4
:103010000E948916672D0E945635981608F054C0F4
:10302000A884B98481E0881679F181E0A81AB108F2
:103030000E811F810C0D1D1DA501B801CE010E943E
:10304000B417882389F081E0DF91CF911F910F9110
:10305000FF90EF90DF90CF90BF90AF909F908F90B8
:103060007F90089589E0CCCFB701600F711F615048
:103070007109A501CE010E94B4178111E4CF939488
:103080008CE0C80ED11CC3CFCE010E947916A501D9
:10309000480F511D6E817F816C0D7D1DCE010E94F8
:1030A000B4178111D0CF08851985CE010E947916F9
:1030B000A801480F511D6E817F816C0D7D1D6E0D25
:1030C0007F1D61507109D6CF80E0BECFCF93DF93D3
:1030D000EC0161E00E94EA17882319F09BEF9D87BD
:1030E000188ADF91CF91089561E00E94EA1791E07C
:1030F000892708950E94EE1330914705232F2074ED
:103100009091AC0135FD50C021115AC019161CF424
:1031100091509093AC019091AC0197FF03C09F5FD9
:103120009093AC0182FF14C080EA91E00E94741871
:10313000811152C080EA91E00E946618882309F448
:103140004BC081E08093B2018DE291E20C94DC15DA
:103150008091B201882359F00E94911482FF07C028
:1031600080EA91E00E947418811104C008951092C1
:10317000B20108958091B001863058F48F5F80933A
:10318000B00180FD29C08091AD0182508093AD01D6
:1031900008958C3008F58F5F8093B00180FD1CC0CE
:1031A0008091AD018150F2CF32E03093B301915064
:1031B0009D3F0CF49DEF9093AC01222309F4B2CF14
:1031C00023E02093B3019091AC019F5F94300CF405
:1031D000A7CF2093AC01A6CF08950F931F93CF9351
:1031E000DF93EC010E947016833009F478C0B0F4CC
:1031F000882331F1813009F472C0EC89FD894A815C
:103200005B816885798585859685681B790B8E81BC
:103210009F810384F485E02D20E075C08D3009F492
:1032200075C08E3009F49DC0853039F78C818531A9
:1032300020F782FFE2CFDF91CF911F910F91089588
:10324000CE010E9474180C891D899B896885798537
:10325000AE81BF8121E08823C9F0933009F020E0DE
:1032600061507109F80185859685681B790B838506
:103270009485AD01481B590BCA0141EE57E10297F5
:10328000DF91CF911F910F910C945A14933009F054
:1032900020E0E88D8C8581111CC08D85811119C0BD
:1032A000E33008F0188EE88DF0E0EE0FFF1FE552D6
:1032B000F84E4591549161507109F80185859685C4
:1032C000681B790B83859485FD01E81BF90BCF0101
:1032D000D6CFF0E0EE0FFF1FED52F84EEACFEC89AB
:1032E000FD8921E08B89833009F020E04A815B81F0
:1032F0006885798585859685681B790B8E819F8188
:103300000384F485E02D8E1B9F0BBACFEC89FD89D9
:103310003D856885798585859685681B790B8E81C5
:103320009F8143855485841B950B218520FD07C013
:1033300021E013160CF020E04A815B81A1CF40917F
:10334000890150918A014770552721E0453008F4E2
:1033500020E041E757E113160CF492CF4FE057E11C
:103360008FCF8C81853110F482FD65CFEC89FD898A
:103370002091890130918A012F7033272695269557
:10338000688579856E5F7F4F85859685681B790B8B
:103390008E819F8102960384F485E02D4DEC56E1E9
:1033A000B2CF2F923F924F925F926F927F928F9205
:1033B0009F92AF92BF92CF92DF92EF92FF920F93C4
:1033C0001F93CF93DF93CDB7DEB763970FB6F89413
:1033D000DEBF0FBECDBF809196019091970197FD02
:1033E0000396959587959595879560E470E00E9482
:1033F00076359C01809198019091990140919401BA
:1034000040FF9BC06CE070E00E94763500271127DA
:10341000021B130B80EC90E06C01C21AD30A5B0113
:1034200026E0A21AB10820E043E650E2B501C80147
:103430000E948114005C1F4FC016D106A1F7809135
:103440009601909197016CE070E00E9476351B0127
:10345000ACE02A1A31082CE0269FC001279F900D6E
:1034600011241F821E82FC01E059F109F98BE88BBF
:103470009C012E5831093B8B2A8BBCE0FB2E80919E
:103480009601909197016CE070E00E947635605F44
:103490007F4F621573050CF427C1809198019091BC
:1034A00099016CE070E00E9476353B0148885988AC
:1034B0004E815F81440E551E8A899B89840F951F1A
:1034C0009D878C87F69E5001F79EB00C1124D12C5D
:1034D000C12CD5011296BF87AE870091980110913B
:1034E0009901C8016CE070E00E947635685F7F4FFB
:1034F000661577050CF4EEC077FC7EC080909601CF
:1035000090909701A301B1018DEA93E00E943A17D0
:10351000EAEFE80FEB3008F06FC0F0E0EE56F54E42
:103520000C948A35E51AE51AE51AE51A031B161BF1
:10353000271BFC1A3C1B531B5F1B66E070E00E94BC
:1035400076354B0140E1841A910807E010E0021B38
:10355000130B87EC90E02C01421A530A3B015CE10B
:10356000651A71085B0185E0A81AB1086B0199E042
:10357000C91AD10820E04BE550E2B301C8010E940E
:10358000811420E04BE550E2B401C8010E9481148F
:1035900020E045E350E2B501C80183960E94811402
:1035A0002091890130918A012F7033272695269525
:1035B00043E050E2B601C80143960E948114005CCA
:1035C0001F4F04151505B1F63ACFE82FF0E0EE0FC6
:1035D000FF1FE151F04E45915491B5016C0D7D1DD9
:1035E000601B710BEE24E39407ED1FE120E0C201A4
:1035F000881999090E94DE11BFEF6B1A7B0AECE073
:10360000CE0ED11C6ACFB5016C0D7D1D601B710BF8
:1036100068517109C20188199909EE24E39401EDFA
:103620001EE120E043E55FE18497E4CFB5016C0D36
:103630007D1D601B710B64507109C20188199909C5
:1036400020E045EB5EE10D970E948114D5CF2091DB
:1036500094012170B5016C0D7D1D601B710B6450D0
:103660007109C20188199909EE24E39403E51EE16A
:1036700043E75EE10497BECF2091890130918A0132
:103680002F703327269526956E857F856C0D7D1DC1
:10369000601B710B41E15EE18C859D85881999095C
:1036A0000E945A14A9CFB5016C0D7D1D601B710BD2
:1036B0006350710920E04FEB5DE1C201EFCFB5012E
:1036C0006C0D7D1D601B710B6250710920E04DE592
:1036D0005DE1F3CFFFEF2F1A3F0A2E813F81245F78
:1036E0003F4F3F832E83CBCE59EBC52E51E0D52ED5
:1036F00065E1A62EB12C73E0872E912CD60115968C
:103700008C911597811104C051968C918131B8F03C
:10371000C6010E94F7162091960130919701821BF5
:10372000930B181619065CF4F60186819781821BAB
:10373000930B803891051CF4C6010E94ED18D60148
:1037400051968C91882389F1F501E81BF109CF018D
:10375000B4010E947635660F771FFB01E15BF24EE4
:1037600005911491FB01EF5BF24E4591549120912C
:1037700094012170D60118966D917C9119978091D2
:10378000980190919901681B790B62507109169606
:103790008D919C91E0919601F09197018E1B9F0B6A
:1037A000EE24E39402970E94DE11B9E1CB0ED11C06
:1037B000EDEACE16E3E0DE0609F0A0CF8091940199
:1037C00080FF23C08091890190918A0168E170E0B7
:1037D0000E9462359595879500271127081B190BC4
:1037E00037EBC32ED12C8091980190919901B601AD
:1037F000681B790B20E047E25DE1C8010E94741468
:10380000085E1F4F0038110574F380919601909166
:1038100097016CE070E00E9476354B01FCE08F1A56
:1038200091088CE0869F2001879F500C11241CE09A
:10383000212E312C0CE0F02E809196019091970171
:10384000B1010E947635605F7F4F681579050CF4F1
:1038500068C08091980190919901B1010E947635DC
:103860005B019201205931093F832E830091980119
:1038700010919901C801B1010E947635685F7F4FB0
:103880006A157B050CF446C0A501B4018DEA93E0EE
:103890000E9485173FEFA31AB30A882339F3FA9CD5
:1038A0006001FB9CD00C11244CE0C41AD108C01A52
:1038B000D10A80919601909197016E807F80681A5D
:1038C000790A50E1A516B10441F0A501B4018DEAD1
:1038D00093E00E948517882389F080919401EE245B
:1038E000E39407ED1FE121E080FD05C0EE24E394A1
:1038F00007ED1FE120E043EC5CE107C0EE24E39418
:1039000005EF1CE120E04DE05DE1B601C3010E943E
:10391000DE11ACCF8FEF881A980A9CE0490E511C3B
:103920008BCF80918B01813040F0853058F086300C
:1039300021F480918C018C3048F480EA91E00E945F
:10394000ED1804C080918C0180FFF7CF80918B012E
:10395000863009F037C080918C01ECE1F0E0E81B83
:10396000F109F7FD3396F595E795F595E795CF01C4
:10397000880F991FFC01E15BF24E05911491FC0147
:10398000EF5BF24E4591549120919401217060912A
:10399000A8017091A9018091980190919901681BEB
:1039A000790B645071098091A6019091A701E09173
:1039B0009601F09197018E1B9F0BEE24E3940297E2
:1039C0000E94DE1180919601909197016CE070E069
:1039D0000E9476355B018CE0869F2001879F500C0A
:1039E00011247CE0872E912CECE0FE2E8091960134
:1039F00090919701B4010E947635605F7F4F6A1500
:103A00007B050CF46CC08091980190919901B401F0
:103A10000E9476356B01F69ED001F79EB00D112401
:103A2000BF83AE83712C612C209098013090990156
:103A3000C101B4010E947635685F7F4F6C157D052A
:103A40000CF446C0A601B5018DEA93E00E948517EB
:103A5000811110C0D7FC0EC0009196011091970102
:103A6000A601B5018DEA93E00E943A178A3049F029
:103A70008B30E9F0BFEFCB1ADB0AECE06E0E711C65
:103A8000D3CF6E817F81660D771D621973096851EE
:103A90007109C201801B910BEE24E39409EA1BE13A
:103AA00020E045E35CE10A970E94DE11E3CF6E81DE
:103AB0007F81660D771D621973096450710920E0DA
:103AC00041EA5BE1C201801B910B0E948114D2CFBD
:103AD000FFEFAF1ABF0A2CE0420E511C87CF809136
:103AE000A6019091A701B4010E94763580919201C0
:103AF00090919301FE01319625E0DF011D922A95F8
:103B0000E9F7860F971F97FF02C090E080E08E01D3
:103B10000A5F1F4F2AE030E0B9010E9462358193AD
:103B2000CB010E171F07C1F780919401E9E4F5E07E
:103B300080FFF6C08EE795E02FEF21938E179F0749
:103B4000E1F721E080919101811120E041E95BE101
:103B500061E070E081E090E00E94741421E08091C7
:103B60009101823008F020E041E95BE161E070E022
:103B700089E090E00E94741421E0809191018330EB
:103B800008F020E041E95BE161E070E081E190E074
:103B90000E94741468010BE110E0F60122916F019C
:103BA00047E65BE161E070E0C8010E9474140B5FBE
:103BB0001F4F0433110589F780918C04882349F045
:103BC00020E04DE759E16FE070E080E290E00E9474
:103BD0005A140EE814E032E4C32E35E0D32E4FE73A
:103BE000A42EB12C50E4852E912CD80116968D91DF
:103BF0009C9117974E9717969C938E9316971496B1
:103C00000D90BC91A02D25EF30E00E949035BB2790
:103C100097FDBA95A92F982F872FF8019583848354
:103C2000208131812038310544F0B182A08266279D
:103C30007727681B790B75836483D8018D919C91DC
:103C4000119797FF0EC011961C921E9214968D919B
:103C50009C91159791958195910915969C938E93BA
:103C60001497F801828193818134910524F0938225
:103C7000828217821682D80112968D919C91139799
:103C800097FF04C017961C921E921697F801258183
:103C90002887220F220B2987208131814885598569
:103CA000240F351F3183208327812A87220F220B7F
:103CB0002B87AA85BB858A1B9B0B93838283808578
:103CC000882311F081508087F8018085882349F08E
:103CD0006281738120E045E251E2808191810E94FE
:103CE0005A14075F1F4FC016D10609F07ECF6396A6
:103CF0000FB6F894DEBF0FBECDBFDF91CF911F91FD
:103D00000F91FF90EF90DF90CF90BF90AF909F907A
:103D10008F907F906F905F904F903F902F9008957D
:103D20008EE795E011928E179F07E1F721E08091D1
:103D30009101811120E041E95BE161E070E081E007
:103D400090E00E94671421E080919101823008F098
:103D500020E041E95BE161E070E089E090E00E94F1
:103D6000671421E080919101833008F020E041E95F
:103D70005BE161E070E081E190E00E9467146BE13B
:103D8000C62ED12CD8012E918D0147E65BE161E072
:103D900070E0C6010E946714B5E0CB0ED11CE4E3CD
:103DA000CE16D10479F708CF9F92AF92BF92CF92EF
:103DB000DF92EF92FF920F931F93CF93DF93EC016B
:103DC000C62E0CE010E0D12C8CE0982ECE010E9483
:103DD0007916692D0E945635D81608F05CC022E08D
:103DE000C21639F083E0C81679F1D394045F1F4FEF
:103DF000EDCFE884F984AE80BF8021E0A21AB1083B
:103E0000A8014C5051094E0D5F1DB501CE010E9415
:103E1000B417882369F081E0DF91CF911F910F9152
:103E2000FF90EF90DF90CF90BF90AF909F9008955C
:103E3000A8014E0D5F1D41505109B501CE010E94F0
:103E4000B417882391F2E7CF8885998578012CE013
:103E5000E21AF108E80EF91EAE80BF80CE010E9482
:103E60008916B501680F711DA701CE010E94B41714
:103E70008111D1CFE884F984E00EF11E81E0E81AC7
:103E8000F108AE80BF80CE010E948916B501680F8F
:103E9000711DA701D3CF80E0BFCFFF920F931F9377
:103EA000CF93DF93EC01488559856E817F810E9415
:103EB000B4178F3F21F41D82CE010E946116CE01FE
:103EC0000E947016813009F490C080F0853011F0A6
:103ED0008E3021F58C81882309F181508C838111EA
:103EE0001DC01D82CE010E94611618C08C858111F3
:103EF00015C08D85811112C08091890190918A0130
:103F000066E070E00E946235892B41F4888D90E074
:103F1000019663E070E00E947635888FCE010E94A2
:103F20007016811118C08C85811115C08D85811185
:103F300012C08091890190918A0166E070E00E9430
:103F40006235892B41F4888D90E0019663E070E042
:103F50000E947635888FCE010E947016853009F454
:103F60003EC09D858D3009F066C0892F9F37A9F42A
:103F70008C899D8984509D4F0E94051728E230E06E
:103F800040E050E00E942535672B682B692B11F427
:103F90008CEE8D878D858F37B9F028853985982FE0
:103FA00087FF02C093E0980F95959595A901490F59
:103FB000511D97FD5A95205231096E857F8559878D
:103FC000488762177307A4F58A859B8528853985FC
:103FD0008217930724F42FE72D8799878887DF912D
:103FE000CF911F910F91FF9008958D85811196CFEC
:103FF000CE010E947418811191CF8C899D898450C3
:104000009D4F0E94051724E130E040E050E00E94FF
:104010002535672B682B692B09F080CF8C899D890A
:1040200084509D4F0E940517677061956D8776CF0C
:104030008F5F8D87C9CFE881F9813097B1F03196D4
:10404000E491E0FF14C08C852E813F81280F311D43
:1040500087FD3A953F832E8328853985290F311DA9
:1040600097FD3A9539872887BACFE0E0EACF9111DA
:104070000AC0CE010E947418882329F08D858630ED
:1040800014F48F5F8D878D8518160CF510E000E015
:104090008D85082E000C990B0817190774F4CE01B2
:1040A0000E947418882341F0888599850196998724
:1040B00088870F5F1F4FECCF1D86CE010E947418BA
:1040C000882329F08D85863014F48F5F8D878D8548
:1040D00087FF13C08F5F8D8710E000E08D85082E6D
:1040E000000C990B8017910744F460E0CE010E9408
:1040F000EA17882309F44EC01D868C8518162CF506
:1041000010E000E090E9F92E8C85082E000C990B48
:1041100008171907D4F4CE010E94F716EC89FD891F
:10412000EB50FD4F208130E02F5F3F4FF29EA0010A
:10413000F39E500D1124841795073CF463E0CE01E3
:104140000E94D41E882371F11C868C8587FF47CF7F
:1041500010E000E080E9F82E8C85082E000C990B09
:10416000801791070CF03BCFEC89FD89EC50FD4F97
:1041700080818F9DC00111242E813F81821793077A
:104180000CF02DCF62E0CE010E94D41E882301F1F5
:104190001C8625CF88859985019799878887015046
:1041A00011099CCF8E819F8101969F838E838D857F
:1041B00081110BC0CE010E947418811106C0888D38
:1041C00090E0019683709927888F0F5F1F4F9CCFD7
:1041D0008E819F8101979F838E838D8581110BC076
:1041E000CE010E947418811106C0888D90E001965E
:1041F00083709927888F01501109AECFCF93DF9339
:10420000DC01ED91FC91119754960D90BC91A02D7D
:1042100019968D919C918430910520F0079738F480
:10422000349601C033968491DF91CF9108953596ED
:10423000FACFEF92FF920F931F93CF93DF93EC018E
:104240000E94FE2082FF67C08C899D89FC01E38C5F
:10425000F48C45960E9489160E811F818E0D9F2D2C
:10426000911D8017910744F482E08B8BE881F981DE
:104270003296E491E195EC87EC89FD89E38CF48C2E
:10428000CE010E948916800F912F911D8E159F05DA
:104290003CF483E08B8BE881F9813296E491EC87E2
:1042A000CE010E94FE2083FF2DC06B89CE010E94AB
:1042B000D41E882319F0CE010E9466188B898230A3
:1042C00071F46E817F81615071094FEB50E0CE0136
:1042D0000E94B417811103C0CE010E9466188B8919
:1042E000833081F4CE010E94F716BC016F5F7F4FCF
:1042F0004FEB50E0CE010E94B417811103C0CE01F4
:104300000E946618CE01DF91CF911F910F91FF900F
:10431000EF900C944D1FCE010E94FE2080FF0CC038
:104320008B89823061F562E0CE010E94D41E882321
:1043300001F183E08B8B1C86CE010E94FE2081FF61
:10434000E1CF8B89823091F508851985CE010E94D5
:104350007916A801480F511D6E817F816150710946
:10436000CE010E94B41781111BC083E08B8B1C8689
:10437000C9CFE881F9813296E491E195EC878B8988
:104380008330D1F663E0CE010E94D41E882311F061
:1043900082E0D0CFE881F9813296E491EC87CCCFEE
:1043A000E881F9813296E491E195EC878B8983303D
:1043B00009F0A8CF08851985CE010E947916080F4B
:1043C000111DCE010E94F716BC016F5F7F4FA8013F
:1043D000CE010E94B417811102C082E0C7CFE881EC
:1043E000F9813296E491EC878DCF0F931F93CF9391
:1043F000DF93EC01F90181E08D833CE0309FC00147
:10440000319F900D1124798368835B834A833E9F9B
:10441000A0013F9F500D11245F834E8399878887A9
:104420009B878A871C861D8683E08B8B1C82198A5A
:10443000CE010E947016853009F43FC050F48430DC
:1044400071F1888599850197998788871C861D86D3
:104450002AC08D3079F18E30A1F78E819F8106962A
:104460009F838E83888599850497998788878C890F
:104470009D8984509D4F0E94051725E030E040E063
:1044800050E00E94253562506C878C899D8984504C
:104490009D4F0E940517637061956D871AC08CEF60
:1044A0008C8782E08D87CE01DF91CF911F910F9194
:1044B0000C9419211C868FE7F5CF8E819F8106967B
:1044C0009F838E83888599850497998788871C8622
:1044D0001D868C899D8984509D4F0E9405172CE074
:1044E00030E040E050E00E942535862F880F880F8D
:1044F000680F645C6C83D7CF6F927F928F929F928C
:10450000AF92BF92CF92DF92EF92FF920F931F93E1
:10451000CF93DF93CDB7DEB7A8970FB6F894DEBF81
:104520000FBECDBF6C015C01CE0101963C01F0E0F5
:10453000E0E0FE2ED501D3968C91811131C010E0C0
:1045400089E18E9F50018F9FB00C1124C5018E967A
:104550008C0D9D1D0E94F521BFEFEB1659F0CA0C82
:10456000DB1CECE0EE9EC0011124D601DD969C938D
:104570008E93DC978F2DA8960FB6F894DEBF0FBEF2
:10458000CDBFDF91CF911F910F91FF90EF90DF9002
:10459000CF90BF90AF909F908F907F906F90089535
:1045A000D6015B968D919C91D501D4968D909C906F
:1045B0008819990997FD3DC0D3018D939C9331963D
:1045C000B9E1AB0EB11C82E0680E711CE431F1055B
:1045D00009F0AFCF9981FE01339681E0F12CA191D2
:1045E000B1919A171B0614F49A2FF82E8F5F84311D
:1045F000B1F78F2C912C10E089E1B82EC601FB9CFD
:10460000800D911D11248E960E94F5219FEFE916D1
:1046100009F4B0CFB89CC001B99C900D1124C80E0C
:10462000D91EACE0EA9EC0011124F60195AF84AF1B
:10463000A1CF919581959109BFCF2F923F924F9233
:104640005F926F927F928F929F92AF92BF92CF9222
:10465000DF92EF92FF920F931F93CF93DF93CDB72B
:10466000DEB728970FB6F894DEBF0FBECDBFF82E89
:10467000E091AD03F091AE0361857285482F50E063
:104680009F0124503D4F38872F839B01240F351FF6
:1046900023703327E20FF31F2281269FC001279F3B
:1046A000900D1124840F951FB0E0A0E0EF81F885F4
:1046B00080839183A283B3838F2D63E00E9456355C
:1046C000F8E19F9FC00111249C0125573E4F3D8377
:1046D0002C8390E080E0FC01EE0FFF1FEC5DFD4FAE
:1046E0002C813D81E20FF31F1182108201968C30E4
:1046F000910589F78F8198850E94051723E030E0A6
:1047000040E050E00E942535635F6F833CE0F39EFC
:1047100050011124F11009C0862F8150990BAC0172
:1047200061E070E08CE00E9452171A8219821B82AD
:10473000712C1E82612C1FEFD12CC12C45E0242E40
:10474000312C412C512C1F3F89F5611056C09E81A0
:10475000911122C2C6010397069708F051C08091BB
:104760008004F81608F04CC08091AD039091AE0320
:1047700084509D4F0E94051727E030E040E050E054
:104780000E942535672B682B692BD1F58091AD03ED
:104790009091AE0384509D4F0E940517A201910194
:1047A0000E9425356983EF81EA8310E0898134E036
:1047B000839FF0011124EF5DFE4FE10FF11D808119
:1047C0008823D9F0FA81F81B8F2FF131B0F4F6016C
:1047D000EE0FFF1FEC5DFD4F2C813D81E20FF31FBB
:1047E00021E030E002C0220F331F8A95E2F780817A
:1047F0009181822B932B918380833E813111CCC197
:10480000EF818E2F90E0F601EE0FFF1FEC5DFD4F64
:104810002C813D81E20FF31F2081318141E050E086
:10482000082E02C0440F551F0A94E2F7242B352BA3
:1048300001968031910591F731832083FF2009F49F
:10484000DBC180918004F81608F0D6C11F3F09F043
:10485000CAC08091AD039091AE0384509D4F0E94D9
:1048600005172AE030E040E050E00E942535209115
:10487000AD033091AE03672B682B692B09F0A0C004
:10488000C90184509D4F0E94051723E030E040E0AD
:1048900050E00E9425356E5F6E83712C643009F400
:1048A000A6C0809182048A151B040CF0F4C09F807E
:1048B0009A949A948FEF810F823060F5398124E0C9
:1048C000329FF0011124EF5DFE4FE10FF11D808159
:1048D0009A809A94981A8091AD039091AE03845077
:1048E0009D4F0E940517A20191010E9425358091DC
:1048F000AD039091AE03613009F083C0EE24EA94D9
:10490000092D95012C0D3D1D4DEF52E26FE573E22F
:104910000E947C228091AD039091AE0384509D4F04
:104920000E94051723E030E040E050E00E9425356A
:10493000672B682B692B09F0AEC08091AD03909175
:10494000AE03FC012185328508E22430310528F0D0
:104950000EE12730310508F403E284509D4F0E9498
:104960000517202F30E050E040E00E9425356E31E1
:1049700071058105910508F08EC06E537B4DFB01DA
:104980000C948A3517251725172517251725172560
:1049900017251725172517252825282528252825F3
:1049A0002825282533253325332541254125412533
:1049B000412541254125412552255225BD25BD25AD
:1049C000C90184509D4F0E940517A20191010E94C8
:1049D0002535672B682B692B41F43F813F3061F00F
:1049E0003F5F3F83712C1E825CCF7394FCCF81E0CC
:1049F0008B8394E09E8355CF712C1E82EEE0EF8373
:104A000050CF84509D4F0E940517637077278827E9
:104A10009927672B682B692B09F07CCF492D50E033
:104A2000B5016C0D7D1D8EE00E94521773CFEE24F0
:104A3000EA94092D95012C0D3D1D4DEF52E26FE5D5
:104A400073E28091AD039091AE030E947C2223C05B
:104A5000EE24EA94092D95012C0D3D1D45E952E205
:104A600067EF72E2EECFF6E0FF15A8F4EE24EA94C9
:104A7000092D95012C0D3D1D4DE552E26FE872E2C6
:104A8000E0CF2F812150330BA901B5016C0D7D1DA5
:104A90008EE00E9452171F3F99F11F5F143081F57D
:104AA0001FEF2EC031E03715B0F71F3FB1F78091EF
:104AB000AD039091AE03FC0121853285215031096F
:104AC00005E02A30310520F4295E3E4FF9010081CE
:104AD00084509D4F0E940517202F30E050E040E0A9
:104AE0000E942535672B682B692B51F42F812150AB
:104AF000330BA901B5016C0D7D1D8FE00E9452178B
:104B00009FEFC91AD90AECE0CE16D10409F01BCEEA
:104B100080918004F81211C02F812150330BA9011C
:104B2000B501675F7F4FE091AD03F091AE038185E2
:104B300080FF64C08AE00E945217809182048A1527
:104B40001B0414F4A092820428960FB6F894DEBFDA
:104B50000FBECDBFDF91CF911F910F91FF90EF90CE
:104B6000DF90CF90BF90AF909F908F907F906F908D
:104B70005F904F903F902F90089538E03F1508F0D8
:104B80008ACFEE24EA9402E095012C0D3D1D45E10B
:104B900052E267E572E255CF8E8181508E83612C9F
:104BA000811102C06B801B828091AD039091AE0396
:104BB00084509D4F0E940517A20191010E94253546
:104BC000672B682B692B09F066CF8090AD0390901E
:104BD000AE03C40184509D4F0E9405176370EF809F
:104BE000E394E61A00E195012C0D3D1D4DEA51E2DA
:104BF0006FE072E2C40129CF1E824DCF8BE09BCFC4
:104C00002091800430E02F5F3F4F90E9929FA001F8
:104C1000939F500D1124415851092091810430E097
:104C20002F5F3F4F80EC829FB001839F700D112456
:104C30006154710980917F04E82FF0E0899FC001E1
:104C400011242091A6013091A701205431093093FD
:104C5000970120939601A091A801B091A9011997FD
:104C60006A177B076CF1B0939901A09398014217E2
:104C7000530724F450939701409396012091960195
:104C8000309197012817390724F490939701809366
:104C90009601A091AD03B091AE035B968D919C916E
:104CA00060E970E00E947635CB01019797FD0DC059
:104CB000E817F90754F480937F048E5F0C941D234A
:104CC0007093990160939801D2CF0895FF920F934A
:104CD0001F93CF93DF938BE991E20E94DC15109232
:104CE0007E0410927F0410928204E7EFF3E02EE737
:104CF00034E08FEF9FEF9183808393838283399693
:104D00002E173F07C1F70EE210E0D0E0C0E089E1C6
:104D1000F82E8091AD039091AE03FC9EF001FD9EB4
:104D2000F00D1124E80FF91F13AA800F911F0E94A4
:104D300061162196075E1F4FC431D10551F7E091EE
:104D4000AD03F091AE0321853285CF0184509D4F94
:104D5000A90143705527E40FF51F6281629FA001EE
:104D6000639F500D112470E060E0FC01408351838B
:104D7000628373830E940517E091AD03F091AE0347
:104D80002185328550E040E00E942535645F6093C4
:104D9000800480E00E941D2381E00E941D2382E0A8
:104DA0000E941D238091940180FD32C088E590E02F
:104DB00025E931E23093A1012093A00123E331E200
:104DC0003093A3012093A20128E130E03093A701A2
:104DD0002093A6019093A9018093A8019093AB0121
:104DE0008093AA011092AC011092AD0183E08093F0
:104DF000B3011092A4011092B10180EA91E00E94E7
:104E00007418882339F080EA91E00E944D1FF5CF95
:104E100080E0CDCF0E94002686E080938B018CE15C
:104E200080938C01DF91CF911F910F91FF90089596
:104E300020E047EA56E16CE070E084E090E00E94F8
:104E4000811420E047EA56E16CE070E089E690E0EA
:104E50000E94811420E047EA56E16BE170E086EFA2
:104E60009FEF0E94811420E047EA56E16BE170E079
:104E700087E790E00E94811420E047EA56E169E26A
:104E800070E084E090E00E94811420E047EA56E15F
:104E900069E270E089E690E00E9481142091890126
:104EA00030918A012F7033272695269545E756E1E4
:104EB0006BE170E08BE090E00E9481142091890109
:104EC00030918A012F7033272695269545E756E1C4
:104ED0006BE170E08FE690E00C9481140F931F93C8
:104EE000CF93DF938C01EB010E94F0348883C801DB
:104EF00001960E94F0348983CE01DF91CF911F91FA
:104F00000F910895FF920F931F93CF93DF93EC01BE
:104F1000F62E08811981C8010E94F034F81621F09C
:104F20006F2DC8010E94F834CE01DF91CF911F91FF
:104F30000F91FF900895CF93DF9300D0CDB7DEB7E8
:104F40009A838983CE0101960E9482270F900F9049
:104F5000DF91CF910895EF92FF920F931F93CF931C
:104F6000DF9300D0CDB7DEB78C017B019A838983B4
:104F7000FB016081CE0101960E9482270F5F1F4FC7
:104F80001A830983F7016181CE0101960E9482276D
:104F9000C7010F900F90DF91CF911F910F91FF905C
:104FA000EF900895BF92CF92DF92EF92FF920F930E
:104FB0001F93CF93DF9300D0CDB7DEB7B82E04E0B8
:104FC00012E0F12CE12CCC24C394D12C00FF03C0BF
:104FD000CC24CA94DC2CC8010E94F034282F2C9DCC
:104FE000C0012D9D900D1124E80EF91E0F5F1F4F7B
:104FF000013282E0180739F7BB2049F0FA82E982D2
:10500000BE016F5F7F4F81E292E00E94AB27C70134
:105010000F900F90DF91CF911F910F91FF90EF9024
:10502000DF90CF90BF9008950F931F93CF93DF939E
:1050300000D000D0CDB7DEB7182F84E092E00E94F8
:10504000F034082F85E092E00E94F034013429F416
:10505000843519F4112309F456C061E484E092E028
:105060000E949B2764E585E092E00E949B278EE1E9
:1050700090E09C838B8386E092E09A83898361E051
:10508000CE0101960E94822707E012E060E0C8018D
:105090000E949B270F5F1F4F0C3082E01807B1F76B
:1050A0008B819C810A979C838B83BE016D5F7F4FB0
:1050B000C8010E94AB2760E0C80102960E949B27AE
:1050C00060E0C80103960E949B2760E0C801049637
:1050D0000E949B2760E0C80105960E949B2760E024
:1050E000C80106960E949B27095F1F4F013282E08C
:1050F0001807B1F60F900F900F900F90DF91CF919E
:105100001F910F9108951A82198280E00E94D22780
:105110008C01BE016F5F7F4F81E292E00E946E279B
:1051200089819A818017910729F381E00E941428D0
:10513000E1CF0F920FB68F939F93EF93FF938091E0
:1051400080018D5F8D3708F08D5780938001E1E8F5
:10515000F1E080818E4F808391819F4F9183828186
:105160008F4F828383818F4F8383E5E8F1E08081D5
:105170008F5F808381818F4F818382818F4F828374
:1051800083818F4F83838FB18F6066991C9B8827A3
:105190008F3681F480917F01981B963068F0E0E0B3
:1051A000F8E087E78083818388E180936000F09353
:1051B0006000FFCF90937F01FF91EF919F918F91BE
:1051C0000FBE0F9018951F920F920FB60F921124D9
:1051D0002F933F934F935F936F937F938F939F93FF
:1051E000AF93BF93EF93FF9380917A01882389F067
:1051F0008091790181110DC080917801811109C0E0
:1052000090917701E0917501F09176018081892775
:10521000808380914205882329F1809171019091CA
:105220007201A0917301B0917401892B8A2B8B2B91
:10523000C9F08091710190917201A0917301B091B8
:1052400074010197A109B1098093710190937201D2
:10525000A0937301B0937401892B8A2B8B2B11F4CB
:105260000E944F15FF91EF91BF91AF919F918F9148
:105270007F916F915F914F913F912F910F900FBE52
:105280000F901F9018951F920F920FB60F92112436
:105290008F939F93AF93BF93EF93FF9380917D0183
:1052A000882309F454C080916D0190916E01A09102
:1052B0006F01B0917001892B8A2B8B2BA1F19091FA
:1052C0006C01E0916A01F0916B01808189278083F4
:1052D00080916D0190916E01A0916F01B09170016C
:1052E000181619061A061B069CF480916D01909100
:1052F0006E01A0916F01B09170010197A109B109F0
:1053000080936D0190936E01A0936F01B093700133
:10531000FF91EF91BF91AF919F918F910F900FBE31
:105320000F901F9018951092790110927D01809135
:105330006F008D7F80936F0080916C01E0916A0116
:10534000F0916B019081809589238083E1CF8091DA
:1053500078018111DDCF90916C01E0916A01F091AB
:105360006B0180818927F1CFEF92FF920F931F93FA
:10537000CF93DF9389E994E1909369018093680169
:105380001092AF011092AE01EBE8F1E015AE14AE51
:10539000799663E0EF37F607C9F78BE891E0109252
:1053A0008B0410928C0410928D04EEE8F4E024EB50
:1053B000DF011D922A95E9F79093B5018093B4011E
:1053C0009093AE038093AD0383E691E090938404C1
:1053D0008093830482E691E0909386048093850411
:1053E000C9EBD1E08BE8E82E81E0F82E03E611E06E
:1053F000FD8AEC8A1F8B0E8B1D82CE010E946116E6
:105400006996B3E0CD3ADB0799F7E7EFF3E04BE8B5
:1054100051E023E631E08FEF9FEF568345833087DD
:1054200027839183808393838283399664E0EE3768
:10543000F60799F710925D018FEF80935E0110924D
:105440005F01DF91CF911F910F91FF90EF90089531
:10545000CDB7DEB76897DEBFCDBF91E09093E00097
:105460001092E2001092E10080E28093D800109246
:10547000D70080916500806880936500789483E010
:1054800084BD83E085BD90936E00E1E8F0E083E0A9
:105490008083E0E881E08083E1E983E08083E0E9E4
:1054A00081E08083E1EC87E08083E3EC81E080832E
:1054B000E0EC82E08083E2EC81E08083EAE787E051
:1054C00080838068808381EC80937C0081EF85B944
:1054D00087EE84B982E38BB982EF8AB9769A6E98A7
:1054E00080EF81BB10BA80E58CBD9DBD85E00E9438
:1054F0008E145F9A85E00E948E145C98EEE9F8E0C5
:1055000085918EBD00000DB407FEFDCFEB3AC1F7CB
:105510005C9A81E88093640081E08093650081E279
:10552000809300010E94911487FF15C05C9885EA62
:105530008EBD00000DB407FEFDCF5C9A2E982F980B
:105540002D988091640080628093640081E083BF25
:10555000889513BEFCCF0E94911482FF37C02D980E
:105560000E94911484788438A1F42D9A88EC0E94CA
:105570008E142F986FEF82E090E00E949B2784EFBB
:1055800091E00E942E142F9A0E94911484788438FE
:10559000D9F30E94911484718431A1F42D9A88EC7E
:1055A0000E948E142E9860E082E090E00E949B277B
:1055B00084EF91E00E942E142E9A0E94911484711F
:1055C0008431D9F388EC0E948E14C5CF2D9A82E0E5
:1055D00090E00E94F034882309F10E94A11485E034
:1055E0000E94EA158DE00E94EA1580E00E941428CE
:1055F0009E012F5F3F4F2901AE01495F5F4F5D8BD9
:105600004C8BEE24E394FF24F39409E811E080919D
:105610004501882331F010924501F9CF0E949C1476
:10562000DECF9091810180914601592F581B852F23
:1056300020910001521738F48F5F821740F7E3BEC4
:10564000889513BEE4CFF092450190934601F8018E
:105650008081918101968083918380914705809319
:1056600048050E94911480934705E0915501EE3062
:1056700070F6F0E0E25CF44D0C948A354C2B4F2B25
:10568000A32BAA2B142C1D2CC92CF42C312E6A2EE2
:105690008B31F032CA33CA3381E0809355010E94C6
:1056A000EE13882319F082E08093550120E046E94B
:1056B00054E161E170E080E290E00E948114809109
:1056C000890190918A0160E370E00E94623588311F
:1056D00008F034C011E18C3008F01EE120E04FE802
:1056E00054E169E170E08BE590E00E948114812F24
:1056F00090E020E134E341E051E081FD54E080FDA1
:10570000550F82FD5295887F289FD0011124A30F49
:10571000A75BBA4F0C90052A40FF05260C9210FD9E
:1057200009C020E04BE854E16CE170E08DE290E0CC
:105730000E94811480E00E94F51363CF1FE1843240
:10574000B0F210E2D4CF8CE995E10E94DC1583E041
:10575000809355010E94EE13182F20E040E652E19D
:1057600064E070E088E190E00E94811420E048E568
:1057700052E170E060E083E290E00E94671420E074
:1057800048E552E170E060E08AE590E00E9467142D
:105790000E941827F090540183E290E0FF2011F05E
:1057A00081E490E020E04AE352E16BE370E00E9484
:1057B000811400917E01202F46E252E168E370E0FF
:1057C00087E790E00E948114812F8C7081F0F110A6
:1057D00026C080915201882321F086E080935501F4
:1057E00006C084E08093550181E08093520117FD4B
:1057F00002C014FF0AC00023A1F00E949C14609113
:105800007E0182E090E00E949B2715FD10925401DA
:1058100016FF03C081E08093540181E08CCF8DE0BE
:10582000DDCF0E94A114EBCF1092500110925101D4
:105830001092530185E08093550120E048E052E149
:1058400061E070E081E090E00E94811422E048E095
:1058500052E166E370E081E090E00E94811421E073
:1058600048E052E161E070E088E790E00E94811436
:1058700023E048E052E166E370E088E790E00E94B0
:1058800081144DE761E070E081E090E00E94041433
:105890004DE76DE370E081E090E00E9404144AE778
:1058A0006FE370E083E090E00E940414F12C00E0CC
:1058B000E12C5AE0D52E2091510110915001812FF9
:1058C00090E0F21668F5880F991FFC01E15FFE4F2A
:1058D0000190F081E02DEF0DF11DE491E032C8F070
:1058E000E032D9F02AE1E13231F020F0E1562E2FFA
:1058F000EA3108F02BE1ED9CB00111246D5F7F4F80
:10590000802F90E046E951E106960E948114E5E07F
:1059100005C0E394F3940E2FCECFE4E0E00FFACF6E
:10592000845F9E4FFC010081201738F4809189012B
:1059300080FF03C02F5F209351010E94EE138C70F3
:1059400009F46BCF8091530190915101091310C05C
:10595000811110C01F5F109350011092510180916E
:105960005001833009F059CF86E08093550155CF1F
:10597000882319F01F5F1093500181E08093530139
:10598000E0915001F0E0E45FFE4F8081809351018F
:10599000E6CF10E080916701181728F4812F0E944C
:1059A00024151F5FF7CF1092420507E411E037E09E
:1059B000E32E32E0F32EC7010E94F034F801819308
:1059C0008F01FFEFEF1AFF0A2CE0E21622E0F20649
:1059D00091F710924F0110924E0110924C011092CB
:1059E0004D0187E0809355010E94182720E04EE189
:1059F00051E168E070E082E290E00E94811420E0D2
:105A000048E052E165E170E088E190E00E94811495
:105A100022E048E052E16FE270E088E190E00E940D
:105A2000811421E048E052E165E170E080E690E019
:105A30000E94811423E048E052E16FE270E080E6CA
:105A400090E00E94811448E465E170E088E190E014
:105A50000E94041448E466E370E088E190E00E944C
:105A600004144BE468E370E08AE190E00E940414BF
:105A700097E4E92E91E0F92E0EE110E0D12C20E11F
:105A8000C22E80914C01D812D6C080914D0188233E
:105A900009F4D1C02C2D281B44E85FE06FE170E0D1
:105AA000C8010E948114D394025F1F4FFFEFEF1AC9
:105AB000FF0A25E0D212E5CF80914C011EE0819FC4
:105AC000C001112420E044E55FE06AE170E08196C6
:105AD0000E94671480914C01819FC001112421E034
