:100000000C949D120C94C5120C94C5120C94C5123C
:100010000C94C5120C94C5120C94C5120C94C51204
:100020000C94C5120C94C5120C94C5120C94C512F4
:100030000C94C5120C94C5120C94C5120C94C512E4
:100040000C94C5120C9492310C94C5120C94C512E8
:100050000C94C5120C94C5120C94C5120C94E83083
:100060000C94C5120C94C5120C94C5120C94C512B4
:100070000C94C5120C94C5120C94C5120C94C512A4
:100080000C9432310C94C5120C94C5120C94C51208
:100090000C94C5120C94C5120C94C5120C94C51284
:1000A0000C94C5120C94C5120C94C5120A596F75A4
:1000B000722063686F696365206F662072756E6574
:1000C000737E0777696C6C2073656C65637420645C
:1000D0006966666572656E747E0C636F75727365B2
:1000E00073202E2E20736F6D65206172657E0D6505
:1000F0006173696572207468616E206F74686572DF
:10010000732107436F6D7065746520696E20746894
:100110006520747269616C737E06746F2073656507
:1001200020686F772066617220796F752063616E39
:100130007E0B67657420616E6420796F7520636F34
:10014000756C642062657E197468617420636861EF
:100150006D70696F6E210345616368207965617216
:10016000207468652070656F706C65206F667E74A2
:1001700068652076696C6C6167652063686F6F7372
:10018000652061206E65777E0C6368616D70696FB4
:100190006E20746F2070726F746563747E0F746864
:1001A000656D2066726F6D2041737461726F6B2E86
:1001B0000E0D00E010FC02297D69B901827C8000EF
:1001C00002050814001F07070700011C0700008034
:1001D0007C8201B9697D2902FC10E00000071C0146
:1001E000000707071F00140805020E0D00F0087C29
:1001F00002297D69B90142BC00000102041A001FF6
:1002000007071F0003180F000000BC4201B9697DF9
:1002100029027C08F000000F1803001F07071F00C9
:100220001A0402010E0D8078043C02297D69B9018F
:10023000C23C00000001021D000707071F00061155
:100240001E0000003CC201B9697D29023C0478808F
:10025000001E1106001F070707001D0201000E0DFA
:1002600000F0087C02297D69B90142BC000001024E
:10027000041A001F07071F0003180F000000BC42EC
:1002800001B9697D29027C08F000000F1803001FE6
:1002900007071F001A04020100E0F0FCFEFFFFFF49
:1002A000FFFFFEFC800002070F1F1F1F1F1F1F1FE5
:1002B0001F1F07000080FCFEFFFFFFFFFFFEFCF09A
:1002C000E00000071F1F1F1F1F1F1F1F1F0F070218
:1002D00000F0F8FCFEFFFFFFFFFFFEBC0000010383
:1002E000071F1F1F1F1F1F1F1F1F0F000000BCFE27
:1002F000FFFFFFFFFFFEFCF8F000000F1F1F1F1F96
:100300001F1F1F1F1F07030180F8FCFCFEFFFFFFDC
:10031000FFFFFE3C00000001031F1F1F1F1F1F1FC8
:100320001F1F1E0000003CFEFFFFFFFFFFFEFCFC46
:10033000F880001E1F1F1F1F1F1F1F1F1F0301000C
:1003400000F0F8FCFEFFFFFFFFFFFEBC0000010312
:10035000071F1F1F1F1F1F1F1F1F0F000000BCFEB6
:10036000FFFFFFFFFFFEFCF8F000000F1F1F1F1F25
:100370001F1F1F1F1F0703010E0D00E010F804527E
:10038000FAD272028478000002050814001E0606E4
:100390001F0006111E00000078840272D2FA520477
:1003A000F810E000001E1106001F06061E001408CB
:1003B00005020E0D00F0087C0452FAD2720204F815
:1003C00000000102041A001E06061F0003180F0099
:1003D0000000F8040272D2FA52047C08F000000F08
:1003E0001803001F06061E001A0402010E0D00F07D
:1003F000087C02297D69B90142BC00000102041A8F
:10040000001F07071F0003180F000000BC4201B9BE
:10041000697D29027C08F000000F1803001F070700
:100420001F001A04020100E0F0F8FCFEFEFEFEFED2
:10043000FC78000002070F1F1F1F1F1F1F1F1F1F19
:100440001E00000078FCFEFEFEFEFEFCF8F0E00060
:10045000001E1F1F1F1F1F1F1F1F1F0F070200F05F
:10046000F8FCFCFEFEFEFEFEFCF800000103071F88
:100470001F1F1F1F1F1F1F1F0F000000F8FCFEFE85
:10048000FEFEFEFCFCF8F000000F1F1F1F1F1F1FC9
:100490001F1F1F07030100F0F8FCFEFFFFFFFFFF17
:1004A000FEBC00000103071F1F1F1F1F1F1F1F1F70
:1004B0000F000000BCFEFFFFFFFFFFFEFCF8F00096
:1004C000000F1F1F1F1F1F1F1F1F1F0703010F0FDD
:1004D0000002000000000000000000000204000014
:1004E00008100000000000000000000020000205CD
:1004F00002000000000000000002050A04081428A1
:100500001000000000000000002050200F0F00002D
:10051000020600000000000000060A0C00000C1497
:10052000180000000000001028100000000205095B
:10053000060000000000060915120C0C122A2438CF
:10054000000000001028542810000F0F00000C12AB
:100550001A04000000040A12120C00000609110A15
:1005600004000000081422120C00000C92AD251AA1
:100570000400040A152D2D120C0609162E150A0466
:100580000008142A5D2D120C0F0F000080982424FF
:10059000120C00081422120C0000030408090600C3
:1005A0000C1221120C00010000805864DA5A2D123E
:1005B0000C942A5D2D920C03040B1716090E122DB4
:1005C0005E2D120D02010F0F00C02018240402023C
:1005D000020A040408F00000030408081420202084
:1005E00021120C020100C020D8E4DAFAFDFDFDF56D
:1005F000FAFAF408F003040B17172B5F5F5F5E2D08
:10060000130D02010F0F0000000080601010302059
:10061000C00000000000000000010202040402010A
:1006200000000000000000806090E8E8C8D020C012
:10063000000000000000010205050B0B050201008F
:1006400000000F0F000000000000C02020C00000CC
:100650000000000000000000000001010000000098
:1006600000000000000000C020D0D020C00000002A
:100670000000000000000001020201000000000074
:10068000020702000000000000000002070E04083C
:100690001C38100000000000000000207020000244
:1006A000070F060000000000070F1F1E1C0E1E3E55
:1006B0003C380000000010387C381000000C9EBF51
:1006C0003F1E0400040E1F3F3F1E0C060F1F3F1F5E
:1006D0000E0400081C3E7F3F1E0C0080D8FCFE7EEE
:1006E0003F1E0C9C3E7F3F9E0C03070F1F1F0F0EEB
:1006F0001E3F7F3F1E0D0301C0E0F8FCFEFEFFFF22
:10070000FFFFFEFEFCF8F003070F1F1F3F7F7F7FF8
:100710007F3F1F0F030100000080E0F0F8F8F8F0C1
:10072000E0C0000000000000010307070F0F0703EF
:10073000010000000000000000C0E0F0F0E0C00098
:1007400000000000000000000001030301000000A1
:1007500000000808FF81A58181A581FF0808FF81AD
:1007600085B5959D81FF0C0C7C8201110902020167
:100770000101827C0000010204080804020100005B
:1007800010100000C020109008081008049444388D
:100790000200001E214C565E4C212420100C030048
:1007A00000000C0CF804FACDBDCDFD7D7D3A04F8B7
:1007B00001020508090809080A050201F8043A7D42
:1007C0007DFDCDBDCDFA04F80102050A080908092E
:1007D000080502010C0C004C904CB69E9EB64C9045
:1007E0004C000000040300020200030400000C0C93
:1007F0000000C0986C5C6CBCD8C000000007090603
:1008000009010309060907000000C0D8BC6C5C6C34
:1008100098C000000007090609030109060907003E
:100820007CFEFFFFFFFEFEFFFFFFFE7C00000103DA
:10083000070F0F070301000000C0E0F0F8F8FCFC10
:10084000F8FCFEFEFE7E3F021E3F7FFFFFFFFF7FA4
:100850007F7F3F1F0F030000F8FCFEFFFFFFFFFF3D
:10086000FFFEFCF80103070F0F0F0F0F0F07030127
:10087000F8FCFEFFFFFFFFFFFFFEFCF80103070F80
:100880000F0F0F0F0F0703014CFEFCFEFFFFFFFFD2
:10089000FEFCFE4C000C0F0703070703070F0C00BC
:1008A00000C0F8FCFEFEFEFEFCF8C000070F0F0FB4
:1008B0000F0F0F0F0F0F0F0700C0F8FCFEFEFEFE1C
:1008C000FCF8C000070F0F0F0F0F0F0F0F0F0F07D0
:1008D000D5F08D14A1C881CFD9F1AF20000C0C0048
:1008E00000F0F8FCFCFCFCF8F00000000000010344
:1008F00003030301000000000000F0F8FCFCF8F026
:1009000000000000000000010303010000000000DF
:10091000000000F0FCFCF0000000000000000000FF
:1009200003030000000000000000F0F8FCFCF8F0F9
:100930000000000000000001030301000000000CA3
:100940000C0000F008F4B494F408F000000000007B
:10095000010202020201000000000000F008F4B4ED
:1009600008F0000000000000000102020100000089
:100970000000000000F0FC0CF0000000000000008F
:10098000000003030000000000000000F00894F4E1
:1009900008F0000000000000000102020100000059
:1009A000000E00000000007CFEFFFFFFFEFEFFFFC8
:1009B000FFFE7C00000103070F0F07030100000C7E
:1009C0000C7C820111090202010101827C000001FC
:1009D0000204080804020100000500010000009064
:1009E000320032903A003290440032904800328017
:1009F000F002020303FCFEFFFFFFFFFFFFFFFFFF0C
:100A0000FFFFFFFFFFFFFFFFFFFFFFFFFFFFFFFFF6
:100A1000FFFFFFFFFFFFFFFFFFFEFC03070F0F0FAE
:100A20000F0F0F0F0F0F0F0F0F0F0F0F0F0F0F0FD6
:100A30000F0F0F0F0F0F0F0F0F0F0F0F0F0F0F07CE
:100A400003260CFC02F905050D0505050D05050538
:100A50000D0505050D0D0D0D0505050D0505050D0E
:100A60000505050D0505F902FC0304090A0A0B0A30
:100A70000A0A0B0A0A0A0B0A0A0A0B0B0B0B0A0AD0
:100A80000A0B0A0A0A0B0A0A0A0B0A0A090403805B
:100A9000C0E0E0E0F0FCFEFFFEFCE0E0E0E0E0E0D3
:100AA000E0E0E0E0E0E0C0C0E0E0E0E0E0E0E0E086
:100AB000E0E0E0E0E0E0C0C0E0E0E0E0E0C08000D6
:100AC0000080C0E0E0E0E0E0E0E0E0E0E0E0C0C0C6
:100AD000E0E0E0E0E0C0E0E0E0E0E0C0E0E0E0E056
:100AE000E0E0E0E0C0C0E0E0E0E0E0E0E0E0C080C6
:100AF000000003070F0FFFFFFFFFFFFF7F0F07FF40
:100B0000FFFFFFFFFFFFFFFFFFFFFFFFFFFFFFFFF5
:100B1000FFFFFFFFFFFFFFFFFFFFFFFFFFFFFF07DD
:100B2000000000FFFFFFFFFFFFFF0FFFFFFFFFFFC2
:100B3000FFFFFFFFFFFFFFFFFFFFFFFFFFFFFFFFC5
:100B4000FFFFFFFFFFFF77FFFFFFFFFFFFFFFFFF3D
:100B5000FF7F3F0000000000FFFFFFFFFFFF0000DE
:100B60000001FFFFFFFFFF7FFFFFFFE3FFFFFFFF2E
:100B7000FF1F3F7FFFFFFFFF7F3F0F071F7FFFFF2D
:100B8000FFFCE08000037FFFFFFFFFFF80FFFFFF10
:100B9000FFFF3F070F1F3F7FFFFFFF7F3F1F0F0339
:100BA000070F1F3F7FFFFEF0E041FFFFFFFFFF7FCA
:100BB000FFFFFFE080000000000000FFFFFFFFFFDD
:100BC0000000000003070F070300000103017FFF7F
:100BD000FFFF7F0000000001010000000000000096
:100BE000000103070F1F0E0400030F7FFFFFFFFF2D
:100BF000FF7F0F0100000000000000010000000066
:100C000000000000000000000001000003070F07C3
:100C100003000001030100000000000000070F1F97
:100C20000F070000000000000000000000000000AE
:100C300000000100000000000000000000000000B3
:100C400000000000000000000000000000000001A3
:100C50000301000000000000000000000000000090
:100C60000000000000000000000000000000000084
:100C700000000000000000000062250080404040AD
:100C800040700C021C6040404040404040404040AA
:100C900040408000C0404040C04040404040404054
:100CA0004040808040404040408000000000804044
:100CB00040404040404040404040808040404040B4
:100CC00040804040404040804040404040404040A4
:100CD0008080404040404040404080000000000391
:100CE000040404FC0000807C04040201FF000000F6
:100CF000FC241880403FFF000000FF0300B02C22BE
:100D00002CB000000FFC030000F8070000000000FA
:100D1000FF000000FC040404FC000000FFFE0100D2
:100D200000F00E010EF0000003FF8000001CD45400
:100D300054542300FF000000FC3C0080403F0000B2
:100D40000000000000FF0000FF000000000001FEA6
:100D500000FE0718609F608003FC00F8070C102756
:100D600059A1B14F30080701061860831C6080004C
:100D70000000037C80007F8000807F00C03C030077
:100D80000608102344884423100C030001060810B1
:100D9000234C50A0400001FE00FE0718609F6080B9
:100DA0000000000000000000FF00FF000000000045
:100DB00000030403000000000100007F807F0000AA
:100DC0000000000000000000000000000000010220
:100DD000050A04000000030C708F708F700E010074
:100DE0000000000000000000000000000000000003
:100DF00000000000000000000003040300000000E9
:100E000001000000000000000000070807000000CB
:100E100000000000000000000000000000000000D2
:100E200000000000000000000000000000000000C2
:100E300000000000000000000000000001000000B1
:100E400000000000000000000000000000000000A2
:100E50000000000000000000000000000000000092
:100E600000000000009034011B9140008D81008D36
:100E70009142008D81008D9140008D81008D9143C4
:100E8000008D81008D9142008D81008D9140008DFB
:100E900081008D9142008D8081008D9032011B91E7
:100EA00040008D81008D9142008D81008D91400028
:100EB0008D81008D9143008D81008D9142008D8147
:100EC000008D9140008D81008D9142008D81008DBB
:100ED000913080011B9040008D80008D9042008DEC
:100EE00080008D9040008D80008D9043008D8000AB
:100EF0008D9042008D80008D9040008D80008D90FF
:100F000042008D80008D903281011B9140008D81C7
:100F1000008D9142008D81008D9140008D81008D6A
:100F20009147008D81008D9145008D81008D914309
:100F3000008D81008D9142008D81008D80E0140B29
:100F4000070387C3E244A347A347A703070387C355
:100F5000E244A34705020401000402050205020061
:100F600005020401000402051A2400000000FEFC32
:100F7000DC2C36F616EE767AFA7A7AF2E60E16F669
:100F8000362CDCFC00181810939716D595D694C310
:100F90008FC68DC78EC391D090D191D596D70000C2
:100FA0000000FFFF00FF6262626A62626A62626A58
:100FB000E2622AA2A2AAA26200000000FFFF00FFD4
:100FC000FFFFE363636341E3F7FF01FC03000000FD
:100FD0000000000000000F0F000F0F0708050F05AD
:100FE0000304030F000F00000000000004081E3F70
:100FF000211E223E3F203229253212253F1A0C2A7B
:101000003F2C17253D181E3F251823393D231A254F
:101010002D1A062F291E0305110005330B0301FFAE
:101020000103FE0101FE01FF21211E00000002015B
:101030002121DE0000000301FF010301FF2121DE69
:101040000001FF0100FE2121FE00FF00001E31C74C
:101050000004070400030404030407040000000064
:101060000002040404030000000004070400040755
:101070000400030404070400070000070007040439
:1010800006040304083E09093E3F25251A1E2121B6
:10109000123F21211E3F2525213F0505011E212943
:1010A0003A3F04043F213F21001021211F3F040A41
:1010B000313F2020203F02023F3F02043F1E2121FA
:1010C0001E3F0909061E21112E3F0909362225253A
:1010D00019013F01011F20201F0F10201F3F10107A
:1010E0003F3B04043B03043807312D2321102A2AF7
:1010F0003C3F2424181C2222141824243F1C2A2A92
:101100002C047E05014C52523E3F040438243D20FD
:10111000004040443D3F081422213F20003E04048B
:101120003E3E04023C1C22221C7E22221C1C222247
:101130007E3E040204242A2A12021F22201E20209E
:101140001E0E10201E3E10103E360808364E50501F
:101150003E322A26221E29251E223F20003229291E
:10116000261221251A0C0A3F08172525191E2525A8
:1011700018013905031A25251A0629291E002F00F2
:101180000000200000000000009032001480F007F2
:10119000030103070305020107030406070605020E
:1011A000040508EDF6C9F6EDFDFDC0EFEFFCFBC050
:1011B000FBFCFDC1FEC1FDF7EFC0FDFBFDFBC4FB69
:1011C000FD0C0EFC02F9FDFDFDFDFDF90102FC0F19
:1011D00010272F2F2F2F2F2720100F00FC02F90D83
:1011E0002DFDF90102FC00000F10272E2C2F2720C7
:1011F000100F000000FC02F90DF90102FC000000D4
:10120000000F10272C2720100F0000000000FC0208
:10121000F90102FC0000000000000F102720100F51
:1012200000000000000000FE0101FE0000000000C0
:101230000000001F20201F00000000000000FC0232
:1012400001F902FC0000000000000F102027100F21
:101250000000000000FC0201F9FDF902FC000000A2
:10126000000F1020272F27100F000000FC0201F9AB
:10127000FDFDFDF902FC00000F1020272F2F2F2766
:10128000100F00FC0201F9FDFDFDFDFDF902FC0F50
:101290001020272F2F2F2F2F27100FFC02F9FDFDD5
:1012A000FDFDFDFDF902FC0F10272F2F2F2F2F2FF3
:1012B00027100F00FC02F9FDFDFDF90102FC000002
:1012C0000F10272F2F2F2720100F000000FC02F9EE
:1012D000FDF90102FC000000000F10272F2720104D
:1012E0000F0000000000FC02F90102FC00000000F9
:1012F00000000F102720100F00000000000000FE6B
:101300000101FE00000000000000001F20201F005F
:10131000000000000000FC0201F902FC00000000D7
:1013200000000F102027100F0000000000FC020139
:10133000F90DF902FC000000000F1020272C2710E7
:101340000F000000FC0201F9FD0D2DF902FC000068
:101350000F1020272F2E2C27100F000708A080B079
:1013600088AA80FF070805010D115501FF0708FF36
:1013700080AA88B080A00708FF0155110D01053B28
:101380000B01FF21710301FF06186081FF010301BA
:10139000FF010301FF21710301FF2121DE00000095
:1013A000000001FF2121DE01FF0000FF01FF061800
:1013B0006081FF01FF2171030E1121C7040704049E
:1013C00007040700000005070400040704000407E1
:1013D00004040704070400030400000000040704D9
:1013E00000030403040403040700000005070407C6
:1013F000040406020404030208D4D205087F7F3ED9
:101400001C084120FE0105F1F1F111D1B1D111F11A
:10141000515151515151515151515151515100005E
:10142000FF00007F7F09090F06007F7F19396F4693
:10143000007F7F4949414100266F49497B320026A0
:101440006F49497B32FF0000FFFFFFFEFFFEFF02F6
:1014500079CD95A5CD790111111101F9F90101009D
:1014600000FF00007F7F09090F06007F7F4040409A
:1014700040007C7E0B0B7E7C00070F78780F070006
:10148000000000000000FF00001F3F3F33333333F4
:10149000333E36363E363E363E36363E36363E36BF
:1014A0000000FF00003E7F41417F3E007F7F0E1C19
:1014B0007F7F00000000000000000000000000002E
:1014C000000000000000003F40504040407846418E
:1014D000415959414141415959414141414141419C
:1014E0004100007F000001017F7F0101007C7E0B35
:1014F0000B7E7C007F7F09090F06007F7F494941F1
:101500004100000000000000060C4090BA9C904092
:1015100004000A0A00044098B8B5984004000A0A7A
:10152000000440909CBA904004000A0A00044098CD
:10153000B5B8984004000A0A0004120B001000100D
:101540001090100017001D1810101010101000003F
:101550000000000706040404040404000400000062
:10156000091000382844FE000000000000000000C0
:10157000000000007C7CFEFFFFFFFFFFFF0000007B
:1015800001010101010109100038387CFE0054926C
:10159000000000000000000000001C040102020224
:1015A0000202020202040200060D0F0600020402FB
:1015B0000202020202020201030C668833060803DB
:1015C0004F35000000000000000000000000000097
:1015D000000000000000000000008040A05028D45F
:1015E000EA723A9A9A1232F5E191E1F234129A9A39
:1015F0003A72EAD42850A0408000000000000000A9
:1016000000000000000000000000000000000000DA
:101610000000000000008040C08000000C04FC04BA
:101620000C04FC8484FC0404FC85C40C0100010D42
:1016300004FD040C05FC8485780104FC0500F88594
:1016400084F901FC010078C51C000000F80404F8CE
:101650000004FC84C40C00008040C0800000000036
:10166000008080808081838381808080909F9080B3
:10167000909F90909F90909F90919C808080809070
:101680009F9080909F90808F90909F90809F80806F
:101690009F809F909098908F8080808F90908F8077
:1016A000909F9081808080818383818080800001F1
:1016B0000000F8FC7C1C3CFCFCF80000008C1C1CAE
:1016C0001C1474E4E4C40004040CFCFCFC0C0404CE
:1016D0000000F4FC3C1C1C7CFCFCC40004FCFC1C56
:1016E0001C1CFCF8300000F8FC3C1C1C7CFCF800C6
:1016F0000004FCFCFC000084FCFC04000001000071
:1017000000FF0700181818FFFF000000031F3F63C9
:10171000C30207070100000000FFFF0F00000000E8
:10172000000F31C30303017F0F07000001FF000C0E
:101730003FF3000000001F3F40C040203F1F00005B
:1017400000FFFF7F187EFF03000000000000000084
:101750000007080000807F03000000000000000078
:101760000000000000000000000700000000000072
:101770000000000000000000000000000700000062
:101780000003000000000000000000000000000056
:10179000010F000000011F78C000000000000000E1
:1017A0000000000001000000000000121509000206
:1017B0000F12000C121E001E020600020F12000083
:1017C0000000000000000000121509000C121200B9
:1017D0001E121E001E0206000C1A140014120A002B
:1017E00000000000000000000100000C0C0000F0F0
:1017F00008F4B494F408F0000000000001020202B2
:101800000201000000000000F008F4B408F000003D
:1018100000000000000102020100000000000000C2
:1018200000F0FC0CF00000000000000000000303CA
:101830000000000000000000F00894F408F0000030
:10184000000000000001020201000000000C0C007A
:1018500000F0F8FCFCFCFCF8F000000000000103C4
:1018600003030301000000000000F0F8FCFCF8F0A6
:101870000000000000000001030301000000000060
:10188000000000F0FCFCF000000000000000000080
:1018900003030000000000000000F0F8FCFCF8F07A
:1018A0000000000000000001030301000000005ED2
:1018B000022402EA01B00140030803D0029802ECBE
:1018C00003B203780396045E04260440FCFEFEFE89
:1018D000FFFFFFFFFFFEBC00000000011F1F1F1FD6
:1018E0001F1F1F1F1F0F000000BCFEFFFFFFFFFF99
:1018F000FEFEFEFC40000F1F1F1F1F1F1F1F1F1F8C
:101900000100000E1040BC029E02193D35B9014293
:10191000BC00000000011E000F07071F0003180F86
:10192000000000BC4201B9353D19029E02BC4000D6
:101930000F1803001F07070F001E01000000000022
:1019400000240027002A002D0030000000000025A0
:101950000028002B002E00310004080201104080F6
:101960004010204080408008020401804020100286
:1019700001108010204040200404040404030405E6
:10198000020202020403020202020606060606061C
:101990000404020202040406011501260137014A6B
:1019A000015D01720188019F01B801D201EE010BB6
:1019B000022A024B026E029302BA02E40210033FB3
:1019C000037003A403DC03170455049704DD042704
:1019D000057505C80520067D06E0064907B8072DF0
:1019E00008A9082D09B9094D0AEA0A900B400CFA1A
:1019F0000CC00D910E6F0F5A1053115B1272139A97
:101A000014D41520178018F519801B231DDE1EB471
:101A100020A622B524E4263429A72B402E0031EA43
:101A2000330037453ABC3D68414C456B49C84D6869
:101A3000524F57805C006210111213151617181AB6
:101A40001C1D1F21232527292C2E3134373A3E41D6
:101A500045494E52575C62686E757B838B939CA59B
:101A6000AFB9C4D0DCE9F7041EFFFFFFFFFFFFFFA3
:101A7000FFFFFFFEFEFFFFFFFFFFFFFFFFFFFEFE7A
:101A8000FFFFFFFFFF7EFFFFFFFFFFFEFEFFFFFFE9
:101A9000FFFFFFFFFFFFFEFEFFFFFFFFFFFFFFFF58
:101AA000FFFF3E040000FFFFFFFFFFFFFFFFFF7F80
:101AB000FFFFFFFFFFFFFFFFFFFFFFFFFF7FFFFFB6
:101AC000FFFFF0FFFFFFFF7F1F1F3F3F1FDFFFFFF5
:101AD000FFFF7F3F7FFFFFFFFFFFFFFFFFFB702048
:101AE0000000001FFFFFFFFFFF03010000011FFFB9
:101AF000FFFFFFFFFFFFFFFFFF3F0000010307079E
:101B0000070301000000000002070F0703010000A7
:101B10000000030F3FFFFFFFFCE00000000000009B
:101B2000003F7FFF7F3F0000000000000001030135
:101B3000387FFF7F3F07000000000000000000002A
:101B40000000000000000000000000000000000095
:101B500000000003070F1F0F0400003D2000041ABF
:101B6000E2020202E222E2020204FC1A0202C222A1
:101B7000E2020202FCF40A0202C2320C7282020287
:101B80001AE4E41A0202C22222A2C2A21CFC02022D
:101B900002E222E20202C23A0400000000FF00005A
:101BA000FF40388740201CFF0000EC4B8448DF00DA
:101BB00000C33F1860801F6080700F80601C030F9F
:101BC00010100A09C93D8040300F077880000FC807
:101BD000874C4B502000000000001FE000FE020177
:101BE00000000000011EE01FE00000FF00C03F00F9
:101BF00000000001020202010000000000000002DB
:101C0000050201000000000000030C30C31CE000CE
:101C100000000000000000003F403F000000000006
:101C200000000000010000384738070000000000F5
:101C300000000000000000000000000000000000A4
:101C40000000000000000000000003040B0400007E
:101C50000004081E3F211E223E3F20322925321259
:101C6000253F1A0C2A3F2C17253D181E3F25182307
:101C7000393D231A252D1A062F291E0706060F1F88
:101C80003E1F0F0606091122110906031002FC006F
:101C900000FF00FFFFFE50A0408000000000000099
:101CA000000000000000000000000000000000FF35
:101CB000FFFFFDFEFDFEFDFEFCFCFCFCFCFCFCFC55
:101CC000FCFCFCFCFCFCFCFCFCFCFCFFFFFFFFFF45
:101CD000FFFFFFFFFFFFFFFFFFFFFFFFFFFFFFFF14
:101CE000FFFFFFFFFFFFFFFFFFFFFFFFFFFFFFFF04
:101CF000FFFFFFFFFFFFFFFFFFFFFFFFFFFFFFFFF4
:101D0000FFFFFF0F0F0F0F0F0F0F0F0F0F0F0F0F13
:101D10000F0F0F0F0F0F0F0F0F0F0F0F0F0F0F1CC6
:101D200024FE0000A0408000000000000000000031
:101D30000000000000000000000000000093D090B0
:101D4000DA1B9A991A1800C080C080C080C080C079
:101D5000800000000000C0C000EA6262FF00FFFFD8
:101D6000000000DDCCCCCCCCCCCCCCCCCC00C000AA
:101D70000000FFFF0001FF77FF00FFFF000000DD14
:101D8000CCCCCCCCCCCCCCCCCC00CC000000FFFF5D
:101D900000000F0F0F000F0F0000000D0C0C0C0CBB
:101DA0000C0C0C0C0C000C0000000F0F0042060481
:101DB00006C60588054A050C05CE0434071607F843
:101DC00006DA06BC069E06800680C0E0E0E0E0F091
:101DD000F8FCFEFEFEFFFFFFFFFEFEFEFEFEFCF82F
:101DE000E00F3F3F3F3F3F3F3F3F3F3F3F3F3F3F92
:101DF0003F3F3F3F1F1F0F0703180E8040A0A0A0CA
:101E0000A090A8948A8A8A058585854A6A3A1A0A22
:101E1000C418E00F300E30031714171310001E30D3
:101E20000000300E00321211080403C0F0F8FCFE6E
:101E3000FFFFFEFEFEFEFEFEFFFFFEFCF8F0C01FF1
:101E40007F7F7F7F7F7F7F7F7F7F7F7F7F7F7F7FA2
:101E50007F7F1F140FC030C8F41A656D6A6A2ACAE2
:101E6000F23A050532C40830C01F601D61072F29F2
:101E70002F2721013D600001611D00601F0C0C0037
:101E800000F008F4B494F408F0000000000001022F
:101E900002020201000000000000F008F4B408F0A3
:101EA000000000000000000102020100000000002C
:101EB000000000F0FC0CF00000000000000000003A
:101EC00003030000000000000000F00894F408F094
:101ED0000000000000000001020201000000000CF0
:101EE0000C0000F0F8FCFCFCFCF8F0000000000026
:101EF000010303030301000000000000F0F8FCFCF4
:101F0000F8F00000000000000001030301000000E1
:101F10000000000000F0FCFCF000000000000000E9
:101F2000000003030000000000000000F0F8FCFCCB
:101F3000F8F00000000000000001030301000000B1
:101F400000F0F8F8F8F8FEFFFFFEF8F8F8F8F8F8F7
:101F5000600707070707FFFFFFFF070707070703DC
:101F6000001010F0084848484E0D4F0E4848080829
:101F700098F8600704050405FD0DFDFC0504040444
:101F800007030000F0B0B0B0B0F2B0F0B0B0F0F0C5
:101F9000600000000302030202F2020302030303D3
:101FA0000000000D10FC02A9DDFDFDFD7D81810119
:101FB0000101FF00AFDFFFFFFFF004078000A0007A
:101FC0000000FFFFFEFEFEFFFFFFFFFFFFFFFFFF22
:101FD000FFFFFFFFFFFFFEFEFE3C3C3CFFFFFFFF5D
:101FE000FFFFFFFFFFFFFFFFFFFFFFFFFFFFFFFF01
:101FF000FFFFFF000000FFFFFFFFFFFFFFFFFFFFEE
:10200000FFFFFFFFFFFFFFFFFFFFFFFFFF000000DD
:10201000FFFFFFFFFFFFFFFFFFFFFFFFFFFFFFFFD0
:10202000FFFFFFFFFFFFFF0000000F0F0F0F0F0F5D
:102030000F0F0F0F0F0F0F0F0F0F0F0F0F0F0F0FB0
:102040000F1A2400000000FEFCDC2C36F616EE769B
:102050007AFA7A7AF2E60E16F6362CDCFC001818BC
:1020600010939716D595D694C38FC68DC78EC391FE
:10207000D090D191D596D700000000FFFF00FF62FD
:1020800062626A62626A62626AE2622AA2A2AAA2C8
:102090006200000000FFFF00FFFFFFE36363634196
:1020A000E3F7FF01FC030000000000000000000F48
:1020B0000F000F0F0708050F050304030F000F00A3
:1020C0000000000000EE07EE07D407A207800766B5
:1020D000075C0752075C070521A008A0088808587C
:1020E0000838082008ED20ED20ED20ED20FFFFFF4F
:1020F000FFFFFFFFFFFFFFFFFF0F0F0F0F0F0F0F80
:102100000F0F0F0F0F0C0C008CC6E262C2E2E2C68A
:102110008A60000001030707060703050201001992
:10212000A6BE5E3EFE7E7E6E76EE010402020404D2
:1021300008050D050D0400FEFFFFFFFFFFFFFFFF79
:10214000FFFFFE0003070F0F07070F0F0703000C29
:102150000C007AB676B676BA7ABA7A360000000003
:10216000000000000000000000060C4090BA9C90A7
:102170004004000A0A00044098B8B5984004000AD8
:102180000A000440909CBA904004000A0A000440EF
:1021900098B5B8984004000A0A0004120B00100019
:1021A000101090100017001D1810101010101000C3
:1021B00000000000070604040404040400040000F6
:1021C00000030C6688330608034018AA00AA00AA78
:1021D00001AB07AF1FBF7FBF7FFFFFFF7FFF7FFF09
:1021E0007FBF1FBF1FAF07AB03AB07AF1FBF7FBFD3
:1021F0007FFFFFFFFFFFFFFFFFFF7FBF7FFF7FFF2F
:102200007FBF1FBF1FAF07AB01AA00AAFDAAFDAA8F
:10221000FDAAFDAAFDAAFDAAFDAAFDAAFDAAFDAA86
:10222000FDAAFDAAFDAAFDAAFDAAFDAAFDAAFDAA76
:10223000FDAAFDABFDABFDABFDAAFDAAFDAAFDAA63
:10224000FDAAFDAAFDAAFDAAFDAAFDFBFFFEFFFB5C
:10225000FFFEFFFBFFFEFFFBFFFEFFFBFFFEFFFBA2
:10226000FFFEFFFBFFFEFFFBFFFEFFFBFFFEFFFB92
:10227000FFFEFFFBFFFEFFFBFFFEFFFBFFFEFFFB82
:10228000FFFEFFFBFFFEFFFBFFFEFF0E0F0F07042D
:102290000400040200070F0F0E04040002040007EC
:1022A00007070303000200904E004690530046903B
:1022B00066004680F0906E003290680032906200B6
:1022C00032905C00329056003290500032904A00BA
:1022D0003290440032903E00320014903E003200B2
:1022E00014903E00320014903E003280F090440082
:1022F0003290490032904E00329053003280F0907C
:102300003C001480F000C0F8FCFEFEFEFEFCF8C0AD
:1023100000070F0F0F0F0F0F0F0F0F0F0700C0F861
:10232000FCFEFEFEFEFCF8C000070F0F0F0F0F0FA4
:102330000F0F0F0F070C0C0000C0986C5C6CBCD822
:10234000C00000000709060901030906090700008B
:1023500000C0D8BC6C5C6C98C0000000070906097E
:1023600003010906090700000000000000904E006C
:102370001E9053001E9058001E905D001E80F000BD
:1023800070FCFEFFFFFFFFFEFC70000000010B0170
:102390001703010B0100000080E0F4E0FAF0E0F424
:1023A000E0800000030F1F3F3F3F3F1F0F03000C63
:1023B0000E00708C02091D1D09028C7000000001C6
:1023C0000A011602010A01000000806014201A10A0
:1023D000201460800000030C10242E2E24100C0307
:1023E000000D000000000000C0E0F0F8F8FCFCF870
:1023F000FCFEFEFE7E3F021E3F7FFFFFFFFF7F7F52
:102400007F3F1F0F03000010100000C02010900835
:10241000081008049444380200001E214C565E4CFB
:10242000212420100C030000000401020000004CD5
:10243000FEFCFEFFFFFFFFFEFCFE4C000C0F07033F
:10244000070703070F0C000C0C004C904CB69E9E27
:10245000B64C904C0000000403000202000304008C
:10246000000200020F0F0FF8FCFEFFFFFFFFFFFF4F
:10247000FEFCF80103070F0F0F0F0F0F070301F802
:10248000FCFEFFFFFFFFFFFFFEFCF80103070F0F3D
:102490000F0F0F0F0703010C0CF804FACDBDCDFD93
:1024A0007D7D3A04F801020508090809080A0502B9
:1024B00001F8043A7D7DFDCDBDCDFA04F801020599
:1024C0000A080908090805020103000201050D00B8
:1024D000C0F8FCFEFEFEFEFCF8C000070F0F0F0F59
:1024E0000F0F0F0F0F0F0700C0F8FCFEFEFEFEFCE3
:1024F000F8C000070F0F0F0F0F0F0F0F0F0F070C74
:102500000C0000C0986C5C6CBCD8C00000000709CF
:102510000609010309060907000000C0D8BC6C5C6D
:102520006C98C000000007090609030109060907A5
:102530000001000103070700033211241FBECFEF83
:10254000DAE0DEBFCDBF11E0A0E0B1E0E0EAFFE6F7
:1025500002C005900D92A033B107D9F729E0A0E39E
:10256000B1E001C01D92A537B207E1F712E1CDE954
:10257000D2E104C02197FE010E94C137CC39D107B6
:10258000C9F70E9499320C94CE370C940000E5E70D
:10259000F5E0A0E0B8E000800EBC8111012C11979D
:1025A000A0FDFDCF0192B9F70DB408959C01480F2D
:1025B000592F511D4138510514F040E850E0421B9D
:1025C000CB018770992791E001C0990F8A95EAF7AE
:1025D000FB0183E0F595E7958A95E1F7F695FE2FE7
:1025E000EE27F795E795E20FF31FEB58FA4F4150AE
:1025F00030F08191DF011197892B8C93F8CF0895EA
:10260000CF93C82F81E00E94C712C13041F4E5E7A3
:10261000F5E08FEF819399E0E537F907D9F7CF918E
:1026200008953FB7F89480916B0190916C01A0914F
:102630006D01B0916E0126B5A89B05C02F3F19F022
:102640000196A11DB11D3FBFBA2FA92F982F882732
:10265000BC01CD01620F711D811D911D42E0660F0D
:10266000771F881F991F4A95D1F708956F927F921F
:102670008F929F92AF92BF92CF92DF92EF92FF9292
:102680000F931F93CF93DF934C01DB0158017C2DF7
:102690004115510509F4A0C0FA0164913196849165
:1026A0004E5F5F4FC62FD0E0211102C0EE2009F12E
:1026B000E1E0F0E0982F977011F4F0E0E0E0082FEF
:1026C0000695069506950E0F1F2F111D0C9FF00104
:1026D0000D9FF00D1C9FF00D1124733009F08BC07D
:1026E000EE0FFF1F2E9F80012F9F100D1124400F12
:1026F000511F84010C0F1D1F101611060CF06CC029
:10270000F0E88F1691040CF067C09D01280F311D71
:10271000121613060CF060C0A034B1050CF05CC0BA
:102720004115510509F458C03A2F3770FD01B7FD26
:10273000379693E0F595E7959A95E1F72E2FB7FF39
:1027400004C0332311F02FEF2E0FEE27FF27E819D7
:10275000F90997FC02C0F0E0E0E090E89819003831
:1027600011050CF4962F9E1BA22F022E000CBB0B02
:102770001A2F10952F3F0CF010E0DD24D394082F72
:10278000077009F4D12C869586958695D80EAD0DE7
:10279000B11D19971CF0A8E0DA2ED21AD11A210F18
:1027A00000E82003D0011124A80DB91DAE0FBF1FF2
:1027B000619FE00DF11D11244E0F5F1FE32E032ECC
:1027C000000CFF08733009F424C108F5713009F4D6
:1027D000D6C0723009F484C0DF91CF911F910F9160
:1027E000FF90EF90DF90CF90BF90AF909F908F9031
:1027F0007F906F900895A114B10409F473CFEE9EF9
:102800008001EF9E100D1124A00EB11E6BCF7A3FF8
:10281000B1F10D2D020F7B3FF9F62017E9F2BD0152
:102820006B587A4FD12CC12CC91608F0A2C0FA01FE
:10283000EC0DFD1DE491F0E04F010E2C02C0880C60
:10284000991C0A94E2F727FD06C0FB018081182D30
:10285000109581238083332361F0273054F45B018A
:10286000F0E8AF0EB11C192D1095F5018081812380
:102870008083FFEFCF1ADF0A6F5F7F4FD5CF0D2D1B
:10288000020F201709F4A8CFBD016B587A4FD12C45
:10289000C12CC91608F067C0FA01EC0DFD1DE491CA
:1028A000F0E04F010E2C02C0880C991C0A94E2F74C
:1028B00027FD04C0FB01808188298083332351F0E8
:1028C000273044F45B01F0E8AF0EB11CF5018081C4
:1028D00089298083FFEFCF1ADF0A6F5F7F4FD9CF3F
:1028E0006FEF70E0032E02C0660F771F0A94E2F7C5
:1028F00060957095972E8D2C820E281509F46CCF5B
:102900008D010B581A4FD12CC12CC91630F5FA0184
:10291000EC0DFD1DE491F0E03F010E2C02C0660CB1
:10292000771C0A94E2F727FD05C0F8018081862311
:1029300086298083332359F027304CF45801F0E87E
:10294000AF0EB11CF5018081892187298083FFEFBB
:10295000CF1ADF0A0F5F1F4FD8CF2F5F4C0F5D1FBD
:10296000A058BF4FCACF2F5F4C0F5D1FA058BF4F5D
:1029700088CF2F5F4C0F5D1FA058BF4F4ECF8501F2
:102980000E0F1F1F8D2D820F281709F425CFBD01B3
:102990006B587A4FD12CC12CC91698F5F801EC0D63
:1029A000FD1DA490B12C0E2C02C0AA0CBB1C0A94D5
:1029B000E2F7A094B094FA01EC0DFD1D8490912CE7
:1029C0000E2C02C0880C991C0A94E2F727FD08C05F
:1029D000FB017080E72DEA217E2E7828FB017082B2
:1029E000332349F027303CF4FB01E058FF4FA0802F
:1029F000BA20B928B082FFEFCF1ADF0A6F5F7F4F8E
:102A0000CBCF2F5F4C0F5D1F0C0F1D1FA058BF4F6A
:102A1000BBCFE92EF12CE40FF51FAB58BA4F60E89D
:102A200070E06E197F09CE19DF09AE01440F551F02
:102A3000C1E0D0E07E01032E01C0EE0C0A94EAF75B
:102A4000192F0D2D892E932ECF93DF93ED01EF9645
:102A5000EF962296A590C590992059F0AE9C500112
:102A6000CE9C600127302CF4F880D094FD20FB2808
:102A7000F99222233AF0FC90C094FC20FA28FD92AF
:102A80000C94431511961A9529F70A9551F0182DB3
:102A900023951124E40FF11DA60FB11DC60FD11D02
:102AA000D9CFDF91CF91112497CECF92EF920F9390
:102AB0001F933AEFC32EE12C10E000E00E94361382
:102AC0001F910F91EF90CF900895CF92EF920F93B7
:102AD0001F933BEFC32EE12C10E000E00E94361361
:102AE0001F910F91EF90CF900895CF92EF920F9397
:102AF0001F9332E0C32EE12C10E000E00E94361359
:102B00001F910F91EF90CF900895CF92EF920F9376
:102B10001F93F901202FCC24C3948F010E943613F8
:102B20001F910F91EF90CF9008958F929F92AF9247
:102B3000BF92CF92DF92EF92FF926C01F12CE12CC9
:102B40000E9411134B015C010E941113681979094D
:102B50008A099B09683E734081059105A8F321E02D
:102B6000C21AD108E108F10888EE880E83E0981EA9
:102B7000A11CB11CC114D104E104F10429F7FF9098
:102B8000EF90DF90CF90BF90AF909F908F9008957F
:102B90008FB18095807F669B88601C9B84600895C0
:102BA000809165010895109265013E983F980895BF
:102BB0003E9A3F9A81E08093650108950895CF92EF
:102BC000DF92EF92FF921F93CF93DF93E82FF0E015
:102BD000E65EFE4F1081E62FF0E0603398F5E95C89
:102BE000F54EE491CE2FD0E0F12CE12C60E074E2C0
:102BF00084EF90E0A7019E010E943D3721503109EA
:102C00004109510991E02115310581E0480751053D
:102C10006CF060E970ED83E090E0A7019E010E94F6
:102C20003D37215031094109510993E0113089F0B4
:102C3000133039F1DF91CF911F91FF90EF90DF902A
:102C4000CF900895EE0FFF1FE95CF64EC591D49129
:102C5000CBCF809164018111EDCF80918100887F7D
:102C6000892B8093810030938900209388001092F3
:102C700085001092840080916F00826080936F00C5
:102C8000D9CF80919100887F892B809391003093D8
:102C90009900209398001092950010929400D09380
:102CA0006301C093620181E08093610180917100B2
:102CB000826080937100BECFE82FF0E0E65EFE4FA9
:102CC0008081813019F08330A9F0089580916401EA
:102CD00081110FC080916F008D7F80936F00809174
:102CE0005301E0915101F091520190818095892327
:102CF0008083089510926101809160018111F9CF64
:102D000080915E01E0915C01F0915D01EECFCF9387
:102D1000DF93D1E0E0917105F0917205AF014F5F53
:102D20005F4F50937205409371052491822F807FED
:102D3000C22FCF70803821F48C2F0E945C16EACF0E
:102D4000803919F5E0914F01F091500109958D27D7
:102D500080935F01E0917105F0917205CF010196BA
:102D60009093720580937105649180914E01C8170C
:102D700088F6C13021F480914D018111CBCF67FDE0
:102D8000C9CF8C2F0E94DF15C5CF87FD3CC032967E
:102D9000F0937205E0937105FA014491A0916201EC
:102DA000B0916301322F242F0E947E376C507E4FEA
:102DB0008F4F9F4F28EE33E040E050E00E945C3799
:102DC000209358013093590140935A0150935B016D
:102DD0008091580190915901A0915A01B0915B01E5
:102DE000892B8A2B8B2B61F481E090E0A0E0B0E08E
:102DF0008093580190935901A0935A01B0935B01BD
:102E0000DF91CF910895803E49F4809173059091B0
:102E1000740590937205809371057CCF803F09F013
:102E200079CF10927005ECCF909374058093730561
:102E300090937205809371050E94871681E08093BC
:102E40007005089590914E01923009F471C0292FB8
:102E500030E0F901E65EFE4F4081255B3E4FF9010F
:102E60008083913031F420914B01281302C090935C
:102E70004D019F5F90934E0190E0FC01E858F64EA3
:102E80002491875A964EFC01849130E0220F331F23
:102E9000F901E55BF64E65917491F901E35CF64E3C
:102EA000A591B4919C91982B9C93413019F043309B
:102EB000D9F0089590916400977F909364001092E8
:102EC0008000109281009091810098609093810021
:102ED0009091810091609093810070935201609372
:102EE000510180935301089590916500977F9093CD
:102EF000650010929000109291009091910098605E
:102F000090939100909191009160909391007093B3
:102F10005D0160935C0180935E0180914E01882386
:102F200021F06CE380E00E94DF1580E00C945C16D9
:102F30000895FC018685811107C08785811104C031
:102F4000828D833008F0128E828D0895DC01ED9120
:102F5000FC911197E491EE2331F01296ED91FC91E2
:102F60003196849108958CE00895DC01ED91FC91F7
:102F70001197E491EE2329F01296ED91FC91849142
:102F800008958CE00895BF92CF92DF92EF92FF9266
:102F90000F931F93CF93DF9300D000D000D0CDB715
:102FA000DEB78C01DC01ED91FC911197E49118964C
:102FB000CD90DC9019971A96ED90FC90EE2371F06D
:102FC000ED3069F10E94B517B82EC8010E94A6170E
:102FD000DA82C982FC82EB82BD8208C00E94A617F9
:102FE000DA82C982FC82EB8299E09D838E832981FB
:102FF0003A814B815C816D817E8180E090E02696F4
:103000000FB6F894DEBF0FBECDBFDF91CF911F91F9
:103010000F91FF90EF90DF90CF90BF9008950E94A6
:10302000B517B82EC8010E94A617B2E0CB0ED11C6E
:10303000DA82C98292E0E90EF11CFC82EB829CEFFD
:103040009B0D9D838450D2CFCF93DF93FC01C0852D
:10305000D1850E94B5178C0F9D2F911D0197DF918F
:10306000CF9108950F931F93FC0180819181A281DC
:10307000B3818C019D014DE0000F111F221F331FF2
:103080004A95D1F7082719272A273B27D901C801D4
:1030900051E1B695A795979587955A95D1F7082749
:1030A00019272A273B27C901B801A5E0660F771F1A
:1030B000881F991FAA95D1F7602771278227932728
:1030C00060837183828393831F910F910895FC0124
:1030D000E65BFF4F8F529F4FE817F90771F0208191
:1030E00031812617370739F42281338124173507B8
:1030F00011F4848108953996EFCF80E00895FF920E
:103100000F931F93CF93DF93F82E8B01EA014F3F6C
:10311000540731F087EC93E00E946718811119C0C1
:1031200020919804E9E02E9FC001112489539C4FFF
:10313000FC01E65BFF4F118300833296D183C0838D
:10314000825B9F4FFC01F0822F5F2F3041F0209374
:103150009804DF91CF911F910F91FF9008951092E5
:103160009804F7CF9C01CB016CE070E00E94AD3772
:10317000FC018D3020F5413110F5CB0163E070E0AA
:103180000E94AD37BC015CE0569FC001579F900D77
:1031900011248E0F9F1F0196880F991F820F931F76
:1031A00021E030E002C0220F331F4A95E2F7FC0114
:1031B000808191812823392381E0232B09F480E049
:1031C0000895EF92FF920F931F93CF93DF93FC012B
:1031D000CB01EA012CE030E0B9010E94AD377B0160
:1031E000CE01B9010E94AD378B01C689D789C45B76
:1031F000DD4FAB01B701CE010E94B21881110FC0A3
:1032000017FD0BC0A801B701CE010E9467188130DD
:1032100020F08C3028F08D3019F080E001C08FEF65
:10322000DF91CF911F910F91FF90EF9008957F92C2
:103230008F929F92AF92BF92CF92DF92EF92FF92C6
:103240000F931F93CF93DF93EC01862EE881F981D2
:10325000E49189E0EE2319F0CE010E94B517D12C3C
:10326000C12C912C9CE0792EE82EF12CCE010E94ED
:10327000B517672D0E948D37981608F052C0AA84A2
:10328000BB8481E0881669F181E0A81AB10808853D
:1032900019850C0D1D1DA501B801CE010E94E11874
:1032A000882379F081E0DF91CF911F910F91FF90FA
:1032B000EF90DF90CF90BF90AF909F908F907F90D6
:1032C0000895B701600F711F61507109A501CE010A
:1032D0000E94E1188111E6CF93948CE0C80ED11CB6
:1032E000C5CFCE010E94A617A501480F511D6885C4
:1032F00079856C0D7D1DCE010E94E1188111D2CF20
:103300000A851B85CE010E94A617A801480F511DF2
:10331000688579856C0D7D1D6E0D7F1D615071096D
:10332000D6CF80E0C0CFCF93DF93EC0161E00E9465
:103330001719882319F09BEF9F871A8ADF91CF9185
:10334000089561E00E94171991E089270895E0919E
:103350009D04F0919E042581968190959223322FB1
:10336000307480919E0125FD50C031115AC018164D
:103370001CF4815080939E0180919E0187FF03C0C1
:103380008F5F80939E0192FF14C080E991E00E94BC
:10339000A119811152C080E991E00E9493198823FC
:1033A00009F44BC081E08093A4018FEF92E20C946A
:1033B00014178091A401882359F00E94C81582FF38
:1033C00007C080E991E00E94A119811104C008950D
:1033D0001092A40108958091A201863058F48F5F65
:1033E0008093A20180FD29C080919F01825080932B
:1033F0009F0108958C3008F58F5F8093A20180FDB6
:103400001CC080919F018150F2CF22E02093A50142
:1034100081508D3F0CF48DEF80939E01332309F48E
:10342000B2CF23E02093A50180919E018F5F84306D
:103430000CF4A7CF20939E01A6CF0895CF92DF92E0
:10344000EF920F93CF93DF93EC01E881F981E49140
:10345000E33009F497C0C8F4EE2359F1E13009F4E0
:1034600091C0EE89FF892C813D814A815B816A850B
:103470007B8585859685681B790B8885998503846E
:10348000F485E02DE12C00E099C0ED3009F480C016
:10349000EE3009F496C0E53021F78E81853108F7CA
:1034A00082FFDFCFDF91CF910F91EF90DF90CF9030
:1034B00008950E94A1199D8901E08823E1F09330CD
:1034C00009F000E0EE89FF896A857B85615071090A
:1034D00085859685681B790B888599852385348534
:1034E000821B930BE02E2BEC38E143E059E102976D
:1034F0000E948515D7CF933009F000E08E858111A9
:103500002CC08F85811129C0CE010E949917E82F08
:10351000F0E0EE0FFF1FEB53F74EC590D490CE01B5
:103520000E949917E82FF0E0EE0FFF1FE154F74ECD
:1035300045915491EE89FF896A857B8561507109B7
:1035400085859685681B790B8885998523853485C3
:10355000821B930BE02E9601CACFCE010E949917D1
:10356000E82FF0E0EE0FFF1FE954F74EC590D4901E
:10357000CE010E949917E82FF0E0EE0FFF1FE155F2
:10358000F74ED6CF01E08D89833031F000E004C0E2
:1035900001E08F851816D4F7EE89FF892C813D81D3
:1035A0004A815B816A857B8585859685681B790B59
:1035B000888599850384F485E02DE02E8E1B9F0B72
:1035C00097CF8E81853110F482FD6CCFEE89FF8913
:1035D000A88DB98D13962D913C912F703327269588
:1035E00026956A857B8585859685681B790B8885F8
:1035F00099850384F485E02D4DE458E18E1B9F0BE3
:103600000E945515EE89FF89A88DB98D13962D91CD
:103610003C912F703327269526956A857B85858575
:103620009685681B790B888599850384F485E02D40
:103630004BEE57E18E1B9F0BDF91CF910F91EF90D7
:10364000DF90CF900C9465152F923F924F925F922E
:103650006F927F928F929F92AF92BF92CF92DF92A2
:10366000EF92FF920F931F93CF93DF93CDB7DEB707
:103670002D970FB6F894DEBF0FBECDBF80918601A7
:103680009091870197FD03969595879595958795D8
:1036900060E470E00E94AD379C01809188019091B8
:1036A00089014091840140FF97C06CE070E00E9466
:1036B000AD3700271127021B130B80EC90E07C0133
:1036C000E21AF30A6B0126E0C21AD10820E049ECA5
:1036D00051E2B601C8010E947515005C1F4FE0164B
:1036E000F106A1F780918601909187016CE070E06E
:1036F0000E94AD371B01ECE02E1A31088CE0869F4A
:103700009001879F300D11243F832E838091860185
:10371000909187016CE070E00E94AD37605F7F4F51
:10372000621573050CF477C180918801909189012D
:103730006CE070E00E94AD378B01AE80BF8030E955
:10374000A31AB1086CE0609F3001619F700C1124D6
:10375000D12CC12CE0908801F090890180908601E5
:1037600090908701C7016CE070E00E94AD37685F00
:103770007F4F601771070CF446C1A801B10187ECB7
:1037800093E00E94B218D8011196B987A8878823C0
:1037900009F477C023014C0C5D1C4E185F08F5013D
:1037A000E819F9094F01A031B10549F0AD01B101A6
:1037B00087EC93E00E94B218882309F457C08091E7
:1037C0008401E12C01E080FD02C0E12C00E02DEE3F
:1037D00030E245E051E250C066E070E00E94AD3753
:1037E0005B0180E1A81AB10807E010E0021B130B8F
:1037F00087EC90E03C01621A730A4B019CE1891A44
:1038000091086B01A5E0CA1AD1087B01B9E0EB1A57
:10381000F10820E041EC51E2B401C8010E947515A5
:1038200020E041EC51E2B501C8010E94751520E08D
:103830004BE951E2B601C80183960E947515E091EB
:103840009D04F0919E04238134812F7033272695A7
:10385000269549E651E2B701C80143960E947515C5
:10386000005C1F4F60167106A1F63CCFE12C00E012
:1038700027E331E24FE451E2B201C4010E94851511
:1038800057C017FD55C0A801B10187EC93E00E9415
:103890006718EAEFE80FEB3008F04AC0F0E0ED5AA5
:1038A000F34E0C94C1375E1C5E1C5E1C5E1C761CC5
:1038B000881C9E1C981CB21CE71CF51C90E0880F0D
:1038C000991FFC01E752FF4D25913491FC01EB5308
:1038D000FF4D45915491B3016C0D7D1D6E197F090B
:1038E000E12C00E0C50188199909C8CFB3016C0D1E
:1038F0007D1D6E197F0968517109C50188199909E3
:10390000E12C00E02FEB3FE141E450E28497B6CF99
:10391000B3016C0D7D1D6E197F0964507109C501DD
:103920008819990920E043EA5FE10D970E94751517
:10393000BCE0CB0ED11C088519850CCF0091840109
:103940000170B3016C0D7D1D6E197F096450710902
:10395000C50188199909E12C21E43FE141E65FE1C5
:1039600004978CCFE0919D04F0919E0423813481D3
:103970002F7033272695269583010C0D1D1DB80148
:103980006E197F094FED5EE1C501881999090E9402
:103990005515E0919D04F0919E04238134812F7090
:1039A0003327269526958091880190918901B80149
:1039B000681B790B80918601909187014DE75EE14C
:1039C000D501A81BB90BCD010E946515B1CFB3017C
:1039D0006C0D7D1D6E197F0963507109E12C00E0AB
:1039E0002BE23EE143E55EE17DCFB3016C0D7D1D31
:1039F0006E197F0962507109E12C00E029EC3DE16C
:103A000049EF5DE16FCFEFEF2E1A3E0A2E813F8125
:103A1000245F3F4F79CE80917B01813040F085302B
:103A200058F0863021F480917C018C3048F480E994
:103A300091E00E941E1A04C080917C0180FFF7CFA4
:103A400080917B01863009F036C080917C01ECE1E9
:103A5000F0E0E81BF109F7FD3396F595E795F5954C
:103A6000E795CF01880F991FFC01E554F24E25918F
:103A70003491FC01E355F24E45915491009184013B
:103A8000017060919A0170919B01809188019091E1
:103A90008901681B790B645071098091980190919C
:103AA0009901E0918601F09187018E1B9F0BE12C1B
:103AB00002970E948515BBEACB2EB1E0DB2E15E103
:103AC000812E912C03E0A02EB12CD60117968C915B
:103AD0001797811104C053968C918131B8F0C601BB
:103AE0000E9424182091860130918701821B930B3C
:103AF000181619065CF4F60180859185821B930BDC
:103B0000803891051CF4C6010E941E1AD6015396F6
:103B10008C91882381F1F401E81BF109CF01B501F3
:103B20000E94AD37660F771FFB01E554F24E2591D9
:103B30003491FB01E355F24E45915491009184017B
:103B40000170D6011A966D917C911B978091880126
:103B500090918901681B790B6250710918968D91BB
:103B60009C91E0918601F09187018E1B9F0BE12CC7
:103B700002970E948515BBE1CB0ED11CE7ECCE1657
:103B8000E3E0DE0609F0A1CF8091860190918701E4
:103B90006CE070E00E94AD375B018CE0869F3001E5
:103BA000879F700C1124FCE08F2E912C8091860150
:103BB00090918701B4010E94AD37605F7F4F6A1515
:103BC0007B050CF468C08091880190918901B40153
:103BD0000E94AD376B01FCE0F69F1001F79F300C9F
:103BE0001124512C412C0091880110918901C801A8
:103BF000B4010E94AD37685F7F4F6C157D050CF4F2
:103C000043C0A601B50187EC93E00E94B218811170
:103C100010C0D7FC0EC0E0908601F0908701A6018D
:103C2000B50187EC93E00E9467188A3049F08B3029
:103C3000D9F02FEFC21AD20A3CE0430E511CD3CF69
:103C4000B101640D751D601B710B68517109C301D1
:103C50008E199F09E12C00E023E93CE14FE15DE191
:103C60000A970E948515E5CFB101640D751D601B93
:103C7000710B6450710920E04BE85CE1C3018E19BF
:103C80009F090E947515D5CF6FEFA61AB60A7CE082
:103C9000670E711C8BCF8091980190919901B401AE
:103CA0000E94AD378091820190918301FE0131968F
:103CB00025E0DF011D922A95E9F7860F971F97FFF0
:103CC00002C090E080E08E010A5F1F4F2AE030E0E2
:103CD000B9010E9499378193CB010E171F07C1F7D5
:103CE00080918401E5E7F5E080FFF5C08AEA95E080
:103CF0002FEF21938E179F07E1F721E0809181013B
:103D0000811120E04BE75CE161E070E081E090E050
:103D10000E94651521E080918101823008F020E049
:103D20004BE75CE161E070E089E090E00E9465159E
:103D300021E080918101833008F020E04BE75CE1D5
:103D400061E070E081E190E00E94651578010BE18F
:103D500010E0F70122917F0141E55CE161E070E054
:103D6000C8010E9465150B5F1F4F0433110589F7C9
:103D70008091A604882361F0E12C00E027E63AE177
:103D80004BE55BE16FE070E080E290E00E9485151A
:103D900048EAC42E44E0D42E50E7652E55E0752E37
:103DA00060E8A62EB12C70E4872E912CD6011996CE
:103DB0004C91442E512CB42F2EE130E0A0E00E9413
:103DC000C737072F182F292F332727FD3A95F601DC
:103DD00086819781801B910B97838683A481B5810F
:103DE00025EF30E00E94C737E72EF82E092F112764
:103DF00007FD1A95F582E482C50184199509208191
:103E00003181821793073CF491838083F194E1948C
:103E1000F108F582E482D6018D919C91119797FF6C
:103E20000EC011961C921E9214968D919C9115971E
:103E300091958195910915969C938E931497F6010F
:103E4000828193818134910524F09382828217824A
:103E50001682D60112968D919C91139797FF04C0FC
:103E600017961C921E921697F60125812A87220F1B
:103E7000220B2B87208131816A857B85260F371F96
:103E80003183208327812C87220F220B2D87AC853D
:103E9000BD858A1B9B0B938382838085882311F0C9
:103EA00081508087F6018085882309F464C0423000
:103EB00009F455C0433009F47EC0413009F05BC0BD
:103EC00062817381E12C00E02FE932E242EA52E2A2
:103ED000808191814EC08AEA95E011928E179F07EA
:103EE000E1F721E080918101811120E04BE75CE165
:103EF00061E070E081E090E00E94551521E0809142
:103F00008101823008F020E04BE75CE161E070E085
:103F100089E090E00E94551521E080918101833075
:103F200008F020E04BE75CE161E070E081E190E0C7
:103F30000E945515EBE1EE2EF12CD8012E918D014A
:103F400041E55CE161E070E0C7010E945515B5E014
:103F5000EB0EF11CE4E3EE16F10479F709CF628170
:103F60007381E12C00E025E932E249E952E28081E7
:103F700091810E948515FAE0CF0ED11C6C147D044E
:103F800009F014CF2D960FB6F894DEBF0FBECDBF4B
:103F9000DF91CF911F910F91FF90EF90DF90CF9025
:103FA000BF90AF909F908F907F906F905F904F9059
:103FB0003F902F90089562817381E12C00E02BE8FF
:103FC00032E24FE852E284CF9F92AF92BF92CF92FB
:103FD000DF92EF92FF920F931F93CF93DF93EC0149
:103FE000C62E0CE010E0D12C8CE0982ECE010E9461
:103FF000A617692D0E948D37D81608F05CC022E004
:10400000C21639F083E0C81679F1D394045F1F4FCC
:10401000EDCFEA84FB84A884B98421E0A21AB10818
:10402000A8014C5051094E0D5F1DB501CE010E94F3
:10403000E118882369F081E0DF91CF911F910F9102
:10404000FF90EF90DF90CF90BF90AF909F9008953A
:10405000A8014E0D5F1D41505109B501CE010E94CE
:10406000E118882391F2E7CF8A859B8578012CE0BF
:10407000E21AF108E80EF91EA884B984CE010E9464
:10408000B517B501680F711DA701CE010E94E11897
:104090008111D1CFEA84FB84E00EF11E81E0E81AA1
:1040A000F108A884B984CE010E94B517B501680F44
:1040B000711DA701D3CF80E0BFCFFF920F931F9355
:1040C000CF93DF93EC014A855B85688579850E94F3
:1040D000E1188F3F71F41F821B8A198218821D8A92
:1040E0008FEF9FEF998788879B878A871E861F8619
:1040F0001E82E881F981E491E13009F4A0C0C8F0A2
:10410000E53011F0EE3091F58E81882379F1815000
:104110008E8381112BC01F821B8A198218821D8AEF
:104120008FEF9FEF998788879B878A871E861F86D8
:104130001DC08E8581111AC08F85811117C0EE892F
:10414000FF89EE5DFC4F0190F081E02D8381948129
:1041500066E070E00E949937892B41F48A8D90E0E7
:10416000019663E070E00E94AD378A8FE881F981A3
:10417000849181111EC08E8581111BC08F85811194
:1041800018C0AE89BF89AE5DBC4F0D90BC91A02D0B
:1041900013968D919C9166E070E00E949937892B6F
:1041A00041F48A8D90E0019663E070E00E94AD37A3
:1041B0008A8F94919530E9F18F859D3009F065C023
:1041C0008F37A9F48E899F898A5D9C4F0E9432188F
:1041D00028E230E040E050E00E945C37672B682B1B
:1041E000692B11F48CEE8F878F858F37B9F02A8574
:1041F0003B85982F87FF02C093E0980F9595959582
:10420000A901490F511D97FD5A952052310968891E
:1042100079895B874A8762177307A4F58C859D852A
:104220002A853B858217930724F42FE72F879B87E6
:104230008A87DF91CF911F910F91FF9008958F850D
:10424000811194CFCE010E94A11981118FCF8E8947
:104250009F898A5D9C4F0E94321824E130E040E043
:1042600050E00E945C37672B682B692B09F07ECFEA
:104270008E899F898A5D9C4F0E9432186770619574
:104280006F8774CF8F5F8F87C9CF3196E491E0FF3E
:1042900012C09E8528853985290F311D97FD3A95D5
:1042A000398728872A853B85280F311D87FD3A9558
:1042B0003B872A87BECF81110AC0CE010E94A11977
:1042C000882329F08F85863014F48F5F8F878F8540
:1042D00018160CF510E000E08F85082E000C990BE5
:1042E0000817190774F4CE010E94A119882341F020
:1042F0008A859B8501969B878A870F5F1F4FECCF2E
:104300001F86CE010E94A119882329F08F8586304F
:1043100014F48F5F8F878F8587FF13C08F5F8F8720
:1043200010E000E08F85082E000C990B8017910794
:1043300044F460E0CE010E941719882309F44EC0AE
:104340001F868E8518162CF510E000E090E9F92EF6
:104350008E85082E000C990B08171907D4F4CE018E
:104360000E942418EE89FF89E15EFC4F208130E035
:104370002F5F3F4FF29EA001F39E500D1124841732
:1043800095073CF463E0CE010E94E41F882371F19D
:104390001E868E8587FF4DCF10E000E080E9F82E65
:1043A0008E85082E000C990B801791070CF041CFD9
:1043B000EE89FF89E25EFC4F80818F9DC001112450
:1043C00028853985821793070CF033CF62E0CE0140
:1043D0000E94E41F882301F11E862BCF8A859B85CE
:1043E00001979B878A87015011099CCF8885998501
:1043F0000196998788878F8581110BC0CE010E9415
:10440000A119811106C08A8D90E0019683709927C9
:104410008A8F0F5F1F4F9CCF888599850197998759
:1044200088878F8581110BC0CE010E94A11981114F
:1044300006C08A8D90E00196837099278A8F01507B
:104440001109AECFCF93DF93DC01ED91FC91119771
:1044500056960D90BC91A02D19968D919C9184300B
:10446000910520F0079738F4349601C03396849173
:10447000DF91CF9108953596FACFEF92FF920F9387
:104480001F93CF93DF93EC010E94222282FF67C02B
:104490008E899F89FC01E58CF68C45960E94B517A4
:1044A000088519858E0D9F2D911D8017910744F465
:1044B00082E08D8BE881F9813296E491E195EE8777
:1044C000EE89FF89E58CF68CCE010E94B517800F2E
:1044D000912F911D8E159F053CF483E08D8BE88113
:1044E000F9813296E491EE87CE010E94222283FF69
:1044F0002DC06D89CE010E94E41F882319F0CE01E2
:104500000E9493198D89823071F468857985615094
:1045100071094FEB50E0CE010E94E118811103C0F8
:10452000CE010E9493198D89833081F4CE010E94BF
:104530002418BC016F5F7F4F4FEB50E0CE010E940B
:10454000E118811103C0CE010E949319CE01DF91C1
:10455000CF911F910F91FF90EF900C945D20CE01B1
:104560000E94222280FF0CC08D89823061F562E0BA
:10457000CE010E94E41F882301F183E08D8B1E860B
:10458000CE010E94222281FFE1CF8D89823091F5F8
:104590000A851B85CE010E94A617A801480F511D50
:1045A0006885798561507109CE010E94E1188111F9
:1045B0001BC083E08D8B1E86C9CFE881F9813296BE
:1045C000E491E195EE878D898330D1F663E0CE01E9
:1045D0000E94E41F882311F082E0D0CFE881F981A6
:1045E0003296E491EE87CCCFE881F9813296E4915E
:1045F000E195EE878D89833009F0A8CF0A851B8568
:10460000CE010E94A617080F111DCE010E9424188A
:10461000BC016F5F7F4FA801CE010E94E11881119C
:1046200002C082E0C7CFE881F9813296E491EE873B
:104630008DCFEF92FF920F931F93CF93DF93EC01F7
:10464000F90181E08F833CE03E9DC0013F9D900DCC
:104650001124309FD001319FB00D112479836883DC
:104660005B834A83FD83EC83B987A8879B878A870E
:104670009D878C871E861F8623E02D8B1E821B8ABA
:10468000FB0164916530C1F130F4643031F1019780
:104690009B878A8726C06D3069F16E30C1F7169608
:1046A000B987A88704979B878A878E899F898A5DA7
:1046B0009C4F0E94321825E030E040E050E00E941C
:1046C0005C3762506E878E899F898A5D9C4F0E94FD
:1046D0003218637061956F8715C08CEF8E8782E00A
:1046E0008F87CE01DF91CF911F910F91FF90EF90B7
:1046F0000C943D228FE7F4CF1696B987A8870497CC
:104700009B878A878E899F898A5D9C4F0E94321879
:104710002CE030E040E050E00E945C37862F880FAC
:10472000880F680F645C6E83DCCF4F925F926F924C
:104730007F928F929F92AF92BF92CF92DF92EF9231
:10474000FF920F931F93CF93DF93CDB7DEB7A89758
:104750000FB6F894DEBF0FBECDBF5C016C2C2C01F0
:10476000CE0101964C01F0E0E0E07E2ED201D7961A
:104770008C91811133C0F12C8BE18E9F60018F9F52
:10478000D00C1124C601C0968A0D9B1D0E941923CE
:10479000BFEF6B1659F0AC0CBD1CF501E05CFF4F90
:1047A0008CE0689E60011124D182C082872DA8967A
:1047B0000FB6F894DEBF0FBECDBFDF91CF911F9132
:1047C0000F91FF90EF90DF90CF90BF90AF909F90B0
:1047D0008F907F906F905F904F900895D5015D9678
:1047E0008D919C91D201D896CD90DC908C199D0929
:1047F00097FD3CC0D4018D939C933196BBE14B0E49
:10480000511C82E0880E911CE431F10509F0ADCF16
:104810009981FE01339681E0712CA191B1919A1793
:104820001B0614F49A2F782E8F5F8431B1F7872CF2
:10483000912CF12C8BE1D82EC5017D9C800D911D12
:104840001124C0960E9419239FEF691609F4AECF78
:10485000D89CF001D99CF00D1124EA0DFB1DE05C01
:10486000FF4FACE06A9E600111249ECF9195819527
:104870009109C0CF2F923F924F925F926F927F9299
:104880008F929F92AF92BF92CF92DF92EF92FF9260
:104890000F931F93CF93DF9300D000D000D0CDB7FC
:1048A000DEB7D82EE091C703F091C8036185728509
:1048B000482F50E09F012A5D3C4F3E832D839B0192
:1048C000240F351F23703327E20FF31F2281269F09
:1048D000C001279F900D1124840F951FB0E0A0E028
:1048E000ED81FE8180839183A283B3838D2D63E06C
:1048F0000E948D37F8E19F9FC00111249C0125582B
:104900003E4F3B832A8390E080E0FC01EE0FFF1FC7
:10491000E25BFD4F2A813B81E20FF31F118210827F
:1049200001968C30910589F78D819E810E94321805
:1049300023E030E040E050E00E945C37635F6D832D
:104940003CE0D39E40011124D11009C0862F815034
:10495000990BAC0161E070E08CE00E947F18312C73
:10496000412C1982512C1C82212CFF24FA94B12C49
:10497000A12C9FEFF91232C0211056C0EC81E11139
:1049800012C2C5010397069708F051C080919A049E
:10499000D81608F04CC08091C7039091C8038A5D77
:1049A0009C4F0E94321827E030E040E050E00E9427
:1049B0005C37672B682B692BD1F58091C7039091E9
:1049C000C8038A5D9C4F0E94321825E030E040E029
:1049D00050E00E945C37462E3D80F12C24E0429E40
:1049E000F0011124E45EFE4FEF0DF11D808188235C
:1049F000D9F0F32DF81B8F2FF131B0F4F501EE0F44
:104A0000FF1FE25BFD4F2A813B81E20FF31F21E094
:104A100030E002C0220F331F8A95E2F78081918136
:104A2000822B932B918380833C813111BCC1ED811A
:104A30008E2F90E0F501EE0FFF1FE25BFD4F2A8104
:104A40003B81E20FF31F2081318141E050E0082ECD
:104A500002C0440F551F0A94E2F7242B352B019610
:104A60008031910591F731832083DD2009F4D0C195
:104A700080919A04D81608F0CBC13FEFF312D0C052
:104A80008091C7039091C8038A5D9C4F0E943218A1
:104A90002AE030E040E050E00E945C372091C703FC
:104AA0003091C803672B682B692B09F0A4C0C9019A
:104AB0008A5D9C4F0E94321823E030E040E050E0D5
:104AC0000E945C376E5F6C83512C643009F4ACC07B
:104AD00080919C04881519040CF000C17D807A94A3
:104AE0007A948FEF8F0D823080F524E0429EF001A2
:104AF0001124E45EFE4FEF0DF11D808177247A943E
:104B0000730C781A8091C7039091C8038A5D9C4FFB
:104B10000E94321825E030E040E050E00E945C370F
:104B20008091C7039091C803613009F087C0CC24FD
:104B3000CA94E72C84010A0D1B1D2FEC34E24FEFC1
:104B400054E261E375E20E9495238091C70390913E
:104B5000C8038A5D9C4F0E94321823E030E040E099
:104B600050E00E945C37672B682B692B09F0B6C0B8
:104B70008091C7039091C803FC012185328518E21A
:104B80002430310528F01EE12730310508F413E206
:104B90008A5D9C4F0E943218212F30E050E040E0A7
:104BA0000E945C376E3171058105910508F096C051
:104BB00063527A4DFB010C94C137342634263426D7
:104BC0003426342634263426342634263426472602
:104BD0004726472647264726472654265426542646
:104BE0006426642664266426642664266426B42625
:104BF000B426C126C126C9018A5D9C4F0E94321885
:104C000025E030E040E050E00E945C37672B682BE5
:104C1000692B41F48D818F3061F08F5F8D83512C32
:104C20001C8256CF5394FCCF91E09983E4E0EC834F
:104C30004FCF512C1C82FEE0FD834ACF8A5D9C4FF2
:104C40000E9432186370772788279927672B682B73
:104C5000692B09F07ACF472D50E0B4016A0D7B1D16
:104C60008EE00E947F1871CFCC24CA94E72C840177
:104C70000A0D1B1D2FEC34E24FEF54E261E375E2A5
:104C80008091C7039091C8030E94952327C0CC242C
:104C9000CA94E72C84010A0D1B1D27E634E247E97C
:104CA00054E269EC74E2ECCFF6E0FD15B8F4CC24E4
:104CB000CA94E72C84010A0D1B1D2FE234E247E45D
:104CC00054E261E674E2DCCF2D812150330BA9015F
:104CD000B4016A0D7B1D8EE00E947F18FFEFFF1666
:104CE00031F0F39424E0F21202C0FF24FA943FEF73
:104CF000A31AB30A8CE0A816B10409F03ACE809149
:104D00009A04D81211C0ED81E150FF0BAF01B4013C
:104D1000675F7F4FE091C703F091C803818580FFF3
:104D200079C08AE00E947F1880919C04881519043C
:104D300014F480929C0426960FB6F894DEBF0FBE42
:104D4000CDBFDF91CF911F910F91FF90EF90DF903A
:104D5000CF90BF90AF909F908F907F906F905F901B
:104D60004F903F902F90089531E0351508F0B6CF61
:104D70008D818150990BAC01B4016A0D7B1D8FE0D0
:104D8000ABCF98E09D1508F0A9CFCC24CA9492E04F
:104D9000E92E84010A0D1B1D27EE33E247E054E2A1
:104DA00069E274E26DCFEC81E150EC83212CE111DA
:104DB00002C0298019828091C7039091C8038A5D3F
:104DC0009C4F0E94321825E030E040E050E00E9405
:104DD0005C37672B682B692B09F080CF6090C70385
:104DE0007090C803C3018A5D9C4F0E9432186370A3
:104DF000CD80C394C61A80E1E82E8501080D191DE7
:104E00002FE733E24FEA53E261EE73E2C3013CCF96
:104E10001C8264CF8BE086CF20919A0430E02F5F14
:104E20003F4F90E9929FA001939F500D112441584C
:104E3000510920919B0430E02F5F3F4F80EC829F0F
:104E4000B001839F700D1124615471098091990400
:104E5000E82FF0E0899FC001112420919801309142
:104E60009901205431093093870120938601A09144
:104E70009A01B0919B0119976A177B076CF1B09367
:104E80008901A09388014217530724F450938701A6
:104E900040938601209186013091870128173907B8
:104EA00024F49093870180938601A091C703B09169
:104EB000C8035D968D919C9160E970E00E94AD37CA
:104EC000CB01019797FD0DC0E817F90754F48093C3
:104ED00099048E5F0C943A24709389016093880141
:104EE000D2CF08958DE693E20E9414171092980491
:104EF0001092990410929C04E1E1F4E08FEF9FEF8F
:104F00009183808393838283399624E0E839F20782
:104F1000B9F7A091C703B091C803FD01F0969D01B8
:104F2000245B3D4F8FEF9FEF1782158A118210820D
:104F30009187808793878287168617861682138AC1
:104F40007B962E173F0781F719962D913C911A9762
:104F5000CD018A5D9C4FA90143705527A40FB51F51
:104F600012966C91629FA001639F500D112470E016
:104F700060E0FC0140835183628373830E94321896
:104F8000E091C703F091C8032185328550E040E0ED
:104F90000E945C37645F60939A0480E00E943A2428
:104FA00081E00E943A2482E00E943A2480918401A8
:104FB00080FD38C088E590E027E633E23093910128
:104FC0002093900125E333E23093930120939201E3
:104FD00025E033E2309395012093940128E130E0FD
:104FE000309399012093980190939B0180939A01AB
:104FF00090939D0180939C0110929E0110929F01BD
:1050000083E08093A501109296011092A30180E99C
:1050100091E00E94A119882339F080E991E00E9473
:105020005D20F5CF80E0C7CF0E940C2786E08093FB
:105030007B018CE180937C010895CF93DF9320E086
:105040004AE355E16CE070E084E090E00E94751561
:1050500020E04AE355E16CE070E089E690E00E94D0
:10506000751520E04AE355E16BE170E086EF9FEFB4
:105070000E94751520E04AE355E16BE170E087E797
:1050800090E00E94751520E04AE355E169E270E086
:1050900084E090E00E94751520E04AE355E169E262
:1050A00070E089E690E00E947515CFE6D1E02B8193
:1050B0003C812F7033272695269548E055E16BE11A
:1050C00070E08BE090E00E9475152B813C812F7081
:1050D00033272695269548E055E16BE170E08FE691
:1050E00090E0DF91CF910C947515CF93809175016D
:1050F000809590917401892319F082E080937A0160
:1051000020E042E054E161E170E080E290E00E9442
:105110007515809172019091730160E370E00E94B7
:105120009937883170F4C1E18C3008F0CEE120E08D
:105130004BEF53E169E170E08BE590E00E9475155B
:1051400004C0CFE1843208F0C0E28C2F90E020E16F
:1051500034E341E081FD44E080FD440F82FD42954F
:10516000887F289FD0011124A30FAB58BA4F8C9190
:10517000842B8C93C0FD0AC020E047EF53E16CE123
:1051800070E08DE290E0CF910C947515CF91089569
:105190000F931F93CF93DF9320E046E753E161E045
:1051A00070E081E090E00E94551520E04DE653E16B
:1051B00066E370E081E090E00E94551520E044E64F
:1051C00053E161E070E088E790E00E94551520E02F
:1051D0004BE553E166E370E088E790E00E945515E7
:1051E0004DE761E070E081E090E00E94D6124DE76B
:1051F0006DE370E081E090E00E94D6124AE76FE331
:1052000070E083E090E00E94D612D0E0C0E010E0B1
:105210000AE03091320120913101822F90E0D317C2
:1052200008F041C0880F991FFC01E25FFE4F01901A
:10523000F081E02DED0FF11D2491203249F030F086
:105240002E3741F41F5FC0E0DF5FE3CFC20FFCCF1A
:10525000CC5FFACF2A3340F42033F8F4213209F13D
:105260002E32E9F02FEF09C02134E0F32B3598F00E
:105270008FE9820F27548A31A8F7109FB0011124BB
:10528000635F7F4F8C2F90E043E850E106960E94C9
:105290005515CB5FD9CF2154F0CF2C5FEECF2FE344
:1052A000ECCF2EE3EACF855F9E4FFC01908139174A
:1052B00038F48091720180FF03C03F5F3093320168
:1052C0008091750180953091740183238C7089F1F0
:1052D0008091330130913201931315C0811115C0B3
:1052E0002F5F209331011092320180913101833080
:1052F00001F5C0E080914E01C817B0F48C2F0E94D8
:105300005C16CF5FF7CF882319F02F5F2093310110
:1053100081E080933301E0913101F0E0E55FFE4FE1
:10532000808180933201E1CF1092700586E08093F6
:105330007A01DF91CF911F910F9108954F925F9263
:105340006F927F928F929F92AF92BF92CF92DF9295
:10535000EF92FF920F931F93CF93DF93CDB7DEB7FA
:105360002C970FB6F894DEBF0FBECDBF20919B04E3
:10537000E0919D04F0919E049581F680F094F922CD
:1053800080917B01813009F071C03091A704311107
:105390006DC0F3FE59C09091A60498279093A6047F
:1053A0009091A6049111AAC130E02F5F3F4F90EC7D
:1053B000929F6001939FD00C112491E0C91AD108EB
:1053C0001092A704843008F054C0823008F064C002
:1053D000813009F484C001E114E07CE0E72EAA24C6
:1053E000AA94BA2C88248394AF2DA870FA2EFAE0E0
:1053F0007F2EA2E06A2EB5E09B2E84E0582EF801A5
:105400008081918197FDADC080E991E00E94C31732
:1054100029833A834B835C836D837E83D8018D918E
:105420009C911197E89E9001E99E300D11241496ED
:105430008C918A3038F08C3008F463C094E18F305E
:1054400009F463C09CE061C093FF10C09091A50473
:105450009F5F913218F49093A504A2CF1092A504F7
:1054600092E090937A011092A6049ACF1092A5042C
:1054700097CF8430E9F1863009F0ADCF80917C017F
:10548000882309F4A8CF815080937C018111A3CF98
:1054900081E080937B019FCF80917C0120919A01D4
:1054A00030919B01813030F0803370F02150310910
:1054B000833360F020919A0130919B01C216D3068C
:1054C00054F410927C0187CF2E5F3F4F30939B01A5
:1054D00020939A01EFCF815080937C017CCF0E9472
:1054E000A71980E991E00E945D200E940C2773CFEC
:1054F0000E94A71980E991E00E945D200E940C277C
:10550000BDCF225031099CE06CE049815A81640F83
:10551000752F711D2617370724F5290F311D4217E6
:105520005307FCF4F80142815381E49E9001E59E0B
:10553000300D11244B815C816E81640F752F711DBC
:105540002617370774F4245F3F4F421753074CF474
:105550008E3009F406C108F0E8C08A50823008F4A1
:10556000FBC0075F1F4FB4E008391B0709F047CFA6
:1055700080E991E00E94A119F82E882331F0F09083
:105580009F01F094FF1CFF24FF1C0BEA11E088240C
:105590008A94982C92E0792E22E3A22E34E0632E96
:1055A00045E1E42E5DEF552E68EF462EF801838924
:1055B000882379F08150838B81110BC0178211826F
:1055C0001082158A91868086938682861686178633
:1055D0001682D80117968C911797882309F47CC0FE
:1055E000ED91FC91E491E53019F0ED3009F0CBC07C
:1055F000C8010E945D2080917B018250833008F4B5
:105600006BC0F8018781882309F466C080E991E0C6
:105610000E94C3172F83388749875A876B877C87F7
:10562000C8010E94C31729833A834B835C836D832F
:105630007E834F81588589819A812B85240F352F50
:10564000311D821793070CF047C0860F911D481734
:1056500059070CF041C049855A858B819C812C8566
:10566000240F352F311D82179307B4F5870F911D35
:10567000481759078CF5D801ED91FC91B490B5E02D
:10568000BB1609F49AC0EEE0BE1609F4AFC0D8010B
:1056900017968C91882301F1FF2009F4E8C0BDE042
:1056A000BB12C8C080918101882319F0815080937A
:1056B0008101809181018111B4C080917C018111AF
:1056C0000BC070927B01A0927C0185EB92E20E945C
:1056D0001417F8011782E38A055E1F4FB3E0073CF9
:1056E0001B0709F063CF90917B01943008F0D1C083
:1056F000923008F01CC1913009F4FDC02C960FB611
:10570000F894DEBF0FBECDBFDF91CF911F910F91F7
:10571000FF90EF90DF90CF90BF90AF909F908F90D1
:105720007F906F905F904F9008958F3009F019CF60
:105730008092A704FF2009F414CF70927A0110938D
:105740008B0100938A0160928C0180938D0190926D
:105750008E0150928F0105CF90927B0110927C01B7
:1057600000CFB182A082B382A28280918201909107
:105770008301449690938301809382018DEE92E29F
:105780000E941417EECEF80182859385C816D906BB
:1057900014F41782E38AC8010E943D22D8011A96A8
:1057A0008D919C911B97C816D9060CF024CF1796A3
:1057B0001C9217975396EC921ECFD80117961C9205
:1057C00017975396EC9280918201909183018C59A6
:1057D0009F4F909383018093820180918101833058
:1057E00008F055CF8F5F8093810151CFF801178268
:1057F000138A11821082158A91868086938682860A
:1058000016861786168280918201909183014496B4
:1058100090938301809382018DEE92E20E9414178F
:1058200036CF60927B01A0927C0185EB92E20E94D0
:10583000141752CFD80117961C9217975396EC92D3
:10584000809182019091830144969093830180938B
:10585000820187EA92E20E9414170E94C81582FF13
:1058600003C040929F0138CF50929F0135CF809165
:105870007C01811131CF80918101882319F0815001
:1058800080938101809181018111CBCF70927B0146
:10589000CACF953009F032CF10927C01209184015B
:1058A000309185012F5F3F4F309385012093840114
:1058B00080919801909199016CE070E00E94AD3761
:1058C0008091820190918301680F791F6250710964
:1058D00070938301609382018AE090E09093990134
:1058E0008093980180E020FF88E590E090939B01F1
:1058F00080939A0155C080919A0190919B01C8169E
:10590000D90664F41092810182E080937B0185EBDB
:1059100092E20E9414178FE280937C0180917C01B7
:10592000882309F4EBCE815080937C01E7CE8091EF
:105930007C018111E3CE20918101222309F448C02A
:105940009091840190FF88E590E027E633E2309360
:1059500091012093900125E333E23093930120934A
:10596000920125E033E2309395012093940128E1E0
:1059700030E0309399012093980190939B0180939C
:105980009A0190939D0180939C0110929E01109228
:105990009F0183E08093A501109296011092A301CC
:1059A0002C960FB6F894DEBF0FBECDBFDF91CF911E
:1059B0001F910F91FF90EF90DF90CF90BF90AF902D
:1059C0009F908F907F906F905F904F900C94722774
:1059D000923019F483E080937B01E0919D04F09173
:1059E0009E0486818095958189238C7009F486CEEA
:1059F0008BE080937A0110927B0180CE0F931F93EE
:105A0000CF93DF938C01EB010E9427378883C80175
:105A100001960E9427378983CE01DF91CF911F9194
:105A20000F910895FF920F931F93CF93DF93EC0193
:105A3000F62E08811981C8010E942737F81621F037
:105A40006F2DC8010E942F37CE01DF91CF911F919A
:105A50000F91FF900895CF93DF9300D0CDB7DEB7BD
:105A60009A838983CE0101960E94122D0F900F9088
:105A7000DF91CF910895EF920F931F93CF93DF9310
:105A8000C0917501C09580917401C82320E040EC5D
:105A900055E164E070E088E190E00E94751520E037
:105AA00048EB55E170E060E083E290E00E9455151C
:105AB00020E048EB55E170E060E08AE590E00E946C
:105AC00055150E941D28D0913D0181E490E0D1112F
:105AD00002C083E290E020E04AE955E16BE370E028
