:100000000C949D120C94C5120C94C5120C94C5123C
:100010000C94C5120C94C5120C94C5120C94C51204
:100020000C94C5120C94C5120C94C5120C94C512F4
:100030000C94C5120C94C5120C94C5120C94C512E4
:100040000C94C5120C94A8310C94C5120C94C512D2
:100050000C94C5120C94C5120C94C5120C94FE306D
:100060000C94C5120C94C5120C94C5120C94C512B4
:100070000C94C5120C94C5120C94C5120C94C512A4
:100080000C9448310C94C5120C94C5120C94C512F2
:100090000C94C5120C94C5120C94C5120C94C51284
:1000A0000C94C5120C94C5120C94C5120A596F75A4
:1000B000722063686F696365206F662072756E6574
:1000C000737E0777696C6C2073656C65637420645C
:1000D0006966666572656E747E0C636F75727365B2
:1000E00073202E2E20736F6D65206172657E0D6505
:1000F0006173696572207468616E206F74686572DF
:10010000732107436F6D7065746520696E20746894
:100110006520747269616C737E06746F2073656507
:1001200020686F772066617220796F752063616E39
:100130007E0B67657420616E6420796F7520636F34
:10014000756C642062657E197468617420636861EF
:100150006D70696F6E210345616368207965617216
:10016000207468652070656F706C65206F667E74A2
:1001700068652076696C6C6167652063686F6F7372
:10018000652061206E65777E0C6368616D70696FB4
:100190006E20746F2070726F746563747E0F746864
:1001A000656D2066726F6D2041737461726F6B2E86
:1001B0000E0D00E010FC02297D69B901827C8000EF
:1001C00002050814001F07070700011C0700008034
:1001D0007C8201B9697D2902FC10E00000071C0146
:1001E000000707071F00140805020E0D00F0087C29
:1001F00002297D69B90142BC00000102041A001FF6
:1002000007071F0003180F000000BC4201B9697DF9
:1002100029027C08F000000F1803001F07071F00C9
:100220001A0402010E0D8078043C02297D69B9018F
:10023000C23C00000001021D000707071F00061155
:100240001E0000003CC201B9697D29023C0478808F
:10025000001E1106001F070707001D0201000E0DFA
:1002600000F0087C02297D69B90142BC000001024E
:10027000041A001F07071F0003180F000000BC42EC
:1002800001B9697D29027C08F000000F1803001FE6
:1002900007071F001A04020100E0F0FCFEFFFFFF49
:1002A000FFFFFEFC800002070F1F1F1F1F1F1F1FE5
:1002B0001F1F07000080FCFEFFFFFFFFFFFEFCF09A
:1002C000E00000071F1F1F1F1F1F1F1F1F0F070218
:1002D00000F0F8FCFEFFFFFFFFFFFEBC0000010383
:1002E000071F1F1F1F1F1F1F1F1F0F000000BCFE27
:1002F000FFFFFFFFFFFEFCF8F000000F1F1F1F1F96
:100300001F1F1F1F1F07030180F8FCFCFEFFFFFFDC
:10031000FFFFFE3C00000001031F1F1F1F1F1F1FC8
:100320001F1F1E0000003CFEFFFFFFFFFFFEFCFC46
:10033000F880001E1F1F1F1F1F1F1F1F1F0301000C
:1003400000F0F8FCFEFFFFFFFFFFFEBC0000010312
:10035000071F1F1F1F1F1F1F1F1F0F000000BCFEB6
:10036000FFFFFFFFFFFEFCF8F000000F1F1F1F1F25
:100370001F1F1F1F1F0703010E0D00E010F804527E
:10038000FAD272028478000002050814001E0606E4
:100390001F0006111E00000078840272D2FA520477
:1003A000F810E000001E1106001F06061E001408CB
:1003B00005020E0D00F0087C0452FAD2720204F815
:1003C00000000102041A001E06061F0003180F0099
:1003D0000000F8040272D2FA52047C08F000000F08
:1003E0001803001F06061E001A0402010E0D00F07D
:1003F000087C02297D69B90142BC00000102041A8F
:10040000001F07071F0003180F000000BC4201B9BE
:10041000697D29027C08F000000F1803001F070700
:100420001F001A04020100E0F0F8FCFEFEFEFEFED2
:10043000FC78000002070F1F1F1F1F1F1F1F1F1F19
:100440001E00000078FCFEFEFEFEFEFCF8F0E00060
:10045000001E1F1F1F1F1F1F1F1F1F0F070200F05F
:10046000F8FCFCFEFEFEFEFEFCF800000103071F88
:100470001F1F1F1F1F1F1F1F0F000000F8FCFEFE85
:10048000FEFEFEFCFCF8F000000F1F1F1F1F1F1FC9
:100490001F1F1F07030100F0F8FCFEFFFFFFFFFF17
:1004A000FEBC00000103071F1F1F1F1F1F1F1F1F70
:1004B0000F000000BCFEFFFFFFFFFFFEFCF8F00096
:1004C000000F1F1F1F1F1F1F1F1F1F0703010F0FDD
:1004D0000002000000000000000000000204000014
:1004E00008100000000000000000000020000205CD
:1004F00002000000000000000002050A04081428A1
:100500001000000000000000002050200F0F00002D
:10051000020600000000000000060A0C00000C1497
:10052000180000000000001028100000000205095B
:10053000060000000000060915120C0C122A2438CF
:10054000000000001028542810000F0F00000C12AB
:100550001A04000000040A12120C00000609110A15
:1005600004000000081422120C00000C92AD251AA1
:100570000400040A152D2D120C0609162E150A0466
:100580000008142A5D2D120C0F0F000080982424FF
:10059000120C00081422120C0000030408090600C3
:1005A0000C1221120C00010000805864DA5A2D123E
:1005B0000C942A5D2D920C03040B1716090E122DB4
:1005C0005E2D120D02010F0F00C02018240402023C
:1005D000020A040408F00000030408081420202084
:1005E00021120C020100C020D8E4DAFAFDFDFDF56D
:1005F000FAFAF408F003040B17172B5F5F5F5E2D08
:10060000130D02010F0F0000000080601010302059
:10061000C00000000000000000010202040402010A
:1006200000000000000000806090E8E8C8D020C012
:10063000000000000000010205050B0B050201008F
:1006400000000F0F000000000000C02020C00000CC
:100650000000000000000000000001010000000098
:1006600000000000000000C020D0D020C00000002A
:100670000000000000000001020201000000000074
:10068000020702000000000000000002070E04083C
:100690001C38100000000000000000207020000244
:1006A000070F060000000000070F1F1E1C0E1E3E55
:1006B0003C380000000010387C381000000C9EBF51
:1006C0003F1E0400040E1F3F3F1E0C060F1F3F1F5E
:1006D0000E0400081C3E7F3F1E0C0080D8FCFE7EEE
:1006E0003F1E0C9C3E7F3F9E0C03070F1F1F0F0EEB
:1006F0001E3F7F3F1E0D0301C0E0F8FCFEFEFFFF22
:10070000FFFFFEFEFCF8F003070F1F1F3F7F7F7FF8
:100710007F3F1F0F030100000080E0F0F8F8F8F0C1
:10072000E0C0000000000000010307070F0F0703EF
:10073000010000000000000000C0E0F0F0E0C00098
:1007400000000000000000000001030301000000A1
:1007500000000808FF81A58181A581FF0808FF81AD
:1007600085B5959D81FF0C0C7C8201110902020167
:100770000101827C0000010204080804020100005B
:1007800010100000C020109008081008049444388D
:100790000200001E214C565E4C212420100C030048
:1007A00000000C0CF804FACDBDCDFD7D7D3A04F8B7
:1007B00001020508090809080A050201F8043A7D42
:1007C0007DFDCDBDCDFA04F80102050A080908092E
:1007D000080502010C0C004C904CB69E9EB64C9045
:1007E0004C000000040300020200030400000C0C93
:1007F0000000C0986C5C6CBCD8C000000007090603
:1008000009010309060907000000C0D8BC6C5C6C34
:1008100098C000000007090609030109060907003E
:100820007CFEFFFFFFFEFEFFFFFFFE7C00000103DA
:10083000070F0F070301000000C0E0F0F8F8FCFC10
:10084000F8FCFEFEFE7E3F021E3F7FFFFFFFFF7FA4
:100850007F7F3F1F0F030000F8FCFEFFFFFFFFFF3D
:10086000FFFEFCF80103070F0F0F0F0F0F07030127
:10087000F8FCFEFFFFFFFFFFFFFEFCF80103070F80
:100880000F0F0F0F0F0703014CFEFCFEFFFFFFFFD2
:10089000FEFCFE4C000C0F0703070703070F0C00BC
:1008A00000C0F8FCFEFEFEFEFCF8C000070F0F0FB4
:1008B0000F0F0F0F0F0F0F0700C0F8FCFEFEFEFE1C
:1008C000FCF8C000070F0F0F0F0F0F0F0F0F0F07D0
:1008D000D5F08D14A1C881CFD9F1AF20000C0C0048
:1008E00000F0F8FCFCFCFCF8F00000000000010344
:1008F00003030301000000000000F0F8FCFCF8F026
:1009000000000000000000010303010000000000DF
:10091000000000F0FCFCF0000000000000000000FF
:1009200003030000000000000000F0F8FCFCF8F0F9
:100930000000000000000001030301000000000CA3
:100940000C0000F008F4B494F408F000000000007B
:10095000010202020201000000000000F008F4B4ED
:1009600008F0000000000000000102020100000089
:100970000000000000F0FC0CF0000000000000008F
:10098000000003030000000000000000F00894F4E1
:1009900008F0000000000000000102020100000059
:1009A000000E00000000007CFEFFFFFFFEFEFFFFC8
:1009B000FFFE7C00000103070F0F07030100000C7E
:1009C0000C7C820111090202010101827C000001FC
:1009D0000204080804020100000500010000009064
:1009E000320032903A003290440032904800328017
:1009F000F002020303FCFEFFFFFFFFFFFFFFFFFF0C
:100A0000FFFFFFFFFFFFFFFFFFFFFFFFFFFFFFFFF6
:100A1000FFFFFFFFFFFFFFFFFFFEFC03070F0F0FAE
:100A20000F0F0F0F0F0F0F0F0F0F0F0F0F0F0F0FD6
:100A30000F0F0F0F0F0F0F0F0F0F0F0F0F0F0F07CE
:100A400003260CFC02F905050D0505050D05050538
:100A50000D0505050D0D0D0D0505050D0505050D0E
:100A60000505050D0505F902FC0304090A0A0B0A30
:100A70000A0A0B0A0A0A0B0A0A0A0B0B0B0B0A0AD0
:100A80000A0B0A0A0A0B0A0A0A0B0A0A090403805B
:100A9000C0E0E0E0F0FCFEFFFEFCE0E0E0E0E0E0D3
:100AA000E0E0E0E0E0E0C0C0E0E0E0E0E0E0E0E086
:100AB000E0E0E0E0E0E0C0C0E0E0E0E0E0C08000D6
:100AC0000080C0E0E0E0E0E0E0E0E0E0E0E0C0C0C6
:100AD000E0E0E0E0E0C0E0E0E0E0E0C0E0E0E0E056
:100AE000E0E0E0E0C0C0E0E0E0E0E0E0E0E0C080C6
:100AF000000003070F0FFFFFFFFFFFFF7F0F07FF40
:100B0000FFFFFFFFFFFFFFFFFFFFFFFFFFFFFFFFF5
:100B1000FFFFFFFFFFFFFFFFFFFFFFFFFFFFFF07DD
:100B2000000000FFFFFFFFFFFFFF0FFFFFFFFFFFC2
:100B3000FFFFFFFFFFFFFFFFFFFFFFFFFFFFFFFFC5
:100B4000FFFFFFFFFFFF77FFFFFFFFFFFFFFFFFF3D
:100B5000FF7F3F0000000000FFFFFFFFFFFF0000DE
:100B60000001FFFFFFFFFF7FFFFFFFE3FFFFFFFF2E
:100B7000FF1F3F7FFFFFFFFF7F3F0F071F7FFFFF2D
:100B8000FFFCE08000037FFFFFFFFFFF80FFFFFF10
:100B9000FFFF3F070F1F3F7FFFFFFF7F3F1F0F0339
:100BA000070F1F3F7FFFFEF0E041FFFFFFFFFF7FCA
:100BB000FFFFFFE080000000000000FFFFFFFFFFDD
:100BC0000000000003070F070300000103017FFF7F
:100BD000FFFF7F0000000001010000000000000096
:100BE000000103070F1F0E0400030F7FFFFFFFFF2D
:100BF000FF7F0F0100000000000000010000000066
:100C000000000000000000000001000003070F07C3
:100C100003000001030100000000000000070F1F97
:100C20000F070000000000000000000000000000AE
:100C300000000100000000000000000000000000B3
:100C400000000000000000000000000000000001A3
:100C50000301000000000000000000000000000090
:100C60000000000000000000000000000000000084
:100C700000000000000000000062250080404040AD
:100C800040700C021C6040404040404040404040AA
:100C900040408000C0404040C04040404040404054
:100CA0004040808040404040408000000000804044
:100CB00040404040404040404040808040404040B4
:100CC00040804040404040804040404040404040A4
:100CD0008080404040404040404080000000000391
:100CE000040404FC0000807C04040201FF000000F6
:100CF000FC241880403FFF000000FF0300B02C22BE
:100D00002CB000000FFC030000F8070000000000FA
:100D1000FF000000FC040404FC000000FFFE0100D2
:100D200000F00E010EF0000003FF8000001CD45400
:100D300054542300FF000000FC3C0080403F0000B2
:100D40000000000000FF0000FF000000000001FEA6
:100D500000FE0718609F608003FC00F8070C102756
:100D600059A1B14F30080701061860831C6080004C
:100D70000000037C80007F8000807F00C03C030077
:100D80000608102344884423100C030001060810B1
:100D9000234C50A0400001FE00FE0718609F6080B9
:100DA0000000000000000000FF00FF000000000045
:100DB00000030403000000000100007F807F0000AA
:100DC0000000000000000000000000000000010220
:100DD000050A04000000030C708F708F700E010074
:100DE0000000000000000000000000000000000003
:100DF00000000000000000000003040300000000E9
:100E000001000000000000000000070807000000CB
:100E100000000000000000000000000000000000D2
:100E200000000000000000000000000000000000C2
:100E300000000000000000000000000001000000B1
:100E400000000000000000000000000000000000A2
:100E50000000000000000000000000000000000092
:100E600000000000009034011B9140008D81008D36
:100E70009142008D81008D9140008D81008D9143C4
:100E8000008D81008D9142008D81008D9140008DFB
:100E900081008D9142008D8081008D9032011B91E7
:100EA00040008D81008D9142008D81008D91400028
:100EB0008D81008D9143008D81008D9142008D8147
:100EC000008D9140008D81008D9142008D81008DBB
:100ED000913080011B9040008D80008D9042008DEC
:100EE00080008D9040008D80008D9043008D8000AB
:100EF0008D9042008D80008D9040008D80008D90FF
:100F000042008D80008D903281011B9140008D81C7
:100F1000008D9142008D81008D9140008D81008D6A
:100F20009147008D81008D9145008D81008D914309
:100F3000008D81008D9142008D81008D80E0140B29
:100F4000070387C3E244A347A347A703070387C355
:100F5000E244A34705020401000402050205020061
:100F600005020401000402051A2400000000FEFC32
:100F7000DC2C36F616EE767AFA7A7AF2E60E16F669
:100F8000362CDCFC00181810939716D595D694C310
:100F90008FC68DC78EC391D090D191D596D70000C2
:100FA0000000FFFF00FF6262626A62626A62626A58
:100FB000E2622AA2A2AAA26200000000FFFF00FFD4
:100FC000FFFFE363636341E3F7FF01FC03000000FD
:100FD0000000000000000F0F000F0F0708050F05AD
:100FE0000304030F000F00000000000004081E3F70
:100FF000211E223E3F203229253212253F1A0C2A7B
:101000003F2C17253D181E3F251823393D231A254F
:101010002D1A062F291E0305110005330B0301FFAE
:101020000103FE0101FE01FF21211E00000002015B
:101030002121DE0000000301FF010301FF2121DE69
:101040000001FF0100FE2121FE00FF00001E31C74C
:101050000004070400030404030407040000000064
:101060000002040404030000000004070400040755
:101070000400030404070400070000070007040439
:1010800006040304083E09093E3F25251A1E2121B6
:10109000123F21211E3F2525213F0505011E212943
:1010A0003A3F04043F213F21001021211F3F040A41
:1010B000313F2020203F02023F3F02043F1E2121FA
:1010C0001E3F0909061E21112E3F0909362225253A
:1010D00019013F01011F20201F0F10201F3F10107A
:1010E0003F3B04043B03043807312D2321102A2AF7
:1010F0003C3F2424181C2222141824243F1C2A2A92
:101100002C047E05014C52523E3F040438243D20FD
:10111000004040443D3F081422213F20003E04048B
:101120003E3E04023C1C22221C7E22221C1C222247
:101130007E3E040204242A2A12021F22201E20209E
:101140001E0E10201E3E10103E360808364E50501F
:101150003E322A26221E29251E223F20003229291E
:10116000261221251A0C0A3F08172525191E2525A8
:1011700018013905031A25251A0629291E002F00F2
:101180000000200000000000009032001480F007F2
:10119000030103070305020107030406070605020E
:1011A000040508EDF6C9F6EDFDFDC0EFEFFCFBC050
:1011B000FBFCFDC1FEC1FDF7EFC0FDFBFDFBC4FB69
:1011C000FD0C0EFC02F9FDFDFDFDFDF90102FC0F19
:1011D00010272F2F2F2F2F2720100F00FC02F90D83
:1011E0002DFDF90102FC00000F10272E2C2F2720C7
:1011F000100F000000FC02F90DF90102FC000000D4
:10120000000F10272C2720100F0000000000FC0208
:10121000F90102FC0000000000000F102720100F51
:1012200000000000000000FE0101FE0000000000C0
:101230000000001F20201F00000000000000FC0232
:1012400001F902FC0000000000000F102027100F21
:101250000000000000FC0201F9FDF902FC000000A2
:10126000000F1020272F27100F000000FC0201F9AB
:10127000FDFDFDF902FC00000F1020272F2F2F2766
:10128000100F00FC0201F9FDFDFDFDFDF902FC0F50
:101290001020272F2F2F2F2F27100FFC02F9FDFDD5
:1012A000FDFDFDFDF902FC0F10272F2F2F2F2F2FF3
:1012B00027100F00FC02F9FDFDFDF90102FC000002
:1012C0000F10272F2F2F2720100F000000FC02F9EE
:1012D000FDF90102FC000000000F10272F2720104D
:1012E0000F0000000000FC02F90102FC00000000F9
:1012F00000000F102720100F00000000000000FE6B
:101300000101FE00000000000000001F20201F005F
:10131000000000000000FC0201F902FC00000000D7
:1013200000000F102027100F0000000000FC020139
:10133000F90DF902FC000000000F1020272C2710E7
:101340000F000000FC0201F9FD0D2DF902FC000068
:101350000F1020272F2E2C27100F000708A080B079
:1013600088AA80FF070805010D115501FF0708FF36
:1013700080AA88B080A00708FF0155110D01053B28
:101380000B01FF21710301FF06186081FF010301BA
:10139000FF010301FF21710301FF2121DE00000095
:1013A000000001FF2121DE01FF0000FF01FF061800
:1013B0006081FF01FF2171030E1121C7040704049E
:1013C00007040700000005070400040704000407E1
:1013D00004040704070400030400000000040704D9
:1013E00000030403040403040700000005070407C6
:1013F000040406020404030208D4D205087F7F3ED9
:101400001C084120FE0105F1F1F111D1B1D111F11A
:10141000515151515151515151515151515100005E
:10142000FF00007F7F09090F06007F7F19396F4693
:10143000007F7F4949414100266F49497B320026A0
:101440006F49497B32FF0000FFFFFFFEFFFEFF02F6
:1014500079CD95A5CD790111111101F9F90101009D
:1014600000FF00007F7F09090F06007F7F4040409A
:1014700040007C7E0B0B7E7C00070F78780F070006
:10148000000000000000FF00001F3F3F33333333F4
:10149000333E36363E363E363E36363E36363E36BF
:1014A0000000FF00003E7F41417F3E007F7F0E1C19
:1014B0007F7F00000000000000000000000000002E
:1014C000000000000000003F40504040407846418E
:1014D000415959414141415959414141414141419C
:1014E0004100007F000001017F7F0101007C7E0B35
:1014F0000B7E7C007F7F09090F06007F7F494941F1
:101500004100000000000000060C4090BA9C904092
:1015100004000A0A00044098B8B5984004000A0A7A
:10152000000440909CBA904004000A0A00044098CD
:10153000B5B8984004000A0A0004120B001000100D
:101540001090100017001D1810101010101000003F
:101550000000000706040404040404000400000062
:10156000091000382844FE000000000000000000C0
:10157000000000007C7CFEFFFFFFFFFFFF0000007B
:1015800001010101010109100038387CFE0054926C
:10159000000000000000000000001C040102020224
:1015A0000202020202040200060D0F0600020402FB
:1015B0000202020202020201030C668833060803DB
:1015C0004F35000000000000000000000000000097
:1015D000000000000000000000008040A05028D45F
:1015E000EA723A9A9A1232F5E191E1F234129A9A39
:1015F0003A72EAD42850A0408000000000000000A9
:1016000000000000000000000000000000000000DA
:101610000000000000008040C08000000C04FC04BA
:101620000C04FC8484FC0404FC85C40C0100010D42
:1016300004FD040C05FC8485780104FC0500F88594
:1016400084F901FC010078C51C000000F80404F8CE
:101650000004FC84C40C00008040C0800000000036
:10166000008080808081838381808080909F9080B3
:10167000909F90909F90909F90919C808080809070
:101680009F9080909F90808F90909F90809F80806F
:101690009F809F909098908F8080808F90908F8077
:1016A000909F9081808080818383818080800001F1
:1016B0000000F8FC7C1C3CFCFCF80000008C1C1CAE
:1016C0001C1474E4E4C40004040CFCFCFC0C0404CE
:1016D0000000F4FC3C1C1C7CFCFCC40004FCFC1C56
:1016E0001C1CFCF8300000F8FC3C1C1C7CFCF800C6
:1016F0000004FCFCFC000084FCFC04000001000071
:1017000000FF0700181818FFFF000000031F3F63C9
:10171000C30207070100000000FFFF0F00000000E8
:10172000000F31C30303017F0F07000001FF000C0E
:101730003FF3000000001F3F40C040203F1F00005B
:1017400000FFFF7F187EFF03000000000000000084
:101750000007080000807F03000000000000000078
:101760000000000000000000000700000000000072
:101770000000000000000000000000000700000062
:101780000003000000000000000000000000000056
:10179000010F000000011F78C000000000000000E1
:1017A0000000000001000000000000121509000206
:1017B0000F12000C121E001E020600020F12000083
:1017C0000000000000000000121509000C121200B9
:1017D0001E121E001E0206000C1A140014120A002B
:1017E00000000000000000000100000C0C0000F0F0
:1017F00008F4B494F408F0000000000001020202B2
:101800000201000000000000F008F4B408F000003D
:1018100000000000000102020100000000000000C2
:1018200000F0FC0CF00000000000000000000303CA
:101830000000000000000000F00894F408F0000030
:10184000000000000001020201000000000C0C007A
:1018500000F0F8FCFCFCFCF8F000000000000103C4
:1018600003030301000000000000F0F8FCFCF8F0A6
:101870000000000000000001030301000000000060
:10188000000000F0FCFCF000000000000000000080
:1018900003030000000000000000F0F8FCFCF8F07A
:1018A0000000000000000001030301000000005ED2
:1018B000022402EA01B00140030803D0029802ECBE
:1018C00003B203780396045E04260440FCFEFEFE89
:1018D000FFFFFFFFFFFEBC00000000011F1F1F1FD6
:1018E0001F1F1F1F1F0F000000BCFEFFFFFFFFFF99
:1018F000FEFEFEFC40000F1F1F1F1F1F1F1F1F1F8C
:101900000100000E1040BC029E02193D35B9014293
:10191000BC00000000011E000F07071F0003180F86
:10192000000000BC4201B9353D19029E02BC4000D6
:101930000F1803001F07070F001E01000000000022
:1019400000240027002A002D0030000000000025A0
:101950000028002B002E00310004080201104080F6
:101960004010204080408008020401804020100286
:1019700001108010204040200404040404030405E6
:10198000020202020403020202020606060606061C
:101990000404020202040406011501260137014A6B
:1019A000015D01720188019F01B801D201EE010BB6
:1019B000022A024B026E029302BA02E40210033FB3
:1019C000037003A403DC03170455049704DD042704
:1019D000057505C80520067D06E0064907B8072DF0
:1019E00008A9082D09B9094D0AEA0A900B400CFA1A
:1019F0000CC00D910E6F0F5A1053115B1272139A97
:101A000014D41520178018F519801B231DDE1EB471
:101A100020A622B524E4263429A72B402E0031EA43
:101A2000330037453ABC3D68414C456B49C84D6869
:101A3000524F57805C006210111213151617181AB6
:101A40001C1D1F21232527292C2E3134373A3E41D6
:101A500045494E52575C62686E757B838B939CA59B
:101A6000AFB9C4D0DCE9F7041EFFFFFFFFFFFFFFA3
:101A7000FFFFFFFEFEFFFFFFFFFFFFFFFFFFFEFE7A
:101A8000FFFFFFFFFF7EFFFFFFFFFFFEFEFFFFFFE9
:101A9000FFFFFFFFFFFFFEFEFFFFFFFFFFFFFFFF58
:101AA000FFFF3E040000FFFFFFFFFFFFFFFFFF7F80
:101AB000FFFFFFFFFFFFFFFFFFFFFFFFFF7FFFFFB6
:101AC000FFFFF0FFFFFFFF7F1F1F3F3F1FDFFFFFF5
:101AD000FFFF7F3F7FFFFFFFFFFFFFFFFFFB702048
:101AE0000000001FFFFFFFFFFF03010000011FFFB9
:101AF000FFFFFFFFFFFFFFFFFF3F0000010307079E
:101B0000070301000000000002070F0703010000A7
:101B10000000030F3FFFFFFFFCE00000000000009B
:101B2000003F7FFF7F3F0000000000000001030135
:101B3000387FFF7F3F07000000000000000000002A
:101B40000000000000000000000000000000000095
:101B500000000003070F1F0F0400003D2000041ABF
:101B6000E2020202E222E2020204FC1A0202C222A1
:101B7000E2020202FCF40A0202C2320C7282020287
:101B80001AE4E41A0202C22222A2C2A21CFC02022D
:101B900002E222E20202C23A0400000000FF00005A
:101BA000FF40388740201CFF0000EC4B8448DF00DA
:101BB00000C33F1860801F6080700F80601C030F9F
:101BC00010100A09C93D8040300F077880000FC807
:101BD000874C4B502000000000001FE000FE020177
:101BE00000000000011EE01FE00000FF00C03F00F9
:101BF00000000001020202010000000000000002DB
:101C0000050201000000000000030C30C31CE000CE
:101C100000000000000000003F403F000000000006
:101C200000000000010000384738070000000000F5
:101C300000000000000000000000000000000000A4
:101C40000000000000000000000003040B0400007E
:101C50000004081E3F211E223E3F20322925321259
:101C6000253F1A0C2A3F2C17253D181E3F25182307
:101C7000393D231A252D1A062F291E0706060F1F88
:101C80003E1F0F0606091122110906031002FC006F
:101C900000FF00FFFFFE50A0408000000000000099
:101CA000000000000000000000000000000000FF35
:101CB000FFFFFDFEFDFEFDFEFCFCFCFCFCFCFCFC55
:101CC000FCFCFCFCFCFCFCFCFCFCFCFFFFFFFFFF45
:101CD000FFFFFFFFFFFFFFFFFFFFFFFFFFFFFFFF14
:101CE000FFFFFFFFFFFFFFFFFFFFFFFFFFFFFFFF04
:101CF000FFFFFFFFFFFFFFFFFFFFFFFFFFFFFFFFF4
:101D0000FFFFFF0F0F0F0F0F0F0F0F0F0F0F0F0F13
:101D10000F0F0F0F0F0F0F0F0F0F0F0F0F0F0F1CC6
:101D200024FE0000A0408000000000000000000031
:101D30000000000000000000000000000093D090B0
:101D4000DA1B9A991A1800C080C080C080C080C079
:101D5000800000000000C0C000EA6262FF00FFFFD8
:101D6000000000DDCCCCCCCCCCCCCCCCCC00C000AA
:101D70000000FFFF0001FF77FF00FFFF000000DD14
:101D8000CCCCCCCCCCCCCCCCCC00CC000000FFFF5D
:101D900000000F0F0F000F0F0000000D0C0C0C0CBB
:101DA0000C0C0C0C0C000C0000000F0F0042060481
:101DB00006C60588054A050C05CE0434071607F843
:101DC00006DA06BC069E06800680C0E0E0E0E0F091
:101DD000F8FCFEFEFEFFFFFFFFFEFEFEFEFEFCF82F
:101DE000E00F3F3F3F3F3F3F3F3F3F3F3F3F3F3F92
:101DF0003F3F3F3F1F1F0F0703180E8040A0A0A0CA
:101E0000A090A8948A8A8A058585854A6A3A1A0A22
:101E1000C418E00F300E30031714171310001E30D3
:101E20000000300E00321211080403C0F0F8FCFE6E
:101E3000FFFFFEFEFEFEFEFEFFFFFEFCF8F0C01FF1
:101E40007F7F7F7F7F7F7F7F7F7F7F7F7F7F7F7FA2
:101E50007F7F1F140FC030C8F41A656D6A6A2ACAE2
:101E6000F23A050532C40830C01F601D61072F29F2
:101E70002F2721013D600001611D00601F0C0C0037
:101E800000F008F4B494F408F0000000000001022F
:101E900002020201000000000000F008F4B408F0A3
:101EA000000000000000000102020100000000002C
:101EB000000000F0FC0CF00000000000000000003A
:101EC00003030000000000000000F00894F408F094
:101ED0000000000000000001020201000000000CF0
:101EE0000C0000F0F8FCFCFCFCF8F0000000000026
:101EF000010303030301000000000000F0F8FCFCF4
:101F0000F8F00000000000000001030301000000E1
:101F10000000000000F0FCFCF000000000000000E9
:101F2000000003030000000000000000F0F8FCFCCB
:101F3000F8F00000000000000001030301000000B1
:101F400000F0F8F8F8F8FEFFFFFEF8F8F8F8F8F8F7
:101F5000600707070707FFFFFFFF070707070703DC
:101F6000001010F0084848484E0D4F0E4848080829
:101F700098F8600704050405FD0DFDFC0504040444
:101F800007030000F0B0B0B0B0F2B0F0B0B0F0F0C5
:101F9000600000000302030202F2020302030303D3
:101FA0000000000D10FC02A9DDFDFDFD7D81810119
:101FB0000101FF00AFDFFFFFFFF004078000A0007A
:101FC0000000FFFFFEFEFEFFFFFFFFFFFFFFFFFF22
:101FD000FFFFFFFFFFFFFEFEFE3C3C3CFFFFFFFF5D
:101FE000FFFFFFFFFFFFFFFFFFFFFFFFFFFFFFFF01
:101FF000FFFFFF000000FFFFFFFFFFFFFFFFFFFFEE
:10200000FFFFFFFFFFFFFFFFFFFFFFFFFF000000DD
:10201000FFFFFFFFFFFFFFFFFFFFFFFFFFFFFFFFD0
:10202000FFFFFFFFFFFFFF0000000F0F0F0F0F0F5D
:102030000F0F0F0F0F0F0F0F0F0F0F0F0F0F0F0FB0
:102040000F1A2400000000FEFCDC2C36F616EE769B
:102050007AFA7A7AF2E60E16F6362CDCFC001818BC
:1020600010939716D595D694C38FC68DC78EC391FE
:10207000D090D191D596D700000000FFFF00FF62FD
:1020800062626A62626A62626AE2622AA2A2AAA2C8
:102090006200000000FFFF00FFFFFFE36363634196
:1020A000E3F7FF01FC030000000000000000000F48
:1020B0000F000F0F0708050F050304030F000F00A3
:1020C0000000000000EE07EE07D407A207800766B5
:1020D000075C0752075C070521A008A0088808587C
:1020E0000838082008ED20ED20ED20ED20FFFFFF4F
:1020F000FFFFFFFFFFFFFFFFFF0F0F0F0F0F0F0F80
:102100000F0F0F0F0F0C0C048E46A2428642A24600
:102110008E42840002070705060307050607021919
:10212000A6BE5E3EFE7E7E6E76EE010402020404D2
:1021300008050D050D0400FEFFFFFFFFFFFFFFFF79
:10214000FFFFFE0003070F0F07070F0F0703000C29
:102150000C007AB676B676BA7ABA7A360000000003
:10216000000000000000000000060C4090BA9C90A7
:102170004004000A0A00044098B8B5984004000AD8
:102180000A000440909CBA904004000A0A000440EF
:1021900098B5B8984004000A0A0004120B00100019
:1021A000101090100017001D1810101010101000C3
:1021B00000000000070604040404040400040000F6
:1021C00000030C6688330608034018AA00AA00AA78
:1021D00001AB07AF1FBF7FBF7FFFFFFF7FFF7FFF09
:1021E0007FBF1FBF1FAF07AB03AB07AF1FBF7FBFD3
:1021F0007FFFFFFFFFFFFFFFFFFF7FBF7FFF7FFF2F
:102200007FBF1FBF1FAF07AB01AA00AAFDAAFDAA8F
:10221000FDAAFDAAFDAAFDAAFDAAFDAAFDAAFDAA86
:10222000FDAAFDAAFDAAFDAAFDAAFDAAFDAAFDAA76
:10223000FDAAFDABFDABFDABFDAAFDAAFDAAFDAA63
:10224000FDAAFDAAFDAAFDAAFDAAFDFBFFFEFFFB5C
:10225000FFFEFFFBFFFEFFFBFFFEFFFBFFFEFFFBA2
:10226000FFFEFFFBFFFEFFFBFFFEFFFBFFFEFFFB92
:10227000FFFEFFFBFFFEFFFBFFFEFFFBFFFEFFFB82
:10228000FFFEFFFBFFFEFFFBFFFEFF0E0F0F07042D
:102290000400040200070F0F0E04040002040007EC
:1022A00007070303000200904E004690530046903B
:1022B00066004680F0906E003290680032906200B6
:1022C00032905C00329056003290500032904A00BA
:1022D0003290440032903E00320014903E003200B2
:1022E00014903E00320014903E003280F090440082
:1022F0003290490032904E00329053003280F0907C
:102300003C001480F000C0F8FCFEFEFEFEFCF8C0AD
:1023100000070F0F0F0F0F0F0F0F0F0F0700C0F861
:10232000FCFEFEFEFEFCF8C000070F0F0F0F0F0FA4
:102330000F0F0F0F070C0C0000C0986C5C6CBCD822
:10234000C00000000709060901030906090700008B
:1023500000C0D8BC6C5C6C98C0000000070906097E
:1023600003010906090700000000000000904E006C
:102370001E9053001E9058001E905D001E80F000BD
:1023800070FCFEFFFFFFFFFEFC70000000010B0170
:102390001703010B0100000080E0F4E0FAF0E0F424
:1023A000E0800000030F1F3F3F3F3F1F0F03000C63
:1023B0000E00708C02091D1D09028C7000000001C6
:1023C0000A011602010A01000000806014201A10A0
:1023D000201460800000030C10242E2E24100C0307
:1023E000000D000000000000C0E0F0F8F8FCFCF870
:1023F000FCFEFEFE7E3F021E3F7FFFFFFFFF7F7F52
:102400007F3F1F0F03000010100000C02010900835
:10241000081008049444380200001E214C565E4CFB
:10242000212420100C030000000401020000004CD5
:10243000FEFCFEFFFFFFFFFEFCFE4C000C0F07033F
:10244000070703070F0C000C0C004C904CB69E9E27
:10245000B64C904C0000000403000202000304008C
:10246000000200020F0F0FF8FCFEFFFFFFFFFFFF4F
:10247000FEFCF80103070F0F0F0F0F0F070301F802
:10248000FCFEFFFFFFFFFFFFFEFCF80103070F0F3D
:102490000F0F0F0F0703010C0CF804FACDBDCDFD93
:1024A0007D7D3A04F801020508090809080A0502B9
:1024B00001F8043A7D7DFDCDBDCDFA04F801020599
:1024C0000A080908090805020103000201050D00B8
:1024D000C0F8FCFEFEFEFEFCF8C000070F0F0F0F59
:1024E0000F0F0F0F0F0F0700C0F8FCFEFEFEFEFCE3
:1024F000F8C000070F0F0F0F0F0F0F0F0F0F070C74
:102500000C0000C0986C5C6CBCD8C00000000709CF
:102510000609010309060907000000C0D8BC6C5C6D
:102520006C98C000000007090609030109060907A5
:102530000001000103070700193211241FBECFEF6D
:10254000DAE0DEBFCDBF11E0A0E0B1E0E6E3FFE6F8
:1025500002C005900D92AA33B107D9F729E0AAE38A
:10256000B1E001C01D92AE38B207E1F712E1CDE94A
:10257000D2E104C02197FE010E948C37CC39D107EB
:10258000C9F70E94C6320C9499370C940000EEE80B
:10259000F5E0A0E0B8E000800EBC8111012C11979D
:1025A000A0FDFDCF0192B9F70DB408959C01480F2D
:1025B000592F511D4138510514F040E850E0421B9D
:1025C000CB018770992791E001C0990F8A95EAF7AE
:1025D000FB0183E0F595E7958A95E1F7F695FE2FE7
:1025E000EE27F795E795E20FF31FE257FA4F4150B8
:1025F00030F08191DF011197892B8C93F8CF0895EA
:10260000CF93C82F81E00E94C712C13041F4EEE899
:10261000F5E08FEF819399E0EE38F907D9F7CF9184
:102620000895A4E8B1E02FB7F8947D918D919C9125
:1026300066B52FBFA89B05C06F3F18F47F5F8F4F13
:102640009F4F22E0660F771F881F991F2A95D1F7A9
:1026500008956F927F928F929F92AF92BF92CF9286
:10266000DF92EF92FF920F931F93CF93DF934C0172
:10267000DB0158017C2D4115510509F4A0C0FA0178
:102680006491319684914E5F5F4FC62FD0E0211147
:1026900002C0EE2009F1E1E0F0E0982F977011F40C
:1026A000F0E0E0E0082F0695069506950E0F1F2F27
:1026B000111D0C9FF0010D9FF00D1C9FF00D1124BA
:1026C000733009F08BC0EE0FFF1F2E9F80012F9FEC
:1026D000100D1124400F511F84010C0F1D1F1016E7
:1026E00011060CF06CC0F0E88F1691040CF067C076
:1026F0009D01280F311D121613060CF060C0A03486
:10270000B1050CF05CC04115510509F458C03A2FD1
:102710003770FD01B7FD379693E0F595E7959A95EB
:10272000E1F72E2FB7FF04C0332311F02FEF2E0F48
:10273000EE27FF27E819F90997FC02C0F0E0E0E076
:1027400090E89819003811050CF4962F9E1BA22FC3
:10275000022E000CBB0B1A2F10952F3F0CF010E02F
:10276000DD24D394082F077009F4D12C8695869523
:102770008695D80EAD0DB11D19971CF0A8E0DA2E84
:10278000D21AD11A210F00E82003D0011124A80D7C
:10279000B91DAE0FBF1F619FE00DF11D11244E0F3B
:1027A0005F1FE32E032E000CFF08733009F424C1D1
:1027B00008F5713009F4D6C0723009F484C0DF9195
:1027C000CF911F910F91FF90EF90DF90CF90BF902E
:1027D000AF909F908F907F906F900895A114B10457
:1027E00009F473CFEE9E8001EF9E100D1124A00E10
:1027F000B11E6BCF7A3FB1F10D2D020F7B3FF9F681
:102800002017E9F2BD0162577A4FD12CC12CC916AD
:1028100008F0A2C0FA01EC0DFD1DE491F0E04F01BB
:102820000E2C02C0880C991C0A94E2F727FD06C002
:10283000FB018081182D109581238083332361F063
:10284000273054F45B01F0E8AF0EB11C192D109540
:10285000F501808181238083FFEFCF1ADF0A6F5F4C
:102860007F4FD5CF0D2D020F201709F4A8CFBD0142
:1028700062577A4FD12CC12CC91608F067C0FA01F3
:10288000EC0DFD1DE491F0E04F010E2C02C0880C10
:10289000991C0A94E2F727FD04C0FB018081882976
:1028A0008083332351F0273044F45B01F0E8AF0E0E
:1028B000B11CF501808189298083FFEFCF1ADF0ADF
:1028C0006F5F7F4FD9CF6FEF70E0032E02C0660FAE
:1028D000771F0A94E2F760957095972E8D2C820EE3
:1028E000281509F46CCF8D0102571A4FD12CC12C39
:1028F000C91630F5FA01EC0DFD1DE491F0E03F0141
:102900000E2C02C0660C771C0A94E2F727FD05C066
:10291000F8018081862386298083332359F027306C
:102920004CF45801F0E8AF0EB11CF501808189210B
:1029300087298083FFEFCF1ADF0A0F5F1F4FD8CFA1
:102940002F5F4C0F5D1FA058BF4FCACF2F5F4C0F9A
:102950005D1FA058BF4F88CF2F5F4C0F5D1FA05841
:10296000BF4F4ECF85010E0F1F1F8D2D820F2817D1
:1029700009F425CFBD0162577A4FD12CC12CC9165D
:1029800098F5F801EC0DFD1DA490B12C0E2C02C0A1
:10299000AA0CBB1C0A94E2F7A094B094FA01EC0DC7
:1029A000FD1D8490912C0E2C02C0880C991C0A9459
:1029B000E2F727FD08C0FB017080E72DEA217E2E9B
:1029C0007828FB017082332349F027303CF4FB0167
:1029D000E058FF4FA080BA20B928B082FFEFCF1A8D
:1029E000DF0A6F5F7F4FCBCF2F5F4C0F5D1F0C0F48
:1029F0001D1FA058BF4FBBCFE92EF12CE40FF51FD0
:102A0000A257BA4F60E870E06E197F09CE19DF094E
:102A1000AE01440F551FC1E0D0E07E01032E01C07E
:102A2000EE0C0A94EAF7192F0D2D892E932ECF93D1
:102A3000DF93ED01EF96EF962296A590C590992031
:102A400059F0AE9C5001CE9C600127302CF4F880E8
:102A5000D094FD20FB28F99222233AF0FC90C094F8
:102A6000FC20FA28FD920C94361511961A9529F738
:102A70000A9551F0182D23951124E40FF11DA60F8E
:102A8000B11DC60FD11DD9CFDF91CF91112497CEA3
:102A9000CF92EF920F931F933AEFC32EE12C10E0E9
:102AA00000E00E9429131F910F91EF90CF9008959D
:102AB000CF92EF920F931F933BEFC32EE12C10E0C8
:102AC00000E00E9429131F910F91EF90CF9008957D
:102AD000CF92EF920F931F9332E0C32EE12C10E0C0
:102AE00000E00E9429131F910F91EF90CF9008955D
:102AF000CF92EF920F931F93F901202FCC24C39410
:102B00008F010E9429131F910F91EF90CF9008958C
:102B1000BC0190E080E0AB01FC010E941113415028
:102B20005109E109F10928F068517C4F8F4F9F4FFF
:102B3000F6CFAB01FC010E941113641775078E07D5
:102B40009F07C8F308958FB18095807F669B88604A
:102B50001C9B8460089580917D01089510927D01F1
:102B60003E983F9808953E9A3F9A81E080937D0178
:102B700008950895CF92DF92EF92FF921F93CF9323
:102B8000DF93E82FF0E0E65EFE4F1081E62FF0E0E5
:102B9000603398F5E95CF54EE491CE2FD0E0F12C4E
:102BA000E12C60E074E284EF90E0A7019E010E94B6
:102BB0000837215031094109510991E021153105AA
:102BC00081E0480751056CF060E970ED83E090E02A
:102BD000A7019E010E94083721503109410951097E
:102BE00093E0113089F0133039F1DF91CF911F91CB
:102BF000FF90EF90DF90CF900895EE0FFF1FE95CFC
:102C0000F64EC591D491CBCF80917C018111EDCF4F
:102C100080918100887F892B809381003093890087
:102C200020938800109285001092840080916F009C
:102C3000826080936F00D9CF80919100887F892B2B
:102C40008093910030939900209398001092950002
:102C500010929400D0937B01C0937A0181E080931D
:102C6000790180917100826080937100BECFE82F5E
:102C7000F0E0E65EFE4F8081813019F08330A9F0EC
:102C8000089580917C0181110FC080916F008D7F2C
:102C900080936F0080916B01E0916901F0916A016E
:102CA0009081809589238083089510927901809185
:102CB00078018111F9CF80917601E0917401F09152
:102CC0007501EECFCF93DF93D1E0E0918A05F091CB
:102CD0008B05AF014F5F5F4F50938B0540938A0583
:102CE0002491822F807FC22FCF70803821F48C2FC7
:102CF0000E943716EACF803919F5E0916701F0910B
:102D0000680109958D2780937701E0918A05F091FC
:102D10008B05CF01019690938B0580938A05649172
:102D200080916601C81788F6C13021F48091650151
:102D30008111CBCF67FDC9CF8C2F0E94BA15C5CFAB
:102D400087FD3CC03296F0938B05E0938A05FA012B
:102D50004491A0917A01B0917B01322F242F0E94DF
:102D600049376C507E4F8F4F9F4F28EE33E040E045
:102D700050E00E94273720937001309371014093F7
:102D80007201509373018091700190917101A09133
:102D90007201B0917301892B8A2B8B2B61F481E036
:102DA00090E0A0E0B0E08093700190937101A09357
:102DB0007201B0937301DF91CF910895803E49F481
:102DC00080918C0590918D0590938B0580938A0559
:102DD0007CCF803F09F079CF10928905ECCF90939A
:102DE0008D0580938C0590938B0580938A050E94B6
:102DF000621681E080938905089590916601923072
:102E000009F471C0292F30E0F901E65EFE4F4081E0
:102E10002D593E4FF9018083913031F420916301A7
:102E2000281302C0909365019F5F9093660190E024
:102E3000FC01E858F64E2491875A964EFC01849185
:102E400030E0220F331FF901E55BF64E6591749176
:102E5000F901E35CF64EA591B4919C91982B9C935B
:102E6000413019F04330D9F0089590916400977F74
:102E700090936400109280001092810090918100E4
:102E8000986090938100909181009160909381006F
:102E900070936A016093690180936B01089590912A
:102EA0006500977F909365001092900010929100BA
:102EB0009091910098609093910090919100916011
:102EC00090939100709375016093740180937601E3
:102ED00080916601882321F06CE380E00E94BA159E
:102EE00080E00C9437160895FC01138A1182108239
:102EF000158A8FEF9FEF9187808793878287168649
:102F0000178616820895FC018685811107C0878582
:102F1000811104C0828D833008F0128E828D089555
:102F2000DC01ED91FC91309711F08491089580E0DF
:102F30000895CF93DF93EC010E949017882339F016
:102F4000EA81FB8131968491DF91CF9108958CE0E5
:102F5000FBCFCF93DF93EC010E949017882331F0D1
:102F6000EA81FB818491DF91CF9108958CE0FBCFC2
:102F7000BF92CF92DF92EF92FF920F931F93CF9366
:102F8000DF9300D000D000D0CDB7DEB78C010E9417
:102F90009017F801C084D184E284F384882379F007
:102FA0008D3079F1C8010E94A917B82EC8010E947E
:102FB0009917DA82C982FC82EB82BD8209C0C801FE
:102FC0000E949917DA82C982FC82EB8299E09D8384
:102FD0008E8329813A814B815C816D817E8180E085
:102FE00090E026960FB6F894DEBF0FBECDBFDF91FE
:102FF000CF911F910F91FF90EF90DF90CF90BF90F6
:103000000895F2E0CF0ED11C82E0E80EF11CC80159
:103010000E94A917B82EC8010E949917DA82C982A6
:10302000FC82EB829CEF9B0D9D838450D1CFCF938C
:10303000DF93FC01C085D1850E94A9178C0F9D2FBD
:10304000911D0197DF91CF9108950F931F93FC017C
:1030500080819181A281B3818C019D014DE0000F9F
:10306000111F221F331F4A95D1F7082719272A2736
:103070003B27D901C80151E1B695A795979587954A
:103080005A95D1F7082719272A273B27C901B801E4
:10309000A5E0660F771F881F991FAA95D1F76027B3
:1030A00071278227932760837183828393831F9183
:1030B0000F910895FC01E65BFF4F8F529F4FE81779
:1030C000F90771F0208131812617370739F4228101
:1030D00033812417350711F4848108953996EFCF91
:1030E00080E00895FF920F931F93CF93DF93F82E04
:1030F0008B01EA014F3F540731F080EE93E00E94CC
:103100005A18811119C02091B104E9E02E9FC00125
:10311000112480529C4FFC01E65BFF4F118300831A
:103120003296D183C083825B9F4FFC01F0822F5F78
:103130002F3041F02093B104DF91CF911F910F9177
:10314000FF9008951092B104F7CF9C01CB016CE081
:1031500070E00E947837FC018D3020F5413110F588
:10316000CB0163E070E00E947837BC015CE0569FC1
:10317000C001579F900D11248E0F9F1F0196880F3D
:10318000991F820F931F21E030E002C0220F331FEE
:103190004A95E2F7FC01808191812823392381E05F
:1031A000232B09F480E00895EF92FF920F931F9371
:1031B000CF93DF93FC01CB01EA012CE030E0B901B1
:1031C0000E9478377B01CE01B9010E9478378B01CC
:1031D000C689D789C45BDD4FAB01B701CE010E9420
:1031E000A51881110FC017FD0BC0A801B701CE01B2
:1031F0000E945A18813020F08C3028F08D3019F060
:1032000080E001C08FEFDF91CF911F910F91FF9070
:10321000EF9008957F928F929F92AF92BF92CF923C
:10322000DF92EF92FF920F931F93CF93DF93EC0106
:10323000862E0E9490178823A9F1CE010E94A9171B
:10324000D12CC12C912C9CE0792EE82EF12CCE01B2
:103250000E94A917672D0E945837981608F054C08D
:10326000AA84BB8481E0881679F181E0A81AB108AC
:10327000088519850C0D1D1DA501B801CE010E9400
:10328000D418882389F081E0DF91CF911F910F91AD
:10329000FF90EF90DF90CF90BF90AF909F908F9076
:1032A0007F90089589E0CCCFB701600F711F615006
:1032B0007109A501CE010E94D4188111E4CF939425
:1032C0008CE0C80ED11CC3CFCE010E949917A50176
:1032D000480F511D688579856C0D7D1DCE010E94BA
:1032E000D4188111D0CF0A851B85CE010E94991771
:1032F000A801480F511D688579856C0D7D1D6E0DE7
:103300007F1D61507109D6CF80E0BECFCF93DF9390
:10331000EC0161E00E940A19882319F09BEF9F8756
:103320001A8ADF91CF91089561E00E940A1991E015
:1033300089270895E091B604F091B704258196811C
:1033400090959223322F30748091B70125FD50C0A3
:1033500031115AC018161CF481508093B701809126
:10336000B70187FF03C08F5F8093B70192FF14C03E
:1033700089EA91E00E949419811152C089EA91E092
:103380000E948619882309F44BC081E08093BD0117
:103390008FEF92E20C94EF168091BD01882359F0D3
:1033A0000E94A31582FF07C089EA91E00E94941948
:1033B000811104C008951092BD0108958091BB0150
:1033C000863058F48F5F8093BB0180FD29C08091C7
:1033D000B80182508093B80108958C3008F58F5F52
:1033E0008093BB0180FD1CC08091B8018150F2CF59
:1033F00022E02093BE0181508D3F0CF48DEF80932D
:10340000B701332309F4B2CF23E02093BE018091AA
:10341000B7018F5F84300CF4A7CF2093B701A6CFFC
:103420000895CF92DF92EF920F93CF93DF93EC0149
:103430000E949017833009F498C0C8F4882359F18A
:10344000813009F492C0EE89FF892C813D814A8147
:103450005B816A857B8585859685681B790B888568
:1034600099850384F485E02DE12C00E09AC08D302D
:1034700009F481C08E3009F497C0853021F78E8120
:10348000853108F782FFDFCFDF91CF910F91EF9069
:10349000DF90CF900895CE010E9494199D8901E09C
:1034A0008823E1F0933009F000E0EE89FF896A8516
:1034B0007B856150710985859685681B790B8885A8
:1034C000998523853485821B930BE02E2BEC38E104
:1034D00043E059E102970E947815D6CF933009F066
:1034E00000E08E8581112CC08F85811129C0CE010D
:1034F0000E948317E82FF0E0EE0FFF1FEB53F74E0B
:10350000C590D490CE010E948317E82FF0E0EE0F13
:10351000FF1FE154F74E45915491EE89FF896A856A
:103520007B856150710985859685681B790B888537
:10353000998523853485821B930BE02E9601CACF93
:10354000CE010E948317E82FF0E0EE0FFF1FE95431
:10355000F74EC590D490CE010E948317E82FF0E07B
:10356000EE0FFF1FE155F74ED6CF01E08D89833076
:1035700031F000E004C001E08F851816D4F7EE8921
:10358000FF892C813D814A815B816A857B858585A8
:103590009685681B790B888599850384F485E02DD1
:1035A000E02E8E1B9F0B97CF8E81853110F482FD0C
:1035B0006BCFEE89FF89A88DB98D13962D913C9123
:1035C0002F703327269526956A857B858585968578
:1035D000681B790B888599850384F485E02D4DE47B
:1035E00058E18E1B9F0B0E944815EE89FF89A88D1C
:1035F000B98D13962D913C912F70332726952695E2
:103600006A857B8585859685681B790B8885998574
:103610000384F485E02D4BEE57E18E1B9F0BDF9169
:10362000CF910F91EF90DF90CF900C9458152F927F
:103630003F924F925F926F927F928F929F92AF9242
:10364000BF92CF92DF92EF92FF920F931F93CF938F
:10365000DF93CDB7DEB72D970FB6F894DEBF0FBE60
:10366000CDBF80919F019091A00197FD0396959504
:1036700087959595879560E470E00E9478379C0166
:103680008091A1019091A20140919D0140FF97C0BE
:103690006CE070E00E94783700271127021B130BA3
:1036A00080EC90E07C01E21AF30A6B0126E0C21A7A
:1036B000D10820E049EC51E2B601C8010E9468152A
:1036C000005C1F4FE016F106A1F780919F019091D9
:1036D000A0016CE070E00E9478371B01ECE02E1A2C
:1036E00031088CE0869F9001879F300D11243F8325
:1036F0002E8380919F019091A0016CE070E00E9468
:103700007837605F7F4F621573050CF477C1809145
:10371000A1019091A2016CE070E00E9478378B01CA
:10372000AE80BF8030E9A31AB1086CE0609F300121
:10373000619F700C1124D12CC12CE090A101F0905C
:10374000A20180909F019090A001C7016CE070E001
:103750000E947837685F7F4F601771070CF446C18D
:10376000A801B10180EE93E00E94A518D80111963E
:10377000B987A887882309F477C023014C0C5D1C06
:103780004E185F08F501E819F9094F01A031B1059C
:1037900049F0AD01B10180EE93E00E94A5188823A5
:1037A00009F457C080919D01E12C01E080FD02C029
:1037B000E12C00E02DEE30E245E051E250C066E041
:1037C00070E00E9478375B0180E1A81AB10807E039
:1037D00010E0021B130B87EC90E03C01621A730AA5
:1037E0004B019CE1891A91086B01A5E0CA1AD10826
:1037F0007B01B9E0EB1AF10820E041EC51E2B401A1
:10380000C8010E94681520E041EC51E2B501C801F1
:103810000E94681520E04BE951E2B601C801839689
:103820000E946815E091B604F091B70423813481B9
:103830002F7033272695269549E651E2B701C80136
:1038400043960E946815005C1F4F60167106A1F632
:103850003CCFE12C00E027E331E24FE451E2B2013A
:10386000C4010E94781557C017FD55C0A801B101C9
:1038700080EE93E00E945A18EAEFE80FEB3008F070
:103880004AC0F0E0EA5BF34E0C948C37511C511C9B
:10389000511C511C691C7B1C911C8B1CA51CDA1C27
:1038A000E81C90E0880F991FFC01E752FF4D25911D
:1038B0003491FC01EB53FF4D45915491B3016C0DD4
:1038C0007D1D6E197F09E12C00E0C5018819990959
:1038D000C8CFB3016C0D7D1D6E197F096851710948
:1038E000C50188199909E12C00E02FEB3FE141E483
:1038F00050E28497B6CFB3016C0D7D1D6E197F0920
:1039000064507109C5018819990920E043EA5FE113
:103910000D970E946815BCE0CB0ED11C0885198557
:103920000CCF00919D010170B3016C0D7D1D6E19CE
:103930007F0964507109C50188199909E12C21E4B6
:103940003FE141E65FE104978CCFE091B604F0914E
:10395000B704238134812F70332726952695830160
:103960000C0D1D1DB8016E197F094FED5EE1C501FB
:10397000881999090E944815E091B604F091B7049E
:10398000238134812F703327269526958091A101BC
:103990009091A201B801681B790B80919F019091D1
:1039A000A0014DE75EE1D501A81BB90BCD010E9436
:1039B0005815B1CFB3016C0D7D1D6E197F09635091
:1039C0007109E12C00E02BE23EE143E55EE17DCFB1
:1039D000B3016C0D7D1D6E197F0962507109E12CD8
:1039E00000E029EC3DE149EF5DE16FCFEFEF2E1AEA
:1039F0003E0A2E813F81245F3F4F79CE8091940112
:103A0000813040F0853058F0863021F48091950166
:103A10008C3048F489EA91E00E94111A04C0809128
:103A2000950180FFF7CF80919401863009F036C070
:103A300080919501ECE1F0E0E81BF109F7FD339688
:103A4000F595E795F595E795CF01880F991FFC014E
:103A5000E554F24E25913491FC01E355F24E459127
:103A6000549100919D0101706091B3017091B40176
:103A70008091A1019091A201681B790B645071099A
:103A80008091B1019091B201E0919F01F091A0016C
:103A90008E1B9F0BE12C02970E947815B4ECCB2E65
:103AA000B1E0DB2E15E1812E912C03E0A02EB12C8C
:103AB000D60117968C911797811104C053968C915B
:103AC0008131B8F0C6010E94171820919F013091F2
:103AD000A001821B930B181619065CF4F601808571
:103AE0009185821B930B803891051CF4C6010E94BE
:103AF000111AD60153968C91882381F1F401E81BA9
:103B0000F109CF01B5010E947837660F771FFB01DD
:103B1000E554F24E25913491FB01E355F24E459167
:103B2000549100919D010170D6011A966D917C917E
:103B30001B978091A1019091A201681B790B6250A3
:103B4000710918968D919C91E0919F01F091A001CF
:103B50008E1B9F0BE12C02970E947815BBE1CB0EC8
:103B6000D11CE0EECE16E3E0DE0609F0A1CF809195
:103B70009F019091A0016CE070E00E9478375B019A
:103B80008CE0869F3001879F700C1124FCE08F2E03
:103B9000912C80919F019091A001B4010E947837EF
:103BA000605F7F4F6A157B050CF468C08091A101AE
:103BB0009091A201B4010E9478376B01FCE0F69F5E
:103BC0001001F79F300C1124512C412C0091A101C0
:103BD0001091A201C801B4010E947837685F7F4F3D
:103BE0006C157D050CF443C0A601B50180EE93E091
:103BF0000E94A518811110C0D7FC0EC0E0909F0153
:103C0000F090A001A601B50180EE93E00E945A1841
:103C10008A3049F08B30D9F02FEFC21AD20A3CE03B
:103C2000430E511CD3CFB101640D751D601B710B88
:103C300068517109C3018E199F09E12C00E023E945
:103C40003CE14FE15DE10A970E947815E5CFB101B3
:103C5000640D751D601B710B6450710920E04BE809
:103C60005CE1C3018E199F090E946815D5CF6FEFE3
:103C7000A61AB60A7CE0670E711C8BCF8091B10149
:103C80009091B201B4010E94783780919B0190918C
:103C90009C01FE01319625E0DF011D922A95E9F78E
:103CA000860F971F97FF02C090E080E08E010A5FA9
:103CB0001F4F2AE030E0B9010E9464378193CB01A5
:103CC0000E171F07C1F780919D01EEE8F5E080FF18
:103CD000F5C083EC95E02FEF21938E179F07E1F756
:103CE00021E080919A01811120E04BE75CE161E0E5
:103CF00070E081E090E00E94581521E080919A01E7
:103D0000823008F020E04BE75CE161E070E089E0A0
:103D100090E00E94581521E080919A01833008F0CC
:103D200020E04BE75CE161E070E081E190E00E941F
:103D3000581578010BE110E0F70122917F0141E570
:103D40005CE161E070E0C8010E9458150B5F1F4FF5
:103D50000433110589F78091BF04882361F0E12CB9
:103D600000E027E63AE14BE55BE16FE070E080E2DE
:103D700090E00E94781541ECC42E44E0D42E59E81E
:103D8000652E55E0752E60E8A62EB12C70E4872EC6
:103D9000912CD60119964C91442E512CB42F2EE122
:103DA00030E0A0E00E949237072F182F292F3327E9
:103DB00027FD3A95F60186819781801B910B9783A9
:103DC0008683A481B58125EF30E00E949237E72EEB
:103DD000F82E092F112707FD1A95F582E482C501F7
:103DE0008419950920813181821793073CF49183CE
:103DF0008083F194E194F108F582E482D6018D91FB
:103E00009C91119797FF0EC011961C921E921496CA
:103E10008D919C91159791958195910915969C93FB
:103E20008E931497F601828193818134910524F059
:103E30009382828217821682D60112968D919C916E
:103E4000139797FF04C017961C921E921697F601BF
:103E500025812A87220F220B2B87208131816A85B9
:103E60007B85260F371F3183208327812C87220FE4
:103E7000220B2D87AC85BD858A1B9B0B9383828388
:103E80008085882311F081508087F6018085882302
:103E900009F464C0423009F455C0433009F47EC0CF
:103EA000413009F05BC062817381E12C00E02FE9B1
:103EB00032E242EA52E2808191814EC083EC95E089
:103EC00011928E179F07E1F721E080919A018111ED
:103ED00020E04BE75CE161E070E081E090E00E946F
:103EE000481521E080919A01823008F020E04BE7EC
:103EF0005CE161E070E089E090E00E94481521E01B
:103F000080919A01833008F020E04BE75CE161E0AA
:103F100070E081E190E00E944815EBE1EE2EF12C7B
:103F2000D8012E918D0141E55CE161E070E0C701AF
:103F30000E944815B5E0EB0EF11CE4E3EE16F10427
:103F400079F709CF62817381E12C00E025E932E243
:103F500049E952E2808191810E947815FAE0CF0E02
:103F6000D11C6C147D0409F014CF2D960FB6F89473
:103F7000DEBF0FBECDBFDF91CF911F910F91FF909C
:103F8000EF90DF90CF90BF90AF909F908F907F90F9
:103F90006F905F904F903F902F9008956281738152
:103FA000E12C00E02BE832E24FE852E284CF9F920E
:103FB000AF92BF92CF92DF92EF92FF920F931F9337
:103FC000CF93DF93EC01C62E0CE010E0D12C8CE0F7
:103FD000982ECE010E949917692D0E945837D81645
:103FE00008F05CC022E0C21639F083E0C81679F10F
:103FF000D394045F1F4FEDCFEA84FB84A884B98477
:1040000021E0A21AB108A8014C5051094E0D5F1DC4
:10401000B501CE010E94D418882369F081E0DF91B8
:10402000CF911F910F91FF90EF90DF90CF90BF90B5
:10403000AF909F900895A8014E0D5F1D415051090A
:10404000B501CE010E94D418882391F2E7CF8A856A
:104050009B8578012CE0E21AF108E80EF91EA8848D
:10406000B984CE010E94A917B501680F711DA7017F
:10407000CE010E94D4188111D1CFEA84FB84E00ED6
:10408000F11E81E0E81AF108A884B984CE010E94EB
:10409000A917B501680F711DA701D3CF80E0BFCF6D
:1040A000FF920F931F93CF93DF93EC014A855B85BB
:1040B000688579850E94D4188F3F21F41F82CE0134
:1040C0000E947417CE010E949017813009F49AC0A3
:1040D00080F0853011F08E3049F58E81882331F1E2
:1040E00081508E83811122C01F82CE010E947417DD
:1040F0001DC08E8581111AC08F85811117C0EE8970
:10410000FF89EE5DFC4F0190F081E02D8381948169
:1041100066E070E00E946437892B41F48A8D90E05C
:10412000019663E070E00E9478378A8FCE010E948A
:10413000901781111DC08E8581111AC08F85811144
:1041400017C0EE89FF89EE5DFC4F0190F081E02DF4
:104150008381948166E070E00E946437892B41F48A
:104160008A8D90E0019663E070E00E9478378A8F34
:10417000CE010E949017853009F43EC09F858D3096
:1041800009F066C0892F9F37A9F48E899F898A5DBF
:104190009C4F0E94251828E230E040E050E00E9449
:1041A0002737672B682B692B11F48CEE8F878F854F
:1041B0008F37B9F02A853B85982F87FF02C093E09F
:1041C000980F95959595A901490F511D97FD5A9501
:1041D00020523109688979895B874A87621773079A
:1041E000A4F58C859D852A853B858217930724F449
:1041F0002FE72F879B878A87DF91CF911F910F91A0
:10420000FF9008958F85811191CFCE010E9494195E
:1042100081118CCF8E899F898A5D9C4F0E942518C1
:1042200024E130E040E050E00E942737672B682B04
:10423000692B09F07BCF8E899F898A5D9C4F0E94F4
:104240002518677061956F8771CF8F5F8F87C9CF92
:10425000E881F9813097B1F03196E491E0FF14C024
:104260008E8528853985280F311D87FD3A95398738
:1042700028872A853B85290F311D97FD3A953B8775
:104280002A87BACFE0E0EACF91110AC0CE010E949E
:104290009419882329F08F85863014F48F5F8F87D7
:1042A0008F8518160CF510E000E08F85082E000CA5
:1042B000990B0817190774F4CE010E9494198823EA
:1042C00041F08A859B8501969B878A870F5F1F4FE8
:1042D000ECCF1F86CE010E949419882329F08F8588
:1042E000863014F48F5F8F878F8587FF13C08F5FB1
:1042F0008F8710E000E08F85082E000C990B801747
:10430000910744F460E0CE010E940A19882309F461
:104310004EC01F868E8518162CF510E000E090E93F
:10432000F92E8E85082E000C990B08171907D4F466
:10433000CE010E941718EE89FF89E15EFC4F2081B3
:1043400030E02F5F3F4FF29EA001F39E500D1124ED
:10435000841795073CF463E0CE010E94D71F8823A1
:1043600071F11E868E8587FF47CF10E000E080E95F
:10437000F82E8E85082E000C990B801791070CF0F3
:104380003BCFEE89FF89E25EFC4F80818F9DC001AB
:10439000112428853985821793070CF02DCF62E010
:1043A000CE010E94D71F882301F11E8625CF8A8562
:1043B0009B8501979B878A87015011099CCF88852F
:1043C00099850196998788878F8581110BC0CE01C9
:1043D0000E949419811106C08A8D90E00196837025
:1043E00099278A8F0F5F1F4F9CCF888599850197EA
:1043F000998788878F8581110BC0CE010E949419FF
:10440000811106C08A8D90E00196837099278A8F6A
:1044100001501109AECFCF93DF93DC01ED91FC91F8
:10442000119756960D90BC91A02D19968D919C9147
:104430008430910520F0079738F4349601C0339604
:104440008491DF91CF9108953596FACFEF92FF9244
:104450000F931F93CF93DF93EC010E940B2282FFF7
:1044600067C08E899F89FC01E58CF68C45960E9479
:10447000A917088519858E0D9F2D911D801791070D
:1044800044F482E08D8BE881F9813296E491E195E4
:10449000EE87EE89FF89E58CF68CCE010E94A91784
:1044A000800F912F911D8E159F053CF483E08D8B1D
:1044B000E881F9813296E491EE87CE010E940B22C9
:1044C00083FF2DC06D89CE010E94D71F882319F06C
:1044D000CE010E9486198D89823071F468857985B4
:1044E000615071094FEB50E0CE010E94D418811148
:1044F00003C0CE010E9486198D89833081F4CE01DC
:104500000E941718BC016F5F7F4F4FEB50E0CE0148
:104510000E94D418811103C0CE010E948619CE01D9
:10452000DF91CF911F910F91FF90EF900C9450204D
:10453000CE010E940B2280FF0CC08D89823061F574
:1045400062E0CE010E94D71F882301F183E08D8BAA
:104550001E86CE010E940B2281FFE1CF8D89823021
:1045600091F50A851B85CE010E949917A801480F75
:10457000511D6885798561507109CE010E94D4185A
:1045800081111BC083E08D8B1E86C9CFE881F98124
:104590003296E491E195EE878D898330D1F663E020
:1045A000CE010E94D71F882311F082E0D0CFE8818E
:1045B000F9813296E491EE87CCCFE881F981329689
:1045C000E491E195EE878D89833009F0A8CF0A85C3
:1045D0001B85CE010E949917080F111DCE010E9464
:1045E0001718BC016F5F7F4FA801CE010E94D4183D
:1045F000811102C082E0C7CFE881F9813296E4914F
:10460000EE878DCFEF92FF920F931F93CF93DF939F
:10461000EC01F90181E08F833CE03E9DC0013F9DAC
:10462000900D1124798368835B834A83FD83EC8337
:10463000309FA001319F500D1124598748879B87D7
:104640008A879D878C871E861F8683E08D8B1E82BE
:104650001B8ACE010E949017853009F441C050F4A6
:10466000843071F18A859B8501979B878A871E8696
:104670001F862AC08D3089F18E30A1F788859985F3
:104680000696998788878A859B8504979B878A8762
:104690008E899F898A5D9C4F0E94251825E030E015
:1046A00040E050E00E94273762506E878E899F89D4
:1046B0008A5D9C4F0E942518637061956F871CC0AE
:1046C0008CEF8E8782E08F87CE01DF91CF911F9193
:1046D0000F91FF90EF900C9426221E868FE7F3CF68
:1046E000888599850696998788878A859B8504970A
:1046F0009B878A871E861F868E899F898A5D9C4F2D
:104700000E9425182CE030E040E050E00E9427375E
:10471000862F880F880F680F645C6E83D5CF4F9209
:104720005F926F927F928F929F92AF92BF92CF9241
:10473000DF92EF92FF920F931F93CF93DF93CDB74A
:10474000DEB7A8970FB6F894DEBF0FBECDBF5C01F1
:104750006C2C2C01CE0101964C01F0E0E0E07E2EA5
:10476000D201D7968C91811133C0F12C8BE18E9FB1
:1047700060018F9FD00C1124C601C0968A0D9B1D2D
:104780000E940223BFEF6B1659F0AC0CBD1CF50163
:10479000E05CFF4F8CE0689E60011124D182C082F2
:1047A000872DA8960FB6F894DEBF0FBECDBFDF9160
:1047B000CF911F910F91FF90EF90DF90CF90BF901E
:1047C000AF909F908F907F906F905F904F900895E3
:1047D000D5015D968D919C91D201D896CD90DC90BB
:1047E0008C199D0997FD3CC0D4018D939C93319603
:1047F000BBE14B0E511C82E0880E911CE431F105A7
:1048000009F0ADCF9981FE01339681E0712CA19121
:10481000B1919A171B0614F49A2F782E8F5F84316A
:10482000B1F7872C912CF12C8BE1D82EC5017D9C02
:10483000800D911D1124C0960E9402239FEF6916DE
:1048400009F4AECFD89CF001D99CF00D1124EA0DEB
:10485000FB1DE05CFF4FACE06A9E600111249ECF1F
:10486000919581959109C0CF2F923F924F925F927F
:104870006F927F928F929F92AF92BF92CF92DF9270
:10488000EF92FF920F931F93CF93DF9300D000D04E
:1048900000D0CDB7DEB7D82EE091E003F091E10370
:1048A00061857285482F50E09F012A5D3C4F3E8311
:1048B0002D839B01240F351F23703327E20FF31F35
:1048C0002281269FC001279F900D1124840F951FE0
:1048D000B0E0A0E0ED81FE8180839183A283B38369
:1048E0008D2D63E00E945837F8E19F9FC00111248D
:1048F0009C012C563E4F3B832A8390E080E0FC01D4
:10490000EE0FFF1FE25BFD4F2A813B81E20FF31F99
:104910001182108201968C30910589F78D819E81DC
:104920000E94251823E030E040E050E00E94273745
:10493000635F6D833CE0D39E40011124D11009C018
:10494000862F8150990BAC0161E070E08CE00E94F1
:104950007218212C312C1982512C1C82412CFF24DD
:10496000FA94B12CA12C9FEFF91232C0411056C01D
:10497000EC81E11135C2C5010397069708F051C0DB
:104980008091B304D81608F04CC08091E003909158
:10499000E1038A5D9C4F0E94251827E030E040E04B
:1049A00050E00E942737672B682B692BD1F5809147
:1049B000E0039091E1038A5D9C4F0E94251825E059
:1049C00030E040E050E00E942737362E2D80F12C59
:1049D00094E0399EF0011124EA5DFE4FEF0DF11DC8
:1049E00080818823D9F0F22DF81B8F2FF131B0F49C
:1049F000F501EE0FFF1FE25BFD4F2A813B81E20FC5
:104A0000F31F21E030E002C0220F331F8A95E2F746
:104A100080819181822B932B918380833C81311102
:104A2000DFC1ED818E2F90E0F501EE0FFF1FE25BFD
:104A3000FD4F2A813B81E20FF31F2081318141E04C
:104A400050E0082E02C0440F551F0A94E2F7242BB1
:104A5000352B01968031910591F731832083DD203C
:104A600009F4F3C18091B304D81608F0EEC13FEF0A
:104A7000F312D0C08091E0039091E1038A5D9C4FD6
:104A80000E9425182AE030E040E050E00E942737DD
:104A90002091E0033091E103672B682B692B09F02B
:104AA000A4C0C9018A5D9C4F0E94251823E030E014
:104AB00040E050E00E9427376E5F6C83512C6430D9
:104AC00009F4ACC08091B504881519040CF000C13C
:104AD0007D807A947A948FEF8F0D823080F524E078
:104AE000329EF0011124EA5DFE4FEF0DF11D808131
:104AF00077247A94720C781A8091E0039091E10304
:104B00008A5D9C4F0E94251825E030E040E050E08F
:104B10000E9427378091E0039091E103613009F012
:104B200087C0CC24CA94E72C84010A0D1B1D2FECEE
:104B300034E24FEF54E261E375E20E948F238091EB
:104B4000E0039091E1038A5D9C4F0E94251823E0C9
:104B500030E040E050E00E942737672B682B692B3C
:104B600009F0B6C08091E0039091E103FC0121853A
:104B7000328518E22430310528F01EE12730310556
:104B800008F413E28A5D9C4F0E942518212F30E023
:104B900050E040E00E9427376E3171058105910594
:104BA00008F096C069527A4DFB010C948C372E2682
:104BB0002E262E262E262E262E262E262E262E2655
:104BC0002E264126412641264126412641264E26B3
:104BD0004E264E265E265E265E265E265E265E26D5
:104BE0005E2672267226DE26DE26C9018A5D9C4F6D
:104BF0000E94251825E030E040E050E00E94273771
:104C0000672B682B692B41F48D818F3061F08F5FAA
:104C10008D83512C1C8256CF5394FCCF91E0998305
:104C2000E4E0EC834FCF512C1C82FEE0FD834ACFA1
:104C30008A5D9C4F0E9425186370772788279927E3
:104C4000672B682B692B09F07ACF472D50E0B40110
:104C50006A0D7B1D8EE00E94721871CFCC24CA941D
:104C6000E72C84010A0D1B1D2FEC34E24FEF54E2B8
:104C700061E375E28091E0039091E1030E948F234C
:104C800027C0CC24CA94E72C84010A0D1B1D27E6FB
:104C900034E247E954E269EC74E2ECCFF6E0FD154A
:104CA000B8F4CC24CA94E72C84010A0D1B1D2FE212
:104CB00034E247E454E261E674E2DCCF2D81215016
:104CC000330BA901B4016A0D7B1D8EE00E9472189E
:104CD0009FEFF916B1F1F394E4E0FE1232C0FF2425
:104CE000FA942FC031E0351598F78FEFF812F3CF13
:104CF0008091E0039091E103FC01218532852150F0
:104D0000310915E02A30310520F4245E3E4FF901C7
:104D100010818A5D9C4F0E942518212F30E050E0C1
:104D200040E00E942737672B682B692B51F42D81B7
:104D30002150330BA901B4016A0D7B1D8FE00E9445
:104D40007218FFEFAF1ABF0A2CE0A216B10409F0E7
:104D50000ACE8091B304D81211C08D818150990B75
:104D6000AC01B401675F7F4FE091E003F091E10394
:104D7000818580FF6CC08AE00E9472188091B50422
:104D80008815190414F48092B50426960FB6F89489
:104D9000DEBF0FBECDBFDF91CF911F910F91FF906E
:104DA000EF90DF90CF90BF90AF909F908F907F90CB
:104DB0006F905F904F903F902F90089538E03D1591
:104DC00008F086CFCC24CA9492E0E92E84010A0D23
:104DD0001B1D27EE33E247E054E269E274E24ACF5A
:104DE0008C8181508C83412C811102C049801982B1
:104DF0008091E0039091E1038A5D9C4F0E94251809
:104E000025E030E040E050E00E942737672B682B18
:104E1000692B09F05DCF6090E0037090E103C3015E
:104E20008A5D9C4F0E9425186370CD80C394C61A7A
:104E300080E1E82E84010A0D1B1D2FE733E24FEAC3
:104E400053E261EE73E2C30119CF1C8241CF8BE0C4
:104E500093CF2091B30430E02F5F3F4F90E9929FB2
:104E6000A001939F500D1124415851092091B40481
:104E700030E02F5F3F4F80EC829FB001839F700D29
:104E80001124615471098091B204E82FF0E0899FE8
:104E9000C00111242091B1013091B2012054310997
:104EA0003093A00120939F01A091B301B091B40170
:104EB00019976A177B076CF1B093A201A093A10127
:104EC0004217530724F45093A00140939F0120916F
:104ED0009F013091A0012817390724F49093A00175
:104EE00080939F01A091E003B091E1035D968D91C5
:104EF0009C9160E970E00E947837CB01019797FDA3
:104F00000DC0E817F90754F48093B2048E5F0C9437
:104F100034247093A2016093A101D2CF0895FF922F
:104F20000F931F93CF93DF938DE693E20E94EF16CA
:104F30001092B1041092B2041092B504EAE2F4E0C7
:104F400021EB34E08FEF9FEF918380839383828303
:104F500039962E173F07C1F700E310E0D0E0C0E01C
:104F60008BE1F82E8091E0039091E103FC9EF0012B
:104F7000FD9EF00D1124E80FF91F17AA800F911F55
:104F80000E9474172196055E1F4FC431D10551F759
:104F9000E091E003F091E10321853285CF018A5D44
:104FA0009C4FA90143705527E40FF51F6281629F52
:104FB000A001639F500D112470E060E0FC0140836C
:104FC0005183628373830E942518E091E003F0917E
:104FD000E1032185328550E040E00E942737645F7D
:104FE0006093B30480E00E94342481E00E94342462
:104FF00082E00E94342480919D0180FD38C088E5C4
:1050000090E027E633E23093AA012093A90125E33B
:1050100033E23093AC012093AB0125E033E23093CF
:10502000AE012093AD0128E130E03093B20120932E
:10503000B1019093B4018093B3019093B601809332
:10504000B5011092B7011092B80183E08093BE01C0
:105050001092AF011092BC0189EA91E00E9494196C
:10506000882339F089EA91E00E945020F5CF80E052
:10507000C7CF0E94292786E0809394018CE180931A
:105080009501DF91CF911F910F91FF900895CF93DC
:10509000DF9320E04AE355E16CE070E084E090E0CB
:1050A0000E94681520E04AE355E16CE070E089E673
:1050B00090E00E94681520E04AE355E16BE170E062
:1050C00086EF9FEF0E94681520E04AE355E16BE10F
:1050D00070E087E790E00E94681520E04AE355E120
:1050E00069E270E084E090E00E94681520E04AE305
:1050F00055E169E270E089E690E00E946815C8E831
:10510000D1E02B813C812F7033272695269548E0EE
:1051100055E16BE170E08BE090E00E9468152B8117
:105120003C812F7033272695269548E055E16BE1A9
:1051300070E08FE690E0DF91CF910C946815CF93EB
:1051400080918E01809590918D01892319F082E0E4
:105150008093930120E042E054E161E170E080E25D
:1051600090E00E94681580918B0190918C0160E322
:1051700070E00E946437883170F4C1E18C3008F02F
:10518000CEE120E04BEF53E169E170E08BE590E088
:105190000E94681504C0CFE1843208F0C0E28C2F71
:1051A00090E020E134E341E081FD44E080FD440FE4
:1051B00082FD4295887F289FD0011124A30FA2571A
:1051C000BA4F8C91842B8C93C0FD0AC020E047EF2E
:1051D00053E16CE170E08DE290E0CF910C946815A2
:1051E000CF9108950F931F93CF93DF9320E046E76D
:1051F00053E161E070E081E090E00E94481520E01A
:105200004DE653E166E370E081E090E00E944815CE
:1052100020E044E653E161E070E088E790E00E941E
:10522000481520E04BE553E166E370E088E790E045
:105230000E9448154DE761E070E081E090E00E9437
:10524000D6124DE76DE370E081E090E00E94D61247
:105250004AE76FE370E083E090E00E94D612D0E06E
:10526000C0E010E00AE030914A0120914901822F0C
:1052700090E0D31708F041C0880F991FFC01E25F4E
:10528000FE4F0190F081E02DED0FF11D24912032B1
:1052900049F030F02E3741F41F5FC0E0DF5FE3CF0D
:1052A000C20FFCCFCC5FFACF2A3340F42033F8F49E
:1052B000213209F12E32E9F02FEF09C02134E0F359
:1052C0002B3598F08FE9820F27548A31A8F7109F69
:1052D000B0011124635F7F4F8C2F90E043E850E1D1
:1052E00006960E944815CB5FD9CF2154F0CF2C5F92
:1052F000EECF2FE3ECCF2EE3EACF855F9E4FFC018C
:105300009081391738F480918B0180FF03C03F5F93
:1053100030934A0180918E01809530918D018323D5
:105320008C7089F180914B0130914A01931315C023
:10533000811115C02F5F2093490110924A0180917D
:105340004901833001F5C0E080916601C817B0F4CF
:105350008C2F0E943716CF5FF7CF882319F02F5F6D
:105360002093490181E080934B01E0914901F0E0F5
:10537000E55FFE4F808180934A01E1CF109289055D
:1053800086E080939301DF91CF911F910F91089553
:105390004F925F926F927F928F929F92AF92BF9245
:1053A000CF92DF92EF92FF920F931F93CF93DF93F1
:1053B000CDB7DEB72C970FB6F894DEBF0FBECDBFCA
:1053C0002091B404E091B604F091B7049581F68081
:1053D000F094F92280919401813009F06FC03091EE
:1053E000C00431116BC0F3FE57C09091BF049827E1
:1053F0009093BF049091BF049111A9C130E02F5F39
:105400003F4F90EC929F6001939FD00C112491E04C
:10541000C91AD1081092C004843008F052C08230FA
:1054200008F062C0813009F482C00AE214E07CE036
:10543000E72EAA24AA94BA2C88248394EF2DE8702E
:10544000FE2EFAE07F2EA2E06A2EB5E09B2E84E0CD
:10545000582EF8018081918197FDABC089EA91E0D7
:105460000E94B81729833A834B835C836D837E83C4
:10547000F80180819181E89E9001E99E300D112410
:1054800084818A3038F08C3008F463C094E18F3026
:1054900009F463C09CE061C093FF10C09091BE040A
:1054A0009F5F913218F49093BE04A4CF1092BE0473
:1054B00092E0909393011092BF049CCF1092BE048F
:1054C00099CF8430E9F1863009F0AFCF8091950112
:1054D000882309F4AACF8150809395018111A5CF2B
:1054E00081E080939401A1CF809195012091B30137
:1054F0003091B401813030F0803370F021503109A7
:10550000833360F02091B3013091B401C216D30609
:1055100054F41092950189CF2E5F3F4F3093B40120
:105520002093B301EFCF8150809395017ECF0E94ED
:105530009A1989EA91E00E9450200E94292775CF8C
:105540000E949A1989EA91E00E9450200E9429271E
:10555000BDCF225031099CE06CE049815A81640F33
:10556000752F711D2617370724F5290F311D421796
:105570005307FCF4F80142815381E49E9001E59EBB
:10558000300D11244B815C816E81640F752F711D6C
:105590002617370774F4245F3F4F421753074CF424
:1055A0008E3009F407C108F0E9C08A50823008F44F
:1055B000FCC0075F1F4FF4E0013B1F0709F049CF14
:1055C00089EA91E00E949419F82E882331F0F09036
:1055D000B801F094FF1CFF24FF1C04EC11E0AA2486
:1055E000AA94BA2C92E0892E22E3922E34E0732EF4
:1055F00045E1E42E5DEF652E68EF562EF8018389B4
:10560000882379F08150838B81110BC0178211821E
:105610001082158AB186A086B386A2861686178662
:105620001682F8018781882309F47FC0C8010E948F
:105630009017853019F08D3009F0CEC0C8010E9456
:105640005020809194018250823008F46EC0F8019D
:105650008781882309F469C089EA91E00E94B8171C
:105660002F83388749875A876B877C87C8010E94B8
:10567000B81729833A834B835C836D837E834F8184
:10568000588589819A812B85240F352F311D8217EA
:1056900093070CF04AC0860F911D481759070CF06C
:1056A00044C049855A858B819C812C85240F352FD8
:1056B000311D82179307CCF5870F911D48175907A5
:1056C000A4F5C8010E949017482EF5E08F1709F441
:1056D00098C08EE0481609F4AAC0F8018781882393
:1056E00021F1FF2009F4D9C0FDE04F12BCC0809128
:1056F00094018430D1F080919A01882319F081506F
:1057000080939A0180919A018111A4C080919501A2
:1057100081110BC0809294019092950185EB92E2E9
:105720000E94EF16F8011782E38A055E1F4FF3E02F
:10573000003E1F0709F062CF90919401943008F069
:10574000BEC0923008F009C1913009F4EAC02C962D
:105750000FB6F894DEBF0FBECDBFDF91CF911F9182
:105760000F91FF90EF90DF90CF90BF90AF909F9000
:105770008F907F906F905F904F9008958F3009F0D9
:1057800018CF8092C004FF2009F413CF70929301C8
:105790001093A4010093A3016092A5018093A60138
:1057A0009092A7015092A80104CF90929401109278
:1057B0009501FFCEB182A082B382A28280919B012B
:1057C00090919C01449690939C0180939B018DEE57
:1057D00092E20E94EF16EDCEF80182859385C816FD
:1057E000D90614F41782E38AC8010E942622F80120
:1057F00082859385C816D9060CF023CF1782E38AD9
:1058000020CFF8011782E38A80919B0190919C013F
:105810008C599F4F90939C0180939B0180919A019A
:10582000833008F05ACF8F5F80939A0156CFF801EA
:105830001782C8010E94741780919B0190919C016E
:10584000449690939C0180939B018DEE92E20E947E
:10585000EF1643CF709294019092950185EB92E2FE
:105860000E94EF1662CFF8011782E38A80919B01B4
:1058700090919C01449690939C0180939B0187EAB0
:1058800092E20E94EF160E94A31582FF03C050927D
:10589000B8014BCF6092B80148CF8091950181113A
:1058A00044CF80919A01882319F0815080939A0106
:1058B00080919A018111CECF80929401CDCF953005
:1058C00009F045CF1092950120919D0130919E01E4
:1058D0002F5F3F4F30939E0120939D018091B10136
:1058E0009091B2016CE070E00E94783780919B014A
:1058F00090919C01680F791F6250710970939C010F
:1059000060939B018AE090E09093B2018093B10193
:1059100080E020FF88E590E09093B4018093B3018C
:1059200055C08091B3019091B401C816D90664F4B2
:1059300010929A0182E08093940185EB92E20E949A
:10594000EF168FE28093950180919501882309F4E9
:10595000FECE815080939501FACE80919501811100
:10596000F6CE20919A01222309F448C090919D011E
:1059700090FF88E590E027E633E23093AA01209378
:10598000A90125E333E23093AC012093AB0125E07C
:1059900033E23093AE012093AD0128E130E0309343
:1059A000B2012093B1019093B4018093B30190931D
:1059B000B6018093B5011092B7011092B80183E04F
:1059C0008093BE011092AF011092BC012C960FB6CD
:1059D000F894DEBF0FBECDBFDF91CF911F910F9125
:1059E000FF90EF90DF90CF90BF90AF909F908F90FF
:1059F0007F906F905F904F900C948F27923019F4A6
:105A000083E080939401E091B604F091B70486811D
:105A10008095958189238C7009F499CE8BE08093D1
:105A200093011092940193CE0F931F93CF93DF9322
:105A30008C01EB010E94F2368883C80101960E9416
:105A4000F2368983CE01DF91CF911F910F91089596
:105A5000FF920F931F93CF93DF93EC01F62E0881F3
:105A60001981C8010E94F236F81621F06F2DC80185
:105A70000E94FA36CE01DF91CF911F910F91FF90D6
:105A80000895CF93DF9300D0CDB7DEB79A83898393
:105A9000CE0101960E94282D0F900F90DF91CF919B
:105AA0000895EF920F931F93CF93DF93C0918E01D0
:105AB000C09580918D01C82320E040EC55E164E061
:105AC00070E088E190E00E94681520E048EB55E125
:105AD00070E060E083E290E00E94481520E048EB2F
